:020000040800F2
:10000000789100209D010008A75200087939000866
:10001000A552000895170008217C00080000000088
:10002000000000000000000000000000516B00080C
:100030006D18000800000000C15500086D6B000835
:10004000B7010008B7010008B7010008B7010008B0
:10005000B7010008B7010008B7010008B7010008A0
:10006000B7010008B7010008B7010008B701000890
:10007000B7010008B7010008B7010008B701000880
:10008000B7010008B7010008B7010008B701000870
:10009000B7010008B7010008B7010008B701000860
:1000A000B7010008B7010008B7010008B701000850
:1000B000796C0008156D0008016E0008B701000892
:1000C000B7010008B7010008B7010008B9690008C6
:1000D000B7010008E17B0008B7010008B70100087C
:1000E000B7010008B7010008B7010008B701000810
:1000F000B7010008B7010008B7010008B701000800
:10010000B7010008B7010008B7010008B7010008EF
:100110000578000811780008B7010008B701000849
:1001200099170008B7010008A5170008B1170008C3
:10013000B7010008B7010008B7010008B7010008BF
:10014000B7010008B7010008B7010008B7010008AF
:10015000B7010008B7010008BD170008B701000883
:10016000B7010008B7010008B7010008B70100088F
:10017000B7010008B7010008B7010008000000003F
:10018000B7010008B7010008DFF80CD001F052F900
:1001900000480047F5900008789100200648804705
:1001A00006480047FEE7FEE7FEE7FEE7FEE7FEE75C
:1001B000FEE7FEE7FEE7FEE75D6C00088901000848
:1001C0009FED3A0A5FEA920C53D000BFF0EC010AAF
:1001D0000B1DB0EC011A60EEA00A41EE010AF5EE2B
:1001E000C00AF1EE10FAC6BFB1EEE01A81ED001AB6
:1001F00081ED000AF0EC010A191DB0EC011A60EE65
:10020000A00A41EE010AF5EEC00AF1EE10FAC6BFEF
:10021000B1EEE01A83ED001A83ED000AF0EC010A5A
:100220000B1DB0EC011A60EEA00A41EE010AF5EEDA
:10023000C00AF1EE10FAC6BFB1EEE01A81ED001A65
:1002400081ED000AF0EC010A191DB0EC011A60EE14
:10025000A00A41EE010AF5EEC00AF1EE10FAC6BF9F
:10026000B1EEE01A83ED001A83ED000ABCF1010C37
:10027000ACD112F0030208BF704700BFF0EC010AD6
:100280000B46B0EC011A091D60EEA00A41EE010A0E
:10029000F5EEC00AF1EE10FAC6BFB1EEE01A83ED3A
:1002A000001A83ED000A521EE8D1704700000000DA
:1002B0002DE9F04F8D082DED048B82B00026AC4661
:1002C0003446019506EB0C0909EB0C0A0AEB0C0805
:1002D00000EBC60700EBC90900EBCA0A00EBC8082F
:1002E00097ED003AD9ED003ADAED006A98ED006A30
:1002F00097ED010ADAED014A33EE265A73EE860ACB
:1003000099ED014AD8ED015A30EE241A4FEA440B18
:1003100002EBCB0E70EE644A74EE251A35EE200A1D
:100320009EED002ADEED012A87ED000A31EE210A5A
:1003300073EEC63A34EE656A87ED010A35EE600A5F
:1003400033EE663A71EE610A02EBC40774EEE35ACB
:1003500033EE064A97ED005A73EEA41AD7ED014A20
:1003600033EE461A24EE056A0BEB040725EE855A98
:1003700002EBC70760EE026A65EEA45A24EE244A37
:1003800097ED003AD7ED013A60EEA24A20EE822ABC
:1003900021EE037A20EE220A61EEA30A21EE833ACF
:1003A00061EE231A76EEA42A32EE400A36EE251AC2
:1003B00075EE443AC9ED002A77EE200A89ED010A6C
:1003C00073EE611A8AED001ACAED013AC8ED000A0F
:1003D000761CC8ED011A1C446D1E7FF473AF4FF6F6
:1003E000FF7404EA830B019B0093042B7DD96646BE
:1003F0004FEA9C0C4FF00008C146ACF1010E00BF63
:100400004FEA480303EB080402EBC30302EBC80501
:1004100093ED003AD3ED014A02EBC40395ED005A87
:10042000D5ED015A93ED006A93ED014AD8444B464D
:1004300003EB0C0404EB0C0707EB0C0A00EBC30501
:1004400000EBC70700EBC40400EBCA0AD5ED003A85
:1004500097ED007AD4ED008A9AED008A95ED010AB5
:10046000D4ED010AD7ED017ADAED011A33EEC72A8D
:1004700070EE676A70EEE12A33EE877A78EE883A9A
:1004800030EE270A38EEC81A70EEA11A72EE227A00
:1004900032EE622A77EE232A70EE618A36EEC18A46
:1004A00030EE210A77EE630A31EE261AC5ED002AF6
:1004B00085ED010A28EE050A67EE856A28EE258A91
:1004C00020EE837A20EEA49A68EE831A62EE062A62
:1004D00061EE063A62EE040A67EEA57A68EEA48A37
:1004E00021EE041A36EE882A00E027E077EE286A2B
:1004F00071EEC91A30EE670AC4ED006A32EE811A55
:10050000C4ED011A73EEE00A87ED002A87ED010AB7
:100510008AED001A3344CAED010A8B4288D309F1EF
:100520000109F1457FF66CAF4FF6FF7303EA8B0BC1
:10053000009B9B080093042B3FF659AFDDF8041095
:1005400090ED000AD0ED042A90ED025A90ED031AC6
:10055000D0ED064A90ED073A30EE222AD0ED011A8E
:10056000D0ED050A75EE243A31EE034A30EE620A08
:1005700071EEA02A31EE431A32EE233A71EEE00A10
:1005800075EE641A72EE844A32EE632A72EEC43A51
:1005900080ED003A70EE012AC0ED014A30EEE14AEA
:1005A00080ED022A30EE410AC0ED033A71EEA00A56
:1005B000C0ED042A80ED054A80ED060AC0ED070A69
:1005C0002030491EBCD102B0BDEC048BBDE8F08FD9
:1005D0002DE9F04F4FEA910A2DED048B82B00024F3
:1005E000D446A046CDF804A004EB0C0505EB0C06A0
:1005F00006EB0C0900EBC40700EBC60600EBC505D3
:1006000000EBC909D7ED011AD6ED012A95ED006A74
:10061000D9ED006AD7ED005A96ED007AD5ED010AC2
:1006200099ED011A36EE262A71EEA23A35EE873A96
:1006300071EEE21A30EE815A70EEC12A4FEA480B91
:1006400002EBCB0E73EE020A9EED004ADEED014A8C
:10065000C7ED000A73EE850A36EE666A75EEC75A74
:10066000C7ED010A33EE422A02EBC80731EE861AC3
:1006700033EEC53A71EEC61A97ED006A97ED015A4E
:1006800075EEE20A0BEB080702EBC70775EEA22A2C
:10069000D7ED005AD7ED013A60EE866A22EE047A71
:1006A00062EEA57A23EE044A21EE066A61EEA55AAF
:1006B00060EE850A23EE243A22EE242A21EE051A62
:1006C00061EEA31A62EEA32A76EE203A37EE433AA1
:1006D00074EE020A36EEC11A85ED003A77EEE11AA1
:1006E000C5ED010A35EEA22A86ED001AC6ED013AE3
:1006F000C9ED001A641C89ED012A9844BAF1010A77
:100700007FF472AF4FF6FF7404EA830B019B0093F2
:10071000042B7CD966464FEA9C0C4FF00008C1467A
:10072000ACF1010E4FEA480303EB080402EBC303EC
:1007300002EBC805D3ED003A93ED017A02EBC40356
:10074000D5ED006AD5ED015AD3ED004A93ED013A9B
:10075000D8444B4603EB0C0404EB0C0707EB0C0AE4
:1007600000EBC30500EBC70700EBC40400EBCA0AAB
:1007700095ED012A97ED018A95ED001AD4ED008AD6
:10078000D4ED017A97ED009ADAED001ADAED010A5C
:1007900032EE485A71EE492A38EEE14A32EE082A22
:1007A00037EEA08A37EEE06A78EEA11A31EE091A28
:1007B00075EE048A72EEC67A72EE862A71EE610ACE
:1007C00031EE211A35EE444A32EE489A85ED001A90
:1007D00032EE081A28EEA66A27EEA65A68EEA58A17
:1007E00085ED011A20EEA31A69EE231A22EEA42A3F
:1007F00024EE248A67EEA57A29EE079A60EE870A2E
:1008000024EE034A62EE832A35EE685A00E027E0C0
:1008100036EE276A71EE497A31EEA01A72EE440A7A
:10082000C4ED007A84ED011A78EE221A87ED005AA1
:1008300087ED016ACAED000A3344CAED011A8B4202
:1008400088D309F10109F1457FF66CAF4FF6FF73CC
:1008500003EA8B0B009B9B080093042B3FF65AAFD7
:10086000DDF8041090ED003AD0ED044AD0ED032AF3
:1008700090ED071A90ED024AD0ED061AD0ED013A3C
:10088000D0ED050A33EE242A72EE815A33EE643A33
:1008900034EE215A73EEA04A73EEE03A32EEC11AFA
:1008A00074EE610A32EE454A72EE052A74EEA51A1C
:1008B00034EEE55A73EE414A33EEA02A33EE011AC4
:1008C00033EEE03A62EE805A61EE800A64EE003A5E
:1008D00065EE002AC0ED005A64EE801AC0ED010AF0
:1008E00022EE002AC0ED023A21EE004AC0ED032AB2
:1008F00023EE001AC0ED041A80ED052A80ED064AA9
:1009000080ED071A2030491EACD102B0BDEC048B3B
:10091000BDE8F08F70B504460D4680782188A38924
:10092000626801280ED02846FFF7C2FCE078012853
:1009300018BF70BDE28921882846A368BDE87040D1
:1009400000F068B994ED040A2846FFF741FEEDE790
:1009500010B40180234C446082704FF0000CC370CF
:10096000B1F5807F20D004DC10292FD0402906D19A
:1009700022E0B1F5806F0FD0B1F5805F04D04FF069
:10098000FF3C10BC6046704701218181C18116493E
:100990009FED160A816016E004218181C18114490E
:1009A0009FED140A81600EE010218181C1811249FE
:1009B0009FED120A816006E040218181C1811049CA
:1009C0009FED100A816080ED040ADAE74FF4807130
:1009D0008181C1810C499FED0D0A816080ED040A7F
:1009E000CFE70000B8BE0008B6B6000800008039A6
:1009F000BCB600080000803AD4B600080000803B76
:100A000034B700080000803CB4B800080000803D06
:100A100070B44FF0000CB0EC010A4E1E6446B508ED
:100A200030D000BFF0EC010AB0EC011AB4EEE00ADD
:100A3000F1EE10FA3CBFB0EE600A0CF10104F0ECEC
:100A4000010AB4EEC10AF1EE10FA3CBFB0EE410A61
:100A50000CF10204B0EC011AB4EEE00AF1EE10FA67
:100A60003CBFB0EE600A0CF10304B4EEC10AF1EE33
:100A700010FA3CBFB0EE410A0CF104040CF1040C76
:100A80006D1ECFD106F0030CBCF1004F0FD300BF99
:100A9000F0EC010AB4EEE00AF1EE10FA3CBFB0EE61
:100AA000600AA1EB0C04BCF1010CF1D115E0BCF122
:100AB000000FC4BF002566460FDD00BFF0EC010A41
:100AC000B4EEE00AF1EE10FA04D2ACEB0504B0EE9D
:100AD000600A0C1B6D1C761EF0D182ED000A1C60B2
:100AE00070BC70472DE9F003002450F804CBA1F14D
:100AF000010926465FEA99051BD000BF50F8047B28
:100B000050F8048BBC45BCBFBC46661C50F8047B47
:100B1000C445BCBFC446A61C50F8048BBC45BCBF32
:100B2000BC46E61CC445BCBFC446261D241D6D1E24
:100B3000E4D109F00304B4F1004F08D350F8045B8A
:100B4000AC45BCBFAC460E1B641EF7D110E0251EA1
:100B5000C8BF4FF000080BDD50F8047BBC4503DA3A
:100B6000A4EB0806BC468E1B08F101086D1EF3D1EC
:100B7000C2F800C01E60BDE8F00370472DE9F00325
:100B8000002450F804CBA1F1010926465FEA99053B
:100B90001BD000BF50F8047B50F8048BBC45C4BF89
:100BA000BC46661C50F8047BC445C4BFC446A61CA2
:100BB00050F8048BBC45C4BFBC46E61CC445C4BF4A
:100BC000C446261D241D6D1EE4D109F00304B4F1B2
:100BD000004F08D350F8045BAC45C4BFAC460E1BB5
:100BE000641EF7D110E0251EC8BF4FF000080BDDD2
:100BF00050F8047BBC4503DDA4EB0806BC468E1B05
:100C000008F101086D1EF3D1C2F800C01E60BDE8F6
:100C1000F00370472DE9F0014E0801244FF0000C5D
:100C200004EB51076146A6F102082CE061452AD287
:100C300000EBCC0500EBC104D5ED000A94ED000AF1
:100C4000C4ED000A85ED000AD5ED010A94ED010A14
:100C5000C4ED010A85ED010ACC1900EBC4050CEBCB
:100C6000070400EBC40495ED000AD4ED000AC5EDBD
:100C7000000A84ED000AD4ED010A95ED010AC5EDE4
:100C8000010A84ED010A00EBC104B44400EBCC0C72
:100C900094ED020ADCED000A891CC4ED020A8CED19
:100CA000000ADCED010A94ED030AC4ED030A8CEDA1
:100CB000010AB3F800C089B203EB42034145B5D93C
:100CC000BDE8F00170472DE9F00701254C0805EB60
:100CD00051064FF0000C651E6146002D88BFA846E6
:100CE0002ED8BDE8F0077047614529D250F8315041
:100CF00050F83C7040F8317040F83C5000EBC107B0
:100D000000EBCC097D68D9F804A0C7F804A0C9F8A5
:100D100004508D190CEB060750F8359050F837A0A9
:100D200040F835A040F8379000EBC50500EBC70749
:100D3000D5F80490D7F804A0C5F804A0C7F804902B
:100D400000EBC105A444AF6850F83C90C5F808908A
:100D500040F83C7000EBCC0CEF68DCF80490C5F870
:100D60000C90CCF80470B3F800C0891C03EB42036C
:100D70004145B9D3BDE8F00770472DE9F00F0124D4
:100D80004D084FF0000C04EB5107012D9CBFBDE84E
:100D9000F00F7047014600EB870400264FEA550824
:100DA00015E000BFBCEB460F11D950F82CA0D1F8CC
:100DB0000090C1F800A040F82C900CEB0709D4F883
:100DC00000A050F829B0C4F800B040F829A0AC4405
:100DD000D1F8049050F82CA0C1F804A040F82C9051
:100DE000B3F800C008310834761C03EB4203B8F1B5
:100DF0000108D7D1BDE8F00F70472DE9F05F054637
:100E0000002092469B4688460646814640241BE0C9
:100E1000284641464746224600F0B0F853465A4617
:100E2000C01A914110D311461846224600F097F897
:100E30002D1A67EB01084F4622460120002100F0E1
:100E40008EF817EB00094E41201EA4F10104DFDCEF
:100E5000484631462A464346BDE8F09F40EA010332
:100E60009B0703D009E008C9121F08C0042AFAD260
:100E700003E011F8013B00F8013B521EF9D2704724
:100E8000D2B201E000F8012B491EFBD270470022CC
:100E9000F6E710B513460A4604461946FFF7F0FF79
:100EA000204610BD421C10F8011B0029FBD1801AFE
:100EB00070470EB5C10F80EAE0700844CA070021F0
:100EC00040F233438DE80E000A460B4600F0ACF8C2
:100ED00003B000BD00F0004230F000400AD0C10D68
:100EE00001F56071C0F3160042EA0151C2084007E3
:100EF0001143704700200146704701F0004330B4B1
:100F000021F0004150EA010206D00A0DA2F56072FC
:100F1000C1F31301002A02DC30BC00207047440FEB
:100F200044EAC104C100E01830BC00EBC25000F03C
:100F300035B830B50B46014600202022012409E0D7
:100F400021FA02F59D4205D303FA02F5491B04FA82
:100F500002F52844151EA2F10102F1DC30BD202A61
:100F600004DB203A00FA02F1002070479140C2F100
:100F7000200320FA03F3194390407047202A04DB32
:100F8000203A21FA02F00021704721FA02F3D04002
:100F9000C2F1200291400843194670470029A8BFBA
:100FA0007047401C490008BF20F00100704710B492
:100FB000B0FA80FC00FA0CF050EA010404BF10BC47
:100FC000704749B1CCF1200421FA04F411FA0CF174
:100FD00018BF012121430843A3EB0C01CB1D4FEAAD
:100FE00000614FEA102042BF002010BC704700EBA8
:100FF000C35010440029A4BF10BC7047401C4900D6
:1010000008BF20F0010010BC704710B5141E73F12A
:10101000000408DA401C41F1000192185B411A43B8
:1010200001D120F0010010BD2DE9F04D92469B4604
:1010300011B1B1FA81F202E0B0FA80F220329046AA
:10104000FFF78DFF04460F4640EA0A0041EA0B0114
:1010500053465A46084313D0114653EA010019D0AB
:10106000C8F140025046FFF789FF05460E4650463C
:1010700059464246FFF773FF084305D0012004E0BC
:1010800020463946BDE8F08D0020054346EAE0766B
:101090002C4337430A986305E40AA0EB08000022BA
:1010A000FD0A44EA47540A3002D500200146E9E728
:1010B000010510196941DDE9084500196941BDE8DC
:1010C000F04DA2E72DE9FE4F804681EA0300C00FF4
:1010D0000C46009021F0004123F00045B8EB0200DF
:1010E000A94105D24046214690461C460B46024681
:1010F00023F00040104347D0270DC7F30A00C3F385
:101100000A510290401A019040286BDAC3F3130091
:1011100040F4801B0098924620B10023D2EB030AD2
:1011200063EB0B0B01985946C0F140025046FFF7A4
:1011300016FF06460D4650465946019A00F08CF9B6
:1011400010EB08006141002487EA115284EAE7733A
:101150001A4340D0009A62B3019A012A4FEA07521B
:1011600015DC001B61EB02014FF0004202EA07525E
:10117000CDE90042001C41F5801132462B46FFF7B5
:1011800053FF03B0BDE8F08F40462146F9E7001B4E
:1011900061EB0201001C41F5801300185B4120182F
:1011A000A2F5001747EB030140EAD570B6196D416F
:1011B00011E06D084FEA360645EAC0754FEA07525E
:1011C000001B61EB0201001C41F5801149084FEA48
:1011D00030000019514132462B4603B0BDE8F04FB4
:1011E000FFF713BF0098012240000023D0EB02025A
:1011F00063EBE073009821464FEAE074B8EB00001F
:1012000061EB0401E9E783F000435BE781F0004113
:1012100058E72DE9FE4F81EA030404F0004421F071
:10122000004100944FF0000B23F0004350EA01040A
:101230005ED052EA03045BD0C3F30A54C1F30A55EB
:101240002C44A4F2F3340194A0FB0254C1F3130123
:1012500041F48011C3F3130343F4801301FB0244F0
:1012600000FB034E840A970A44EA815447EA8357F5
:10127000A4FB076802958D0A05FB07854FEA932CAE
:1012800004FB0C542705029D4FEA065847EA16371F
:10129000B5EB08056EEB070C870E920E47EA811737
:1012A00042EA8312A7FB0201B6EB0B0164EB0004D8
:1012B0002B0D43EA0C335E1844EB1C50DA465146C2
:1012C000E7FB0201C5F313044FEA0B3343EA14535F
:1012D0004FEA0432019C43EA0603A4F10C04029491
:1012E000009CCDE900B4FFF79FFE03B0BDE8F08F8E
:1012F00000200146F9E72DE9F04D81EA030404F0EE
:10130000004B21F0004514464FF0000A23F0004145
:1013100050EA050220D054EA01021DD0C5F30A5755
:101320000246C5F31303C1F31300C1F30A5640F498
:10133000801543F48013A7EB0608101BD64608F26D
:10134000FD3873EB050002D308F1010801E09218A3
:101350005B41B8F1000F03DA00200146BDE8F08DD3
:1013600000204FF48011064684460EE0171B73EBF5
:10137000050705D3121B63EB050306434CEA010C7A
:1013800049084FEA300092185B4150EA0107EDD15D
:1013900052EA030012D082EA040083EA05010843FE
:1013A00005D0101BAB4106D20122002306E000222B
:1013B0004FF0004302E06FF0010253101AEB0600F9
:1013C0004CEB085110EB0A0041EB0B01BDE8F04D6E
:1013D000FFF71BBEC1F30A52C1F3130140F2FF3302
:1013E00041F480119A4202DA00200146704740F22F
:1013F00033439A42A2F2334202DC5242FFF7BEBDAF
:10140000FFF7ADBD30B5041E71F1000404DB4FF0F1
:101410000044404264EB0101141E73F1000405DB3B
:101420001C464FF00043524263EB0403994208BF4D
:10143000904230BD064C074D06E0E06840F00103E5
:1014400094E8070098471034AC42F6D3FEF7A0FEAC
:10145000583F0108783F0108202A06DBCB17203AC5
:1014600041FA02F043EAE07306E041FA02F3D040A9
:10147000C2F1200291400843194670472DE9F04D12
:1014800000231A461B1A8A4103DB00200146BDE8EF
:10149000F08DC1F30A52C1F3130141F480154FF0EE
:1014A000000BD10702D100186D41521E00270446DF
:1014B00040F2FF11384601EB620A3E468046024682
:1014C00000204FF48011FFF759FDC2197141BB187C
:1014D00046EB0100B4EB030C75EB000C04D3E41AEB
:1014E00065EB000517460E46241908F101006D4111
:1014F00080463428E3DDF91946EB0600091BA841B4
:1015000003D24FF0FF32134601E0002213461BEBDB
:10151000070046EB0A51BDE8F04DFFF776BD70B508
:101520008C1810F8015B15F0070301D110F8013B8E
:101530002A1106D110F8012B03E010F8016B01F815
:10154000016B5B1EF9D12B0705D40023521E0DD46D
:1015500001F8013BFAE710F8013BCB1A921C03E0BB
:1015600013F8015B01F8015B521EF9D5A142D8D3F3
:10157000002070BD10B50146806B026C12F0500F58
:1015800005D0026CD20626D500F0E3FB10BD016C3D
:1015900041F40071016401688A6812F0405F17D15C
:1015A000027EAAB9CA6A12F4700F02D08A68520584
:1015B0000ED44A6822F020024A60016C21F4807146
:1015C0000164016CC90403D4016C41F001010164A0
:1015D00000F0B8FB10BD806BC26CBDE8104008463F
:1015E000104710B5806B40210164416C41F004014B
:1015F000416400F0AEFB10BD10B5806B00F0A8FB9D
:1016000010BD0000464910B54A6822F440324A60D5
:101610004A6843681A434A6001684A6822F4807243
:101620004A6001684A68036942EA03224A60016825
:101630004A6822F040724A6001684A6883681A4327
:101640004A6001688A6822F400628A6001688A68D8
:10165000C3681A438A60816A6FF07062D142016880
:101660008A6822F070628A6001688A680CD0836A96
:101670001A438A6001688A6822F040528A600168D1
:101680008A68C36A1A4301E022F040528A60016806
:101690008A6822F002028A6001688A68037E42EA50
:1016A00043028A6090F82010002901684A680FD030
:1016B00042F400624A6001684A6822F460424A606B
:1016C00001684A68174C436A04EB43331A4301E04C
:1016D00022F400624A600168CA6A22F47002CA6297
:1016E0000168CA6A838B104C04EB03531A43CA6225
:1016F00001688A6822F400728A6001688A6890F83A
:10170000303042EA43228A6001688A6822F48062AB
:101710008A6001688A68406942EA8020886010BD5A
:101720000023014000E0FFFF0000F0FF02460248F6
:101730008188006800F02ABF6400002010B586B0E0
:1017400014216846FFF7A3FB104C0F4810494FF4D3
:1017500080422060A2800B6843F040030B60096860
:1017600001F0400105910121CDE900210222CDE9DE
:101770000221694600F024FEA1880022206800F0C2
:1017800005FF06B010BD00000018024064000020F4
:1017900030380240FEE70000014800F08DBC000038
:1017A00000060020014800F087BC0000F80300207C
:1017B000014800F081BC0000D8020020014800F080
:1017C0007BBC00005804002001681823CAB2103AFC
:1017D000B2FBF3F2054B6FF30901032A9B5CC3656F
:1017E00000D9091D816508467047000086980008E9
:1017F00010B5014600208B698A6A4FF0C07453B15E
:10180000B3F5005F15D072B1012A0CD0022A0AD0BC
:10181000032A09D104E01AB1012A06D0022A03D111
:10182000C96AC90100D5012010BDC96AA142FAD018
:1018300010BD002AF7D0012AF2D0022AF3D0032AE1
:10184000F3D010BD30B50468256825F480252560E7
:10185000046863608368402B036803D09960006864
:10186000C26030BD9A600068C16030BD7047000042
:1018700070B50446FFF716FB1C4D0246A5F58056D1
:10188000B5F80009214606EB4010FFF7E7FAB5F876
:1018900000091121B0FBF1F1A5F80419A5F802190E
:1018A000112808D206EB4011C0B2202200F0D2F875
:1018B000B5F8000916E00024B5F8000920222044FC
:1018C00006EB4011E0B2A1F5007100F0C3F80A2068
:1018D00000F064FD641CA4B2112CEDD3B5F800092E
:1018E000C82802D2401CA5F8000970BDCC360020E3
:1018F0001CB513A2D2E90032CDE90032020A8DF8FC
:1019000004208DF80500080A8DF806008DF80710F0
:10191000002003F085F9052000F040FD4FF0FF3373
:1019200008226946084801F088FF052000F036FDCE
:10193000012003F075F9052000F030FD1CBD00000A
:101940005AA50582000000007803002070B53448D5
:1019500000210C46018041808180A0F5C8552022DD
:1019600005EB44101146FFF78BFA641CA4B2C82C97
:10197000F5D3002405EB4411E0B2202200F06AF810
:101980000A2000F00BFD641CA4B2112CF2D300213C
:101990004FF4C040FFF7ACFF0A2000F0FFFC00212D
:1019A00046F20200FFF7A4FF0A2000F0F7FC002136
:1019B00046F20400FFF79CFF0A2000F0EFFC002134
:1019C00046F20600FFF794FF0A2000F0E7FC002132
:1019D00046F20800FFF78CFF0A2000F0DFFC002130
:1019E00046F22000FFF784FF0A2000F0D7FC002118
:1019F00046F20A00FFF77CFF0A2000F0CFFC00212E
:101A000046F20C00FFF774FF0A2000F0C7FC05A1A6
:101A1000822000F08DF8BDE870400A2000F0BEBCC6
:101A2000CC3F00202020202020202020000000008B
:101A30000FB4802100B5A1B023AB6846229A06F00E
:101A4000A3F96846FFF714FF012000F0A7FC21B0BE
:101A50005DF814FB10B514464FF4A042A0B002EBA1
:101A600040105A228DF80020A5228DF80120E21C9A
:101A70008DF8022082228DF80320020A8DF80420BE
:101A80008DF8050022460DF10600FFF7E7F900206A
:101A900003F0C6F8052000F081FC4FF0FF33A21DD3
:101AA0006946074801F0C9FE052000F077FC0120D7
:101AB00003F0B6F8052000F071FC20B010BD000066
:101AC000780300200EB55A228DF80020A5218DF84C
:101AD000011007218DF8021082218DF803100021DA
:101AE0008DF8041084238DF805308DF806208DF8CC
:101AF000081001228DF809008DF80720084603F030
:101B00008FF8052000F04AFC4FF0FF330A226946A7
:101B1000064801F092FE052000F040FC012003F091
:101B20007FF8052000F03AFC0EBD0000780300208D
:101B30000FB4402110B5B0B0044620A8FFF7A7F9B4
:101B400080216846FFF7A3F934AB80216846339AB9
:101B500006F01AF92022402120A8FFF791F9E0B2FF
:101B6000402220A9FFF776FF022000F017FC402258
:101B7000694620A8FFF772F9E0B2402220A9FFF7DA
:101B800069FF022000F00AFC30B010BC5DF814FBC5
:101B90000EB5174890F8321021B3002180F83210AA
:101BA000352000F059FD1248801F50F8061F0091A3
:101BB000416801910089ADF80800352000F057FD1B
:101BC0009DF800005A280DD19DF80100A52809D1E3
:101BD0009DF80400602805D19DF80500622803D017
:101BE000602803D000200EBD02200EBD01200EBDD6
:101BF000D23F00207047000078B50024009490F890
:101C00003C20012A19D0012280F83C200A680725CF
:101C10000368092A13D9DE680A3A02EB42029540AA
:101C2000AE43DE600A788B680A3A02EB42029340C8
:101C30000268D5682B43D36010E0022078BD1E698E
:101C400002EB42029540AE431E610A788B6802EBBC
:101C500042029340026815692B4313614A681F25AD
:101C6000072A13D203685E6B521E02EB8202954074
:101C7000AE435E630A8893B20A79521E02EB820277
:101C800093400268556B2B43536327E003680D2A8A
:101C900012D21E6BD21F02EB82029540AE431E632E
:101CA0000A8893B20A79D21F02EB8202934002683B
:101CB000156B2B43136311E0DE6A0D3A02EB8202CF
:101CC0009540AE43DE620A8893B20A790D3A02EB80
:101CD000820293400268D56A2B43D362164B056893
:101CE000144A9D4206D10D68122D03D1556845F462
:101CF0008005556005689D4218D10B68102B01D0F6
:101D0000112B13D1536843F4000353600968102961
:101D10000CD10A490A4A0968B1FBF2F101EB8101D1
:101D2000490000E0491E00910029FBD180F83C40A9
:101D3000002078BD00230140002001402000002049
:101D400040420F00014901200870704764020020E2
:101D50007047704770B504004FF0000603D0206C48
:101D6000002510B107E0012070BD204600F01CF8EE
:101D7000656484F83C50206CC00610D4206C20F4BC
:101D8000885040F0020020642046FFF73BFC656469
:101D9000206C20F0020040F00100206400E00126E9
:101DA00084F83C50304670BD70B586B006461421AC
:101DB0006846FFF76CF81D493068884233D11C48EB
:101DC0000025016841F480710160006800F48070B2
:101DD000059017481438016841F00101016000685E
:101DE000694600F001000590022000900320CDE933
:101DF0000105104800F0E4FA104C0F48C4E9000552
:101E00000015A560C4E90350800060618000C4E94A
:101E1000060525622046656200F01EFA08B1FFF74C
:101E2000E9FEB463A66306B070BD00000020014067
:101E300044380240000002401064024000060020C6
:101E4000F8B500230446009390F83C00012807D021
:101E5000012084F83C0020688568ED0702D011E07D
:101E60000220F8BD856845F0010585604048414D78
:101E70000068B0FBF5F000EB400000E0401E009071
:101E80000028FBD120688568ED0503D5856825F419
:101E90008075856020688568ED075FD0256C40F20D
:101EA0000166B54345F4807525644068400505D555
:101EB000206C20F4005040F480502064206CC0045A
:101EC00004D5606C20F00600606400E0636484F870
:101ED0003C30A36B2948284DD863A36B284818646D
:101EE000A36B2848D86423686FF02200186020682C
:101EF000436843F0806343602068836843F48073E1
:101F00008360134620680A46A66B00F14C013046F8
:101F100000F00CFA68681C49C006206806D08842A8
:101F200024D1816811F0405F13D01FE08842F8D0BF
:101F3000164A904203D1D1F80423D206F1D0144AB4
:101F4000904213D1D1F8041301F01F011029E8D3F6
:101F50000CE0816841F08041816007E0206C40F036
:101F600010002064606C40F0010060640020F8BD47
:101F70002000002040420F0000230140751500089A
:101F8000F9150008E3150008002001400021014078
:101F90000022014010B50446002094F83C100129AD
:101FA0000CD0012184F83C1021688A6822F00102DB
:101FB0008A6021688A68D20702D01DE0022010BD25
:101FC0008A6822F480728A60A16B91F83520022A17
:101FD00007D1084600F014F818B1216C41F0400117
:101FE000216421684A6822F080624A60216C21F4F1
:101FF000885141F001012164002184F83C1010BD9A
:102000002DE9F0410446876D00F0C6FA054694F8C4
:1020100035000026022806D08020606584F83460F0
:102020000120BDE8F0812068016821F016010160FF
:102030002068416921F080014161206C08B9A06CE1
:1020400020B12068016821F0080101602068016862
:1020500021F0010101600BE000F09EFA401B052811
:1020600006D92020606504F8346F03206070D8E73B
:1020700020680068C007EFD194F85C103F208840CA
:10208000B86004F8346F012060700020C9E790F850
:102090003510022903D080214165012070470521B8
:1020A00080F835100068016821F00101016000200E
:1020B000704790F8350070472DE9F84304464FF01B
:1020C0000009CDF8009063484FF41651A56D0068E3
:1020D000B0FBF1F72E6894F85C20082101FA02F0B9
:1020E00030420FD02068026852070BD5026822F0F8
:1020F0000402026094F85C008140A960606D40F0C9
:102100000100606594F85C104FF0010808FA01F0D6
:10211000304208D021684969090604D5A860606D7D
:1021200040F00200606594F85C1004208840304262
:1021300008D021680968890704D5A860606D40F05F
:102140000400606594F85C1010208840304218D07C
:1021500021680968090714D5A86020680168490347
:1021600004D50068000308D5A16C07E00168C90523
:1021700003D4016821F008010160216C09B12046F7
:10218000884794F85C1020208840304231D0216884
:102190000968C9062DD5A86094F83500052820687F
:1021A000016806D0490347D5006800031DD4616C5F
:1021B0001CE021F0160101602068416921F08001D6
:1021C0004161206C08B9A06C20B12068016821F041
:1021D0000801016094F85C103F208840A86084F8F2
:1021E000349084F83580216D1FE0E16B09B1204601
:1021F0008847606D00282BD0606DC00714D0052083
:1022000084F835002068016821F001010160009820
:10221000401C0090B84203D820680068C007F6D17F
:1022200084F8349084F83580E16C002910D001B036
:102230002046BDE8F04308470168C905D5D40168C8
:1022400021F01001016084F8349084F83580CCE7E7
:10225000BDE8F883200000202DE9F041044600F09D
:102260009BF905465CB1002684F83460022084F8AE
:1022700035002068016821F0010101600DE00120B6
:10228000BDE8F08100F088F9401B052805D9202021
:102290006065032084F83500F2E720680068C00715
:1022A000F0D121680A6820480240D4E901031843AC
:1022B000D4E903352B43184363691843A3691843D2
:1022C000E3691843236A18431043626A042A03D15E
:1022D000D4E90B231A431043086020684069656AFB
:1022E00020F0070128460D43012704280CD1A06ADD
:1022F0000543E06A40B12046FFF77AFA20B140205A
:10230000606584F83570BAE7206845612046FFF7BC
:102310005BFA94F85C203F2191408160666584F807
:1023200035700020ACE700003F8010F02DE9F0414F
:102330000446866D90F83400002501280DD0012058
:1023400084F8340094F835700020012F07D084F809
:10235000340002252846BDE8F0810220FBE7022771
:1023600084F8357060652046FFF76CFA94F85C10CD
:102370003F208840B0602068016841F0160101608C
:10238000206C20B12068016841F0080101602068DC
:10239000016841F001010160DCE7000070B504460E
:1023A00000F0FAF80546601C02D0044800780444A6
:1023B00000F0F2F8401BA042FAD370BD14000020D8
:1023C0002DE9F84FDFF880B100224FF003094FF0FC
:1023D0000F0A0BF1040E01250B6895402B40AB4210
:1023E00072D14C68012C05D0022C03D0112C01D0E5
:1023F000122C10D18668540009FA04F7BE43CF6846
:10240000A7403743876046680C79AE43C4F3001495
:10241000944034434460C468570009FA07F58E6855
:10242000AC43BE402643C6604C68022C01D0122C3F
:1024300012D1D40800EB840CDCF820605407E40EC1
:102440000AFA04F826EA0806D1F8108008FA04F817
:1024500048EA0608CCF820800468AC430D7905F002
:102460000305BD40254305604C68E40065D5374C45
:10247000256845F480452560246822F0030504F4AE
:1024800080440094324C2E19D6F808789407250F12
:102490000AFA05F4A7432F4CA04201D1002424E0FE
:1024A0002D4CA04201D101241FE02C4CA04201D1AF
:1024B00002241AE02A4CA04201D1032415E0294C41
:1024C000A04202D1042410E037E0274CA04201D101
:1024D00005240AE0254CA04201D1062405E0244C45
:1024E000A04201D1072400E00824AC403C43C6F8D8
:1024F0000848DBF800405D464E689C43F60300D573
:102500001C432C60DEF8004075464E689C43B603C1
:1025100000D51C432C600C4D08352C684E689C433C
:10252000F60200D51C432C60074D0C352C684E6814
:102530009C43B60200D51C432C60521C102AFFF4A9
:102540004AAFBDE8F88F0000003C0140443802402B
:102550000030014000000240000402400008024038
:10256000000C02400010024000140240001802401B
:10257000001C02400069084000D0012070474269F9
:1025800031EA020200D10904816170470AB1816118
:1025900070470904FBE700000148806870470000AD
:1025A000140000200248816802781144816070475D
:1025B000140000200B4810B5016841F4007101605F
:1025C000016841F480610160016841F4807101603B
:1025D000032000F077F8002000F006F800F024F85F
:1025E000002010BD003C024070B50D4D04464FF474
:1025F0007A712878B1FBF0F00A490968B1FBF0F074
:1026000000F080FC48B9102C07D200222146501E51
:1026100000F038F800206C6070BD012070BD000033
:1026200014000020200000200A4808B5016841F489
:1026300080410160006800F4804000900548001F60
:10264000016841F080510160006800F08050009006
:1026500008BD00004438024000F01F0201219140F3
:102660004009800000F1E020C0F88011704700F0C0
:102670001F02012191404009800000F1E020C0F8D4
:1026800000117047F0B40E4B1B68C3F30223C3F173
:102690000704042C00D904241D1D072D01D200239A
:1026A00000E0DB1E012606FA04F56D1E0D409D407C
:1026B0009E40761E164045EA0601F0BC02F0F4BDCD
:1026C0000CED00E0064A00F0070110684FF6FF032A
:1026D000184040EA01200349084310607047000099
:1026E0000CED00E00000FA052DE9F0470D4604006E
:1026F00065D0DFF81491D9F80000EFB200F00F00B8
:10270000A84207D289F80070D9F8000000F00F0045
:10271000A84254D120683D4E810712D5400703D509
:10272000306840F4E05030602078000703D530680E
:1027300040F4604030603068A16820F0F000084349
:1027400030602078C0072DD03049606808390128F2
:1027500012D0022813D0032811D009688907002954
:102760002DDA316821F0030101433160FFF714FFD6
:10277000804641F2883A0EE009688903EFE709686C
:102780008901ECE7FFF708FFA0EB0801514502D9EA
:102790000320BDE8F0873068616800F00C00B0EB02
:1027A000810FEFD1D9F80010484601F00F01A9427E
:1027B00007D90770006800F00F00A84201D001207F
:1027C000E7E72078400705D53068E16820F4E0505D
:1027D000084330602078000706D53068216920F46E
:1027E000604040EAC100306000F038F83168084AC3
:1027F000C1F30311515CC8400649086006480068EF
:10280000FFF7F2FE0020C4E7003C02400838024017
:102810008E98000820000020180000200448054978
:1028200000680968044AC1F38221515CC8407047BE
:1028300020000020083802409E98000804480549FE
:1028400000680968044AC1F34231515CC8407047CE
:1028500020000020083802409E980008154810B556
:10286000006810F00C01144813D0431004290FD055
:1028700008290ED10F4C241F216801F03F02216866
:10288000490207D52068C0F38810A0FB030106E0C9
:10289000184610BD2168C1F38811A1FB0001002377
:1028A000FEF7ABFA2168C1F30141491C4900B0FBB6
:1028B000F1F010BD083802400024F4002DE9F84F73
:1028C000040075D02078DFF828A3C007AAF104051A
:1028D00048D00AF104000168C1F38101012908D040
:1028E0000068C0F3810002280AD1DAF80000400233
:1028F00006D52868800335D560680028E1D031E02E
:102900006068B0F5803F10D0B0F5A02F286810D0D7
:1029100020F480302860286820F4802028606068D7
:10292000A0B1FFF739FE06460CE0286840F480307D
:10293000F4E740F480202860F7E7FFF72DFE801BC6
:10294000642871D828688003F7D50BE0FFF724FED0
:10295000064604E0FFF720FE801B6428F1D82868B3
:102960008003F7D42078DFF88C9280074FF0000BBB
:102970003DD59F48001D016811F00C0F08D000687C
:10298000C0F3810002280AD1DAF80000400206D420
:102990002868800715D5E068012809D111E0E068B2
:1029A000B8B10121C9F80010FFF7F6FD064605E0B1
:1029B0001AE1FFF7F1FD801B0228C2D828688007C2
:1029C000F7D52868216920F0F80040EAC1002860A6
:1029D0000DE0C9F800B0FFF7DFFD064604E0FFF7A1
:1029E000DBFD801B02281FD828688007F7D42078D9
:1029F000000722D57E4F80486169703771B101218F
:102A00000160FFF7C9FD064604E0FFF7C5FD801B26
:102A1000022809D838688007F7D50EE0C0F800B062
:102A2000FFF7BAFD064605E082E0FFF7B5FD801B23
:102A300002287DD838688007F7D42078400765D50C
:102A40006B484FF000083C300068C0000BD4684869
:102A50003C30016841F08051016000684FF001088E
:102A600000F080500090654F3868C0050FD438687A
:102A700040F480703860FFF78FFD064604E0FFF7F2
:102A80008BFD801B022853D83868C005F7D5584FF6
:102A9000A0686C3701280FD00528386810D020F0C6
:102AA00001003860386820F004003860A068B0B1D8
:102AB000FFF772FD06460EE0386840F00100F4E7CB
:102AC00040F004003860F7E7FFF766FD811B41F234
:102AD0008830814263D838688007F5D50DE0FFF76C
:102AE0005BFD064606E0FFF757FD811B41F288308B
:102AF000814254D838688007F5D4B8F1000F05D06A
:102B00003B483C30016821F080510160A069B8B3B6
:102B10003749091D0968C1F38101022946D00228FD
:102B2000584606D0C9F86000FFF736FD044639E084
:102B300035E04F46C9F86000FFF72EFD064604E079
:102B4000FFF72AFD801B022829D828688001F7D4C6
:102B5000D4E907010843A16A294A490802EB014167
:102B6000626A41EA8211084394F82C1040EA01613C
:102B7000CAF8001001203866FFF70EFD044605E094
:102B800034E0FFF709FD001B022808D828688001FF
:102B9000F7D52BE0FFF700FD001B022802D9032028
:102BA000BDE8F88F28688001F4D41FE00128F7D031
:102BB000DAF80000E26900F48001914214D1226A3F
:102BC00000F03F0191420FD147F6C071626A0140A7
:102BD000914209D1A26A00F44031914204D1E16AE4
:102BE00000F07060884201D00120D9E70020D7E7CB
:102BF0000438024000004742800E47420070004007
:102C00000000FFFF7047000038B5016804464A68BD
:102C10008868C043430606D5C30704D1D3435B0687
:102C200001D4216C05E0830708D4D3431B0605D4E7
:102C3000616C01B02046BDE830400847830603D5EB
:102C4000430601D5C30551D4D3439B064ED4430656
:102C50000AD494F85130032B49D0636D43F0040338
:102C60006365CB688B680093830609D4636D43F07A
:102C7000010363658B6800930B6823F040030B60CE
:102C8000C00506D4606D40F008006065206880686B
:102C90000090606D002829D02068416821F0E00193
:102CA0004160012084F85100900701D4D00722D060
:102CB0002068416821F003014160114DE06C40B192
:102CC0000565E06CFFF7E3F918B1606D40F0400076
:102CD0006065A06C002809D00565A06CFFF7D7F9E6
:102CE000002803D0606D40F04000606538BDC868C2
:102CF0008868009038BD2046FFF784FF38BD00008B
:102D0000C569000870B5040005D00025A56294F8D7
:102D1000510010B106E0012070BD84F850502046EB
:102D200000F030F8022084F851002068016821F09A
:102D300040010160D4E901010843D4E903121143C1
:102D4000084361690843218B01F400710843E1697C
:102D50000843216A0843A16A084321680860A06902
:102D6000042101EA1040616A084321684860206834
:102D7000C16921F40061C1616565012084F85100D9
:102D8000002070BD70B586B0064614216846FEF777
:102D90007EF823493068884240D1224800250168E6
:102DA00041F480510160006800F4805005901D4896
:102DB0001438016841F0020101600068694600F0C2
:102DC00002000590382000900220CDE90105032083
:102DD0000390052004901448FFF7F2FA144C1348AE
:102DE00020604FF0C06060604020C4E9020500012F
:102DF000C4E90405A561E561256220466562FFF727
:102E00002BFA08B1FEF7F6FEB4640022032123205A
:102E1000A663FFF737FC2320FFF729FC06B070BD3F
:102E2000003001404438024000040240586402402F
:102E3000D80200202DE9F041044690F8500000250A
:102E4000012809D0012784F8507094F85100002619
:102E5000012804D0022549E00220BDE8F08189B1B3
:102E600082B1032084F8510066652163A286E28660
:102E7000A66366642664A687E687A068B0F5004F5F
:102E800002D006E0012531E02068016841F480416C
:102E90000160A16C17480864A16C1748C863A16C55
:102EA0001648C864A06C0665E38E2268216B0C325C
:102EB000A06CFFF73BFA38B1606D40F01000606520
:102EC000012584F8517011E020680168490603D497
:102ED000016841F0400101602068416841F0200133
:102EE00041602068416841F00201416084F850600F
:102EF0002846B2E7F7690008016A0008D5690008AA
:102F00007047704710B5401EB0F1807F01D301209B
:102F100010BD4FF0E02460610F21601702F0C4F98A
:102F20000020A06107202061002010BD704770477D
:102F300070B590F83C20012A32D0012580F83C5031
:102F4000022280F83D2002685368946823F07006DE
:102F50000B6833435360134B02689A4214D0B2F1AA
:102F6000804F11D0104B9A420ED0104B9A420BD08A
:102F70000F4B9A4208D00F4B9A4205D00E4B9A4203
:102F800002D00E4B9A4204D1496824F080031943C1
:102F9000916080F83D50002180F83C10084670BDDB
:102FA000022070BD00000140000400400008004005
:102FB000000C0040000401400040014000180040A7
:102FC00010B5040003D094F83D0010B107E00120D3
:102FD00010BD002084F83C00204600F00DF80220CF
:102FE00084F83D00211D206803F058FF012084F87B
:102FF0003D00002010BD000008B500682349B0F175
:10300000804F11D0224A90421DD1086840F0020042
:1030100008600868002200F00200009011461D20A0
:10302000FFF730FB1D201FE0086840F0010008603A
:103030000868002200F00100009005211C20FFF725
:1030400021FB1C2010E0134A904211D1086840F087
:10305000040008600868002200F0040000900521C8
:103060001E20FFF70FFB1E20BDE80840FFF7FFBA48
:103070000949884209D10548001D016841F0020153
:103080000160006800F00200009008BD4038024076
:10309000000400400008004000040140022180F8C4
:1030A0003D1001688A6802F00702062A03D00A6808
:1030B00042F001020A60012180F83D1000207047B3
:1030C0000168CA6842F00102CA600068816801F0C4
:1030D0000701062903D0016841F0010101600020C9
:1030E0007047022180F83D1001680A6A41F211130D
:1030F0001A4207D10A6A9B101A4203D10A6822F0C9
:1031000001020A60012180F83D100020704701682B
:10311000CA6822F00102CA600068016A41F2111215
:10312000114207D1016A9210114203D1016821F0C6
:10313000010101600020704770B5044690F83C0022
:10314000012817D0012584F83C50022084F83D0066
:103150002068826822F0770222F47F428260086849
:10316000502830D00DDC20284DD005DC98B3102835
:103170003BD148E0022070BD302844D0402834D1F3
:1031800039E0602828D0702806D0B0F5805F2CD0B8
:10319000B0F5005F29D10AE0CB68D1E901212068B0
:1031A00003F0E0FE2068816841F0770109E0CB6818
:1031B000D1E90121206803F0D5FE2068816841F43F
:1031C0008041816011E0CA684968206803F0DCFE34
:1031D0005021206807E016E0CA684968206803F0BB
:1031E000E4FE6021206803F0C7FE84F83D50002013
:1031F00084F83C0070BDCA684968206803F0C4FECA
:1032000040212068EFE7226801461046EBE770474F
:1032100070B50446006801694FF00005C94389078D
:1032200015D4C168C943890711D4E91E0161012081
:103230002077206880698007204602D0FFF7E7FFEB
:1032400004E000F098F8204600F096F82577206812
:103250000169C943490717D4C168C943490713D451
:103260006FF004010161022020772068806910F46A
:10327000407F204602D0FFF7CAFF04E000F07BF851
:10328000204600F079F8257720680169C9430907CD
:1032900016D4C168C943090712D46FF0080101614F
:1032A000042020772068C0698007204602D0FFF7FD
:1032B000AEFF04E000F05FF8204600F05DF82577EF
:1032C00020680169C943C90617D4C168C943C90642
:1032D00013D46FF010010161082020772068C069C5
:1032E00010F4407F204602D0FFF791FF04E000F089
:1032F00042F8204600F040F8257720680169C9436C
:10330000C90708D1C168C943C90704D1891E016131
:10331000204600F032F820680169C943090609D443
:10332000C168C943090605D46FF0800101612046D8
:10333000FFF7FCFD20680169C943490609D4C1684B
:10334000C943490605D46FF040010161204600F0F1
:1033500015F820680169C94389060BD4C168C943BF
:10336000890607D46FF0200101612046BDE8704056
:10337000FFF7DDBD70BD704770477047704710B5EF
:1033800004460068416994F83920C1F3C011212A2C
:103390000BD151B1416921F080014161206B08B12D
:1033A000FEF72EFE204604F0D1FA2068416994F819
:1033B0003A20C1F38011222A0BD151B1416921F089
:1033C00040014161606B08B1FEF71AFE204604F02F
:1033D000AFFA002010BD704770B50268044610684F
:1033E000D168536910F00F0F52D003F0010501F4BA
:1033F00090762E435FD0C20705D0CA0503D5E26B95
:1034000042F00102E263420705D5DA0703D0E26B1E
:1034100042F00202E263820705D5DA0703D0E26BCD
:1034200042F00402E263020707D501F020022A43BA
:1034300003D0E26B42F00802E263E26B002A33D071
:10344000800604D5880602D5204604F088FA206854
:103450004069E16BC0F38010090700D428B320460F
:1034600004F066FA2068416949061AD5416921F0DD
:1034700040014161606BA0B11B490165606BFEF7C3
:1034800006FE002810D0606B016DBDE87040084753
:10349000830610D58B060ED52046BDE8704004F09B
:1034A0005EBA2046FFF797FF70BD2046FFF793FFF7
:1034B0000020E06370BD030606D50B0604D5204648
:1034C000BDE8704004F02ABB4006F3D54806F1D5AC
:1034D000D168204621F04001D160202184F83910C4
:1034E00000F048FA70BD00005978000870B504007B
:1034F00004D094F83900002510B106E0012070BD19
:1035000084F83850204600F023F8242084F839004D
:103510002068C16821F40051C160204604F06AFAB5
:103520002068016921F4904101612068416921F01E
:103530002A0141612068C16841F40051C160E5631E
:10354000202084F8390084F83A00002070BD000083
:103550002DE9F04387B0044614216846FDF797FC37
:103560006648654B2168DFF894C1103802270125B1
:103570000326634A4FF008084FF00009994223D10F
:10358000DCF8001041F40021CCF80010DCF8001049
:1035900001F400210591016841F004010160006817
:1035A00002AB00F004000590B002CDE9000783E80B
:1035B000600169461046FEF703FF00220421342013
:1035C000FFF760F8342037E04E4B994239D1DCF8F0
:1035D000001041F48011CCF80010DCF8001001F468
:1035E00080110591016841F004010160016801F05A
:1035F00004010591016841F0080101600068694615
:1036000000F0080005909814CDE9000702AB1046C1
:1036100083E86001FEF7D4FE0420CDE9000702AB89
:10362000694683E860013848FEF7CAFE002204219B
:103630003520FFF727F83520FFF719F807B0BDE868
:10364000F083324A9142F9D12C494D46091D0A684E
:1036500042F010020A60096801F01001059101684A
:1036600041F0010101600068CDF8089000F0010010
:1036700005904FF4C060CDE900070720CDE9036055
:1036800069462348FEF79CFE234E22484FF0006710
:103690003060C6E901754FF48068C6E9035875616A
:1036A000B561F561356230467562FEF7D5FD08B14A
:1036B000FEF7A0FA6663B463174E1648603678309A
:1036C000E6E802074020A6E82101134846F814590D
:1036D0006030B561F56135627562FEF7BDFD08B118
:1036E000FEF788FA2663002202212520B463FEF744
:1036F000C9FF2520A0E70000004C004040380240F0
:103700000008024000500040000C02400010014040
:103710000000024040640240F803002037B5044630
:1037200090F83A0082B0134620283AD1039AAAB3FF
:10373000A3B394F83800012833D0012084F838006E
:10374000A262A3850025E563222084F83A00616B1C
:103750001548C863616B15480864616B1448C864F8
:10376000606B05652168606B091DFEF7DFFD206851
:1037700001684168009184F83850C16841F4807153
:10378000C1602068416941F00101416120684169DF
:1037900041F040014161002005B030BDFFE701204C
:1037A000FAE70220F8E70000B3780008EF78000895
:1037B0006978000890F83A30202B22D1F9B1F2B1A3
:1037C00090F83830012B1CD081628285C28500219F
:1037D000C163222280F83A2080F838100168CA6854
:1037E00042F48072CA6001684A6942F001024A618B
:1037F0000068C16841F02001C160002070470120CD
:10380000704702207047000000680749884209D1CC
:10381000074A064910780144401C107001220548EF
:10382000FFF7C8BF7047000000500040D23F0020A3
:10383000100000207803002070472DE9F84304466B
:1038400090F839001E4617460D46202850D1B5B1D4
:10385000AFB194F8380001284AD0012084F838002C
:103860004FF00008C4F83C80212084F83900FEF7AE
:1038700093FEA7848146E78484F8388026E00120FF
:10388000BDE8F883E08C401EE084A0684B46B0F5AC
:10389000805F4FF000024FF080012046009603D079
:1038A00004F06DF9E8B90DE004F069F9C8B92888A9
:1038B0002168C0F308004860206908B16D1C05E06C
:1038C000AD1C03E0216815F8010B4860E08C00286E
:1038D000D8D14B46002240212046009604F04FF9F3
:1038E00008B10320CCE7202084F839000020C7E786
:1038F0000220C5E7F7B5044690F83900202831D1F9
:10390000019969B362B394F8380001282AD00120E4
:1039100084F838002162A284E2840025E563212036
:1039200084F83900236B1048D863236B0F48186460
:10393000236B0F48D864206B134605652668206BFF
:10394000321DFEF7F3FC21686FF04000086084F838
:1039500038502068416941F0800141610020FEBD7E
:103960000120FEBD0220FEBDF9780008277900087D
:103970006978000870477047FEE7000030B587B0EF
:1039800014216846FDF783FA124C1148124982143B
:103990002060A2800B68002543F040030B6009689B
:1039A00001F0400105910121CDE9002102210291A0
:1039B000032103916946FEF703FDA18800222068D8
:1039C000FEF7E4FD04F10800457107B030BD0000CA
:1039D00000180240EC0000203038024010B51422DC
:1039E0001B21A82000F014F80120FDF79FFE0A20FB
:1039F000FEF7D4FC0020FDF799FE0449487910B188
:103A00000020487110BD0120FBE70000F4000020F9
:103A10002DE9F0413B4FA7F10806F870B9707A70B4
:103A2000D0433870B18800223068FEF7AFFD002423
:103A30004FF4AC75B18801223068FEF7A7FD0D2068
:103A400003F087F8B18800223068FEF79FFD0D2053
:103A500003F07FF8641CA4B2AC42EBD941F294109D
:103A600003F077F8002538684FF00004A84016D41A
:103A7000B18801223068FEF789FD0D2003F069F856
:103A8000B18800223068FEF781FD0D2003F061F857
:103A9000641CA4B2182CEBD340F2172015E0B188B7
:103AA00001223068FEF772FD0D2003F052F8B18854
:103AB00000223068FEF76AFD0D2003F04AF8641C0E
:103AC000A4B2182CEBD340F25E6003F042F86D1CF8
:103AD000ADB2202DC7D30024B18801223068FEF793
:103AE00055FD0D2003F035F8B18800223068FEF74F
:103AF0004DFD0D2003F02DF8641CA4B2162CEBD361
:103B0000BDE8F081F400002070B504464FF4207643
:103B1000304605F04BFE05460020210AE2B229544A
:103B2000401C80B22A54401C80B2B042F7D300211E
:103B3000EF2340F23F12084600F0B6FA0024314667
:103B4000284600F0E9FA641CA4B2F02CF7D328460A
:103B5000BDE8704005F0A6BA70B504464FF4207673
:103B6000304605F023FE05460020210AE2B2295422
:103B7000401C80B22A54401C80B2B042F7D3F023DC
:103B80004FF4A0721221002000F08EFA1424314666
:103B9000284600F0C1FA641CA4B2F02CF7D92846DC
:103BA000BDE8704005F07EBA70B504464FF420764B
:103BB000304605F0FBFD05460020210AE2B22954FB
:103BC000401C80B22A54401C80B2B042F7D3F0238C
:103BD0004FF4A0724121002000F066FA41243146E2
:103BE000284600F099FA641CA4B2F02CF7D92846B4
:103BF000BDE8704005F056BA70B5044615460E464D
:103C00002A2000F06FFA204600F0A0FA2B2000F0E6
:103C100069FA304600F09AFA2C2000F063FA284640
:103C2000BDE8704000F092BA10B5654C0022A18842
:103C30002068FEF7ABFC4FF4FA70FEF7AFFBA188EB
:103C400001222068FEF7A2FC6420FEF7A7FB1120EA
:103C500000F048FA7820FEF7A1FB362000F042FA87
:103C6000A02000F091FA3A2000F03CFA652000F024
:103C70008BFAB22000F036FA0C2000F085FA0C2006
:103C800000F082FA002000F07FFA332000F07CFA86
:103C9000332000F079FAB72000F024FA722000F007
:103CA00073FABB2000F01EFA3D2000F06DFAC02030
:103CB00000F018FA2C2000F067FAC22000F012FA87
:103CC000012000F061FAC32000F00CFA192000F086
:103CD0005BFAC42000F006FA202000F055FAC62056
:103CE00000F000FA0F2000F04FFAD02000F0FAF9AF
:103CF000A42000F049FAA12000F046FAE02000F0EC
:103D0000F1F9D02000F040FA042000F03DFA0D2037
:103D100000F03AFA112000F037FA132000F034FADC
:103D20002B2000F031FA3F2000F02EFA542000F052
:103D30002BFA4C2000F028FA182000F025FA0D206C
:103D400000F022FA0B2000F01FFA1F2000F01CFAEE
:103D5000232000F019FAE12000F0C4F9D02000F08F
:103D600013FA042000F010FA0C2000F00DFA1120D4
:103D700000F00AFA132000F007FA2C2000F004FAF1
:103D80003F2000F001FA442000F0FEF9512000F03D
:103D9000FBF92F2000F0F8F91F2000F0F5F91F20A3
:103DA00000F0F2F9202000F0EFF9232000F0ECF908
:103DB000202000F097F9BDE81040292000F092B9CA
:103DC000800000200FB4282100B58BB00DAB01A8F6
:103DD0000C9A03F0D9FF4FF4FC60002100901023EF
:103DE00001AA084600F0EAF80BB05DF814FB0000E9
:103DF0002DE9F04387B014216846FDF748F8244EBA
:103E0000224808213060B18006F10807042138609B
:103E1000B98006F11004DFF87C901F490125C4F831
:103E20000090A5800A684FF0000842F004020A6082
:103E30000A6802F0040205920A6842F008020A6069
:103E4000096801F0080105910C218DE822016946FD
:103E50000395FEF7B5FAA08869468DE8210148462A
:103E60000395FEF7ADFAB18800223068FEF78EFBAD
:103E7000B98800223868FEF789FBA18801222068F2
:103E8000FEF784FB07B0BDE8F083000000080240A5
:103E900070000020000C0240303802402DE9F05F35
:103EA0001E46DDF828B00D460746B0F59D7F6AD264
:103EB000E92D68D8203ADFF8F8A0D4B2202E21D01E
:103EC000102E60D12A2000F00DF9384600F03EF99E
:103ED000FF1DB8B200F03AF92B2000F003F9284694
:103EE00000F034F90F35A8B200F030F92C2000F0C2
:103EF000F9F83048002700EB0419D04619F80740BC
:103F000000254DE02A2000F0EDF8384600F01EF9BB
:103F10000F37B8B200F01AF92B2000F0E3F828466A
:103F200000F014F91F35A8B200F010F92C2000F0B1
:103F3000D9F82148002500EB8418002718F815400F
:103F4000D146E00701D0584601E0B9F8000000F082
:103F5000FDF87F1C6408FFB2082FF2D308EB450080
:103F600008274478E00701D0584601E0B9F800007E
:103F700000F0ECF87F1C6408FFB2102FF2D36D1C28
:103F8000EDB2B542D9D3BDE8F09FE00701D0584665
:103F900001E0B8F8000000F0D9F864086D1CEDB23B
:103FA000B5EB560FF1D37F1CFFB2B742A6D3EAE7B9
:103FB0006C00002066B00008A69800082DE9F843C0
:103FC0001E4614460F4605464FF4A079DDF82080C2
:103FD0000EE04D450FD8F02F0DD833463946284610
:103FE000CDF80080FFF75AFF05EB560085B2641C40
:103FF0002278002AEDD1BDE8F88300002DE9F047D2
:10400000994616460C460546B0F5987F46D2DF2CF9
:1040100044D82A2000F066F8284600F097F80F35BB
:10402000A8B200F093F82B2000F05CF8204600F0D6
:104030008DF80F34A0B200F089F82C2000F052F86F
:104040001748DFF86080002700EB46160024F55D76
:10405000E80701D0484601E0B8F8000000F076F823
:10406000641C6D08E4B2082CF2D37F1CFFB2102F41
:10407000ECD30027F0190024057CE80701D048465E
:1040800001E0B8F8000000F061F8641C6D08E4B2CB
:10409000082CF2D37F1CFFB2102FEBD3BDE8F087C2
:1040A00056B600086C0000202DE9F04104461D467C
:1040B00016460F462A2000F015F8204600F046F874
:1040C000304600F043F82B2000F00CF8384600F0A2
:1040D0003DF8284600F03AF8BDE8F0412C2000F009
:1040E00001B8000008B500228DF80000074881885B
:1040F0000068FEF74BFA012269460548FEF79AFE72
:104100000448FDF7D6FF0228FAD008BD7000002051
:1041100080020020D802002070B5054608480C46F1
:10412000012281880068FEF731FA224629460548B7
:10413000FEF780FE0448FDF7BCFF0228FAD070BDF0
:104140007000002080020020D802002038B504460C
:104150000A48012281880068FEF718FA200A8DF8C3
:1041600000008DF80140022269460548FEF762FE14
:104170000448FDF79EFF0228FAD038BD70000020E9
:1041800080020020D802002008B501228DF800002E
:10419000074881880068FEF7F9F901226946054859
:1041A000FEF748FE0448FDF784FF0228FAD008BD58
:1041B0007000002080020020D80200200FB42821C7
:1041C000F0B58BB011AB01A8109A03F0DDFD01A88A
:1041D000FCF768FE3A4E282806F500540AD92089D3
:1041E000282200EBC00101EB4010304401A9FCF78C
:1041F00035FE1DE001A8FCF755FE2189024601EBC2
:10420000C10000EB4110304401A9FCF727FE01A8D2
:10421000FCF748FEC0B2202208E0218901EBC1036F
:1042200003EB411131440A54401CC0B22828F4D396
:104230002089244F0A280CD279880091010140314D
:1042400000EBC00202EB40108219102389B200205B
:1042500024E000257888009020892901284400EB7B
:10426000C00202EB40108219102300204031A2F25C
:104270007112FFF7A3FE6D1CEDB2092DEAD3788809
:10428000009020892901284400EBC00202EB401075
:104290008219102300204031A2F27112FFF78EFE26
:1042A0002089401C80B20A21B0FBF1F22081B0FBD2
:1042B000F1F0A28160810BB0F0BC5DF814FB00004E
:1042C000600600206C0000202DE9F04F87B014211B
:1042D0006846FCF7DCFD464D444A05F1080690159A
:1042E0002A60A88080203260B08005F1100840204C
:1042F000C8F8002005F11809A8F804003D4CC9F8D9
:104300000040A9F8040005F1200B2021CBF8004063
:10431000ABF8041005F128001021046081800830FA
:1043200008210460818000F1080704203C60B88007
:104330003148016841F020010160016801F020016D
:104340000591016841F01001016000684FF0010A19
:1043500000F0100005904FF4E070CDE9000A002055
:10436000CDE9020A69461046FEF72AF87C20CDE91D
:10437000000A0020CDE9020A69462046FEF720F82F
:10438000A98801222868FEF701F9B1880122306866
:10439000FEF7FCF8B8F804100122D8F80000FEF788
:1043A000F5F8B9F804100122D9F80000FEF7EEF88C
:1043B000BBF804100122DBF80000FEF7E7F805F176
:1043C0002800012281880068FEF7E0F805F130003E
:1043D000012281880068FEF7D9F8B988012238687F
:1043E000FEF7D4F807B0BDE8F08F000000140240DB
:1043F0002400002000100240303802402DE9F04136
:10440000194C2378002B1BD018490025184A103B63
:104410000868052B14D2DFE803F02203151C1F00E7
:104420001646144F10E080680E46804737603868A3
:1044300004E080680F4680473E6030688047257002
:10444000BDE8F0810C4F1646B042ECD0B842F6D130
:10445000EFE71646094FF7E71646094FF4E7164609
:10446000B042ECD0E5E70000490100206C010020DB
:10447000B4400020C0400020CC400020D8400020A4
:10448000E44000202DE9F0417B4F7C4E00252DEDCE
:10449000028B387800287DD0C01E06287FD2DFE846
:1044A00000F05F7A03485358B3EE0E0A02F0C8FFDB
:1044B000734C607C0028FCD16420FDF76FFFBBEEDD
:1044C0000E0A02F0BDFF607C0028FCD16420FDF7DD
:1044D00065FF9FED6C8AB0EE480A02F0B1FF607C88
:1044E0000028FCD16420FDF759FFB3EE0E0A03F05B
:1044F00087F8654C607C0028FCD16420FDF74EFFF6
:10450000BBEE0E0A03F07CF8607C0028FCD164202E
:10451000FDF744FFB0EE480A03F072F8607C002813
:10452000FCD16420FDF73AFF02F0FCFF03F0FCF839
:1045300035E0F07A401CC0B2F072212800D9F57243
:10454000F07A03F0FFFB2AE0FFF748FA4F48457185
:1045500025E0307B80F00100307301F05DF81EE053
:1045600070780124401CC0B27070052800D97470A6
:104570003078401CC0B23070042800D93470717893
:10458000307803F095FBB4723278717840A0FFF771
:1045900015FE04E004E0B57242A0FFF70FFE3D7087
:1045A000B07AD8B1708A401C80B27082B0F57A7F40
:1045B00014D3758203F036FB80B100243D4E09E030
:1045C00006EB840036F8241042883BA0FFF7F6FD86
:1045D000641CE4B296F82800A042F1D8FDF7D8FA9E
:1045E000012802D0022802D004E037A000E039A060
:1045F000FFF7E4FD3B4C2078002814D0152811D299
:10460000DFE800F010311F212333191B1D350D1574
:1046100017372D0B2F2527292B0033A000E034A0BE
:10462000FFF7CCFD2570BDEC028BBDE8F08132A018
:10463000F6E733A0F4E734A0F2E735A0F0E736A0C0
:10464000EEE737A0ECE738A0EAE739A0E8E73AA0C0
:10465000E6E73BA0E4E73CA0E2E73DA0E0E73EA0C0
:10466000DEE73FA0DCE740A0DAE741A0D8E743A0BF
:10467000D6E745A0D4E700008800002070010020A4
:1046800008400020000000001C400020F400002032
:10469000414920746573742073746172743A25649F
:1046A00020256400414920746573742073746F7011
:1046B00000000000A2260020636F7272643A256435
:1046C0002C20256400000000446957656E4C63642B
:1046D00020557000446957656E4C636420446F77C1
:1046E0006E000000490100206B65795F300000001A
:1046F0006B65795F310000006B65795F3200000007
:104700006B65795F330000006B65795F34000000F2
:104710006B65795F350000006B65795F36000000DE
:104720006B65795F370000006B65795F38000000CA
:104730006B65795F390000006B65795F4631000079
:104740006B65795F463200006B65795F4633000028
:104750006B65795F463400006B65795F440000004B
:104760006B65795F450000006B65795F555000000F
:104770006B65795F444F574E000000006B65795FB1
:104780004C454654000000006B65795F524947482C
:10479000540000002DE9F05F39480178002969D004
:1047A000DFF8E490374B09F17008A8F12007A7F172
:1047B00084040122DFF8D4B02078354E0025A9F119
:1047C000200A052906D006291AD0072950D0082921
:1047D0004ED143E05979A9B9401CC0B220700428D9
:1047E00000D92270617820781BE02A49884202D0E3
:1047F000294988423CD129490D700068804737E03B
:10480000597931B126A0FFF7D9FC2DA0FDF710F999
:104810002EE06178491CC9B26170052900D9627027
:10482000617803F045FA61782AA009EB011221783A
:10483000103A0AEBC1010839FFF7C0FC6178207813
:1048400008EB011307EBC0022AA18220083A103BB3
:10485000FDF76EF930685845CDD0C6E7274C607833
:1048600050B1657026A0FFF7A9FC6580A580257072
:1048700003480570BDE8F09F627024A0F3E70000D4
:1048800088000020F4000020A4010020CC4000207B
:104890006C010020D8400020C040002068010020AA
:1048A00052756E53746167655F44657465637465C2
:1048B000642063616E2774206368616E6765000021
:1048C000B6A8CEBBD7B4CCACCFC2CEDEB7A8C7D0CB
:1048D000BBBB000043616D6572615F5365743A63F1
:1048E0006F6C6F723D25732073686170653D257331
:1048F0000000000025732573000000006001002007
:10490000636F6F7264206D6F646500006469737417
:10491000206D6F64650000002DE9F041894FDFF8DC
:104920002882012638780024884D00285AD0012892
:1049300006D002283AD003281DD0042851D145E0E2
:10494000A879401CC0B2A871022801D9AC7100E05E
:1049500018B9B8F8000002F083FEA879012802D146
:10496000002002F07DFEA87902283AD140F2FF2013
:1049700002F076FE35E0E879401CC0B2E87102280A
:1049800001D9EC7100E018B94FF42B7002F088FDEA
:10499000E879012802D1002002F082FDE87902289E
:1049A0001FD140F2555002F07BFD1AE02E706E7060
:1049B0003146304603F07CF9C820FDF7EFFC6978FA
:1049C000287803F075F9EE7061A008E0287928B125
:1049D000AE70012000F020FEEC7002E05FA0FFF757
:1049E000EDFB3C70614F387878B30F2811D00A285E
:1049F0000FD00B280DD00C280BD0062809D0072883
:104A000007D0082805D0022803D0032801D00428A5
:104A10003CD16979C9B3801E0E281CD2DFE800F0B2
:104A200016181A1B0F11131B090B0D1B1B07002156
:104A300011E001210FE002210DE003210BE0042130
:104A400009E0052107E0062105E023E0072102E057
:104A5000082100E00921E88900EB800001EB40001B
:104A600081B2E98142A0FFF7A9FBE889B0F5407F58
:104A700009D31F2003F066F940A0FCF7D9FF42A03C
:104A8000FFF79CFBEC813C7004E0FFE70E2807D0A9
:104A900010280ED0E878002852D0287A90B120E073
:104AA0002E71E989A8F800106C713AA0FFF786FB17
:104AB000E9E7EC816E713DA0FFF780FB1E2003F05B
:104AC00041F9E0E703F0AEF8042802D1288A401C3F
:104AD0002882288A0A2804D32C822E72002000F013
:104AE0009BFD287A01282BD1288A98B9334E687A01
:104AF00036F8200002F0D4FC687A06EB800040888B
:104B000002F0AEFD2E48417C0029FCD12D48417CAD
:104B10000029FCD1288A401C80B22882B0F5FA6FA7
:104B20000ED32C82687A401CC0B26872042807D168
:104B30006C722C722C82BDE8F041012000F06CBD3B
:104B4000BDE8F081880000200001002070010020F5
:104B5000566973696F6E20436C696200696E707587
:104B600074206F666673657421210000490100207E
:104B70004F46465345543A2564000000CAE4C8EB4A
:104B8000B4EDCEF300000000696E7075742065729C
:104B9000726F72006F666673657420696E707574EB
:104BA000207375636365737300000000696E707530
:104BB00074206F666673657400000000A2260020F2
:104BC0001C4000200840002010B586B01421684623
:104BD000FCF75DF9104C0F4810494FF4004220607B
:104BE000A2800B6843F002030B60096801F0020128
:104BF00005910121CDE900210222CDE9022169467A
:104C0000FDF7DEFBA18800222068FDF7BFFC06B09F
:104C100010BD000000040240E400002030380240D3
:104C2000044902000868898802D00022FDF7AEBC62
:104C30000122FBE7E40000207FB500241648009421
:104C4000019402941349039401604FF48031416050
:104C5000490204618160047680F82040C900C16285
:104C60000125C5614FF06061C460816280F8304009
:104C70004561FDF76FF808B1FCF7BCFF0095CDE981
:104C8000015469460448FCF7B7FF002801D0FCF73F
:104C9000B1FF7FBD00200140B8050020154808B5D0
:104CA000016841F4800101600068002200F4800086
:104CB000009002213820FDF7E5FC3820FDF7D7FCF5
:104CC000002203213B20FDF7DDFC3B20FDF7CFFC5C
:104CD000002202213A20FDF7D5FC3A20FDF7C7FC5F
:104CE000002202214620FDF7CDFCBDE80840462009
:104CF000FDF7BDBC30380240114808B5016841F0ED
:104D000004010160016801F004010091016841F0B3
:104D100080010160016801F080010091016841F0AB
:104D200001010160016801F001010091016841F099
:104D300002010160006800F00200009008BD000060
:104D4000303802400F4810B50D4901604FF48271B0
:104D5000416000218160C1604FF400720161C0E9CF
:104D60000512C1610162416281620A21C162FDF7DF
:104D7000C9FF002803D0BDE81040FCF73BBF10BDC1
:104D8000003001408002002010B586B00024164893
:104D9000009401940294039404944FF0804105948C
:104DA00001605321C0E90114C721C0E90314802127
:104DB0008161FEF705F908B1FCF71CFF4FF4805044
:104DC000009069460848FEF7B7F908B1FCF712FFF2
:104DD000049404A904480594FEF7AAF8002801D019
:104DE000FCF708FF06B010BDB804002010B586B06F
:104DF00000241748009401940294039404941349E6
:104E0000059401600C21C0E90114A721C0E9031435
:104E100080218161FEF7D4F808B1FCF7EBFE4FF476
:104E20008050009069460A48FEF786F908B1FCF701
:104E3000E1FE049404A906480594FEF779F80028D9
:104E400001D0FCF7D7FE06B010BD00000004004002
:104E5000F804002010B586B000241748009401948F
:104E60000294039404941349059401605321C0E90A
:104E70000114C721C0E9031480218161FEF7A0F865
:104E800008B1FCF7B7FE4FF48050009069460A481D
:104E9000FEF752F908B1FCF7ADFE049404A90648E8
:104EA0000594FEF745F8002801D0FCF7A3FE06B0F4
:104EB00010BD0000000800403805002010B586B085
:104EC0000024184800940194029403940494144913
:104ED000059401601421C0E901140921C0E90314FB
:104EE0008021C0E90541FEF76BF808B1FCF782FEAE
:104EF0004FF48050009069460A48FEF71DF908B14A
:104F0000FCF778FE2020CDE9040404A90548FEF74B
:104F10000FF8002801D0FCF76DFE06B010BD0000B0
:104F200000040140780500200C4810B50A490160D2
:104F30004FF416514160002181600C22C160C0E92C
:104F400004128161C161FEF7D1FA002803D0BDE8E7
:104F50001040FCF74FBE10BD004C0040380300204D
:104F60000C4810B50A4901604FF4E131416000215D
:104F700081600C22C160C0E904128161C161FEF749
:104F8000B5FA002803D0BDE81040FCF733BE10BDD1
:104F900000500040780300200C4810B50A49016019
:104FA0004FF4E1314160002181600C22C160C0E911
:104FB00004128161C161FEF799FA002803D0BDE8AF
:104FC0001040FCF717BE10BD00100140B8030020D0
:104FD0002DE9F04186B014216846FBF758FF2D49B2
:104FE0002B4A02240A608C8090148A6088812A4DA2
:104FF0000D61888240008A61888340000D62888448
:1050000001F12800511505608180DFF89080C0F81B
:105010000880848108210261818209028261818382
:105020001F49086840F020000860086800F0200070
:105030000590086840F008000860086800F0080063
:105040000590086840F0020008600868112600F02A
:105050000200059043F60A00012703948DE8C10081
:1050600069461046FDF7ACF94FF4A44003948DE86F
:10507000C10069462846FDF7A3F98DE8D0006946CE
:1050800040460394FDF79CF906B0BDE8F0810000AE
:105090000014024030400020000C02400004024096
:1050A000303802402DE9F0477C4C7D4DE08805F119
:1050B000280760BBA98801222868FDF767FAA9893B
:1050C0000122A868FDF762FAA98A01222869FDF782
:1050D0005DFAA98B0122A869FDF758FAA98C012273
:1050E000286AFDF753FAB98800223868FDF74EFAAE
:1050F000B9890022B868FDF749FAB98A00223869EF
:10510000FDF744FAB98B0022B869FDF73FFAE08851
:1051100000264FF001084FF002094FF0030A0A2859
:1051200039D8A9882868FDF725FAC0B1A989A868E7
:10513000FDF720FAB8B1A98A2869FDF71BFAC0B1BA
:10514000A98BA869FDF716FAC8B1A98C286AFDF7E2
:1051500011FAD0B12670E680667026817CE0E08886
:10516000401CE08060E0E088401CE08084F8008023
:1051700072E0E088401CE08084F800906CE0E088F9
:10518000401CE08084F800A066E0E088401CE080DD
:105190000420207060E0208960BBA9880022286874
:1051A000FDF7F4F9A9890022A868FDF7EFF9A98AAB
:1051B00000222869FDF7EAF9A98B0022A869FDF70A
:1051C000E5F9A98C0022286AFDF7E0F9B9880122E7
:1051D0003868FDF7DBF9B9890122B868FDF7D6F91F
:1051E000B98A01223869FDF7D1F9B98B0122B86972
:1051F000FDF7CCF920890A2832D8B9883868FDF73C
:10520000B9F998B1B989B868FDF7B4F998B1B98A14
:105210003869FDF7AFF9A0B1B98BB869FDF7AAF904
:10522000A8B126816670E680267015E02089401CB2
:105230002081667010E02089401C208184F8018064
:105240000AE02089401C208184F8019004E0208934
:10525000401C208184F801A0A07801280ED019E01C
:105260006078217800EB8100401C608184F8028026
:105270002671E070E680268166702670608948B9E4
:105280002079401CC0B22071642803D3E07860719B
:105290002671A6706681BDE8F087000044010020F9
:1052A00030400020FEE770470907090E002806DAA3
:1052B00000F00F0000F1E02080F8141D704700F1AD
:1052C000E02080F8001470472DE9F05FDFF8A0823D
:1052D0002DED048BADF5415D98F80000DFF8949258
:1052E0004FF0000A00287CD0D9F800006FF00101CF
:1052F00001614846FDF7F5FE9F48FCF74BFE98F824
:10530000010044460328504605D2FEF7FDFB6078B5
:10531000401C607001E0FEF71FFC4FF4A07604AB68
:1053200006AA3146E068FBF7DDFB05AB07AA31466C
:10533000E068FBF723FCDDE90610091A00EB5105D4
:105340000023E168184651F82020521B00D5524234
:10535000401C80B21344B042F5D3B3FBF6F09FED8E
:10536000878ADFED878AB3EE069A4FF4806B0228B6
:105370004ED941F2240700206F445D4651F82020A9
:1053800000EE102A07EBC002401CB8EE400A80B2C3
:10539000A84230EE680AC0EE090AC2ED000A82EDAA
:1053A000018AEBD339467748FBF7B4FA2A4608ADB1
:1053B00029463846FAF704FF43F224028DED088AA5
:1053C0000DF581536A444FF400712846FBF720FB2A
:1053D00094ED020AB8EE400A9FED6B1AC1EE000A86
:1053E00000E0A1E094ED010AB8EE400A80EE801AD8
:1053F0009FED660A0DF5805061EE000A90ED080AF7
:10540000B8EE400A20EE800ADFED610A80EE208AC5
:1054100000254FF6E077E16851F82500DC2800D937
:10542000DC2041F82500C0F1F00081B23A46284660
:10543000FEF7E2FB4FF4FC6211212846FEF7DCFB8D
:105440004FF6FF72A7212846FEF7D6FB6D1CADB2C2
:10545000B542E0D30498032800D8032004900598AF
:10546000032800D8032005904FF478400090E168AD
:105470000498A046102351F82010C01EC1F1EA0183
:1054800089B280B22A22FEF709FD40F2FF70009037
:10549000D8F80C10059810232A2251F82010C01EAD
:1054A000C1F1EA0189B280B2FEF7F8FC9DED060A6F
:1054B00018EE100AB8EE400A70EE680A80EE890A0B
:1054C000DDED070AF8EE600A30EEE81AC1EE090ACF
:1054D000B1EE041A60EE018A20EE819AFBF7FAFC25
:1054E00006460F4619EE100AFBF7F4FC04460D467B
:1054F00018EE900AFBF7EEFC8DE8F00041EC100B83
:1055000024A053EC102BFEF75DFC4FF47A70FCF7EF
:1055100045FF5A461848D8F80C10FCF791FC15487E
:10552000FDF7BCFD88F800A024490878002819D0B0
:105530000A22012802D0022812D105E0D8F804007E
:10554000B0FBF2F2104406E0D8F804000A2807D9AC
:10555000B0FBF2F2801AC8F80400D9F8002090627B
:1055600081F800A00DF5415DBDEC048BBDE8F09F16
:105570006402002078050020B8050020000000002B
:105580000000904260410020A037204D0000803A8A
:1055900000007A444D61783A25312E316656204D0F
:1055A000696E3A25312E31665620467265713A256C
:1055B000322E32666B487A202020000088000020BE
:1055C0007047000010B586B014216846FBF75FFCF9
:1055D0000F4C0E480F4902222060A2800B6843F056
:1055E00010030B60096801F0100105910121CDE95C
:1055F0000021029103916946FCF7E2FEA188012295
:105600002068FCF7C3FF06B010BD00000010024088
:10561000500100203038024002460248818800686C
:10562000FCF7B4BF5801002010B586B014216846BD
:10563000FBF72DFC0F4C0E480F494FF40042206041
:10564000A2800B6843F020030B60096801F0200181
:1056500005910121CDE90021029103916946FCF7F2
:10566000AFFEA18801222068FCF790FF06B010BDB4
:10567000001402405801002030380240F0B50022EA
:1056800035E0561CF1B22DE030F8213030F82240E0
:10569000A3420BD220F8223020F8214000EB8203F5
:1056A00000EB81045D8867885F80658030F8215059
:1056B00030F82270EB1B0933122B11D800EB810458
:1056C00000EB8203B4F802C0B3F802E0F44507D956
:1056D00020F8225020F821705D8867885F806580FF
:1056E000491CC9B290F828308B42CDD8F2B290F85C
:1056F00028109142C5D8F0BD0F4810B5002100F820
:105700002A1F012400F82A1C447041808180017204
:1057100041818181C18101740848417108A18120C2
:10572000FCF706FA0948017821B1BDE810401920BC
:1057300002F008BB047010BD78400020F400002087
:10574000BFECCBD9C4A3CABD000000006801002093
:105750000120FFF761BF00000C480B4901600C49B4
:1057600081600C4941600C480021012200F82A1F89
:1057700000F82A1C427041808180C1800172418101
:105780008181C18101747047F9560008D84000201A
:10579000515700089D570008784000202DE9F84F28
:1057A000FE4DDFF8FCB3284695F82B100078002456
:1057B0004FF0020840F6B83941F2883A012902D088
:1057C00000287DD030E170B902F02CFA58B1A88ED3
:1057D000401C80B2A886052805D3FEF7FFF80120FB
:1057E0002870AC8602E02878012817D102F01AFA56
:1057F00048B1A88E401C80B2A886142803D3AC867A
:10580000EC8685F80080E88E401C80B2E88648452A
:1058100004D3EC86AC862C70FEF7E0F828780228DA
:1058200008D003287ED1A98EB1FBFAF20AFB121030
:10583000F8B183E0DB4A2C8792F828100FE032F8A9
:10584000203005EB80004380B5F9380002EB80037F
:1058500005EB80005B888380288F401C2887B5F982
:1058600038008842EBDB2C8785F82A10032028704B
:10587000D9E7B5F9380095F82A1088425EDA012098
:10588000FFF7CAFEB5F9380005EB8000408801F04B
:1058900007FEB5F9380005EB8000808801F0E0FED6
:1058A000C148417C0029FCD1C048417C0029FCD181
:1058B0009BF80000BE4F80005E463978001F00E074
:1058C00064E00844C0B202F03DFA0020FFF7A4FEF5
:1058D000B5F9380005EB8000818800914388B54810
:1058E000317800EB0112B4483978103A00EBC1016D
:1058F000B2A00839FEF762FCB5F9380005EB80006C
:10590000818800914388B448317800EB0112B34894
:105910003978103A00EBC101B1A00839FCF788F8DA
:10592000288E00E030E0401C81B2298646F2060055
:10593000FBF7DEFF288F401C2887AC86A88E401C12
:1059400080B2A0F59851A886893902D10120FFF7CD
:1059500063FEA98EA1F5A8507C380BD195F82A00DA
:1059600005EB800131F8021CA98535F82000E88597
:10597000FEF734F8A98EA1F5B850703804D12C7018
:10598000AC862C8785F82B40BDE8F88F02F04AF9E9
:1059900068B395F83A0038B12C87824EAB8D2A4611
:1059A00096F828105B1D28E07E48AA8D90F82810F4
:1059B000521D00EB810030F8041C914203D90120F4
:1059C00085F83A0021E0A98530F8020CE8852BE043
:1059D00036F820709F420ED3B2F93810002907DD47
:1059E00006EB800030F8041D91854088E88508E0CA
:1059F0009485EC8505E0401C1087B2F93800884298
:105A0000E6DB95F83A0001280ED1A88E401C80B242
:105A1000A886B0F57A7F07D3AC8685F83A40FDF7C3
:105A2000DDFF0120287002E02878012867D102F00C
:105A3000F9F8E8B3A88E5B4B401C87B2AF862C8781
:105A4000AE8D93F82810761D14E033F82020B24272
:105A50000ED9B5F93820002A07DD03EB800030F8B5
:105A6000042DAA854088E88508E0AC85EC8505E032
:105A7000401C2887B5F938008842E6DB28461E2FEF
:105A800031D304870FE033F8226000EB82025680A6
:105A9000B0F9382003EB820600EB8202768896800C
:105AA000028F521C0287B0F938208A42EBDB00E0FB
:105AB00019E080F82A100487838D0BE000EB820642
:105AC00076889E4204D990F83260761C80F8326065
:105AD000521C0287B0F938208A42EFDB048780F835
