:020000040800F2
:10000000F0F60120A10100085F2D0008B9270008C3
:100010005D2D0008DD070008013900080000000020
:10002000000000000000000000000000593200083D
:100030009D08000800000000612D00085B320008E8
:10004000BB010008BB010008BB010008BB010008A0
:10005000BB010008BB010008BB010008BB01000890
:10006000BB010008BB010008BB010008BB01000880
:10007000BB010008BB010008BB010008BB01000870
:10008000BB010008BB010008BB010008BB01000860
:10009000BB010008BB010008BB010008BB01000850
:1000A00005330008BB010008BB010008BB010008C4
:1000B000BB010008BB01000811330008BB010008A8
:1000C000BB010008BB010008BB010008BB01000820
:1000D000BB010008F5380008BB010008BB0100089F
:1000E000BB010008BB010008BB010008BB01000800
:1000F000BB010008BB010008BB010008BB010008F0
:10010000BB010008BB010008BB010008BB010008DF
:10011000FD350008093600081D330008BB01000842
:10012000E1070008BB010008BB010008ED0700085B
:10013000BB010008BB010008BB010008BB010008AF
:10014000BB010008BB010008BB010008BB0100089F
:10015000BB010008BB010008BB010008BB0100088F
:10016000BB010008BB010008BB010008BB0100087F
:10017000BB010008BB010008BB0100080000000033
:10018000BB010008BB010008DFF810D000F080FAC6
:1001900000480047154D0008AFF30080F0F601203D
:1001A0000648804706480047FEE7FEE7FEE7FEE711
:1001B000FEE7FEE7FEE7FEE7FEE7FEE7F5320008B2
:1001C000890100082DE9F05F0546002092469B4614
:1001D00088460646814640241BE02846414647465D
:1001E000224600F08DF853465A46C01A914110D36A
:1001F00011461846224600F074F82D1A67EB0108E4
:100200004F4622460120002100F06BF817EB000951
:100210004E41201EA4F10104DFDC484631462A4647
:100220004346BDE8F09F40EA01039B0703D009E085
:1002300008C9121F08C0042AFAD203E011F8013BD2
:1002400000F8013B521EF9D27047D2B201E000F82B
:10025000012B491EFBD270470022F6E710B513466A
:100260000A4604461946FFF7F0FF204610BD421C1F
:1002700010F8011B0029FBD1801A704710B500222D
:1002800000E0521C835C8C5CA34201D1002BF8D1AE
:10029000D8B2E1B2401A10BD30B505460020034681
:1002A00000E05B1C934205D2EC5CC85C201A01D1D3
:1002B000002CF6D130BD30B50B460146002020227F
:1002C000012409E021FA02F59D4205D303FA02F563
:1002D000491B04FA02F52844151EA2F10102F1DCC3
:1002E00030BD202A04DB203A00FA02F100207047DA
:1002F0009140C2F1200320FA03F319439040704764
:10030000202A04DB203A21FA02F00021704721FA6A
:1003100002F3D040C2F120029140084319467047D1
:100320002DE9FE4F804681EA0300C00F0C46009085
:1003300021F0004123F00045B8EB0200A94105D2AD
:100340004046214690461C460B46024623F000409C
:10035000104347D0270DC7F30A00C3F30A51029098
:10036000401A019040286BDAC3F3130040F4801B5D
:100370000098924620B10023D2EB030A63EB0B0BEB
:1003800001985946C0F140025046FFF7AAFF0646C1
:100390000D4650465946019A00F08CF910EB0800C2
:1003A0006141002487EA115284EAE7731A4340D07E
:1003B000009A62B3019A012A4FEA075215DC001B2A
:1003C00061EB02014FF0004202EA0752CDE9004220
:1003D000001C41F5801132462B4600F08CF903B029
:1003E000BDE8F08F40462146F9E7001B61EB0201B2
:1003F000001C41F5801300185B412018A2F500177E
:1004000047EB030140EAD570B6196D4111E06D0864
:100410004FEA360645EAC0754FEA0752001B61EB0A
:100420000201001C41F5801149084FEA3000001913
:10043000514132462B4603B0BDE8F04F00F04CB9B5
:100440000098012240000023D0EB020263EBE0732E
:10045000009821464FEAE074B8EB000061EB04011C
:10046000E9E783F000435BE781F0004158E72DE9BD
:10047000FE4F81EA030404F0004421F0004100949F
:100480004FF0000B23F0004350EA01045ED052EA23
:1004900003045BD0C3F30A54C1F30A552C44A4F2FD
:1004A000F3340194A0FB0254C1F3130141F4801111
:1004B000C3F3130343F4801301FB024400FB034E18
:1004C000840A970A44EA815447EA8357A4FB0768E1
:1004D00002958D0A05FB07854FEA932C04FB0C540B
:1004E0002705029D4FEA065847EA1637B5EB08057F
:1004F0006EEB070C870E920E47EA811742EA8312D1
:10050000A7FB0201B6EB0B0164EB00042B0D43EAE1
:100510000C335E1844EB1C50DA465146E7FB0201EF
:10052000C5F313044FEA0B3343EA14534FEA043282
:10053000019C43EA0603A4F10C040294009CCDE95B
:1005400000B400F0D8F803B0BDE8F08F00200146F9
:10055000F9E72DE9F04D81EA030404F0004B21F0A6
:10056000004514464FF0000A23F0004150EA05020E
:1005700020D054EA01021DD0C5F30A570246C5F344
:100580001303C1F31300C1F30A5640F4801543F47A
:100590008013A7EB0608101BD64608F2FD3873EB54
:1005A000050002D308F1010801E092185B41B8F19F
:1005B000000F03DA00200146BDE8F08D00204FF463
:1005C0008011064684460EE0171B73EB050705D322
:1005D000121B63EB050306434CEA010C49084FEA82
:1005E000300092185B4150EA0107EDD152EA030056
:1005F00012D082EA040083EA0501084305D0101BEB
:10060000AB4106D20122002306E000224FF0004356
:1006100002E06FF0010253101AEB06004CEB085198
:1006200010EB0A0041EB0B01BDE8F04D00F054B8AF
:10063000C1F30A52C1F3130140F2FF3341F48011B8
:100640009A4202DA00200146704740F233439A4250
:10065000A2F2334202DC5242FFF752BEFFF741BE24
:1006600030B5041E71F1000404DB4FF00044404239
:1006700064EB0101141E73F1000405DB1C464FF00E
:100680000043524263EB0403994208BF904230BDDD
:10069000064C074D06E0E06840F0010394E80700CF
:1006A00098471034AC42F6D3FFF772FDA46E0008F1
:1006B000D46E0008202A06DBCB17203A41FA02F05C
:1006C00043EAE07306E041FA02F3D040C2F12002AF
:1006D000914008431946704710B5141E73F1000489
:1006E00008DA401C41F1000192185B411A4301D124
:1006F00020F0010010BD2DE9F04D92469B4611B14E
:10070000B1FA81F202E0B0FA80F220329046FFF7AF
:10071000E8FD04460F4640EA0A0041EA0B01534651
:100720005A46084313D0114653EA010019D0C8F1C4
:1007300040025046FFF7E4FD05460E465046594636
:100740004246FFF7CEFD084305D0012004E02046D5
:100750003946BDE8F08D0020054346EAE0762C439B
:1007600037430A986305E40AA0EB08000022FD0A5B
:1007700044EA47540A3002D500200146E9E7010562
:1007800010196941DDE9084500196941BDE8F04DDE
:10079000A2E7000001464FF6FF730822014801F06E
:1007A000B1BF0000DCC201201CB51E2800D91E20EC
:1007B0007E218DF8001004218DF8011031218DF873
:1007C00002108DF8030080F035008DF80400EF2052
:1007D0008DF805006846FFF7DDFF1CBDFEE7000051
:1007E000014800F0B9B8000044C10120014800F000
:1007F000B3B80000A4C1012001681823CAB2103A9E
:10080000B2FBF3F2054B6FF30901032A9B5CC3654E
:1008100000D9091D81650846704700005669000827
:1008200010B5014600208B698A6A4FF0C07453B13D
:10083000B3F5005F15D072B1012A0CD0022A0AD09C
:10084000032A09D104E01AB1012A06D0022A03D1F1
:10085000C96AC90100D5012010BDC96AA142FAD0F8
:1008600010BD002AF7D0012AF2D0022AF3D0032AC1
:10087000F3D010BD30B50468256825F480252560C7
:10088000046863608368402B036803D09960006844
:10089000C26030BD9A600068C16030BD704772B6FA
:1008A000FEE72DE9F0410446876D00F0E3FA0646C5
:1008B00094F835000025022806D08020606584F871
:1008C00034500120BDE8F0812068016821F0160154
:1008D00001602068416921F080014161206C08B904
:1008E000A06C20B12068016821F008010160206837
:1008F000016821F0010101600CE000F0BBFA801BEF
:10090000052807D920206065032084F8350084F885
:100910003450D7E720680068C007EED194F85C1027
:100920003F208840B860012084F8350084F83450B6
:100930000020C7E790F83510022903D080214165D7
:1009400001207047052180F835100068016821F00A
:1009500001010160002070472DE9F84304464FF083
:100960000009CDF8009063484FF41651A56D00685A
:10097000B0FBF1F72E6894F85C10082000FA01F142
:1009800031420FD021680A6852070BD50A6822F05D
:1009900004020A6094F85C108840A860606D40F022
:1009A0000100606594F85C104FF0010808FA01F04E
:1009B000304208D021684969090604D5A860606DF5
:1009C00040F00200606594F85C10042088403042DA
:1009D00008D021680968890704D5A860606D40F0D7
:1009E0000400606594F85C1010208840304218D0F4
:1009F00021680968090714D5A860206801684903BF
:100A000004D50068000308D5A16C07E00168C9059A
:100A100003D4016821F008010160216C09B120466E
:100A2000884794F85C1020208840304231D02168FB
:100A30000968C9062DD5A86094F8350005282068F6
:100A4000016806D0490347D5006800031DD4616CD6
:100A50001CE021F0160101602068416921F080014D
:100A60004161206C08B9A06C20B12068016821F0B8
:100A70000801016094F85C103F208840A86084F869
:100A8000358084F83490216D1FE0E16B09B1204678
:100A90008847606D00282BD0606DC00714D00520FA
:100AA00084F835002068016821F001010160009898
:100AB000401C0090B84203D820680068C007F6D1F7
:100AC00084F8358084F83490E16C002910D001B0AE
:100AD0002046BDE8F04308470168C905D5D4016840
:100AE00021F01001016084F8358084F83490CCE75F
:100AF000BDE8F88310C001202DE9F041044600F064
:100B0000B9F906465CB1022084F83500002584F866
:100B100034502068016821F0010101600DE00120DE
:100B2000BDE8F08100F0A6F9801B052805D920203A
:100B30006065032084F83500F2E720680068C0078C
:100B4000F0D12268116820480140D4E9010318431C
:100B5000D4E903363343184363691843A369184340
:100B6000E3691843236A18430843616A042903D1DF
:100B7000D4E90B1319430843106020684069666A82
:100B800020F0070130460E43012704280CD1A06A4B
:100B90000643E06A40B12046FFF742FE20B1402004
:100BA000606584F83570BAE7206846612046FFF733
:100BB00023FE94F85C203F2191408160656584F8B4
:100BC00035700020ACE700003F8010F02DE9F041C7
:100BD0000446866D90F83400002501280DD00120D0
:100BE00084F8340094F835700020012F07D084F881
:100BF000340002252846BDE8F0810220FBE70227E9
:100C000084F8357060652046FFF734FE94F85C1078
:100C10003F208840B0602068016841F01601016003
:100C2000206C20B12068016841F008010160206853
:100C3000016841F001010160DCE7000070B5044685
:100C400000F018F90546601C02D0044800780444FE
:100C500000F010F9401BA042FAD370BD04C001207F
:100C60002DE9F84FDFF8BCA10022012503264FF043
:100C70000F090AF1040BAAF1040E00BF0B6805FA74
:100C800002F42340A34270D10F7907F00307012F2C
:100C900001D0022F16D187684FEA420806FA08FCF5
:100CA00027EA0C07D1F80CC00CFA08FC4CEA070C38
:100CB000C0F808C04768A7430C79C4F300149440F7
:100CC0003C4344600C79E443A4070AD0C4684FEA6B
:100CD000420C06FA0CF7BC438F6807FA0CF727435F
:100CE000C7600C7904F00304022C12D1D40800EB85
:100CF000840CDCF820405707FF0E09FA07F824EAB5
:100D00000804D1F8108008FA07F848EA0408CCF87B
:100D1000208004684FEA420C06FA0CF7BC430F79B6
:100D200007F0030707FA0CF7274307604C6814F431
:100D3000403F70D03C4C276847F4804727602468C8
:100D400022F0030704F480440094384C07EB040CB1
:100D5000DCF8084897074FEA177809FA08F7BC4308
:100D6000334FB84202D1002724E054E0314FB8425B
:100D700001D101271EE0304FB84201D1022719E00E
:100D80002E4FB84201D1032714E02D4FB84201D1B4
:100D900004270FE02B4FB84201D105270AE02A4F64
:100DA000B84201D1062705E0284FB84201D10727F4
:100DB00000E0082707FA08F72743CCF80878DAF8A4
:100DC00000405746D1F804C09C435FEACC2C00D5C4
:100DD0001C433C60DBF800405F46D1F804C09C43F4
:100DE0005FEA8C2C00D51C433C60DEF8004077465F
:100DF000D1F804C09C435FEA8C3C00D51C433C60A6
:100E0000084F083F3C68D1F804C09C435FEACC3CE3
:100E100000D51C433C60521C102AFFF42FAFBDE8E4
:100E2000F88F0000083C0140443802400030014087
:100E3000000002400004024000080240000C024092
:100E4000001002400014024000180240001C024042
:100E50000069084000D001207047426921EA02037E
:100E60000A4043EA0241816170470AB181617047DB
:100E70000904FBE7014880687047000004C00120B6
:100E800002488168027811448160704704C00120E3
:100E90000B4810B5016841F400710160016841F42C
:100EA00080610160016841F480710160032000F0FD
:100EB0006FF80F2000F006F800F024F8002010BDB5
:100EC000003C024070B50D4D04464FF47A7128780D
:100ED000B1FBF0F00A490968B1FBF0F000F0F8FC52
:100EE00048B9102C07D200222146501E00F030F8DD
:100EF00000206C6070BD012070BD000004C00120A6
:100F000010C001200A4808B5016841F48041016021
:100F1000006800F4804000900548001F016841F01F
:100F200080510160006800F08050009008BD000012
:100F300044380240002809DB00F01F0201219140E3
:100F40004009800000F1E020C0F800117047000067
:100F5000F0B40E4B1B680C46C3F30223C3F1070524
:100F6000042D00D90425191D072901D2002300E012
:100F7000DB1E012606FA05F1491E214099409E40DC
:100F8000761E16403143F0BC02F0CCBC0CED00E004
:100F9000064900F0070208684FF6FF03184040EAD0
:100FA0000220034A10430860704700000CED00E087
:100FB0000000FA052DE9F0470E46050065D0DFF880
:100FC0001481D8F80000F7B200F00700B04207D251
:100FD00088F80070D8F8000000F00700B04254D143
:100FE00028683D4C810712D5400703D5206840F49E
:100FF000E05020602878000703D5206840F4604066
:1010000020602068A96820F0F0000843206028785C
:10101000C0072DD0304968680839012812D002284D
:1010200013D0032811D00968890700292DDA216817
:1010300021F0030101432160FFF71CFF814641F2CB
:10104000883A0EE009688903EFE709688901ECE74F
:10105000FFF710FFA0EB0901514502D90320BDE8BD
:10106000F0872068696800F00C00B0EB810FEFD1C9
:10107000D8F80010404601F00701B14207D90770C7
:10108000006800F00700B04201D00120E7E72878AF
:10109000400705D52068E96820F4E0500843206047
:1010A0002878000706D52068296920F4604040EAC6
:1010B000C100206000F038F82168084AC1F303112C
:1010C000515CC8400649086006480068FFF7FAFE10
:1010D0000020C4E7003C0240083802405E69000876
:1010E00010C0012008C001200448054900680968B3
:1010F000044AC1F38221515CC840704710C00120EE
:10110000083802406E69000804480549006809680B
:10111000044AC1F34231515CC840704710C00120FD
:10112000083802406E690008154810B5006810F0D4
:101130000C02144813D01449042A0FD0082A0ED1E7
:101140000F4C241F2268236802F03F025B0207D580
:101150002068C0F38810A0FB010106E0084610BD1E
:101160002168C1F38811A1FB00010023FFF72AF8D1
:101170002168C1F30141491C4900B0FBF1F010BDE9
:10118000083802400024F40040787D012DE9F84F32
:1011900004006ED02078DFF84C93C007A9F1040555
:1011A0004AD009F104000168C1F38101012908D086
:1011B0000068C0F3810002280AD1D9F8000040027B
:1011C00006D52868800337D560680028E1D033E071
:1011D0006068B0F5803F10D0B0F5A02F286810D01F
:1011E00020F480302860286820F48020286060681F
:1011F000A8B1FFF73FFE06460DE0286840F48030B6
:10120000F4E740F480202860F7E700BFFFF732FEE4
:10121000801B642873D828688003F7D50CE0FFF79B
:1012200029FE064605E000BFFFF724FE801B642868
:10123000F0D828688003F7D42078DFF8AC828007E4
:101240004FF0000A3ED5A748001D016811F00C0FB1
:1012500008D00068C0F3810002280BD1D9F8000043
:10126000400207D42868800716D5E068012800D11D
:1012700012E033E1E068B8B10120C8F80000FFF7E0
:10128000F9FD064605E000BFFFF7F4FD801B0228CC
:10129000C0D828688007F7D52868216920F0F800B1
:1012A00040EAC10028600DE0C8F800A0FFF7E2FDA9
:1012B000064604E0FFF7DEFD801B02281FD82868E1
:1012C0008007F7D42078000722D5864F87486169C8
:1012D000703771B101210160FFF7CCFD064604E0D3
:1012E000FFF7C8FD801B022809D838688007F7D5AA
:1012F0000EE0C0F800A0FFF7BDFD064605E082E065
:10130000FFF7B8FD801B02287DD838688007F7D426
:101310002078400768D5DFF8CCB100270BF13C0BF3
:10132000DBF80000C0000BD4DBF8001041F0805166
:10133000CBF80010DBF80000012700F0805000908F
:101340006B4E3068C00510D4306840F48070306057
:10135000FFF790FD009005E0FFF78CFD0099401A23
:10136000022850D83068C005F6D55E4EA0686C36AD
:1013700001280FD00528306810D020F0010030601F
:10138000306820F004003060A068B8B1FFF772FD4B
:1013900000900FE0306840F00100F4E740F00400F6
:1013A0003060F7E7FFF766FD0099411A41F2883097
:1013B000814266D830688007F4D50EE0FFF75AFD09
:1013C000009007E0FFF756FD0099411A41F288307E
:1013D000814256D830688007F4D42FB1DBF8001072
:1013E00021F08051CBF80010A069C8B33D49091D18
:1013F0000968C1F3810102294AD00228504607D06A
:10140000C8F8600000E03CE0FFF734FD04463BE034
:101410004746C8F86000FFF72DFD064605E000BF0F
:10142000FFF728FD801B02282BD828688001F7D4FD
:10143000D4E907010843A16A2E4A490802EB014199
:10144000626A41EA8211084394F82C1040EA016173
:10145000C9F8001001203866FFF70CFD044606E0CD
:101460003EE000BFFFF706FD001B022809D82868F0
:101470008001F7D534E000BFFFF7FCFC001B022819
:1014800002D90320BDE8F88F28688001F4D427E052
:101490000128F7D0D9F80000E26900F480019142F8
:1014A0001CD1226A00F03F01914217D147F6C0716A
:1014B000626A0140B1EB821F10D1A26A4FF0FF3384
:1014C00000F4403103EB5202B1EB024F06D194F825
:1014D0002C1000F07060B0EB016F01D00120D1E75B
:1014E0000020CFE70438024000004742800E474208
:1014F000007000400000FFFF704770B5040009D085
:10150000606A002540B125616561A56294F85100CB
:1015100040B10CE0012070BD6068B0F5827FF4D06E
:10152000E561F2E784F85050204600F045F80220CB
:1015300084F851002068016821F040010160A08812
:10154000218900F4827001F404410843A18901F467
:1015500000610843217C01F002010843217D01F074
:1015600001010843218B01F400710843217F01F040
:101570003801084394F8201001F080010843218DC0
:1015800001F40051084321680860A069042101EAC0
:10159000104094F8241001F01001084321684860BD
:1015A0002068C16921F40061C1616565012084F88A
:1015B0005100002070BD00002DE9F04186B00646C4
:1015C00014216846FEF748FE2B493068884250D106
:1015D0002A480024016841F480510160006800F449
:1015E0008050059025481438016841F002010160DF
:1015F0000068694600F00200059038200090022043
:10160000CDE9010403200390052004901C48FFF756
:1016100027FB1D4D1B484FF0C0672860C5E90174CA
:101620004FF48068C5E903486C61AC61EC612C62E1
:1016300028466C62FFF760FA08B1FFF730F9F564ED
:10164000AE63114D0F4860354830E5E80207402091
:10165000A5E811010C4845F814496030AC61EC6113
:101660002C626C62FFF748FA08B1FFF718F9B5640D
:10167000AE6306B0BDE8F08100300140443802405E
:10168000000402401064024044C101202DE9F84FDB
:10169000044690F8500000271D461646894601284A
:1016A0000DD04FF0010B84F850B0FFF7E3FB8046FC
:1016B00094F85100BA46012804D0022793E0022092
:1016C000BDE8F88FB9F1000F73D0002E71D0032060
:1016D00084F85100C4F854A0C4F83090A686E68679
:1016E000C4F838A0A4F83CA0A4F83EA0C4F844A0D4
:1016F000C4F840A0A068B0F5004F09D12068016887
:1017000021F0400101602068016841F480410160DE
:1017100020680168490603D4016841F04001016076
:10172000E068B0F5006F606803D030B3012E24D0BC
:1017300041E008B1012E1CD1206B21680088C860EF
:1017400006E020688168890709D5216B0988C16096
:10175000206B801C2063E08E401EE08609E0FFF7CE
:1017600089FBA0EB0800A84202D3681C01D031E03D
:101770007DB3E08E0028E4D120E0206B2168007862
:10178000087306E020688168890709D5216B09780C
:101790000173206B401C2063E08E401EE0860AE04F
:1017A000FFF768FBA0EB0800A84203D3681C02D037
:1017B00010E017E06DB1E08E0028E3D142462946E3
:1017C000204601F017FB08B120206065A06818B121
:1017D00006E0FFE7032706E02068C1688068009004
:1017E000606D00B1012784F851B084F850A03846EC
:1017F00066E700002DE9F041044690F8500000260D
:10180000012809D0012784F8507094F85100002570
:10181000012804D002264EE00220BDE8F08189B103
:1018200082B1032084F8510065652163A286E286B7
:10183000A56365642564A587E587A068B0F5004FBA
:1018400002D00BE0012636E02068016821F040015B
:1018500001602068016841F480410160A16C184872
:101860000864A16C1748C863A16C1748C864A06CD1
:101870000565E38E2268216B0C32A06CFFF7A6F998
:1018800038B1606D40F010006065012684F8517039
:1018900011E020680168490603D4016841F0400165
:1018A00001602068416841F0200141602068416882
:1018B00041F00201416084F850503046ADE700002D
:1018C000852D00088F2D0008632D00087047704794
:1018D00010B5401EB0F1807F01D3012010BD4FF044
:1018E000E02460610F21601702F01CF80020A06165
:1018F00007202061002010BD7047704710B590F898
:101900003C20012A22D0012280F83C20CA688C6841
:1019100022F4407222434C6822F4806222430C6815
:1019200022F4006222430C6922F4805222434C6963
:1019300022F400522243C969002322F480420A4360
:1019400001684A6480F83C30002010BD022010BDC0
:1019500070B590F83C20012A32D0012480F83C4038
:10196000022280F83D2003685A689D6822F07006C4
:101970000A6832435A60134B02689A4214D0B2F19B
:10198000804F11D0104B9A420ED0104B9A420BD080
:101990000F4B9A4208D00F4B9A4205D00E4B9A42F9
:1019A00002D00E4B9A4204D1496825F080031943B6
:1019B000916080F83D40002180F83C10084670BDE1
:1019C000022070BD000001400004004000080040FB
:1019D000000C00400004014000400140001800409D
:1019E00010B5040003D094F83D0010B107E00120C9
:1019F00010BD002084F83C00204600F01FF80220B3
:101A000084F83D00211D206801F08EFC012084F83F
:101A1000460084F83E0084F83F0084F8400084F8D3
:101A2000410084F8420084F8430084F8440084F8BC
:101A3000450084F83D00002010BD000008B5016895
:101A40001E4881420FD11E48016841F0010101602A
:101A50000068002200F00100009002211820FFF72A
:101A600077FA182024E01648164A001F91420ED13A
:101A7000016841F0040101600068002200F00400E8
:101A8000009002211E20FFF763FA1E2010E00E4A8C
:101A9000914211D1016841F01001016000680022FB
:101AA00000F0100000900F213620FFF751FA362089
:101AB000BDE80840FFF73EBA08BD00000000014045
:101AC00044380240000800400010004090F83D10EB
:101AD000012901D001207047022180F83D100068E3
:101AE0001149884214D0B0F1804F11D00F4988427B
:101AF0000ED00F4988420BD00E49884208D00E49BB
:101B0000884205D00D49884202D00D49884204D14F
:101B1000816801F00701062903D0016841F0010145
:101B200001600020704700000000014000040040F8
:101B300000080040000C004000040140004001404B
:101B40000018004090F83D10012901D00120704795
:101B5000022180F83D100168CA6842F00102CA60A3
:101B600000681149884214D0B0F1804F11D00F495C
:101B700088420ED00E4988420BD00E49884208D0C8
:101B80000D49884205D00D49884202D00C4988424F
:101B900004D1816801F00701062903D0016841F0F2
:101BA0000101016000207047000001400004004076
:101BB00000080040000C00400004014000400140CB
:101BC0000018004070B5044690F83C00002501283C
:101BD00017D0012684F83C60022084F83D0020687C
:101BE000826822F0770222F47F42826008685028DF
:101BF00038D00DDC20284FD005DC90B3102811D14F
:101C00004AE0022070BD302846D040280AD13BE08F
:101C100060282FD070280DD0B0F5805F03D0B0F5CC
:101C2000005F12D0012584F83D60002084F83C005C
:101C3000284670BDCB68D1E90121206801F0E5FBA1
:101C40002068816841F0770109E0CB68D1E9012182
:101C5000206801F0DAFB2068816841F480418160EE
:101C6000E1E719E0CA684968206801F0A3FC502147
:101C7000206806E0CA684968206801F0ACFC602171
:101C8000206801F0CCFBCEE7CA684968206801F003
:101C900091FC40212068F4E7226801461046F0E7F5
:101CA000704770B50446006801694FF00005C943EC
:101CB000890715D4C168C943890711D4E91E016198
:101CC00001202077206880698007204602D0FFF736
:101CD000E7FF04E000F004F9204600F0B3FA2577AE
:101CE00020680169C943490717D4C168C943490736
:101CF00013D46FF00401016102202077206880690D
:101D000010F4407F204602D0FFF7CAFF04E000F045
:101D1000E7F8204600F096FA257720680169C94364
:101D2000090716D4C168C943090712D46FF0080126
:101D30000161042020772068C0698007204602D016
:101D4000FFF7AEFF04E000F0CBF8204600F07AFA8F
:101D5000257720680169C943C90617D4C168C943FA
:101D6000C90613D46FF010010161082020772068A4
:101D7000C06910F4407F204602D0FFF791FF04E0D5
:101D800000F0AEF8204600F05DFA25772068016982
:101D9000C943C90708D1C168C943C90704D1891E0D
:101DA0000161204600F050FA20680169C943090624
:101DB00009D4C168C943090605D46FF080010161E7
:101DC0002046FFF799FD20680169C943490609D4F7
:101DD000C168C943490605D46FF04001016120463E
:101DE00000F03CFA20680169C94389060BD4C16838
:101DF000C943890607D46FF0200101612046BDE880
:101E00007040FFF77ABD70BD10B586B0044614214E
:101E10006846FEF721FA2368174C00211748022272
:101E2000A34211D1036843F010030360006800F07F
:101E30001000059010020090CDE901210120CDE9AC
:101E4000031069460E4812E00E4CA34211D10368FC
:101E500043F002030360006800F002000590402098
:101E60000090CDE90121CDE9031269460648FEF74D
:101E7000F7FE06B010BD00000000014030380240FF
:101E800000100240000800400004024070B5044603
:101E900090F83C00002501280FD0012084F83C0078
:101EA0006AB1042A0FD0082A11D00C2A13D00125B8
:101EB000002084F83C00284670BD022070BD2068D8
:101EC00001F0B6FAF4E7206801F0E2FAF0E72068E2
:101ED00001F014FBECE7206801F044FBE8E70000A8
:101EE0002DE9F0472DED028B064600684549012794
:101EF0009FED458ADFF814910025454C4FF6FF7899
:101F000088423AD1A078401CA070C00727D1414830
:101F1000A57027708168491E816001790029C16818
:101F200004D0491EC160816811B118E0491CF9E76D
:101F3000C06800EE100A38A0B8EEC00A20EE080A09
:101F4000BDEEC00A10EE101A01F0DCFC012004F016
:101F50007FFA012202214846FEF787FF25703348A9
:101F60000068416A6160327F012A06D1A2680A4492
:101F7000B2FBF8F308FB132141632D493068884216
:101F80003CD1E078401CE070C00728D12148E570C2
:101F9000103067708168491E816001790029C1682D
:101FA00004D0491EC160816811B118E0491CF9E7ED
:101FB000C06800EE100A18A0B8EEC00A20EE080AA9
:101FC000BDEEC00A10EE101A01F09CFC012004F0D6
:101FD0003FFA012202214846FEF747FF6570154887
:101FE0000068416A6160317F012907D1D4E9031299
:101FF0000A44B2FBF8F308FB13214163BDEC028BEA
:10200000BDE8F087000800406666663D000C0240AF
:10201000BCC00120CCF20120616E676C6520636F4B
:10202000756E743A2025640D0A0000004CC2012030
:102030000000014004C2012010B5040003D094F850
:102040003D0010B107E0012010BD002084F83C00E5
:10205000204600F01EF8022084F83D00211D206873
:1020600001F062F9012084F8460084F83E0084F80B
:102070003F0084F8400084F8410084F8420084F86E
:10208000430084F8440084F8450084F83D000020B3
:1020900010BD704730B500250446022249B104291D
:1020A00012D008294CD094F84100012853D00120C7
:1020B00030BD94F83E000128F9D184F83E20206814
:1020C000C26842F0020209E094F83F000128EED114
:1020D00084F83F202068C26842F00402C2600122F6
:1020E000206801F085F921492068214A884201D001
:1020F000904203D1436C43F4004343642068884218
:1021000013D0B0F1804F10D01A4988420DD01A492F
:1021100088420AD01949884207D0904205D0184910
:10212000884202D01749884204D1816801F0070132
:10213000062903D0016841F001010160284630BD45
:1021400094F840000128B2D184F840202068C26889
:1021500042F00802C2E784F841200C2901D0012591
:10216000ECE72068C26842F01002B7E700000140C7
:10217000000401400004004000080040000C004042
:10218000004001400018004070B50D0004464FF0BB
:10219000000607D0042D0AD0082D0DD00C2D10D02C
:1021A00001263FE02068C16821F002010DE02068AF
:1021B000C16821F0040108E02068C16821F008012D
:1021C00003E02068C16821F01001C16000222946A7
:1021D000206801F00DF9194B41F2111120688A10A5
:1021E000984202D0164B984209D1036A0B4206D19D
:1021F000036A134203D1436C23F400434364206811
:10220000036A0B4206D1016A114203D1016821F031
:102210000101016001203DB1042D08D0082D09D035
:1022200084F84100304670BD84F83E00FAE784F837
:102230003F00F7E784F84000F4E7000000000140A9
:10224000000401407047000000680349884201D142
:1022500004F0CCB970470000001000407047704790
:1022600070470000F8B5016804460868CA684B6901
:1022700010F00F0F4FF0000559D003F0010602F4E3
:102280009077374365D0C10705D0D10503D5216CC0
:1022900041F001012164410705D5D90703D0216C24
:1022A00041F002012164810705D5D90703D0216CD3
:1022B00041F004012164010707D502F020013143F8
:1022C00003D0216C41F008012164216C00293AD02F
:1022D000800604D5900602D5204601F0CAF9206890
:1022E0004069216CC0F38010090700D460B3204618
:1022F00001F098F920684069400621D52068143023
:1023000050E8001F21F0400140E80012002AF5D1FA
:10231000A06BA8B16C490165A06BFEF70BFB002810
:1023200011D0A06B016D01B0BDE8F04008478306F5
:102330000FD593060DD52046BDE8F84001F099B9B8
:102340002046FFF78DFFF8BD2046FFF789FF256483
:10235000F8BD266B2023012E79D1C60677D5D60687
:1023600075D50868486800904869400640D5A16B5B
:10237000086840680004000CEAD0A28D8242E7D9C8
:10238000E085C869B0F5807F2DD020680C3050E81A
:10239000001F21F4807140E80012002AF5D1206866
:1023A000143050E8001F21F0010140E80012002A1B
:1023B000F5D12068143050E8001F21F0400140E8BA
:1023C0000012002AF5D184F83E30256320680C30D5
:1023D00050E8001F21F0100140E80012002AF5D15A
:1023E000A06BFEF75EFAA08DE18D401A81B229E064
:1023F000A08DE18D401A81B2E08D0028A8D000297F
:10240000A6D020680C3050E8002F22F4907240E8EB
:102410000026002EF5D12068143050E8002F22F05D
:10242000010240E80026002EF5D184F83E302563F5
:1024300020680C3050E8002F22F0100240E8002302
:10244000002BF5D12046FFF70AFFF8BDFFE7050690
:102450002BD5150629D594F83D002128F5D1A06883
:10246000B0F5805F01D12069B0B1206A411C2162C2
:10247000216800784860E08C401E0004000CE08475
:10248000E3D12068C16821F08001C1602068C16883
:1024900041F04001C160D8E7206A0088C0F308001D
:1024A0004860206A801C2062E5E74006CDD55006D2
:1024B000CBD5CA68204622F04002CA6084F83D307D
:1024C00000F079F9C1E700001536000870B5040086
:1024D00004D094F83D00002510B106E0012070BD45
:1024E00084F83C50204600F023F8242084F83D0076
:1024F0002068C16821F40051C160204601F01AF93A
:102500002068016921F4904101612068416921F04E
:102510002A0141612068C16841F40051C16025640D
:10252000202084F83D0084F83E00002070BD0000AB
:10253000F0B587B0044614216846FDF78DFE484982
:10254000DFF818C123680024454A10390225032604
:102550000827444863451FD1136843F400231360E0
:10256000126802F4002205920A6842F004020A602E
:10257000096802AB01F004010591B102CDE9001533
:1025800083E8D0006946FEF76BFB0022012134206E
:10259000FEF7DEFC342035E0DFF8CCC0634535D1F2
:1025A000136843F480131360126802F480120592DA
:1025B0000A6842F004020A600A6802F00402059206
:1025C0000A6842F008020A60096802AB01F00801DB
:1025D00005914FF48051CDE9001583E8D00069469C
:1025E000FEF73EFB0420CDE9000502AB694683E817
:1025F000D0001E48FEF734FB002201213520FEF7F3
:10260000A7FC3520FEF796FC07B0F0BD18488342C2
:10261000FAD11348001D026842F0100202600068FF
:1026200000F010000590086840F00100086008689C
:10263000029400F0010005904FF4C060CDE9000560
:102640000720CDE9036069460A48FEF709FB00222E
:1026500011462520FEF77CFC2520D3E7004C0040E6
:10266000403802400008024000500040000C024088
:10267000001001400000024090F83E30202B0ED1A7
:1026800059B152B190F83C30012B08D0012380F8A9
:102690003C300023036301F0D3B8012070470220CF
:1026A0007047000010B5044600680F49884209D100
:1026B00001220E490E4802F0DBFA01220B490D48B7
:1026C000FFF7DAFF0C49206888420CD101220B4940
:1026D0000B4802F0CDFA07480122BDE81040074937
:1026E0004430FFF7C9BF10BD00500040B2C0012008
:1026F000A4F1012020C3012000100140B3C001203B
:10270000F8F101202DE9F843044690F83D001F46FA
:1027100016460D4620284CD1C5B1BEB194F83C00F8
:10272000012846D0012084F83C004FF00008C4F88E
:102730004080212084F83D00FEF79CFBA684814662
:10274000E684A068B0F5805F03D004E00120BDE816
:10275000F883206928B12E465FF0000584F83C809C
:102760000EE00026FAE78021204601F086F8A0B9A5
:10277000AEB116F8010B21684860E08C401EE08481
:10278000E08C4B464FF0000200970028EBD14FF051
:102790004001204601F071F830B10320D7E735F849
:1027A000020BC0F30800E6E7202084F83D0000207B
:1027B000CDE70220CBE77047FEE700000D4808B5E3
:1027C000016841F4800101600068002200F480008B
:1027D000009011463820FEF7BBFB3820FEF7AAFB1D
:1027E000002211463B20FEF7B3FBBDE808403B202A
:1027F000FEF7A0BB303802402DE9F04F87B014211E
:102800006846FDF729FD94480025016841F0100154
:102810000160016801F010010591016841F00401B7
:102820000160016801F004010591016841F0200197
:102830000160016801F020010591016841F080010B
:102840000160016801F080010591016841F001011A
:102850000160016801F001010591016841F0020188
:102860000160016801F002010591016841F0080171
:102870000160016801F008010591016841F0400123
:1028800001600068012200F0400005907C2173483F
:10289000FEF7EBFA012243F2C2717148FEF7E5FA46
:1028A000DFF8C0B100220C215846FEF7DEFA4FF4E3
:1028B0000047002239466A48FEF7D7FA00228121F4
:1028C0006648FEF7D2FA002239466748FEF7CDFA8D
:1028D0004FF4A048012241466448FEF7C6FA0022A0
:1028E00039466348FEF7C1FA002203215F48FEF72C
:1028F000BCFA4FF48059012249465E48FEF7B5FA0A
:102900004FF4804A002251465A48FEF7AEFA01249D
:102910007C20CDE9000469465048CDE90245FEF728
:102920009FF943F20200CDE900040226CDE90246F8
:1029300069464B48FEF794F940F60800CDE90005DA
:10294000694602944648FEF78BF94FF4F860CDE9EA
:10295000000469464248CDE90245FEF781F90C20A2
:102960008DE85100694658460396FEF779F9CDE99E
:10297000004569463E480294FEF772F90096CDE99B
:10298000015469463848FEF76BF900970395CDE985
:10299000014669463248FEF763F9812003958DE8C8
:1029A000510069462D48FEF75BF9E002CDE90005CC
:1029B000694602942948FEF753F900970395CDE93B
:1029C000014669462848FEF74BF94FF41270CDE9ED
:1029D0000005694602942548FEF742F9CDE90084D6
:1029E000CDE9024669462148FEF73AF948F6C0505B
:1029F000CDE90005694602941E48FEF731F90097BB
:102A00000395CDE9014669461948FEF729F90327E0
:102A100000970395CDE9014669461448FEF720F971
:102A200001AACDF8009082E8D00069461148FEF76F
:102A300017F9CDF800A00395CDE9014669460D4888
:102A4000FEF70EF9CDE90065694604480296FEF7E7
:102A500007F907B0BDE8F08F30380240001002409F
:102A6000001402400008024000040240000C024032
:102A700000000240001802400F4810B50D490160E7
:102A80004FF482714160002102228160C0E903128B
:102A90001202C0E90512C1610162416281620A212C
:102AA000C162FEF72AFD002803D0BDE81040FDF703
:102AB000F6BE10BD00300140ECC0012010B596B04C
:102AC00000240F9410941194129413941C2108A8BC
:102AD0001494FDF7C1FB20216846FDF7BDFB294892
:102AE000274901605321C0E901144FF6FF71C0E985
:102AF00003148021C0E90541FEF772FF08B1FDF71C
:102B0000CEFE4FF480500F900FA91E48FFF75AF8E1
:102B100008B1FDF7C4FE1B48FFF78EFA08B1FDF7B8
:102B2000BEFE139413A917481494FEF711FF08B1C1
:102B3000FDF7B5FE3020CDE908040220CDE90A04F6
:102B40000C940D94002208A90E480E94FFF79EF9EC
:102B500008B1FDF7A4FE00944FF40050CDE9044005
:102B6000029401940394694606480794FEF7C6FE52
:102B700008B1FDF794FE0348FFF746F916B010BD03
:102B80000000014004C2012010B58EB0002407945B
:102B9000089409940A940B941C2168460C94FDF740
:102BA0005BFB1F481D4901605321C0E901144FF62A
:102BB000FF71C0E9031480218161FEF711FF08B1A4
:102BC000FDF76DFE4FF48050079007A91448FEF7FB
:102BD000F9FF08B1FDF763FE1148FFF72DFA08B1C0
:102BE000FDF75DFE0B940BA90D480C94FEF7B0FEAB
:102BF00008B1FDF754FE3020CDE900040220029018
:102C00000022694604940648FFF740F908B1FDF731
:102C100046FE0348FFF7F8F80EB010BD000800406C
:102C20004CC201201CB500240F4800940D490194AA
:102C300001605321C0E9011440F2E731C1608021F5
:102C40008161FEF7CDFE08B1FDF729FE00946946CB
:102C500005480194FEF77CFE002801D0FDF71FFE19
:102C60001CBD00000010004094C201200C4810B5AB
:102C70000A4901604FF416514160002181600C2225
:102C8000C160C0E904128161C161FFF71FFC002827
:102C900003D0BDE81040FDF702BE10BD004C00405F
:102CA000DCC20120124810B5104901604FF4E13137
:102CB0004160002181600C22C160C0E90412816181
:102CC000C161FFF703FC08B1FDF7E9FD01220949E5
:102CD0000748FFF7D1FC40220749084801F061FF8F
:102CE000064801F06AFF0028FAD010BD00500040ED
:102CF00020C30120B2C00120B8F10120A4F10120BD
:102D0000124810B5104901604FF4E13141600021D3
:102D100081600C22C160C0E904128161C161FFF7CA
:102D2000D5FB08B1FDF7BBFD012209490748FFF7B4
:102D3000A3FC80220749084801F033FF064801F050
:102D40003CFF0028FAD010BD0010014064C30120F0
:102D5000B3C001204CF20120F8F10120FEE7FEE7AC
:102D6000704710B5806B01684A6822F003024A6020
:102D7000416D41F010014165012180F85110FEF7CD
:102D8000BBFB10BD10B5806BFEF7A1FD10BD38B5C3
:102D90000546846BFEF76EF8024628680068C00599
:102DA00023D42068416821F02001416020684168F7
:102DB00021F0020141606421204600F01BF818B1A7
:102DC000606D40F020006065A068002118B920689F
:102DD000C26880680090E186012084F85100606D2F
:102DE00018B12046FEF788FB38BD2046FEF76EFD81
:102DF00038BD000038B504461248134B0068B0FBDC
:102E0000F3F04FF47A73584300906068B0F5827F16
:102E10000DD10B46009200228021204600F016F8CA
:102E200070B1606D40F020006065032038BD0098EF
:102E300030B1401E009020688068C0430006F6D57F
:102E4000002038BD10C0012000366E012DE9F84386
:102E50001E46914688460446089DFEF70BF8401B27
:102E6000351AFEF707F8074625480068C0F3CB304F
:102E7000684338E0701C37D0FDF7FCFFC01BA84248
:102E800003D215B1009860B32CE02068416821F0AE
:102E9000E00141606068B0F5827F0BD1A068B0F5B9
:102EA000004F02D0B0F5806F04D12068016821F096
:102EB00040010160A06AB0F5005F09D12068016897
:102EC00021F4005101602068016841F40051016063
:102ED000012084F85100002084F850000320BDE850
:102EE000F8830025401E00902068816838EA0100C0
:102EF00004D000214945BDD10020F0E70121F9E7C8
:102F000010C001202DE9F04107460021EF2340F2D7
:102F10003F12084600F0C8F80E4E00220421304649
:102F2000FDF7A3FF00244FF448653A4629460A48B6
:102F3000FDF78BF92946084800F028F9641CA4B273
:102F4000302CF2D33046BDE8F04101220421FDF7D8
:102F50008CBF000000080240D8E201201FB54FF4EA
:102F600048614548FDF778F91920FDF767FE434CA5
:102F7000002201212046FDF778FF1920FDF75EFEB3
:102F8000012211462046FDF770FF3220FDF756FE64
:102F90003A2000F0DDF8652000F040F9B22000F0A2
:102FA000D7F837A1D1E90001CDE900010521684634
:102FB00000F0ECF8042000F0B3F8B72000F0C8F8F7
:102FC000352000F02BF9BB2000F0C2F8192000F0EA
:102FD00025F9C02000F0BCF82C2000F01FF9C22019
:102FE00000F0B6F8012000F019F9C32000F0B0F8A5
:102FF000122000F013F9C42000F0AAF8202000F0FD
:103000000DF9C62000F0A4F80F2000F007F9D02039
:1030100000F09EF8A42000F001F9A12000F0FEF8D5
:10302000E02000F095F818A00FC88DE80F000E21E1
:10303000684600F0ABF8E12000F08AF816A10FC94D
:103040008DE80F000E21684600F0A0F8202000F067
:103050007FF8112000F07CF8132000F079F8292087
:1030600000F076F83220FDF7E9FD04B00020BDE85D
:103070001040FFF747BF0000D8E20120000C0240DB
:103080000C0C003333000000D0040D11132B3F54FF
:103090004C180D0B1F230000D0040C11132C3F44BF
:1030A000512F1F1F202300002DE9F843DFF86C800B
:1030B00015460E4607461C46002204214046FDF7F1
:1030C000D4FE2A2000F044F8380A8DF800008DF86C
:1030D0000170280A8DF802008DF80350042168461B
:1030E00000F054F82B2000F033F8300A8DF800007F
:1030F0008DF80160200A8DF802008DF8034004214C
:10310000684600F043F82C2000F022F84046BDE865
:10311000F84301220421FDF7A8BE00000008024088
:1031200010B50446362000F013F8052C0FD2DFE866
:1031300004F0030507090500C02004E0A02002E018
:10314000002000E06020BDE8104000F067B810BD2E
:1031500031B50C4C002204212046FDF786FE0022EA
:1031600008212046FDF781FE4FF0FF33012269461A
:103170000548FEF78BFA012204212046FDF775FE73
:1031800038BD000000080240ECC001202DE9F05FCE
:103190001F4F0C460646002204213846FDF765FE07
:1031A000012208213846FDF760FE4FF480394FF6C2
:1031B000FF7BDFF86080DFF860A01FE04C4501D3A3
:1031C000584600E0204685B2B8F80000A0420CD86E
:1031D0002A4631461048FEF70DFBDAF8480000BFDA
:1031E00090F835100129FBD106E04FF0FF332A4655
:1031F00031460948FEF74AFA2E44641B002CDDD103
:103200003846BDE8F05F01220421FDF72EBE000024
:1032100000080240B0C00120ECC0012031B50C4CC8
:10322000002204212046FDF720FE0122082120462D
:10323000FDF71BFE4FF0FF33012269460548FEF7FC
:1032400025FA012204212046FDF70FFE38BD0000BB
:1032500000080240ECC001207047FDF711BE0000DD
:1032600030B593B030216846FCF7F6FF14210CA866
:10327000FCF7F2FF1D480025016841F08051016014
:10328000006800F0805011901948016841F48041B5
:1032900001600068022400F4804011900120039036
:1032A00010200490009406940820CDE90750A8202F
:1032B000CDE9090404200B906846FDF767FF08B1CB
:1032C00072B6FEE70CA90F2081E831004FF4A05040
:1032D0000F904FF48050109005210CA8FDF76AFE66
:1032E000002801D072B6FEE713B030BD403802406E
:1032F000007000400248016841F4700101607047AD
:1033000088ED00E00148FEF7CCBC000004C20120BB
:103310000148FEF7C6BC00004CC201200148FEF780
:10332000C0BC000094C20120F0B50268254C264DB7
:10333000264E274F274B4FF0804CA04209D06045C6
:1033400007D0A84205D0B04203D0B84201D098427D
:1033500004D122F0700E4A6842EA0E02A0421BD04D
:10336000604519D0A84217D0B04215D0B84213D04A
:10337000984211D0184DA8420ED0184DA8420BD03B
:10338000174DA84208D0174DA84205D0164DA842A7
:1033900002D0164DA84203D122F44075CA682A43D0
:1033A0004D6922F080022A4302608A68C2620A687C
:1033B0008262A04201D0984201D1096901630121D2
:1033C0004161F0BD000001400004004000080040E1
:1033D000000C004000040140004001400044014056
:1033E0000048014000180040001C00400020004040
:1033F00010B501F01F030121046A99408C43046257
:10340000016A9A401143016210BD10B5846842EA16
:10341000032224F47F440A432243826010BD826861
:1034200022F070020A4342F00701816070470000F9
:10343000F0B5026A22F001020262036A42688469FE
:10344000124E24F073050C682C4323F002058B68A0
:103450002B430D4DA84201D0B04205D123F00807FF
:10346000CB683B4323F00403A84201D0B04205D10E
:103470004D6922F4407215438A692A43426084618F
:10348000496841630362F0BD00000140000401404F
:10349000F0B5026A22F010020262026A436884698F
:1034A0000D6824F4E64444EA05248D6822F02002E5
:1034B00042EA05120F4D104EA84201D0B04206D18B
:1034C000CF6822F0800242EA071222F04002A842AE
:1034D00001D0B04207D14D6923F4406343EA85032C
:1034E0008D6943EA850343608461496881630262B0
:1034F000F0BD00000000014000040140F0B5026A88
:1035000022F480720262026A4368C46922F4007283
:1035100024F073050C68124E2C438D6842EA052294
:103520000E4DA84201D0B04206D1CF6822F400620D
:1035300042EA072222F48062A84201D0B04207D1B9
:103540004D6923F4405343EA05138D6943EA05139B
:103550004360C4614968C1630262F0BD000001407C
:103560000004014030B5026A22F480520262046A0B
:103570004268C3690D6823F4E64343EA05238D6876
:1035800024F4005444EA0534084DA84202D0084D02
:10359000A84204D14D6922F4804242EA8512426079
:1035A000C36149680164046230BD0000000001404D
:1035B0000004014010B5036A046A24F001040462A7
:1035C000846924F0F00444EA021423F00A020A4356
:1035D0008461026210BD10B5036A23F01003036218
:1035E0008369046A23F4704343EA023224F0A0039F
:1035F00043EA01118261016210BD00000148FEF73B
:1036000031BE0000DCC201200148FEF72BBE0000E5
:1036100020C3012010B5806B0021C185C184FEF755
:103620001FFE10BD01680C3151E8002F22F490728A
:1036300041E80023002BF5D10168143151E8002F37
:1036400022F0010241E80023002BF5D1016B012992
:1036500009D101680C3151E8002F22F0100241E835
:103660000023002BF5D1202180F83E1000210163BA
:10367000704708B590F83E10222901D0022008BDFD
:1036800082684FF480539A4201D1016921B1816A65
:103690009A421BD04AB10AE00268816A5268C2F3BA
:1036A00008020A80816A891C08E0026972B1026816
:1036B000526802F07F020A70816A491C8162C18DE2
:1036C000491E0904090CC18503D019E0026852683B
:1036D000F1E70168CA6822F02002CA600168CA687E
:1036E00022F48072CA6001684A6922F001024A61CC
:1036F000202180F83E10016B012903D0FEF7D2FF94
:10370000002008BD0021016301680C3151E8002F41
:1037100022F0100241E80023002BF5D101680A686D
:10372000D20602D50A6849680091818DFEF797FD9F
:10373000E6E7000070B5044600680169E26821F41C
:103740004051114301612169A068E2690843616940
:10375000114308432168CA6849F20C639A43024343
:10376000CA6020684169A26921F440711143416136
:1037700031492068884202D03049884202D1FDF7A1
:10378000C3FC01E0FDF7B0FCE269002319216425C8
:103790003226B2F5004F626828D0A0FB0101930FDA
:1037A0009200FCF70FFD0146B0FBF5F06FF0180238
:1037B000504301EB800006EB0010B0FBF5F000F089
:1037C000F002B1FBF5F002EB0012B1FBF5F06FF087
:1037D0001803584301EB800006EB0010B0FBF5F036
:1037E00000F00F0021681044886070BDA0FB01014B
:1037F00092185B41FCF7E6FC0146B0FBF5F00201D4
:10380000B1FBF5F06FF01803584301EB800006EBB5
:10381000C000B0FBF5F000F0F80002EB4002B1FB95
:10382000F5F0584301EB800006EBC000B0FBF5F06B
:1038300000F00700D6E7000000100140001401402E
:1038400081628285C28500210164222280F83E20A7
:1038500080F83C10016921B10168CA6842F48072A5
:10386000CA6001684A6942F001024A610068C168A1
:1038700041F02001C160002070472DE9F0419846D9
:1038800017460E460446069D27E0681C25D02DB13C
:10389000FDF7F0FAA0EB0800A8421ED920680C3012
:1038A00050E8001F21F4D07140E80012002AF5D141
:1038B0002068143050E8001F21F0010140E8001298
:1038C000002AF5D1202084F83D0084F83E00002035
:1038D00084F83C000320BDE8F0812068006836EAE7
:1038E000000004D00020B842CFD00020F3E7012030
:1038F000F9E700000148FEF7B5BC000064C30120F1
:10390000FEE770470FB4054B10B503A9044A0298AF
:1039100000F042F910BC5DF814FB0000614800089B
:1039200000C001200907090E002804DB00F1E02097
:1039300080F80014704700F00F0000F1E02080F8DC
:10394000141D704702E008C8121F08C1002AFAD1EE
:1039500070477047002001E001C1121F002AFBD10F
:1039600070470000A3F5C04246F26201603A07D0FA
:103970008B420AD10088022807D104A0FFF7C2BFFA
:103980000088012801D103A0F8E77047CFC2D2BB5D
:10399000D2B30A00C9CFD2BBD2B30A002DE9FF5F70
:1039A00082B00021DDE90430020DDDF840B00343B0
:1039B00018D044F61050A2F2FF3242431514119869
:1039C00001281FD0A5EB0B00401C5FEA000A4FF056
:1039D00000064E4FDFF83891B046504615D5CAF173
:1039E000000413E0119801244AA3012801D16FEAD1
:1039F0000B010298119AC0E90031C0E9024206B0F9
:103A0000BDE8F09FCBF10000DFE704460021404A0B
:103A1000491842EB0450CDE9001012E0E00707D04E
:103A200032463B4640464946FCF721FD80468946E2
:103A300032463B4610461946FCF719FD06460F462E
:103A40006410002CEAD1DDE90401DDE90023BAF1BC
:103A5000000F06DAFCF70BFD42464B46FCF707FD6C
:103A600005E0FCF776FD42464B46FCF772FD044646
:103A70000E460022284BFCF7F3FD03D84FF0FF3031
:103A8000014607E00022254B20463146FCF748FC62
:103A9000FCF7CEFD102409E0002C0ADB0A220023EB
:103AA000FCF790FB039B30321A55641E50EA01026A
:103AB000F2D1641C039AC4F111031444119A012A2F
:103AC00003D0012208430DD10AE0084304D00020AE
:103AD0004FF0110B119072E7A3EB0B056D1E0DE07B
:103AE0005B4504DD4FF0000205F1010504E003DA57
:103AF0004FF00002A5F10105002AECD002981199BF
:103B0000C0E90231C0E9004579E700000000144037
:103B10000000F03F300000000000F0430000E03FF4
:103B2000F8B50024022A09D1822901D0802905D1C3
:103B300005784F2D02D145784B2D04D0832905D02F
:103B4000812915D01FE04FF0FF30F8BD03881C0A13
:103B500044EA03239BB28478002505E046193779AF
:103B60004755F7787770AD1CB5EB440FF6D30AE0F4
:103B700003784478002504E04619B67846556D1C54
:103B8000EDB2A542F8D3034DAD680DB10094A8473E
:103B90002046F8BD98C001202DE9FF4F95B09A4608
:103BA000884606460025EEE1252877D100242746E1
:103BB000F94A0121039400E0044316F8013F203B39
:103BC00001FA03F01042F7D130782A2811D06FF0B3
:103BD0002F033078A0F13002092A16D8039A44F056
:103BE000020402EB820203EB42021044761C0390B3
:103BF000EFE758F8042B0392002A03DA504244F40A
:103C00000054039044F00204761C30782E2816D11C
:103C100016F8010F44F004042A280DD06FF02F028B
:103C20003078A0F13003092B09D807EB870302EBAA
:103C30004303C718761CF3E758F8047B761C3078EA
:103C40006C280FD006DC4C2817D068280DD06A28C5
:103C500014D104E0742810D07A280FD10DE044F478
:103C600000140AE044F4801401E044F44014727833
:103C7000824202D104F58014761C761C30786628C6
:103C80000BD013DC582877D009DC002875D04528E4
:103C9000F6D04628F4D047281AD193E118E06328DB
:103CA00035D0642879D0652812D18BE1702873D083
:103CB00008DC6728F1D069286FD06E280DD06F28F6
:103CC00006D1ACE073282CD0752874D0782853D056
:103CD0005246179990476D1C54E1C4F302500228D4
:103CE00009D003280DD0D8F8001004280DD00D609D
:103CF00008F1040846E1D8F80010EA17C1E90052BB
:103D0000F6E7D8F800100D80F2E70D70F0E718F82C
:103D1000041B8DF8001000208DF80100EB460120F7
:103D200003E058F804BB4FF0FF3061074FF000018B
:103D300002D40DE009F101018946B9420FDA81454B
:103D4000F8DB1BF809100029F4D108E009F10101A2
:103D500089468142FADB1BF809100029F6D1039845
:103D60005346A0EB090721463846179A00F080FA1F
:103D7000284400EB090507E044E008E10DE01BF8EA
:103D8000010B524617999047B9F10109F7D25346F2
:103D900021463846179AF2E039E00A21C4F302526C
:103DA0004FF0000B0091022A06D058F8040BC117FF
:103DB000032A09D00AE023E008F1070020F00702F7
:103DC000F2E80201904605E000B2C117042A01D1D1
:103DD00040B2C117002906DA0A460021404261EBD1
:103DE00002012D2202E0220504D52B228DF80420A9
:103DF000012203E0E20701D02022F7E7914657E0D5
:103E00000A2100E010214FF0000B00910BE010217F
:103E10004FF0000B44F004040827009103E0082051
:103E20004FF0000B0090C4F30252022A05D058F85C
:103E3000040B0021032A08D008E008F1070020F055
:103E40000702F2E80201904603E080B2042A00D1A2
:103E5000C0B24FF0000922072AD53278702A07D065
:103E6000DDF800C08CF0100C5CEA0B0C05D00EE005
:103E700040228DF80420012208E050EA010306D018
:103E800030238DF804308DF8052002229146009BE6
:103E900083F0080353EA0B030AD150EA010201D16F
:103EA000620705D530228DF804204FF001097F1EEE
:103EB0003278582A04D039A20C920CAA02920BE054
:103EC0003BA2F9E75B46009AFCF77CF90C9B9B5CF4
:103ED000029A521E0292137050EA0102F2D1029825
:103EE00004A9081A00F1200B600702D524F48034DD
:103EF00000E001275F4502DDA7EB0B0000E000209A
:103F000000EB0B01009003984944401A0390E00332
:103F100006D453462146179A039800F0A9F90544A0
:103F2000002706E001A85246C05D179990476D1C16
:103F30007F1C4F45F6DBE0030CD553462146179A0C
:103F4000039800F095F9054404E030205246179993
:103F500090476D1C0099481E00900029F5DC08E090
:103F60000298029952460078491C0291179990478D
:103F70006D1CBBF10001ABF1010BF1DC5BE100F06A
:103F800065F90544761C307800287FF40DAE19B031
:103F90002846BDE8F08F0000092801003031323397
:103FA0003435363738396162636465660000000075
:103FB000303132333435363738394142434445465F
:103FC00000000000600700D4062708F1070020F079
:103FD0000700F0E80223804603F0004C5FEA0C0083
:103FE00001D097A009E0200501D596A005E0E007E3
:103FF00001D095A001E0AFF24C001390307823F08F
:10400000004365280CD006DC452809D046281DD081
:1040100047287FD13BE0662818D067287AD136E060
:104020000021112F01DB112000E0781CCDE90001F7
:1040300004A90CA8FFF7B2FCDDE90D010C9A4FF0C2
:10404000000B07F10109109200914EE04FF0004083
:104050000097CDE9011004A90CA8FFF79FFCDDE94A
:104060000D020C9B0F994FF0000B9146109300929C
:1040700011B9791C00EB0109B7EB090003D4C0F1B9
:10408000FF3B07F10109A9EB0700019042E0012F76
:1040900000DA01270021112F01DD112000E0384650
:1040A000CDE9000104A90CA8FFF778FCDDE90D01BA
:1040B0000C9A00914FF0000BB946109221070FD4D3
:1040C000009A4A4503DA914601E0A9F10109B9F1E4
:1040D000010F05DD109AA9F10101515C3029F4D0DE
:1040E000B84202DA10F1040F03DA0121CDE9011020
:1040F00010E0002803DC8344A9EB000102E0411C2E
:10410000494500DD8946A0EB0B00401C01904FF0B3
:1041100000400290200705D40198484502DB4FF08B
:10412000FF30019000208DF84B0002980DF14B07F5
:10413000B0F1004F25D002200C902B200D9002985A
:1041400000280CDA404202902D200D9007E00A2151
:104150000298FCF7B0F83031029007F8011D0C9975
:10416000481E0C900029F2DC02980028EFD1791E3D
:104170000D980870307800F0200040F0450007F8F6
:10418000020D11A8C01BC01D02901398007800B149
:10419000012000EB0901019801EBE0710298014454
:1041A0000398401A401E0390E00306D4534621466C
:1041B000179A039800F05CF805441398007818B13A
:1041C0005246179990476D1CE00323D5534621466C
:1041D000179A039800F04CF805441BE0BBF1000F60
:1041E00007DB0098584504DD1098179910F80B006C
:1041F00001E0179930205246904701980BF1010BCE
:10420000401E05F10105019004D12E205246179958
:1042100090476D1CB9F10001A9F10109DEDC05E050
:1042200017F8010B5246179990476D1C0299481ECA
:1042300002900029F4DC53462146179A03989EE623
:104240002D0000002B000000200000002DE9F041AF
:10425000044600251E461746880404D405E0394666
:104260002020B0476D1C641EF9D52846BDE8F081BA
:104270002DE9F041044600251E469046C80301D5AD
:10428000302700E02027880404D505E04146384661
:10429000B0476D1C641EF9D52846BDE8F0810000CA
:1042A00010B5024800F068FCC0B210BDA4F10120B6
:1042B00008B50121684600F01BFE9DF8000008BD0E
:1042C00089B200F01FBE00002DE9F041244E0546E2
:1042D00092B017468846706800F0F1FB00F007FCCA
:1042E000002470601BE000BF15F8240005EB84017A
:1042F000020201A820F824204B781A4320F8242039
:104300008A7800EB840012024280C9780A43428016
:1043100000F0FBFB0146706800F004FC641CBC422A
:10432000E2DB4346A5225A210EA00097FFF7EAFAE6
:1043300011A0FFF7E7FA0024A8F1010604E0295DC7
:104340000EA0FFF7DFFA641CB442F8DBF9229F21CC
:104350000CA0FFF7D7FA12B00020BDE8F0810000F2
:10436000B4C0012025582020255820202558202081
:10437000255820207C000000202000002558202007
:104380000000000025582020255820200D0A00009C
:10439000704778B50023051D12E031F81340260A56
:1043A00046EA0424ADF8004090F82440BDF80060CF
:1043B0002C44268090F82440A41C80F824405B1CE8
:1043C0009342EAD378BD03B54FF6FF72019991424B
:1043D00004D2012201A9FFF7DCFF0CBD10F8243F35
:1043E000A0F120021A4409BA11600178091D017078
:1043F0000CBD70B51546044690F82420001D1044ED
:104400002A46FBF710FF14F8240F2844207070BDD3
:1044100000F008BA10B500F023F8BDE8104002F033
:10442000E7B9FCF70BBC000010B5034CC4E904204D
:10443000C4E9023110BD000098C0012010B525214B
:104440000448FBF709FF0349002081F824000846CF
:1044500010BD0000B1E1012080F824107047000079
:104460002DE9F041244C4FF0FF37606980B3E068DC
:1044700070B300256069804700281ED0E06880473F
:1044800006466078D8B1012825D002282DD003280F
:104490002ED00428EED1194960680E54401C60608B
:1044A000A178491E8842E5DBA078E178401EC2B2BF
:1044B0001248FFF735FB65706560BDE8F08120218B
:1044C0000E48FBF7C9FEA570E5705A2E01D0656055
:1044D00006E0012007E0A52E04D01EB165606570DE
:1044E0003846EAE702206070C4E7A6700320FAE7C6
:1044F000E6700420F7E7000098C00120D6E1012013
:1045000002490144842000F020B800000000015A54
:10451000F7B514460D46FFF791FF0646012269469E
:10452000FFF737FF1CB92846FBF7A1FEC4B22246AD
:1045300029463046FFF75DFF21463046FFF78CFFE6
:104540003146822000F0C6FEFEBD73B50D46FFF772
:1045500075FF044601226946FFF71BFF29462046E6
:10456000FFF731FF2146822000F0B4FE7CBD000041
:1045700002494868421C4A6000F054B8E4C0012077
:1045800010B51E4B1E4A1F491F48FFF74DFF022062
:10459000FFF7B6FF00214FF4C040FFF7D6FF002120
:1045A00046F20200FFF7D1FF002146F20400FFF7B8
:1045B000CCFF002146F20600FFF7C7FF002146F2BC
:1045C0000800FFF7C2FF002146F22000FFF7BDFF01
:1045D000002146F20A00FFF7B8FF002146F20C0066
:1045E000FFF7B3FF0A2209A18120FFF791FF0C22F8
:1045F000BDE8104008A18220FFF78ABF6539000896
:10460000C1420008B1420008A14200082020202039
:10461000202020200000000020202020202020201A
:104620002020000001464FF4C040FFF78EBF00007D
:104630002DE9F047654E00274FF001083078B94664
:10464000401EC5B2746894E0E07E410909D0A1899A
:104650004FF6FF72491C89B2A181914201D3218B8F
:10466000A181410904D001291BD002297CD195E008
:10467000F26808FA05F111420FD0A4F80C90A4F8E2
:104680000E9020F01E00E076A16809B12046884710
:10469000E07E20F0E000203062E020F01E001630C6
:1046A0005EE0F26808FA05F1114241D0E189B1B14A
:1046B000A289238A9A4257D9032900D3032161F39F
:1046C0004400E076A16809B120468847E07E20F0EA
:1046D000E0002030E0764846A4F80C905CE0A18928
:1046E000228B91420AD3C0F3430108293CD020F029
:1046F0001E0010300CE02046884732E0E28A9142EA
:104700000BD3C0F3430106292ED020F01E000C303D
:10471000E076A1680029EED123E0A28A914223D35A
:10472000C0F3430104291FD020F01E000830EFE73A
:10473000A189228B914206D320F01E00123008E09E
:104740002046884709E0E28A914218D320F01E00F3
:104750000E30E076A1680029F2D1E07E20F0E00082
:10476000E076E07E400901D07F1CFFB224686D1E18
:10477000EDB2002C7FF468AF3846BDE8F087A28A1E
:10478000914203D320F01E000A30E2E720F0E0005F
:104790004030E076E089401CE081E2E7F26808FA08
:1047A00005F1114206D020F0E0002030E076A4F8B8
:1047B0000C90D6E7A189228A9142D5D9E1890329B3
:1047C00000D3032161F34400C3E7000088C0012047
:1047D00030B513494FF0FF354A68144628B10B78BD
:1047E000202B02D804E0824201D1284630BD126855
:1047F000002AF8D10460C27E002422F0FE021632A4
:10480000C2768481C4810F240482486002F00100D2
:104810008A68984010435B1C8860D8B2087030BD2D
:1048200088C001202DE9F0410C4E002430787568D5
:10483000401EC7B206E028468847B84004432D68AA
:104840007F1EFFB215B169680029F4D1B168E04359
:104850004840F060BDE8F041FFF7EABE88C00120A3
:1048600013B54FF6FF73012269460248FDF74AFF70
:1048700000981CBD64C3012010B5027B074B0021CA
:10488000064C43F82210FF22037B5034E25441735C
:104890004160816001604161016110BD30E1012032
:1048A00000214160016001727047F0B40C7AC4B11C
:1048B00000230A6806E005681668B54204D9126943
:1048C0005B1CDBB29C42F6D85AB1026153695BB102
:1048D0004361536918615061087A401C0872F0BC4A
:1048E0007047F0BC00F004B8002308604361F2E7B1
:1048F00010B50C7A4A6800233CB11061C0E904325B
:104900004860087A401C087210BD08604860036166
:104910004361F6E770B54FF400710C48FCF798FA64
:10492000044602210A48FCF793FA0A4D44EA40047F
:1049300008212846FCF78CFA44EA8004E91428464A
:10494000FCF786FA44EAC000C0B270BD000C024019
:1049500000040240001402402DE9F04700252846DB
:1049600000F032F8FFF7D6FF0F2824D0FFF7D2FF70
:104970000F2820D0002401264FF002094FF0030831
:104980005FF0040706FA04F0C04380B200F01CF8A0
:10499000FFF7C0FF072814D00B280FD00D2804D034
:1049A0000E2805D106EB840001E009EB8400C5B2B6
:1049B000641C052CE6DB2846BDE8F08708EB840084
:1049C000F5E707EB8400F2E770B5134D044600F0FD
:1049D000010202212846FCF748FAAE14C4F3400253
:1049E00031462846FCF741FA31460C4EC4F38002AA
:1049F0003046FCF73AFAC4F3C0024FF4005128469F
:104A0000FCF733FAC4F300123046BDE870404FF4AF
:104A10008041FCF72ABA000000140240000C02405A
:104A2000024630B4234B2448082A41D2DFE802F082
:104A3000040C141B22293037012901D0012200E087
:104A400000224FF4807105E0012901D0012200E02D
:104A500000228021184628E0012901D0012200E02F
:104A600000224021F6E7012901D0012200E00022C6
:104A700040211AE0012901D0012200E0002220217A
:104A800013E0012901D0012200E0002210210CE0F6
:104A9000012901D0012200E00022082105E00129BE
:104AA00001D0012200E00022042130BCFCF7DDB976
:104AB00030BC7047001402400010024070472DE9DE
:104AC000F04105468668046809E06768E96809B14D
:104AD000A06888472146002000F06CFB3C46761E0B
:104AE000F3D22946BDE8F041002000F063BB10B5C9
:104AF0001421002000F06AFB002805D0002101608D
:104B00004160C1600161816010BD10B504460C2197
:104B1000002000F05BFB002803D000210160C0E909
:104B2000011410BD49B18368002243B14368C1E953
:104B3000003242685160416005E0002070474160EA
:104B400001604A600A608268521C826008467047B1
:104B500001000BD0086848B1486838B1CA68896854
:104B60008A4207D0914203D9881A03E00020704797
:104B7000511A401A401E704738B1016829B1426885
:104B80001AB1C1688068814202D14FF000007047BD
:104B900002D9A1EB00007047A0EB0100A2EB0000DE
:104BA000704740B139B132B100230361C36080E87E
:104BB0000E00012070470020704728B1016819B12C
:104BC000406808B101207047002070471CB50023E1
:104BD0000193009301AB00F004F8002800D0019885
:104BE0001CBD2DE9F0479946089B144605008846F0
:104BF0000FD0286868B1686858B1B8F1000F08D0C4
:104C00003CB12846FFF7B8FF18B1A04204D2D9073B
:104C100002D00020BDE8F087A04200D20446D5E9CA
:104C20000106871BA74200D3274628683A46811908
:104C30004046FBF7F8FAF019E61B06D008EB070030
:104C400032462968FBF7EFFA30466968814200D89E
:104C50000020A8602B691BB1BA190021284698478B
:104C6000B9F1000F02D0B919C9F800100120D1E73D
:104C70001CB500230193009301AB00F004F8002859
:104C800000D001981CBD2DE9F0479946089B1446B9
:104C9000050088460FD0286868B1686858B1B8F137
:104CA000000F08D03CB12846FFF752FF18B1A042D0
:104CB00004D2D90702D00020BDE8F087A04200D27C
:104CC0000446EE686868871BA74200D32746286819
:104CD0003A4630444146FBF7A6FAF019E61B06D0E7
:104CE00008EB070132462868FBF79DFA30466968F1
:104CF000814200D80020E8602B691BB1BA1901215C
:104D000028469847B9F1000F02D0B919C9F8001028
:104D10000120D1E7FCF7BCF8FEF7A2FAFDF76CFD25
:104D2000FDF74CFDFDF77EFFFDF7A6FEFDF7BAFF90
:104D3000FDF79CFFFDF7C2FEFDF726FFFDF7E0FF44
:104D400001F0A8FB0448FCF7FDFE01F02FFC00BFBA
:104D500001F0F4FBFCE7000094C2012000F07AB8F7
:104D600010B501460020897E152911D2DFE801F037
:104D7000100B11171C21262B30353A3F44494E5356
:104D8000585D62676C00FFF7E7FD012800D0002046
:104D900010BDFFF7E1FD0228F9D1012010BDFFF79A
:104DA000DBFD0328F9D0F2E7FFF7D6FD0428F4D0A5
:104DB000EDE7FFF7D1FD0528EFD0E8E7FFF7CCFDE1
:104DC0000628EAD0E3E7FFF7C7FD0728E5D0DEE7CE
:104DD000FFF7C2FD0828E0D0D9E7FFF7BDFD09289D
:104DE000DBD0D4E7FFF7B8FD0A28D6D0CFE7FFF72E
:104DF000B3FD0B28D1D0CAE7FFF7AEFD0C28CCD00D
:104E0000C5E7FFF7A9FD0D28C7D0C0E7FFF7A4FD50
:104E10000E28C2D0BBE7FFF79FFD0F28BDD0B6E735
:104E2000FFF79AFD1028B8D0B1E7FFF795FD1128DC
:104E3000B3D0ACE7FFF790FD1228AED0A7E7FFF79D
:104E40008BFD1328A9D0A2E7FFF786FD1428A4D074
:104E50009DE7000010B5817E032916D2DFE801F03E
:104E600015150200C07EC0F3430000280DD00128B4
:104E70000BD0022809D1012001F0EAFA0122BDE895
:104E8000104002210148FBF7F0BF10BD000C0240AA
:104E90002DE9F0474FF413711248FBF7DDF9114D7E
:104EA000114E124F00244FF04B084FF096094FF06F
:104EB000E10A00BFC4EBC40005EB80008476C0E9C2
:104EC0000167C17E41F00101C176A0F81480A0F80D
:104ED0001690A0F818A0FFF77BFC641C152CE9DBEA
:104EE000BDE8F08758EF0120614D00085D4D0008D6
:104EF00010B5014601220248FFF768FE002010BDF0
:104F0000A4F101202DE9F04101220F4F0C46054686
:104F1000D60331463846FBF7A8FF0520FBF78EFE87
:104F20004FF6FF73224629460848FDF7EBFB04467F
:104F30000520FBF783FE002231463846FBF795FF3C
:104F40002046BDE8F08100000004024020C301209B
:104F50002DE9F041264F884606460024414657F881
:104F60002400FBF78BF938B1641C0C2CF6D9012E08
:104F700004D0022E38D121E0E5B2F8E725B1012DA9
:104F800007D0022D30D109E0012001F009FA19A063
:104F900028E0012001F05CFA1AA023E01D48007807
:104FA00010BB13490020091F012208601A4801792B
:104FB000008880B201F0C8F918A013E01CA1404697
:104FC000FBF75CF928B11BA14046FBF757F928B164
:104FD0000AE0022001F0E4F917A003E0012001F04B
:104FE00037FA19A0FEF78EFC0020BDE8F081000022
:104FF000D4C001206D6F746F723120737461720DB3
:105000000A0000006D6F746F72312073746F700D41
:105010000A000000BCC00120CCF201206D6F746F4B
:10502000723120616E676C6520737461720D0A00C5
:105030004F4E00004F4646006D6F746F7232207302
:105040007461720D0A0000006D6F746F723220730C
:10505000746F700D0A00000070B5134A13181B7EA0
:1050600093B1124B53F820308B421AD90F4B083BA7
:1050700053F82030B1FBF3F102EB8003186930F8EC
:1050800011200020044608E011688847012070BD07
:105090001D690E18401C25F816409042F8DB0020D0
:1050A00070BD022070BD000014C001208869000896
:1050B00070B504460B480C4E002150F8240006EB56
:1050C00084054200286900F091F80648002110305C
:1050D00050F82420A86800F089F8012031190876DA
:1050E00070BD00007869000814C001202DE9F0416E
:1050F000204E0446002530190F46007E10B9316855
:10510000204688474FF0FF327FB31B4B53F82410E3
:10511000B7FBF1F0B7FBF1FC01FB1C7101B1401CC6
:105120001549083951F82410491E21D406EB84068C
:10513000D6F8107037F811C0BCF1000F05D000256B
:10514000854213D1002285B208E06D1CF8E700BF4C
:10515000376901EB020C521C27F81C508242F7D32E
:1051600053F824004843BDE8F08101E0491EE1D531
:105170001046F8E714C001208069000810B50B4BF9
:105180000B4C002253F82030114604EB800005E060
:10519000046934F8114004B1521C491C8B42F7D801
:1051A00064204243B2FBF3F0C0B210BD786900083E
:1051B00014C00120002906D0034A02EB8002926845
:1051C000891AFFF749BF704714C0012010B5044683
:1051D000FFF78CFF411C05D0034901EB840189686E
:1051E000084410BD002010BD14C0012002E000BF23
:1051F00000F8011B521EFBD27047000070B5034639
:1052000000201A4C4FEA000500EB400604EBC606EE
:10521000767B26B3401CC0B21428F5D32C46144824
:105220002561C4E901320268D0182060207B114B4F
:105230001D5419B1207B503B43F820100D482168C4
:1052400078389142017E01D281F0010101EB4101E8
:1052500000EB81012046FFF728FB204670BD00EBE4
:10526000400004EBC00401266673D8E728DF012064
:1052700030C0012080E1012010B508490446087EB5
:1052800000EB400001EB8001204600F00AF80349E2
:105290002046BDE810401C31FFF72ABB08E1012081
:1052A00070470B680269834207D100230A6012B17C
:1052B0000069436107E04B6005E043691A61D0E98A
:1052C000042022B15061087A401E0872704748607D
:1052D000F9E7000070B504460A4691F824005A2107
:1052E0001170A5215170401C0F4D9070D4702B6926
:1052F00023B192F824101046091D9847832C0FD033
:10530000287868B15FF0C804FFF7AAF80546401C8A
:1053100006D00120FFF785F824B1641E002DF3DDCF
:10532000002070BD012070BD98C00120012100F057
:105330004BB80A7842B14B7803F00F03082B03D027
:1053400003681B781A4208D090F86000C00702D1A9
:105350004878C00601D5002070474FF0FF307047F5
:1053600010B500F075FA002805D00349896BBDE837
:10537000104000F0BBBF10BD34C00120F8B5054699
:105380008089E989401A04B2202607E08DF8006080
:10539000AA6E012168469047641E24B2002CF5DCF9
:1053A000297B2846BDE8F84000F07AB810B500F037
:1053B0004FFA002803D0BDE8104000F02BBB10BD11
:1053C0004FF0FF31AFF30080F8B50446481C03D01E
:1053D0000023E28912B103E00123FAE701295DD03D
:1053E000A089824201D14D1C58D00025824201D1B2
:1053F000012901D0184613E0521E401EE28180B2FE
:10540000A08121690D542046BDE8F840012100F03B
:1054100047B822691144421E465C401C8E5400B2BB
:10542000A289E189521A8242F3DCA089401EA08140
:10543000082643B9E089401EE0818DF80060A26E25
:10544000012168469047A18920694554B4F90E505E
:1054500009E020690121405D8DF80000A26E6846D8
:1054600090476D1C2DB2A089A842F2DC20208DF857
:105470000000A26E012168469047A089E189401A88
:10548000401C05B208E000BF8DF80060A26E01214B
:10549000684690476D1E2DB2002DF5DCF8BD00006A
:1054A00070B50C46054603E003A1284600F01EFF38
:1054B000641EE4B2F8D270BD082008004FF0FF313E
:1054C00000F00DBA10B5044600F006F82046BDE81D
:1054D0001040012100F09CBE70B504468089002870
:1054E00035D0216900251E4E0D5494F86000C00788
:1054F00021D0204600F03FFA204600F0A3FBE581D2
:10550000A581E08E002822D016A1204600F0EEFEF4
:1055100000232046A26D616900F03CFC010004D02C
:105520002046BDE8704000F0D9BB2046B169BDE817
:10553000704000F0DBBE206881682069FAF79EFEAB
:1055400030B1716B204600F0D1FEA581E58170BDC0
:1055500094F8600040F0010084F860003168F1E7E1
:1055600034C001200D0A0000411C00200A785C2A8A
:1055700001D01046704749786E290FD004DC3029DD
:10558000F8D0622904D105E0722905D0742907D02A
:1055900008467047082070470D2070470A20704762
:1055A00009207047F0B50746002539780A260123FF
:1055B00028462C462D2908D00021CA19002192F82E
:1055C00000C0BCF1300F04D01EE04FF0FF330121CA
:1055D000F3E75178782907D0582905D0622905D0FA
:1055E000422903D002210FE003210DE001210BE04D
:1055F00092F800C0BCF12E0F06D192F801C0BCF1A8
:10560000000F01D0042111E012F801CBBCF1000F12
:10561000EED1012908D0022903D0032906D1102692
:1056200003E00826012501E0022602253D445A1C1C
:1056300002D0002215441FE00122FBE72E2A05D0EC
:10564000A2F13007092F03D8FAB20FE0012412E0CB
:10565000A2F16107052F01D8573A04E0A2F14107F2
:10566000052F02D8373AD2B200E0002200FB062014
:1056700004EB840254006D1C2A78002ADED1042930
:1056800013D194B100EE100AB8EE401A00EE104AA1
:10569000B8EE400AC1EE000A00EE103AB8EEC00AB9
:1056A00020EE800A10EE100AF0BD5843F0BD2DE93F
:1056B000F0410446087827280AD02D2803D0A0F10D
:1056C0003002092A0CD8BDE8F0410846FFF76ABF4E
:1056D0004A78002AF3D0BDE8F0410846FFF744BFFE
:1056E0000026242807D0002816D000270D460C4697
:1056F000222813D01DE04A78002AF6D00023204645
:10570000491CA26D00F046FB010004D02046BDE814
:10571000F04100F0B1B83046BDE8F0816C1C254680
:1057200007E05C280BD022280FD0E8557F1CBFB2C1
:10573000641C20780028F4D1EE552846ECE7601E62
:10574000FFF712FFE855641CF0E7EE55EEE72DE990
:10575000F0478CB00C46824699461546202103A896
:10576000FAF77AFDA0786E1E00F00F07B74200DC52
:10577000374600250DF10C0808E009EB850041686B
:105780005046FFF794FF48F825006D1CB542F4DB46
:10579000082F3CD2DFE807F004090D12181E26304E
:1057A000A06880470CB0BDE8F087A16803988847DF
:1057B000F8E7DDE90301A2689047F3E703AB93E85C
:1057C0000700A3689847EDE703ADA46895E80F00CC
:1057D000A047E7E70798009003ADA46895E80F009D
:1057E000A047DFE7DDE90701CDE9000103ADA468CB
:1057F00095E80F00A047D5E707AB03AD93E8070096
:105800008DE8070095E80F00A468A047CAE74FF0AD
:10581000FF30C7E7C068704700B500210B4A30234E
:105820005354491CC9B20929FAD3417801F00F0138
:10583000012903D9072901D9082901D8406800BDE9
:105840004068024900F08CFC004800BDA8E101203E
:105850000849002051F8202032B192F860209207C8
:1058600002D551F820007047401C00B20528F1DB3A
:105870000020704794E101204A78002002F00F02D6
:10588000921E062A06D2DFE802F003060A0D0D0F6B
:105890008868006870478868B0F9000070478868B9
:1058A00000787047886870478868416809B1006867
:1058B00008470020704710B50B460446FFF7C8FFA5
:1058C00000280BD0012C05D008DD5968BDE8104038
:1058D00000F072BCBDE8104000F09CB810BD70B57F
:1058E00000250446002918DDB4F95430A3F1010065
:1058F000A4F85400B4F85010B4F85200814201D911
:105900000A4600E002465242934212DC814200D92C
:1059100008464042A4F854000BE009DAB4F85400F9
:10592000401C00B2A4F85400002802DDA4F8545032
:1059300070BD2046FFF722FDB4F95400C0B1B4F8A1
:10594000521008440521401D90FBF1F201FB1200AA
:1059500004EB8000C16B206900F052FBA08100289D
:10596000E6D0E08120462169BDE8704000F0BEBC71
:10597000A581E58170BD70B500250446A0F854509E
:10598000B0F8500058B1B4F85200216900B90520B0
:1059900004EB8000806BFAF771FC00281ED0B4F88D
:1059A0005200216904EB8000C06B00F029FB20B19C
:1059B000B4F85200401CA4F85200B4F85000401C47
:1059C00080B2A4F85000052802D90520A4F85000A0
:1059D000B4F85200052801D3A4F8525070BD10B598
:1059E000FFF736FF002803D0BDE8104000F0B2B842
:1059F00010BD38B50446C089002809D008208DF8AC
:105A00000000A26E012168469047E089401EE081B7
:105A100038BD00002DE9F0410646876D0F488168CA
:105A2000304600F063FC002412E000BF07EB0415D1
:105A3000687800F00F00012808D829463046FFF7A3
:105A400078FC18B92946304600F00AF8641C24B2E4
:105A5000B6F85C00A042E9DCBDE8F08134C001206A
:105A6000F8B505460E460846FFF7D6FE014628461D
:105A700000F03CFCC0F1160004B2002C00DC042451
:105A80005FF020078DF80070AA6E012168469047EC
:105A9000641E24B2002CF5D1707800F00F01294863
:105AA000012901D8016C0CE0072901D8416C08E0FC
:105AB000082901D8816C04E0092901D8C16C00E0F3
:105AC000016D284600F012FC1FA1284600F00EFCD4
:105AD00007240127307807FA04F1084201D0782022
