:020000040800F2
:1000000098F6012039020008CB2500080F220008CD
:10001000C9250008810800082F2F000800000000F3
:10002000000000000000000000000000C52A0008D9
:100030004109000800000000CD250008C72A00087B
:10004000530200085302000853020008530200083C
:10005000530200085302000853020008530200082C
:10006000530200085302000853020008530200081C
:10007000530200085302000853020008530200080C
:1000800053020008530200085302000853020008FC
:1000900053020008530200085302000853020008EC
:1000A00053020008530200085302000853020008DC
:1000B00053020008530200085302000853020008CC
:1000C00053020008530200085302000853020008BC
:1000D00053020008530200085302000853020008AC
:1000E000530200085302000853020008530200089C
:1000F000530200085302000853020008530200088C
:10010000530200085302000853020008530200087B
:1001100053020008452C0008712B00085302000808
:1001200085080008530200085302000891080008DF
:10013000530200085302000853020008530200084B
:10014000530200085302000853020008530200083B
:10015000530200085302000853020008530200082B
:10016000530200085302000853020008530200081B
:100170005302000853020008530200080000000068
:10018000530200085302000800F002F800F044F89F
:100190000AA090E8000C82448344AAF10107DA45E2
:1001A00001D100F039F8AFF2090EBAE80F0013F0F0
:1001B000010F18BFFB1A43F0010318470C3E000063
:1001C0003C3E0000103A24BF78C878C1FAD85207E4
:1001D00024BF30C830C144BF04680C6070470000C1
:1001E0000023002400250026103A28BF78C1FBD840
:1001F000520728BF30C148BF0B607047642900F028
:10020000E780782900F04B81002070471FB503F08C
:100210009BFE1FBD10B510BD00F004FB1146FFF79B
:10022000F5FF03F039FA00F022FB03B4FFF7F2FF09
:1002300003BC02F049FF0000094880470948004715
:10024000FEE7FEE7FEE7FEE7FEE7FEE7FEE7FEE786
:10025000FEE7FEE704480549054A064B70470000E3
:10026000612B00088901000898F0012098F6012010
:1002700098F2012098F20120704753EA020C00F036
:1002800069802DE9F04B4FF00006002B1FBFB3FA39
:1002900083F503FA05F424FA05F65E4012BF16430F
:1002A000B2FA82F502FA05F4C5F120051EBF22FA62
:1002B00005FC44EA0C04203556EA044C4FEA144489
:1002C00018BF641C4FF000084FF00009904271EB1A
:1002D000030C39D3002919BFB1FA81F701FA07F6E7
:1002E000B0FA80F700FA07F6C7F120071EBF20FA20
:1002F00007FC46EA0C062037B6FBF4FCA7EB050723
:10030000103F07F01F0BCBF120060CFA0BFB2CFA69
:1003100006F644BFB3460026202FA4BF5E464FF02A
:10032000000B5BEA060C08BF4FF0010B19EB0B0941
:10033000ABFB027C48EB0608C01B06FB02CC0BFBA8
:1003400003CC71EB0C01C1E70B460246414648461F
:10035000BDE8F08B13B54FF000004FF00001AFF394
:100360000080BDE81C4070470FB4044910B503AAD3
:10037000029800F03DFA10BC5DF814FB00C00120AB
:1003800070B5044685690068C10601D5302600E0D5
:100390002026C00707D070BDD4E901213046904720
:1003A000206A401C20626D1EF6D570BD70B50446F3
:1003B00085690078C00707D170BDD4E901212020EC
:1003C0009047206A401C20626D1EF6D570BD00006B
:1003D0002DE9F0410646002410687529314616A51E
:1003E00010D0AFF30080002802DA404213A507E0E6
:1003F00031688A0701D512A502E0490704D511A585
:10040000012401E0AFF3008000210A2206F1240755
:1004100009E0B0FBF2FCB0FBF2F302FB1C00303051
:1004200078541846491C0028F3D123462A46304602
:10043000BDE8F04100F06BB9000000002D000000A5
:100440002B00000020000000F0B40D4601880905D3
:1004500002D5214C7C4402E01F4C7C440E34002128
:1004600000F1240608E002F00F071209E75D42EAF6
:1004700003721B097754491C52EA0307F3D102782F
:100480000023120704D5702D06D009B102231134C0
:100490002246F0BC00F03BB901231034F8E770B5F8
:1004A00004460D4621461068AFF3008002462946F7
:1004B0002046BDE870400023C6E7D21D22F00703A6
:1004C000D3E90023C0E70368126843F02003036008
:1004D0000823C3610023B7E7343B00002DE9F05F38
:1004E000894604464FF0000ADFF874B1FB44C0F8B7
:1004F00020A02046E1688847002874D0252806D02F
:10050000D4E901219047206A401C2062F1E70026CF
:100510005F462046E16888472028054607DB312DE5
:1005200005D2781910F8200C08B10643F1E7B0079E
:1005300001D526F00406C4F81CA00027C4F818A0B2
:100540002A2D09D0284602F0A3FD38B304EB870812
:10055000303DC8F8185019E059F8041B204604EB48
:1005600087029161E1688847012F054618D1E0694B
:10057000002820DA26F020061DE0D8F8180000EB4D
:10058000800005EB40003038C8F818002046E168CC
:100590008847054602F07CFD0028EED1012F0AD0E5
:1005A0002E2D08D12046E16888477F1C0546022F82
:1005B00046F02006C4DBA069002803DA404246F07A
:1005C0000106A061F00701D026F010066C2D0BD0BB
:1005D000682D09D04C2D39D06A2D35D0742D35D0E9
:1005E0007A2D33D016E038E0E1682F462046884760
:1005F000B842054609D16C2F26D04FF48060E168DF
:10060000064320468847054604E06C2F1AD04FF475
:10061000807006430DB3A5F14100192802D820359A
:1006200046F400664A462946204626604E46FFF7B5
:10063000E5FD80B101280BD0F61D26F0070000F182
:10064000080956E74020E4E78020D8E70020D6E7F5
:1006500006F104094DE7284652E7206ABDE8F09FFD
:10066000C43A000002F0FF0343EA032242EA0242D6
:1006700000F002B84FF000020429C0F0128010F020
:10068000030C00F01B80CCF1040CBCF1020F18BF6E
:1006900000F8012BA8BF20F8022BA1EB0C0100F001
:1006A0000DB85FEAC17C24BF00F8012B00F8012BD4
:1006B00048BF00F8012B70474FF0000200B5134609
:1006C00094469646203922BFA0E80C50A0E80C5072
:1006D000B1F12001BFF4F7AF090728BFA0E80C5023
:1006E00048BF0CC05DF804EB890028BF40F8042B1C
:1006F00008BF704748BF20F8022B11F0804F18BF89
:1007000000F8012B704770477047704770472DE91C
:10071000F0470D4699469246044600F124080168C8
:10072000880604D5E06921F01001216000E0012075
:10073000A84201DD471B00E00027A1697A1902EBFE
:100740000900081AA0612078C00602D42046FFF7ED
:1007500017FE002608E0D4E901211AF806009047A8
:10076000206A401C761C20624E45F4DB2078C006CF
:100770000AD52046FFF704FE06E0D4E90121302027
:100780009047206A401C2062381EA7F10107F4DC64
:1007900007E0D4E9012118F805009047206A401CC1
:1007A0002062281EA5F10105F3DC2046FFF7FEFDBF
:1007B0002078000602D50220BDE8F0870120FBE783
:1007C00001694A1C02610878704700B58FB0CDE915
:1007D00001310021059105497944CDE90310114605
:1007E0006846FFF77BFE0FB000BD0000E5FFFFFF8E
:1007F000074B70B50D467B44FFF7E7FF04462846DC
:1008000000F00CF810B14FF0FF3070BD204670BD05
:10081000172C00000048704734F00120007B00F0E6
:10082000800070477546FFF7F5FFAE460500694644
:10083000534620F00700854618B020B5FFF70AFDA3
:10084000BDE820404FF000064FF000074FF00008D1
:100850004FF0000B21F00701AC46ACE8C009ACE852
:10086000C009ACE8C009ACE8C0098D46704710B5B6
:100870000446AFF300802046BDE81040FFF7D5BC2A
:10088000FEE70000014800F0B9B80000C4C0012034
:10089000014800F0B3B8000024C10120016818230A
:1008A000CAB2103AB2FBF3F2054B6FF30901032A07
:1008B0009B5CC36500D9091D81650846704700002F
:1008C000523F000810B5014600208B698A6A4FF03C
:1008D000C07453B1B3F5005F15D072B1012A0CD0CA
:1008E000022A0AD0032A09D104E01AB1012A06D04B
:1008F000022A03D1C96AC90100D5012010BDC96A05
:10090000A142FAD010BD002AF7D0012AF2D0022A63
:10091000F3D0032AF3D010BD30B50468256825F460
:1009200080252560046863608368402B036803D0DA
:1009300099600068C26030BD9A600068C16030BDD7
:10094000704772B6FEE72DE9F0410446876D00F06E
:10095000E3FA064694F835000025022806D08020E8
:10096000606584F834500120BDE8F081206801689A
:1009700021F0160101602068416921F08001416188
:10098000206C08B9A06C20B12068016821F0080132
:1009900001602068016821F0010101600CE000F0B5
:1009A000BBFA801B052807D920206065032084F846
:1009B000350084F83450D7E720680068C007EED1CE
:1009C00094F85C103F208840B860012084F835001E
:1009D00084F834500020C7E790F83510022903D07E
:1009E0008021416501207047052180F8351000689D
:1009F000016821F001010160002070472DE9F843F2
:100A000004464FF00009CDF8009063484FF41651AA
:100A1000A56D0068B0FBF1F72E6894F85C10082013
:100A200000FA01F131420FD021680A6852070BD554
:100A30000A6822F004020A6094F85C108840A860FA
:100A4000606D40F00100606594F85C104FF00108A3
:100A500008FA01F0304208D021684969090604D536
:100A6000A860606D40F00200606594F85C1004209E
:100A70008840304208D021680968890704D5A860F9
:100A8000606D40F00400606594F85C1010208840B0
:100A9000304218D021680968090714D5A860206879
:100AA0000168490304D50068000308D5A16C07E07C
:100AB0000168C90503D4016821F008010160216CB7
:100AC00009B12046884794F85C10202088403042C5
:100AD00031D021680968C9062DD5A86094F8350081
:100AE00005282068016806D0490347D5006800033F
:100AF0001DD4616C1CE021F0160101602068416981
:100B000021F080014161206C08B9A06C20B12068FF
:100B1000016821F00801016094F85C103F208840D2
:100B2000A86084F8358084F83490216D1FE0E16B73
:100B300009B120468847606D00282BD0606DC00742
:100B400014D0052084F835002068016821F00101E7
:100B500001600098401C0090B84203D820680068EB
:100B6000C007F6D184F8358084F83490E16C002910
:100B700010D001B02046BDE8F04308470168C90520
:100B8000D5D4016821F01001016084F8358084F823
:100B90003490CCE7BDE8F88310C001202DE9F04186
:100BA000044600F0B9F906465CB1022084F835002D
:100BB000002584F834502068016821F001010160AB
:100BC0000DE00120BDE8F08100F0A6F9801B0528AA
:100BD00005D920206065032084F83500F2E72068FD
:100BE0000068C007F0D12268116820480140D4E9AC
:100BF00001031843D4E903363343184363691843A8
:100C0000A3691843E3691843236A18430843616AD8
:100C1000042903D1D4E90B13194308431060206859
:100C20004069666A20F0070130460E430127042818
:100C30000CD1A06A0643E06A40B12046FFF742FEAD
:100C400020B14020606584F83570BAE720684661BD
:100C50002046FFF723FE94F85C203F2191408160FD
:100C6000656584F835700020ACE700003F8010F027
:100C70002DE9F0410446866D90F8340000250128E6
:100C80000DD0012084F8340094F835700020012F35
:100C900007D084F8340002252846BDE8F081022000
:100CA000FBE7022784F8357060652046FFF734FEC5
:100CB00094F85C103F208840B0602068016841F0E3
:100CC00016010160206C20B12068016841F0080124
:100CD00001602068016841F001010160DCE700006B
:100CE00070B5044600F018F90546601C02D00448AF
:100CF0000078044400F010F9401BA042FAD370BD04
:100D000004C001202DE9F84FDFF8BCA10022012525
:100D100003264FF00F090AF1040BAAF1040E00BFDD
:100D20000B6805FA02F42340A34270D10F7907F053
:100D30000307012F01D0022F16D187684FEA42081E
:100D400006FA08FC27EA0C07D1F80CC00CFA08FCDC
:100D50004CEA070CC0F808C04768A7430C79C4F3F5
:100D6000001494403C4344600C79E443A4070AD047
:100D7000C4684FEA420C06FA0CF7BC438F6807FAC6
:100D80000CF72743C7600C7904F00304022C12D13E
:100D9000D40800EB840CDCF820405707FF0E09FA5A
:100DA00007F824EA0804D1F8108008FA07F848EA9E
:100DB0000408CCF8208004684FEA420C06FA0CF7CD
:100DC000BC430F7907F0030707FA0CF727430760C6
:100DD0004C6814F4403F70D03C4C276847F480477F
:100DE0002760246822F0030704F480440094384C00
:100DF00007EB040CDCF8084897074FEA177809FA64
:100E000008F7BC43334FB84202D1002724E054E036
:100E1000314FB84201D101271EE0304FB84201D115
:100E2000022719E02E4FB84201D1032714E02D4FBD
:100E3000B84201D104270FE02B4FB84201D105275A
:100E40000AE02A4FB84201D1062705E0284FB842F0
:100E500001D1072700E0082707FA08F72743CCF855
:100E60000878DAF800405746D1F804C09C435FEA9E
:100E7000CC2C00D51C433C60DBF800405F46D1F829
:100E800004C09C435FEA8C2C00D51C433C60DEF818
:100E900000407746D1F804C09C435FEA8C3C00D503
:100EA0001C433C60084F083F3C68D1F804C09C4399
:100EB0005FEACC3C00D51C433C60521C102AFFF476
:100EC0002FAFBDE8F88F0000083C014044380240D5
:100ED00000300140000002400004024000080240CF
:100EE000000C0240001002400014024000180240B2
:100EF000001C02400069084000D001207047426990
:100F000021EA02030A4043EA0241816170470AB1C3
:100F1000816170470904FBE7014880687047000061
:100F200004C0012002488168027811448160704742
:100F300004C001200B4810B5016841F40071016044
:100F4000016841F480610160016841F480710160D1
:100F5000032000F06FF80F2000F006F800F024F8EE
:100F6000002010BD003C024070B50D4D04464FF40A
:100F70007A712878B1FBF0F00A490968B1FBF0F00A
:100F800000F0F8FC48B9102C07D200222146501E70
:100F900000F030F800206C6070BD012070BD0000D2
:100FA00004C0012010C001200A4808B5016841F4BE
:100FB00080410160006800F4804000900548001FF7
:100FC000016841F080510160006800F0805000909D
:100FD00008BD000044380240002809DB00F01F0271
:100FE000012191404009800000F1E020C0F800118B
:100FF00070470000F0B40E4B1B680C46C3F302238D
:10100000C3F10705042D00D90425191D072901D2B4
:10101000002300E0DB1E012606FA05F1491E2140EF
:1010200099409E40761E16403143F0BC01F080BFCF
:101030000CED00E0064900F0070208684FF6FF03D8
:10104000184040EA0220034A10430860704700003D
:101050000CED00E00000FA052DE9F0470E46050012
:1010600065D0DFF81481D8F80000F7B200F007006F
:10107000B04207D288F80070D8F8000000F00700EE
:10108000B04254D128683D4C810712D5400703D5A2
:10109000206840F4E05020602878000703D52068DD
:1010A00040F4604020602068A96820F0F000084308
:1010B00020602878C0072DD0304968680839012899
:1010C00012D0022813D0032811D0096889070029FB
:1010D0002DDA216821F0030101432160FFF71CFF95
:1010E000814641F2883A0EE009688903EFE7096812
:1010F0008901ECE7FFF710FFA0EB0901514502D988
:101100000320BDE8F0872068696800F00C00B0EBB0
:10111000810FEFD1D8F80010404601F00701B1422D
:1011200007D90770006800F00700B04201D0012025
:10113000E7E72878400705D52068E96820F4E05003
:10114000084320602878000706D52068296920F424
:10115000604040EAC100206000F038F82168084A89
:10116000C1F30311515CC840064908600648006895
:10117000FFF7FAFE0020C4E7003C024008380240B6
:101180005A3F000810C0012008C00120044805494A
:1011900000680968044AC1F38221515CC840704765
:1011A00010C00120083802406A3F00080448054981
:1011B00000680968044AC1F34231515CC840704775
:1011C00010C00120083802406A3F0008154810B5D9
:1011D000006810F00C02144813D01449042A0FD0F0
:1011E000082A0ED10F4C241F2268236802F03F0208
:1011F0005B0207D52068C0F38810A0FB010106E060
:10120000084610BD2168C1F38811A1FB000100232D
:10121000FFF733F82168C1F30141491C4900B0FBD5
:10122000F1F010BD083802400024F40040787D0140
:101230002DE9F84F04006ED02078DFF84C93C007FA
:10124000A9F104054AD009F104000168C1F3810144
:10125000012908D00068C0F3810002280AD1D9F81A
:101260000000400206D52868800337D56068002852
:10127000E1D033E06068B0F5803F10D0B0F5A02F2A
:10128000286810D020F480302860286820F480205E
:1012900028606068A8B1FFF73FFE06460DE02868A9
:1012A00040F48030F4E740F480202860F7E700BF86
:1012B000FFF732FE801B642873D828688003F7D5B7
:1012C0000CE0FFF729FE064605E000BFFFF724FE0D
:1012D000801B6428F0D828688003F7D42078DFF8D2
:1012E000AC8280074FF0000A3ED5A748001D016878
:1012F00011F00C0F08D00068C0F3810002280BD158
:10130000D9F80000400207D42868800716D5E068A5
:10131000012800D112E033E1E068B8B10120C8F83B
:101320000000FFF7F9FD064605E000BFFFF7F4FDFA
:10133000801B0228C0D828688007F7D52868216953
:1013400020F0F80040EAC10028600DE0C8F800A0D5
:10135000FFF7E2FD064604E0FFF7DEFD801B0228F2
:101360001FD828688007F7D42078000722D5864F39
:1013700087486169703771B101210160FFF7CCFDC9
:10138000064604E0FFF7C8FD801B022809D838682C
:101390008007F7D50EE0C0F800A0FFF7BDFD0646B8
:1013A00005E082E0FFF7B8FD801B02287DD8386891
:1013B0008007F7D42078400768D5DFF8CCB1002744
:1013C0000BF13C0BDBF80000C0000BD4DBF8001085
:1013D00041F08051CBF80010DBF80000012700F04D
:1013E000805000906B4E3068C00510D4306840F4D7
:1013F00080703060FFF790FD009005E0FFF78CFDF6
:101400000099401A022850D83068C005F6D55E4EC3
:10141000A0686C3601280FD00528306810D020F065
:1014200001003060306820F004003060A068B8B17E
:10143000FFF772FD00900FE0306840F00100F4E724
:1014400040F004003060F7E7FFF766FD0099411AAD
:1014500041F28830814266D830688007F4D50EE0CA
:10146000FFF75AFD009007E0FFF756FD0099411A7B
:1014700041F28830814256D830688007F4D42FB1C9
:10148000DBF8001021F08051CBF80010A069C8B340
:101490003D49091D0968C1F3810102294AD002288A
:1014A000504607D0C8F8600000E03CE0FFF734FD8C
:1014B00004463BE04746C8F86000FFF72DFD0646AE
:1014C00005E000BFFFF728FD801B02282BD8286805
:1014D0008001F7D4D4E907010843A16A2E4A4908DC
:1014E00002EB0141626A41EA8211084394F82C1030
:1014F00040EA0161C9F8001001203866FFF70CFDD1
:10150000044606E03EE000BFFFF706FD001B022890
:1015100009D828688001F7D534E000BFFFF7FCFC4C
:10152000001B022802D90320BDE8F88F286880013B
:10153000F4D427E00128F7D0D9F80000E26900F4DC
:10154000800191421CD1226A00F03F01914217D1E3
:1015500047F6C071626A0140B1EB821F10D1A26AE6
:101560004FF0FF3300F4403103EB5202B1EB024F76
:1015700006D194F82C1000F07060B0EB016F01D030
:101580000120D1E70020CFE70438024000004742A5
:10159000800E4742007000400000FFFF704770B5AA
:1015A000040009D0606A002540B125616561A5622B
:1015B00094F8510040B10CE0012070BD6068B0F5B6
:1015C000827FF4D0E561F2E784F85050204600F0C5
:1015D00045F8022084F851002068016821F040019C
:1015E0000160A088218900F4827001F4044108435D
:1015F000A18901F400610843217C01F00201084344
:10160000217D01F001010843218B01F400710843A1
:10161000217F01F03801084394F8201001F0800187
:101620000843218D01F40051084321680860A06936
:10163000042101EA104094F8241001F0100108433D
:10164000216848602068C16921F40061C161656555
:10165000012084F85100002070BD00002DE9F04108
:1016600086B0064614216846FFF726F82B493068F5
:10167000884250D12A480024016841F48051016019
:10168000006800F48050059025481438016841F046
:10169000020101600068694600F0020005903820F0
:1016A00000900220CDE9010403200390052004905E
:1016B0001C48FFF727FB1D4D1B484FF0C0672860F3
:1016C000C5E901744FF48068C5E903486C61AC61F9
:1016D000EC612C6228466C62FFF760FA08B1FFF7F4
:1016E00030F9F564AE63114D0F4860354830E5E8D8
:1016F00002074020A5E811010C4845F81449603064
:10170000AC61EC612C626C62FFF748FA08B1FFF73C
:1017100018F9B564AE6306B0BDE8F0810030014051
:10172000443802400004024010640240C4C001205A
:101730002DE9F84F044690F8500000271D46164644
:10174000894601280DD04FF0010B84F850B0FFF707
:10175000E3FB804694F85100BA46012804D00227E2
:1017600093E00220BDE8F88FB9F1000F73D0002E8E
:1017700071D0032084F85100C4F854A0C4F830900C
:10178000A686E686C4F838A0A4F83CA0A4F83EA03B
:10179000C4F844A0C4F840A0A068B0F5004F09D137
:1017A0002068016821F0400101602068016841F46F
:1017B0008041016020680168490603D4016841F056
:1017C00040010160E068B0F5006F606803D030B39D
:1017D000012E24D041E008B1012E1CD1206B2168DC
:1017E0000088C86006E020688168890709D5216BF8
:1017F0000988C160206B801C2063E08E401EE0865B
:1018000009E0FFF789FBA0EB0800A84202D3681C9F
:1018100001D031E07DB3E08E0028E4D120E0206BE0
:1018200021680078087306E020688168890709D577
:10183000216B09780173206B401C2063E08E401EF1
:10184000E0860AE0FFF768FBA0EB0800A84203D39C
:10185000681C02D010E017E06DB1E08E0028E3D1E3
:1018600042462946204600F0FBFE08B12020606574
:10187000A06818B106E0FFE7032706E02068C1680A
:1018800080680090606D00B1012784F851B084F841
:1018900050A0384666E700002DE9F041044690F874
:1018A00050000026012809D0012784F8507094F8D0
:1018B00051000025012804D002264EE00220BDE898
:1018C000F08189B182B1032084F8510065652163FC
:1018D000A286E286A56365642564A587E587A0687E
:1018E000B0F5004F02D00BE0012636E02068016819
:1018F00021F0400101602068016841F480410160ED
:10190000A16C18480864A16C1748C863A16C1748FB
:10191000C864A06C0565E38E2268216B0C32A06C54
:10192000FFF7A6F938B1606D40F010006065012640
:1019300084F8517011E020680168490603D40168F9
:1019400041F0400101602068416841F020014160A0
:101950002068416841F00201416084F850503046EF
:10196000ADE70000F1250008FB250008CF250008A1
:101970007047704710B5401EB0F1807F01D3012041
:1019800010BD4FF0E02460610F21601701F0D0FA24
:101990000020A06107202061002010BD7047704723
:1019A00070B590F83C20012A32D0012480F83C40E8
:1019B000022280F83D2003685A689D6822F0700674
:1019C0000A6832435A60134B02689A4214D0B2F14B
:1019D000804F11D0104B9A420ED0104B9A420BD030
:1019E0000F4B9A4208D00F4B9A4205D00E4B9A42A9
:1019F00002D00E4B9A4204D1496825F08003194366
:101A0000916080F83D40002180F83C10084670BD90
:101A1000022070BD000001400004004000080040AA
:101A2000000C00400004014000400140001800404C
:101A300010B5040003D094F83D0010B107E0012078
:101A400010BD002084F83C00204600F01FF8022062
:101A500084F83D00211D206801F090F8012084F8F1
:101A6000460084F83E0084F83F0084F8400084F883
:101A7000410084F8420084F8430084F8440084F86C
:101A8000450084F83D00002010BD000008B5006846
:101A90000B49884212D10B48016841F010010160E6
:101AA0000068002200F0100000900F213620FFF7A0
:101AB000A1FABDE808403620FFF78EBA08BD000045
:101AC000001000404038024090F83D10012901D03C
:101AD00001207047022180F83D100168CA6842F079
:101AE0000102CA6000681149884214D0B0F1804FE9
:101AF00011D00F4988420ED00E4988420BD00E49B2
:101B0000884208D00D49884205D00D49884202D04C
:101B10000C49884204D1816801F00701062903D0ED
:101B2000016841F0010101600020704700000140A0
:101B30000004004000080040000C00400004014088
:101B40000040014000180040704770B5044600682E
:101B500001694FF00005C943890715D4C168C9431D
:101B6000890711D4E91E016101202077206880696E
:101B70008007204602D0FFF7E7FF04E000F098F866
:101B8000204600F096F8257720680169C943490787
:101B900017D4C168C943490713D46FF00401016128
:101BA000022020772068806910F4407F204602D010
:101BB000FFF7CAFF04E000F07BF8204600F079F858
:101BC000257720680169C943090716D4C168C9434C
:101BD000090712D46FF00801016104202077206802
:101BE000C0698007204602D0FFF7AEFF04E000F096
:101BF0005FF8204600F05DF8257720680169C94349
:101C0000C90617D4C168C943C90613D46FF01001BF
:101C10000161082020772068C06910F4407F2046C9
:101C200002D0FFF791FF04E000F042F8204600F0F8
:101C300040F8257720680169C943C90708D1C16800
:101C4000C943C90704D1891E0161204600F032F85A
:101C500020680169C943090609D4C168C943090656
:101C600005D46FF0800101612046FFF797FE2068E0
:101C70000169C943490609D4C168C943490605D465
:101C80006FF040010161204600F01EF820680169F4
:101C9000C94389060BD4C168C943890607D46FF0CC
:101CA000200101612046BDE87040FFF778BE70BD9D
:101CB0007047704700680349884201D102F03CB880
:101CC00070470000001000407047704770470000E8
:101CD000F8B5016804460868CA684B6910F00F0F30
:101CE0004FF0000559D003F0010602F49077374316
:101CF00065D0C10705D0D10503D5216C41F00101A4
:101D00002164410705D5D90703D0216C41F00201B8
:101D10002164810705D5D90703D0216C41F0040166
:101D20002164010707D502F02001314303D0216C63
:101D300041F008012164216C00293AD0800604D5C5
:101D4000900602D5204600F0B2FF20684069216C61
:101D5000C0F38010090700D460B3204600F080FF74
:101D600020684069400621D52068143050E8001FE3
:101D700021F0400140E80012002AF5D1A06BA8B183
:101D80006C490165A06BFEF727FE002811D0A06BFF
:101D9000016D01B0BDE8F040084783060FD59306FA
:101DA0000DD52046BDE8F84000F081BF2046FFF782
:101DB0008DFFF8BD2046FFF789FF2564F8BD266B2F
:101DC0002023012E79D1C60677D5D60675D50868A9
:101DD000486800904869400640D5A16B0868406893
:101DE0000004000CEAD0A28D8242E7D9E085C869E0
:101DF000B0F5807F2DD020680C3050E8001F21F412
:101E0000807140E80012002AF5D12068143050E8B3
:101E1000001F21F0010140E80012002AF5D12068DE
:101E2000143050E8001F21F0400140E80012002A61
:101E3000F5D184F83E30256320680C3050E8001F4F
:101E400021F0100140E80012002AF5D1A06BFEF746
:101E50007AFDA08DE18D401A81B229E0A08DE18D3F
:101E6000401A81B2E08D0028A8D00029A6D02068B1
:101E70000C3050E8002F22F4907240E80026002E2B
:101E8000F5D12068143050E8002F22F0010240E81C
:101E90000026002EF5D184F83E30256320680C30F2
:101EA00050E8002F22F0100240E80023002BF5D16B
:101EB0002046FFF70AFFF8BDFFE705062BD51506FC
:101EC00029D594F83D002128F5D1A068B0F5805FB0
:101ED00001D12069B0B1206A411C216221680078DB
:101EE0004860E08C401E0004000CE084E3D12068D0
:101EF000C16821F08001C1602068C16841F04001E3
:101F0000C160D8E7206A0088C0F308004860206AF2
:101F1000801C2062E5E74006CDD55006CBD5CA68C7
:101F2000204622F04002CA6084F83D3000F06EF98D
:101F3000C1E70000512C000870B5040004D094F8EB
:101F40003D00002510B106E0012070BD84F83C5032
:101F5000204600F023F8242084F83D002068C16862
:101F600021F40051C160204600F002FF20680169A1
:101F700021F4904101612068416921F02A01416109
:101F80002068C16841F40051C1602564202084F8B4
:101F90003D0084F83E00002070BD0000F0B587B021
:101FA000044614216846FEF787FB364A2168002460
:101FB000354802250326914238D1334910310A6849
:101FC00042F480120A60096801F4801105910168E9
:101FD00041F004010160016801F00401059101680C
:101FE00041F008010160006802AA00F008000590B5
:101FF000E802CDE90005082782E8D00069462348B9
:10200000FEF780FE0420CDE9000502AA694682E8B9
:10201000D0001F48FEF776FE002201213520FEF792
:10202000E9FF3520FEF7D8FF07B0F0BD194A91420D
:10203000FAD1154914310A6842F010020A600968A1
:1020400001F010010591016841F001010160006893
:10205000029400F0010005904FF4C060CDE9000546
:102060000720CDE9036069460B48FEF74BFE0122CD
:102070000A490B4800F018F801F092F80949086085
:10208000D2E7000000500040303802400008024013
:10209000000C0240001001400000024068C0012016
:1020A000CCC1012064C0012090F83E30202B0ED11D
:1020B00059B152B190F83C30012B08D0012380F87F
:1020C0003C300023036300F0D9BE0120704702209A
:1020D0007047000010B500680B49884212D10B48C8
:1020E00001780B48006801F04BFD0A49801C01D0C3
:1020F0000878401C0870BDE81040012203490648DA
:10210000FFF7D2BF10BD00000050004068C00120A2
:1021100064C0012061C00120CCC101202DE9F84339
:10212000044690F83D001F4616460D4620284CD127
:10213000C5B1BEB194F83C00012846D0012084F816
:102140003C004FF00008C4F84080212084F83D0096
:10215000FEF7E2FEA6848146E684A068B0F5805FC3
:1021600003D004E00120BDE8F883206928B12E46A1
:102170005FF0000584F83C800EE00026FAE780213D
:10218000204600F098FEA0B9AEB116F8010B216808
:102190004860E08C401EE084E08C4B464FF000022B
:1021A00000970028EBD14FF04001204600F083FE5D
:1021B00030B10320D7E735F8020BC0F30800E6E79B
:1021C000202084F83D000020CDE70220CBE790F8E6
:1021D0003D30202B18D1A9B1A2B190F83C30012B91
:1021E00012D001628284C28400210164212280F81D
:1021F0003D2080F83C100068C16841F08001C1605A
:102200000020704701207047022070477047FEE7AA
:102210000D4808B5016841F48001016000680022A2
:1022200000F48000009011463820FEF7E3FE3820CD
:10223000FEF7D2FE002211463B20FEF7DBFEBDE892
:1022400008403B20FEF7C8BE303802402DE9F04F71
:1022500087B014216846FEF72FFA944800250168DC
:1022600041F010010160016801F010010591016861
:1022700041F004010160016801F004010591016869
:1022800041F020010160016801F020010591016821
:1022900041F080010160016801F080010591016851
:1022A00041F001010160016801F00101059101683F
:1022B00041F002010160016801F00201059101682D
:1022C00041F008010160016801F008010591016811
:1022D00041F0400101600068DFF8D49100F0400057
:1022E000059001227C214846FEF711FEDFF8C4A1CB
:1022F000012243F2C2715046FEF709FEDFF8B8B181
:1023000000220C215846FEF702FE4FF4004700223F
:1023100039465046FEF7FBFD002281214846FEF774
:10232000F6FD002239466548FEF7F1FD4FF4A0485E
:10233000012241466248FEF7EAFD00223946614823
:10234000FEF7E5FD002203215D48FEF7E0FD0022D7
:102350004FF440415C48FEF7DAFD01247C20CDE9D2
:10236000000469464846CDE90245FEF7CBFC43F23E
:102370000200CDE900040226CDE902466946504636
:10238000FEF7C0FC40F60800CDE90005694602945E
:102390005046FEF7B7FC4FF4F860CDE900046946FB
:1023A0005046CDE90245FEF7ADFC0C208DE851000A
:1023B000694658460396FEF7A5FCCDE900456946F7
:1023C00040480294FEF79EFC4220CDE90005694694
:1023D00002943A48FEF796FC00970395CDE9014632
:1023E00069465046FEF78EFC812003958DE851002A
:1023F00069464846FEF786FC60020090CDE901651B
:10240000CDE9035469464846FEF77CFCE002CDE97D
:102410000005694602944846FEF774FC0097039550
:10242000CDE9014669462548FEF76CFC4FF4127071
:10243000CDE90005694602942148FEF763FCCDE929
:102440000084CDE9024669461D48FEF75BFC4FF467
:102450005C60CDE90005694602941B48FEF752FC1A
:102460000097CDE90146694616480396FEF74AFCF7
:102470004FF00308CDF800800395CDE90146694689
:102480000F48FEF73FFCA00303958DE85100694615
:102490000D48FEF737FCCDE90074CDE902486946E6
:1024A0000948FEF72FFC07B0BDE8F08F3038024036
:1024B00000100240001402400008024000040240E4
:1024C000000C024000000240001802400F4810B506
:1024D0000D4901604FF48271416000210222816048
:1024E000C0E903121202C0E90512C1610162416232
:1024F00081620A21C162FFF752F8002803D0BDE8CB
:102500001040FEF71EBA10BD003001406CC0012023
:102510001CB500240F4800940D490194016040F25D
:10252000E731C0E901145321C16080218161FFF7C7
:102530007FFA08B1FEF705FA009469460548019450
:10254000FFF72EFA002801D0FEF7FBF91CBD0000B2
:102550000010004084C101200C4810B50A490160F8
:102560004FF4E1314160002181600C22C160C0E97B
:1025700004128161C161FFF7DFFC002803D0BDE8D0
:102580001040FEF7DEB910BD00500040CCC1012064
:102590000C4810B50A4901604FF4E1314160002157
:1025A00081600C22C160C0E904128161C161FFF742
:1025B000C3FC002803D0BDE81040FEF7C2B910BD2F
:1025C0000010014010C20120FEE7FEE7704710B581
:1025D000806B01684A6822F003024A60416D41F055
:1025E00010014165012180F85110FEF7D7FF10BDA1
:1025F00010B5806BFFF7BDF910BD38B50546846B8B
:10260000FEF78AFC024628680068C00523D42068CB
:10261000416821F0200141602068416821F00201F9
:1026200041606421204600F01BF818B1606D40F055
:1026300020006065A068002118B92068C268806821
:102640000090E186012084F85100606D18B12046A9
:10265000FEF7A4FF38BD2046FFF78AF938BD000019
:1026600038B504461248134B0068B0FBF3F04FF442
:102670007A73584300906068B0F5827F0DD10B46A5
:10268000009200228021204600F016F870B1606DA3
:1026900040F020006065032038BD009830B1401E36
:1026A000009020688068C0430006F6D5002038BD41
:1026B00010C0012000366E012DE9F8431E469146F8
:1026C00088460446089DFEF727FC401B351AFEF796
:1026D00023FC074625480068C0F3CB30684338E048
:1026E000701C37D0FEF718FCC01BA84203D215B1EE
:1026F000009860B32CE02068416821F0E00141605F
:102700006068B0F5827F0BD1A068B0F5004F02D0B1
:10271000B0F5806F04D12068016821F040010160AC
:10272000A06AB0F5005F09D12068016821F400516A
:1027300001602068016841F400510160012084F8C3
:102740005100002084F850000320BDE8F8830025E4
:10275000401E00902068816838EA010004D0002102
:102760004945BDD10020F0E70121F9E710C0012063
:102770002DE9F04107460021EF2340F23F120846C1
:1027800000F0C8F80E4E002204213046FEF7BFFBD1
:1027900000244FF448653A4629460A48FDF762FF8F
:1027A0002946084800F028F9641CA4B2302CF2D362
:1027B0003046BDE8F04101220421FEF7A8BB00002D
:1027C00000080240B4E301201FB54FF448614548BA
:1027D000FDF750FF1920FEF783FA434C0022012138
:1027E0002046FEF794FB1920FEF77AFA01221146E3
:1027F0002046FEF78CFB3220FEF772FA3A2000F0FA
:10280000DDF8652000F040F9B22000F0D7F837A1DC
:10281000D1E90001CDE900010521684600F0ECF89E
:10282000042000F0B3F8B72000F0C8F8352000F01D
:102830002BF9BB2000F0C2F8192000F025F9C020C8
:1028400000F0BCF82C2000F01FF9C22000F0B6F810
:10285000012000F019F9C32000F0B0F8122000F0B8
:1028600013F9C42000F0AAF8202000F00DF9C620CA
:1028700000F0A4F80F2000F007F9D02000F09EF837
:10288000A42000F001F9A12000F0FEF8E02000F003
:1028900095F818A00FC88DE80F000E21684600F0CB
:1028A000ABF8E12000F08AF816A10FC98DE80F00FF
:1028B0000E21684600F0A0F8202000F07FF81120DB
:1028C00000F07CF8132000F079F8292000F076F869
:1028D0003220FEF705FA04B00020BDE81040FFF7F3
:1028E00047BF0000B4E30120000C02400C0C003391
:1028F00033000000D0040D11132B3F544C180D0B66
:102900001F230000D0040C11132C3F44512F1F1F14
:10291000202300002DE9F843DFF86C8015460E46B1
:1029200007461C46002204214046FEF7F0FA2A2002
:1029300000F044F8380A8DF800008DF80170280A7C
:102940008DF802008DF803500421684600F054F819
:102950002B2000F033F8300A8DF800008DF801606C
:10296000200A8DF802008DF803400421684600F02B
:1029700043F82C2000F022F84046BDE8F84301223D
:102980000421FEF7C4BA00000008024010B5044656
:10299000362000F013F8052C0FD2DFE804F0030511
:1029A00007090500C02004E0A02002E0002000E0AC
:1029B0006020BDE8104000F067B810BD31B50C4C88
:1029C000002204212046FEF7A2FA00220821204618
:1029D000FEF79DFA4FF0FF33012269460548FEF7E6
:1029E000A7FE012204212046FEF791FA38BD00001F
:1029F000000802406CC001202DE9F05F1F4F0C461B
:102A00000646002204213846FEF781FA01220821F9
:102A10003846FEF77CFA4FF480394FF6FF7BDFF83B
:102A20006080DFF860A01FE04C4501D3584600E00D
:102A3000204685B2B8F80000A0420CD82A4631469C
:102A40001048FEF729FFDAF8480000BF90F835106B
:102A50000129FBD106E04FF0FF332A4631460948F1
:102A6000FEF766FE2E44641B002CDDD13846BDE81F
:102A7000F05F01220421FEF74ABA0000000802407C
:102A80005CC001206CC0012031B50C4C0022042137
:102A90002046FEF73CFA012208212046FEF737FACD
:102AA0004FF0FF33012269460548FEF741FE01223F
:102AB00004212046FEF72BFA38BD00000008024032
:102AC0006CC001207047FEF72DBA000030B593B0FE
:102AD00030216846FDF7F0FD14210CA8FDF7ECFD50
:102AE0001D480025016841F080510160006800F038
:102AF000805011901948016841F4804101600068DC
:102B0000022400F4804011900120039010200490D2
:102B1000009406940820CDE90750A820CDE90904C7
:102B200004200B906846FEF783FB08B172B6FEE7FF
:102B30000CA90F2081E831004FF4A0500F904FF402
:102B40008050109005210CA8FEF786FA002801D0CD
:102B500072B6FEE713B030BD40380240007000404E
:102B60000248016841F470010160704788ED00E09F
:102B70000148FEF7EABF000084C10120F0B50268F9
:102B8000254C264D264E274F274B4FF0804CA04218
:102B900009D0604507D0A84205D0B04203D0B84262
:102BA00001D0984204D122F0700E4A6842EA0E0227
:102BB000A0421BD0604519D0A84217D0B04215D012
:102BC000B84213D0984211D0184DA8420ED0184DDB
:102BD000A8420BD0174DA84208D0174DA84205D0E7
:102BE000164DA84202D0164DA84203D122F44075DA
:102BF000CA682A434D6922F080022A4302608A682B
:102C0000C2620A688262A04201D0984201D1096979
:102C1000016301214161F0BD00000140000400405A
:102C200000080040000C004000040140004001404A
:102C3000004401400048014000180040001C0040D2
:102C4000002000400148FFF743B80000CCC101203C
:102C500010B5806B0021C185C184FFF737F810BD26
:102C600001680C3151E8002F22F4907241E80023F2
:102C7000002BF5D10168143151E8002F22F0010238
:102C800041E80023002BF5D1016B012909D101682E
:102C90000C3151E8002F22F0100241E80023002BF4
:102CA000F5D1202180F83E1000210163704708B55E
:102CB00090F83E10222901D0022008BD82684FF40E
:102CC00080539A4201D1016921B1816A9A421BD095
:102CD0004AB10AE00268816A5268C2F308020A80B7
:102CE000816A891C08E0026972B10268526802F0C8
:102CF0007F020A70816A491C8162C18D491E0904E4
:102D0000090CC18503D019E002685268F1E7016837
:102D1000CA6822F02002CA600168CA6822F4807280
:102D2000CA6001684A6922F001024A61202180F8E4
:102D30003E10016B012903D0FFF7CCF9002008BD3C
:102D40000021016301680C3151E8002F22F01002CC
:102D500041E80023002BF5D101680A68D20602D5AC
:102D60000A6849680091818DFEF7AFFFE6E7000031
:102D700070B5044600680169E26821F440511143CE
:102D800001612169A068E269084361691143084350
:102D90002168CA6849F20C639A430243CA602068FA
:102DA0004169A26921F440711143416131492068B0
:102DB000884202D03049884202D1FEF7F7F901E09B
:102DC000FEF7E4F9E2690023192164253226B2F501
:102DD000004F626828D0A0FB0101930F9200FDF71D
:102DE0004CFA0146B0FBF5F06FF01802504301EBCE
:102DF000800006EB0010B0FBF5F000F0F002B1FB34
:102E0000F5F002EB0012B1FBF5F06FF01803584338
:102E100001EB800006EB0010B0FBF5F000F00F00B6
:102E200021681044886070BDA0FB010192185B41CD
:102E3000FDF723FA0146B0FBF5F00201B1FBF5F016
:102E40006FF01803584301EB800006EBC000B0FBA5
:102E5000F5F000F0F80002EB4002B1FBF5F058434A
:102E600001EB800006EBC000B0FBF5F000F00700BE
:102E7000D6E7000000100140001401408162828505
:102E8000C28500210164222280F83E2080F83C1097
:102E9000016921B10168CA6842F48072CA600168A0
:102EA0004A6942F001024A610068C16841F02001AC
:102EB000C160002070472DE9F041984617460E4644
:102EC0000446069D27E0681C25D02DB1FEF724F8A6
:102ED000A0EB0800A8421ED920680C3050E8001F63
:102EE00021F4D07140E80012002AF5D12068143096
:102EF00050E8001F21F0010140E80012002AF5D13E
:102F0000202084F83D0084F83E00002084F83C0036
:102F10000320BDE8F0812068006836EA000004D094
:102F20000020B842CFD00020F3E70120F9E7FEE708
:102F30000907090E002804DB00F1E02080F80014E6
:102F4000704700F00F0000F1E02080F8141D70477A
:102F5000A3F5C04246F26201603A07D08B420AD123
:102F60000088022807D104A0FDF7FEB900880128D7
:102F700001D103A0F8E77047CFC2D2BBD2B30A0099
:102F8000C9CFD2BBD2B30A002DE9F8430025914640
:102F90000E460446022A09D1822E01D0802E05D188
:102FA00020784F2802D160784B2804D0832E09D096
:102FB000812E1AD025E023A0FDF7D6F94FF0FF307F
:102FC000BDE8F8832088A578010A41EA00201FFAAD
:102FD00080F8002005E021180A792254CA784A7046
:102FE000801CB0EB450FF6D30BE094F800806578B9
:102FF000002004E0211889782154401CC0B2A84266
:10300000F8D32B464A4631460FA0CDF80080FDF795
:10301000ABF9002705E0E15B19A0FDF7A5F9BF1C9E
:10302000FFB2AF42F7D318A0FDF79EF917488768A3
:103030002FB143464A46314620460095B8472846B8
:10304000BEE700004F4B0A00434D44203078253046
:103050003278203A20504C454E202564203A204CAE
:10306000454E202564203A204144445220307825A2
:10307000303278203A20444154413A200000000088
:1030800030782530347820000A00000044C0012048
:1030900030380A2801D20120704700207047000014
:1030A000014840787047000060C0012008B5012148
:1030B000684600F001FC9DF8000008BD13B589B218
:1030C000684600F009FC1CBD7047704700F082B9EB
:1030D00000F00AB810B5034CC4E90420C4E9023179
:1030E00010BD000044C001202DE9F041234C4FF0F9
:1030F000FF37606970B300256069804700281ED0E3
:10310000E068804706466078D8B1012825D00228BB
:103110002DD003282ED00428EED1194960680E5412
:10312000401C6060A178491E8842E5DBA078E17808
:10313000401EC2B21248FFF727FF65706560BDE808
:10314000F08120210E48FDF795FAA570E5705A2E02
:1031500001D0656006E0012007E0A52E04D01EB175
:10316000656065703846EAE702206070C4E7A670C3
:103170000320FAE7E6700420F7E7000044C00120CE
:1031800065E00120024B034A03490448FFF7A2BF50
:10319000512F0008BD300008AD300008A1300008F4
:1031A00010B54FF48161002000F036FC28B10021F9
:1031B000C0F80014C0F8041410BD02A0FDF7D4F844
:1031C000002010BD6669666F5F696E6974206D7955
:1031D0006D616C6C6F63206572726F720A00000023
:1031E0002DE9F047654E00274FF001083078B946C9
:1031F000401EC5B2746894E0E07E410909D0A189FF
:103200004FF6FF72491C89B2A181914201D3218BF3
:10321000A181410904D001291BD002297CD195E06C
:10322000F26808FA05F111420FD0A4F80C90A4F846
:103230000E9020F01E00E076A16809B12046884774
:10324000E07E20F0E000203062E020F01E0016302A
:103250005EE0F26808FA05F1114241D0E189B1B1AE
:10326000A289238A9A4257D9032900D3032161F303
:103270004400E076A16809B120468847E07E20F04E
:10328000E0002030E0764846A4F80C905CE0A1898C
:10329000228B91420AD3C0F3430108293CD020F08D
:1032A0001E0010300CE02046884732E0E28A91424E
:1032B0000BD3C0F3430106292ED020F01E000C30A2
:1032C000E076A1680029EED123E0A28A914223D3BF
:1032D000C0F3430104291FD020F01E000830EFE79F
:1032E000A189228B914206D320F01E00123008E003
:1032F0002046884709E0E28A914218D320F01E0058
:103300000E30E076A1680029F2D1E07E20F0E000E6
:10331000E076E07E400901D07F1CFFB224686D1E7C
:10332000EDB2002C7FF468AF3846BDE8F087A28A82
:10333000914203D320F01E000A30E2E720F0E000C3
:103340004030E076E089401CE081E2E7F26808FA6C
:1033500005F1114206D020F0E0002030E076A4F81C
:103360000C90D6E7A189228A9142D5D9E189032917
:1033700000D3032161F34400C3E7000034C00120FF
:1033800030B513494FF0FF354A68144628B10B7821
:10339000202B02D804E0824201D1284630BD1268B9
:1033A000002AF8D10460C27E002422F0FE02163208
:1033B000C2768481C4810F240482486002F0010037
:1033C0008A68984010435B1C8860D8B2087030BD92
:1033D00034C001202DE9F0410C4E0024307875688E
:1033E000401EC7B206E028468847B84004432D680F
:1033F0007F1EFFB215B169680029F4D1B168E043BE
:103400004840F060BDE8F041FFF7EABE34C001205B
:1034100013B54FF6FF73012269460248FEF77EFEA0
:1034200000981CBD10C2012010B5027B074B002183
:10343000064C43F82210FF22037B5034E2544173C0
:103440004160816001604161016110BDDCDF0120EC
:10345000D0F80014D0F80404814201D10120704753
:1034600000207047D0F80014D0F80404081AB0F512
:10347000806F01D00020704701207047002141601B
:10348000016001727047F0B40C7AC4B100230A687D
:1034900006E005681668B54204D912695B1CDBB208
:1034A0009C42F6D85AB1026153695BB143615369DA
:1034B00018615061087A401C0872F0BC7047F0BC7B
:1034C00000F004B8002308604361F2E710B50C7AFD
:1034D0004A6800233CB11061C0E904324860087AB0
:1034E000401C087210BD0860486003614361F6E744
:1034F00070B54FF400710C48FDF7FCFC0446022146
:103500000A48FDF7F7FC0A4D44EA40040821284622
:10351000FDF7F0FC44EA8004E9142846FDF7EAFCD4
:1035200044EAC000C0B270BD000C0240000402407A
:103530000014024070B50025284600F031F8FFF76E
:10354000D7FF0F2821D0FFF7D3FF0F281DD000246D
:103550005FF0010606FA04F0C04380B200F020F8E4
:10356000FFF7C6FF072816D00B2810D00D2805D06E
:103570000E2807D104EB8400401C02E004EB840019
:10358000801CC5B2641C052CE4DB284670BD04EB2E
:103590008400C01CF5E704EB8400001DF1E7000087
:1035A00070B5134D044600F0010202212846FDF7D4
:1035B000AEFCAE14C4F3400231462846FDF7A7FC2A
:1035C00031460C4EC4F380023046FDF7A0FCC4F334
:1035D000C0024FF400512846FDF799FCC4F30012D5
:1035E0003046BDE870404FF48041FDF790BC0000CC
:1035F00000140240000C0240024630B4234B244821
:10360000082A41D2DFE802F0040C141B22293037CB
:10361000012901D0012200E000224FF4807105E071
:10362000012901D0012200E000228021184628E073
:10363000012901D0012200E000224021F6E7012902
:1036400001D0012200E0002240211AE0012901D02E
:10365000012200E00022202113E0012901D00122F3
:1036600000E0002210210CE0012901D0012200E03D
:103670000022082105E0012901D0012200E00022FA
:10368000042130BCFDF743BC30BC7047001402403D
:103690000010024070470000FDF74CFCFFF716FADF
:1036A000FEF7D4FDFEF7B4FDFEF732FFFEF70EFF86
:1036B000FEF752FFFEF76CFF00F09AFA0448FEF79F
:1036C00003FA00F021FB00BF00F0E6FAFCE700007F
:1036D00084C1012000F07AB810B501460020897E2F
:1036E000152911D2DFE801F0100B11171C21262B30
:1036F00030353A3F44494E53585D62676C00FFF7DE
:1037000019FF012800D0002010BDFFF713FF022889
:10371000F9D1012010BDFFF70DFF0328F9D0F2E722
:10372000FFF708FF0428F4D0EDE7FFF703FF0528B3
:10373000EFD0E8E7FFF7FEFE0628EAD0E3E7FFF761
:10374000F9FE0728E5D0DEE7FFF7F4FE0828E0D011
:10375000D9E7FFF7EFFE0928DBD0D4E7FFF7EAFE51
:103760000A28D6D0CFE7FFF7E5FE0B28D1D0CAE76D
:10377000FFF7E0FE0C28CCD0C5E7FFF7DBFE0D28F5
:10378000C7D0C0E7FFF7D6FE0E28C2D0BBE7FFF7D1
:10379000D1FE0F28BDD0B6E7FFF7CCFE1028B8D079
:1037A000B1E7FFF7C7FE1128B3D0ACE7FFF7C2FEC1
:1037B0001228AED0A7E7FFF7BDFE1328A9D0A2E7D5
:1037C000FFF7B8FE1428A4D09DE70000817E0129F0
:1037D0000ED002291BD1C07EC0F34300002816D0B2
:1037E000012812D0022812D109A000BFFCF7BCBDED
:1037F000C07EC0F34300002809D0012803D002286E
:1038000005D108A0F2E70CA0F0E70FA0EEE77047A3
:103810004D41545249585F4B45595F372078320A21
:10382000000000004D41545249585F4B45595F55C7
:10383000502078320A0000004D41545249585F4BE5
:1038400045595F55500A00004D41545249585F4B4D
:1038500045595F370A0000002DE9F0474FF4137116
:103860001248FCF729FF114D114E124F00244FF062
:103870004B084FF096094FF0E10A00BFC4EBC400BB
:1038800005EB80008476C0E90167C17E41F001014B
:10389000C176A0F81480A0F81690A0F818A0FFF741
:1038A0006FFD641C152CE9DBBDE8F08768E10120A1
:1038B000D9360008D536000870B5064C0546606854
:1038C00000F02CF9811C02D02870002070BD00206F
:1038D0006070FAE760C001202DE9F04101220B4F32
:1038E0000C460546D60331463846FDF710FB224606
:1038F00029460748FEF76BFC04460022314638464D
:10390000FDF705FB2046BDE8F08100000004024001
:10391000CCC1012070B504460B480C4E002150F874
:10392000240006EB84054200286900F085F806486B
:103930000021103050F82420A86800F07DF8012004
:103940003119087670BD0000743F000814C00120D2
:103950002DE9F041204E0446002530190F46007E27
:1039600010B93168204688474FF0FF327FB31B4BB8
:1039700053F82410B7FBF1F0B7FBF1FC01FB1C710D
:1039800001B1401C1549083951F82410491E21D4B1
:1039900006EB8406D6F8107037F811C0BCF1000FA2
:1039A00005D00025854213D1002285B208E06D1CA8
:1039B000F8E700BF376901EB020C521C27F81C50D6
:1039C0008242F7D353F824004843BDE8F08101E078
:1039D000491EE1D51046F8E714C001207C3F0008DD
:1039E00010B50B4B0B4C002253F82030114604EB62
:1039F000800005E0046934F8114004B1521C491CF0
:103A00008B42F7D864204243B2FBF3F0C0B210BD42
:103A1000743F000814C0012010B50446FFF798FF5A
:103A2000411C05D0034901EB84018968084410BD9D
:103A3000002010BD14C0012002E000BF00F8011BEF
:103A4000521EFBD27047000070B5034600201A4C8E
:103A50004FEA000500EB400604EBC606767B26B372
:103A6000401CC0B21428F5D32C4614482561C4E983
:103A700001320268D0182060207B114B1D5419B10F
:103A8000207B503B43F820100D4821687838914244
:103A9000017E01D281F0010101EB410100EB8101C6
:103AA0002046FFF7F0FC204670BD00EB400004EB21
:103AB000C00401266673D8E7D4DD012030C00120A0
:103AC0002CE0012010B508490446087E00EB4000B8
:103AD00001EB8001204600F009F803492046BDE8CB
:103AE00010401C31FFF7F2BCB4DF01200B68026903
:103AF000834207D100230A6012B10069436107E0E5
:103B00004B6005E043691A61D0E9042022B150619D
:103B1000087A401E087270474860F9E710B5020045
:103B200010D0FFF795FC012812D0D2F80414C81762
:103B300001EB90506FF30900081A491C805CC2F831
:103B4000041410BD05A0FCF70FFC4FF0FF3010BDB2
:103B500006A0FCF709FC6FF0010010BD6765743A20
:103B60002070206E756C6C0A000000006765743A66
:103B7000206275666620697320656D7074790A002D
:103B800010B50B46020013D0FFF76CFC012815D0CE
:103B9000D2F80004C11700EB91516FF30901401AEC
:103BA0008354D2F80004401CC2F80004002010BD69
:103BB00005A0FCF7D9FB4FF0FF3010BD06A0FCF7C5
:103BC000D3FB6FF0010010BD696E736572743A200B
:103BD00070206E756C6C0A00696E736572743A20A1
:103BE000627566662069732066756C6C0A00000059
:103BF00070B52048FFF742FC1E481C38FFF73EFC1A
:103C00001C481038FFF73AFC1A4900201C391B4B9E
:103C10000876194903F50274FF250860014603F58B
:103C2000167600BF01EB410203EBC20250735060F5
:103C30001060906010615061117344F82100755458
:103C4000491CC9B21429EDD30D494FF47A720968A1
:103C5000B1FBF2F1491EB1F1807F09D24FF0E022B1
:103C60005161084BF02183F8141D90610720106109
:103C700070BD0000D0DF012030C00120D4DD012064
:103C800010C001200FE000E010B572B6FFF7DCFEB7
:103C900062B690F90C0010BD70B5154E002406F107
:103CA0005005285DFF2807D030B156F8240000B138
:103CB0008047285D401E2855641CE4B2142CF0D3C4
:103CC0000B480C38017A002907D0046803E0207BF8
:103CD000285C18B12469002CF9D170BD0449204634
:103CE0000C39FFF703FF2046BDE87040FFF79CBB8F
:103CF000DCDF012010B5012272B6FFF7A5FE62B627
:103D000090F90C0010BD000010B5FFF7C3FCFFF7E1
:103D1000DCF900F0EBF8FFF79FFDFEF755FDFFF72C
:103D200031FA0020FFF7F6FDBDE81040014964209C
:103D3000FFF7E0BF093E00082DE9F041224E234D78
:103D400030680146401C884203D2297E81F001017F
:103D500029763060287E00EB400005EB80073C6848
:103D600024E01A4B207B7833195C491C1954A06855
:103D7000A0F57F41FF3902D0401EA0601ED06068D0
:103D80003946104420602046FFF7B0FE20683168B5
:103D9000884206D2287E80F0010000EB400005EB4F
:103DA000800739462046FFF76EFB2469002C03D0BC
:103DB000206832689042D4D9BDE8F0810220607357
:103DC0002046FFF77FFEF0E730C00120B4DF01207E
:103DD00010B50B4C207808B1012100E00021002033
:103DE000FFF70AFC207840B100202070BDE81040A9
:103DF0004FF400710348FDF782B80120F5E7000099
:103E000069C001200014024010B54FF6FF7422462D
:103E10000749C820FFF738FF224606491420FFF75C
:103E200033FF2246BDE8104003490520FFF72CBFB1
:103E3000D13D0008CD300008D130000800F02EB888
:103E400030B401460020897E114A124B08291DD248
:103E5000DFE801F00407090D101517194FF4006190
:103E600003E0402104E04FF48061104604E00821A3
:103E7000184601E00848012130BCFDF73BB840215D
:103E8000F3E78021F1E74FF48071EEE730BC704733
:103E900000180240000C024000000240817E002910
:103EA0000ED8C07EC0F34300002809D0012805D0F9
:103EB000022805D103A000BFFCF756BA06A0FBE715
:103EC00070470000544F5543485F425554544F4E7D
:103ED0005F55502078320A00544F5543485F425591
:103EE00054544F4E5F55500A000000002DE9F04732
:103EF000E0211248FCF7E0FB104D114E114F002459
:103F00004FF04B084FF096094FF0E10AC4EBC400A4
:103F100005EB80008476C0E90167C17E21F00101D4
:103F2000C176A0F81480A0F81690A0F818A0FFF7AA
:103F300027FA641C082CE9DBBDE8F08788E0012043
:103F4000413E00083D3E00084FF04070E1EE100A8F
:103F50007047000610160006101600000000000052
:103F60000000010203040607080900000000010226
:103F700003040000C00D00008007000020000000C6
:103F80002000000000B8010000F0000030313233A2
:103F9000343536373839414243444546403058007D
:103FA00030313233343536373839616263646566AF
:103FB000403078000400000800000000000000020B
:103FC0000001000010000000F83F000800C00120C0
:103FD0006C000000C4010008F83F00080000002049
:103FE00000B80100E0010008644000086CC0012036
:103FF0002C360000E0010008000000000100000075
:1040000010000000000000000024F4001539000832
:10401000E1390008000000200000001054C2012017
:1040200000F0001000000000000000000000000090
:10403000000000000000000000000000010000007F
:104040000000000000000000000000000000000070
:104050000000000010000000000000500000000000
:04406000000000005C
:040000050800018965
:00000001FF
