:020000040800F2
:1000000098F90120550200084B3E0008EF3800081F
:10001000493E000885180008ED490008000000006E
:100020000000000000000000000000004543000840
:1000300045190008000000004D3E00084743000835
:100040006F0200086F0200086F0200086F020008CC
:100050006F0200086F0200086F0200086F020008BC
:100060006F0200086F0200086F0200086F020008AC
:100070006F0200086F0200086F0200086F0200089C
:100080006F0200086F0200086F0200086F0200088C
:100090006F0200086F0200086F0200086F0200087C
:1000A000F14300086F0200086F0200086F020008A9
:1000B0006F0200086F020008FD4300086F0200088D
:1000C0006F0200086F0200086F0200086F0200084C
:1000D0006F020008E14900086F0200086F02000883
:1000E0006F0200086F0200086F0200086F0200082C
:1000F0006F0200086F0200086F0200086F0200081C
:100100006F0200086F0200086F0200086F0200080B
:10011000E9460008F5460008094400086F02000897
:10012000891800086F0200086F020008951800087F
:100130006F0200086F0200086F0200086F020008DB
:100140006F0200086F0200086F0200086F020008CB
:100150006F0200086F0200086F0200086F020008BB
:100160006F0200086F0200086F0200086F020008AB
:100170006F0200086F0200086F0200080000000014
:100180006F0200086F02000800F002F800F052F859
:100190000AA090E8000C82448344AAF10107DA45E2
:1001A00001D100F047F8AFF2090EBAE80F0013F0E2
:1001B000010F18BFFB1A43F00103184764950000B4
:1001C000A4950000103A24BF78C878C1FAD8520725
:1001D00024BF30C830C144BF04680C6070470000C1
:1001E0000023002400250026103A28BF78C1FBD840
:1001F000520728BF30C148BF0B607047662908F01E
:100200007287642900F0F480632900F0CB8573299C
:1002100000F0D085002070471FB508F05AFF00F0AD
:1002200015FE04000020002108F0EEF8E0601FBD7C
:1002300010B510BD00F00EFF1146FFF7EDFF06F000
:100240007DF900F02CFF03B4FFF7F2FF03BC05F0CB
:100250007BFB00000948804709480047FEE7FEE7AE
:10026000FEE7FEE7FEE7FEE7FEE7FEE7FEE7FEE766
:1002700004480549054A064B70470000E143000861
:100280008901000898F3012098F9012098F50120D0
:1002900098F50120704753EA020C00F069802DE9BF
:1002A000F04B4FF00006002B1FBFB3FA83F503FAA3
:1002B00005F424FA05F65E4012BF1643B2FA82F541
:1002C00002FA05F4C5F120051EBF22FA05FC44EA36
:1002D0000C04203556EA044C4FEA144418BF641C41
:1002E0004FF000084FF00009904271EB030C39D336
:1002F000002919BFB1FA81F701FA07F6B0FA80F7C1
:1003000000FA07F6C7F120071EBF20FA07FC46EAED
:100310000C062037B6FBF4FCA7EB0507103F07F0EF
:100320001F0BCBF120060CFA0BFB2CFA06F644BF90
:10033000B3460026202FA4BF5E464FF0000B5BEAB9
:10034000060C08BF4FF0010B19EB0B09ABFB027C4D
:1003500048EB0608C01B06FB02CC0BFB03CC71EB81
:100360000C01C1E70B46024641464846BDE8F08B0A
:1003700013B54FF000004FF00001AFF30080BDE86F
:100380001C4070470FB4044910B503AA029800F04E
:1003900015FD10BC5DF814FB0000002070B50C4684
:1003A0000546012A05D02878800600D5EA69002391
:1003B00002E0012305E05B1C934202D2E05C0028CE
:1003C000F9D1A869E618C01AA861286A18442862F9
:1003D0002846AFF3008004E0D5E9012114F8010BB1
:1003E0009047B442F8D32846AFF3008070BD0000B8
:1003F0002DE9F0410646002410687529314616A5FE
:1004000010D0AFF30080002802DA404213A507E0C5
:1004100031688A0701D512A502E0490704D511A564
:10042000012401E0AFF3008000210A2206F1240735
:1004300009E0B0FBF2FCB0FBF2F302FB1C00303031
:1004400078541846491C0028F3D123462A463046E2
:10045000BDE8F04100F01BBA000000002D000000D4
:100460002B000000200000002DE9F05F89460446C3
:100470004FF0000ADFF874B1FB44C0F820A020461A
:10048000E1688847002874D0252806D0D4E90121E6
:100490009047206A401C2062F1E700265F46204614
:1004A000E16888472028054607DB312D05D27819F9
:1004B00010F8200C08B10643F1E7B00701D526F08B
:1004C0000406C4F81CA00027C4F818A02A2D09D0DF
:1004D000284605F01BFA38B304EB8708303DC8F80E
:1004E000185019E059F8041B204604EB870291616B
:1004F000E1688847012F054618D1E069002820DA15
:1005000026F020061DE0D8F8180000EB800005EB6F
:1005100040003038C8F818002046E1688847054692
:1005200005F0F4F90028EED1012F0AD02E2D08D1C4
:100530002046E16888477F1C0546022F46F02006CA
:10054000C4DBA069002803DA404246F00106A0613E
:10055000F00701D026F010066C2D0BD0682D09D0C5
:100560004C2D39D06A2D35D0742D35D07A2D33D01D
:1005700016E038E0E1682F4620468847B842054635
:1005800009D16C2F26D04FF48060E16806432046E5
:100590008847054604E06C2F1AD04FF4807006435C
:1005A0000DB3A5F14100192802D8203546F40066A4
:1005B0004A462946204626604E46FFF71FFE80B178
:1005C00001280BD0F61D26F0070000F1080956E7B8
:1005D0004020E4E78020D8E70020D6E706F10409B0
:1005E0004DE7284652E7206ABDE8F09FC78E00001D
:1005F00010B5431C02E010F8011B71B18107FAD15C
:100600004FF0013202C88C1A8C4314EAC211F9D09F
:10061000C01A0A0603D0C01E10BDC01A10BD0A04BD
:1006200001D0801E10BD0902FCD0401E10BD40EA62
:10063000010370B59B072ED14FF00136042A2AD34F
:1006400008C810C99D1B9D43121F15EAC61517D077
:10065000D8B2E1B2401A50EA056110D198B2A1B205
:10066000401A50EA05410AD123F07F4024F07F412F
:10067000401A50EA052102D1180EA0EB146070BD9B
:10068000A342DBD018BA21BA884201D9012070BD3B
:100690004FF0FF3070BD0AB9002070BD10F8013B6B
:1006A00011F8014B63B1A3420AD1521E08D010F8D1
:1006B000013B11F8014B1BB1A34201D1521EEDD1F8
:1006C000181B70BD032A40F2308010F0030C00F0BC
:1006D000158011F8013BBCF1020F624498BF11F87C
:1006E00001CB00F8013B38BF11F8013BA2F1040235
:1006F00098BF00F801CB38BF00F8013B11F00303AD
:1007000000F06E83083AC0F0088051F8043B083AC4
:1007100051F804CBA0E80810F5E7121D5CBF51F8B2
:10072000043B40F8043BAFF30080D20724BF11F82C
:10073000013B11F801CB48BF11F8012B24BF00F891
:10074000013B00F801CB48BF00F8012B704702F0D5
:10075000FF0343EA032242EA024200F002B84FF0EC
:1007600000020429C0F0128010F0030C00F01B807E
:10077000CCF1040CBCF1020F18BF00F8012BA8BF8C
:1007800020F8022BA1EB0C0100F00DB85FEAC17C50
:1007900024BF00F8012B00F8012B48BF00F8012B03
:1007A00070474FF0000200B5134694469646203934
:1007B00022BFA0E80C50A0E80C50B1F12001BFF41A
:1007C000F7AF090728BFA0E80C5048BF0CC05DF880
:1007D00004EB890028BF40F8042B08BF704748BFCE
:1007E00020F8022B11F0804F18BF00F8012B704742
:1007F0004FF0013C50F8042B51F8043B9A4221D1B0
:10080000A2EB0C03934313EACC1317D150F8042B3B
:1008100051F8043B9A4215D1A2EB0C03934313EA1F
:10082000CC130BD150F8042B51F8043B9A4209D158
:10083000A2EB0C03934313EACC13DBD04FF0000080
:10084000704700BFD01A01BAB1FA81F101F0180166
:1008500022FA01F0CB40C1F12001DBB2C0B2C01AD4
:100860002CFA01F3D11A914311EAC311E6D1704772
:10087000704770477047704710B500F0EBFA00689A
:1008800010BD10B5044600F0E5FA046010BD2DE976
:10089000F0470D4699469246044600F12408016847
:1008A000880604D5E06921F01001216000E00120F4
:1008B000A84201DD471B00E00027A1697A1902EB7D
:1008C0000900081AA0612078C00602D42046AFF3C0
:1008D0000080002608E0D4E901211AF806009047BC
:1008E000206A401C761C20624E45F4DB2078C0064E
:1008F0000AD52046AFF3008006E0D4E9012130207C
:100900009047206A401C2062381EA7F10107F4DCE2
:1009100007E0D4E9012118F805009047206A401C3F
:100920002062281EA5F10105F3DC2046AFF300800C
:100930002078000602D50220BDE8F0870120FBE701
:1009400070472DE9FF4F0C461E464FF0FF378BB026
:10095000D2E90001DDF860800A908A46C1F30A55A9
:1009600005B93D46002108464FF00000BAF1000FDE
:1009700000F4400005DA00EB80004FF4400101EA8A
:1009800050004FEA9059B9F1010F00DDB9460A98BD
:1009900050EA4A000ED044F61050A5F2FF35454308
:1009A0002F14B8F1000F1ED07542291E1EDDC9F1AB
:1009B00000021CE0B8F1010F4FF0000001D030211F
:1009C00003E0F24305E02154401CB042FBDB30461B
:1009D0000022002121540B99C1F80880C1E90020B0
:1009E0000FB0BDE8F08FBD1B6D1CDEE74A4600DA94
:1009F000694206A800F0B8FA06AB93E8070003AB1B
:100A000083E8070050460A9900F052FB8DE8070082
:100A1000A0F500501F3800900398002D0ADD42F227
:100A20001F014A460844002303A90390684600F0CA
:100A3000BBFD09E0A0F500504A461F38002303A97A
:100A40000390684600F0C5FD8DE807000004000C27
:100A500003D04FF0FF30410800E01046B8F1000F1E
:100A600003D00022009215461EE0751E05D400F04A
:100A7000F5F9303262556D1EF9D5B34601220843AF
:100A800002D000227F1C04E02078302801D100220F
:100A90007F1E002A099784D01DE0112D07DA00F08F
:100AA000DDF9303262556D1C50EA0102F5D1084380
:100AB00002D00098C8B10EE00021681E05E0235C5A
:100AC000625C63542254401E491C8142F7DBAB46F2
:100AD000A81B401E0990002004F80B000B98099AEF
:100AE000C0F80880C0E9002B7AE711264FF0000813
:100AF00057E72DE9F04F88460446D21D22F0070142
:100B000091B0D1E90001CDE90A0103F07FFF02466F
:100B10000B98C00F01D02D2007E02068810701D578
:100B20002B2002E0202101EAC000032A099001D015
:100B3000072A05DB03464146204600F0D5F90BE1C4
:100B40002078800601D5E06900E00620B8F1650F45
:100B5000814606D0B8F1660F18D0B8F1670F70D192
:100B600031E00020B9F1110F009001DB112301E009
:100B700009F101030AAA01A90CA8FFF7E2FEDDE9C9
:100B80000C70002609F10105834647E001204B4621
:100B900000904FF000470AAA01A90CA8FFF7D1FE68
:100BA000DDE90DB00C995D46002610B909F1010090
:100BB0000D18B9EB050003D4C0F1FF3609F10105AA
:100BC000A5EB09002BE0B9F1010F01DA4FF00109A3
:100BD0000020B9F1110F0090484601DD112300E01B
:100BE00003460AAA01A90CA8FFF7ABFEDDE90C70C9
:100BF0004D4600268346207800070AD4AB4500DA2C
:100C00005D4601A8012D04DD411911F8011C3029B0
:100C100007D04F4502DA17F1040F04DA01208246AB
:100C20000FE06D1EEEE7002F02DCED1B3E4403E0FB
:100C3000781CA84200DD7D1CB81B00F1010A4FF0B2
:100C400000472078000703D4AA4501DB4FF0FF3AA4
:100C50000021B7F1004F0DF143088DF8431024D067
:100C600002202B23002F01DA7F422D230A21021EAE
:100C7000A0F1010000DC5FB197FBF1FC97FBF1F202
:100C800001FB1C7C17460CF1300C08F801CDEEE797
:100C9000A8F1010003702188090501D5452100E074
:100CA0006521A0F1010800F8011C09980FA9A1EB2A
:100CB0000807FF1D00B10120411901EBEA70A1698D
:100CC0003844081A401EA0612078C00602D420468D
:100CD000AFF30080099828B1D4E901219047206A38
:100CE000401C20622078C00622D52046AFF3008049
:100CF0001EE0002E04DBB34502DD01A8805D00E0AC
:100D00003020D4E901219047206A401C2062761CE3
:100D1000AAF101005FEA000A0AD100F097F8C06862
:100D20000168405CD4E901219047206A401C2062A0
:100D3000281EA5F10105DCDC07E0D4E9012118F843
:100D4000010B9047206A401C2062381EA7F1010762
:100D5000F3DC2046AFF30080032011B041E6000031
:100D600001694A1C02610878704700B58FB0CDE96F
:100D700001310021059105497944CDE9031011465F
:100D80006846FFF771FB0FB000BD0000E5FFFFFFF5
:100D900010B5436913B1AFF3008001E0FFF7FEFA2D
:100DA000012010BD127800F124010A7000224A705F
:100DB0000122EDE711684FF0FF32E9E7074B70B50C
:100DC0000D467B44FFF7D1FF0446284600F03EF96C
:100DD00010B14FF0FF3070BD204670BD3F53000092
:100DE00010B5203AC0F00B80B1E81850203AA0E8C6
:100DF0001850B1E81850A0E81850BFF4F5AF5FEAFA
:100E0000027C24BFB1E81850A0E8185044BF18C9AC
:100E100018C0BDE810405FEA827C24BF51F8043B53
:100E200040F8043B08BF7047D20728BF31F8023BA7
:100E300048BF11F8012B28BF20F8023B48BF00F83B
:100E4000012B7047004870473CB9012000487047AB
:100E50005CB90120004870473CB9012030B5B0F1C1
:100E60000A024FEA900E71F100034EEA817EB0EB68
:100E70000E0061EB91014FEA101E4EEA017E10EB6D
:100E80000E0041EB11114FEA102E4EEA016E10EBED
:100E90000E0041EB11214FEA104E4EEA014E10EBCD
:100EA0000E0041EB1141401841F100014FEAD00022
:100EB00040EA41704FEAD10110EB80054FEA81040E
:100EC00044EA907444EB01046D1944EB0404521B92
:100ED000A3414FF0000348BF0A3200D530BD401C8B
:100EE00041F1000130BD00002DE9F0411F460446EC
:100EF00003260168072A01F4006004DB08B116A587
:100F000005E016A503E008B115A500E015A521F040
:100F100010002060A069C01EA0610FB1401EA0613A
:100F20002046AFF300804FB1D4E901213846904705
:100F3000206A401C2062C01C206206E0206AFAE79A
:100F4000D4E9012115F8010B9047761EF8D220460E
:100F5000AFF30080BDE8F0814E414E006E616E003F
:100F6000494E4600696E66002DE9F04781461646F7
:100F70008AB0354878440DC88DE80D003248784471
:100F8000801C03AC0DC884E80D0041F69B3008447A
:100F9000372190FBF1F290FBF1F5A5F1800501FB03
:100FA00012041B3C02D56442012000E00020DFF85F
:100FB00098A080460027FA44AAF1BE0A0EE0E00796
:100FC0000AD03246684607EB470101230AEB81014C
:100FD00000F0FFFA8DE8070064107F1C002CEED1B2
:100FE000194F7F44AE3F19E0E80715D007EB041016
:100FF0000DF1180A90E80E008AE80E00C068F04271
:1010000001D1981908903246012306A903A800F0DF
:10101000E0FA03AB83E807006D10641C002DE3D1F8
:101020004FF0010332466946B8F1000F03A802D021
:1010300000F0BAFA01E000F0CCFAC9E90001C9F801
:1010400008200AB0BDE8F087EC840000007B00F0C7
:10105000800070477546FFF7F5FEAE46050069460D
:10106000534620F00700854618B020B5FFF700F979
:10107000BDE820404FF000064FF000074FF0000899
:101080004FF0000B21F00701AC46ACE8C009ACE81A
:10109000C009ACE8C009ACE8C0098D46704710B57E
:1010A0000446AFF300802046BDE81040FFF7CBB800
:1010B0005FEA400C08BF91F0000F4FEA8C234FEA23
:1010C000C12243EA51514FEA1C5018BF00F5F040CD
:1010D0004FEA300018BF41F000415FEA6C5C00F05D
:1010E0002980BCF1FF3F08BF40F080407047130CDF
:1010F00006BF12044FF0100C4FF0000C130E04BF8B
:1011000012020CF1080C130F04BF12010CF1040CB5
:10111000930F04BF92000CF1020CD30F04BF5200D6
:101120000CF1010C11464FF00002A0F11F00A0EBE2
:101130000C00704711F0004F08BF704731F00041BC
:101140003FF4D5AF0B0C06BF09044FF0100C4FF065
:10115000000C0B0E04BF09020CF1080C0B0F04BFAE
:1011600009010CF1040C8B0F04BF89000CF1020C77
:10117000CB0F04BF49000CF1010CCCF12003A0EB14
:101180000C0022FA03F302FA0CF241EA030100F127
:101190000100704720F07F4C80EA030023F07F4776
:1011A000ACEB070303F57C5300F0004003F1FF03B1
:1011B0002DE980494FEA154B09B44FEA144325EA5B
:1011C0000B4E24EA03480FF2042606EB13274908C6
:1011D0003E785FEA320203FB0667C7F5000707FBAC
:1011E00006F64FEA54374FEAD64606F1020607FBE9
:1011F000066CCCF1005C4FEA1C472CEA074C07FB5D
:1012000006F40CFB06F504EB15464FEA961634BFC0
:1012100000204FF000404FEAD13706FB07FC4FEAB1
:101220001C4C0CFB0BF7D21B03FB0CF761EB07010B
:101230000CFB0EF7B0EB074072EB17420CFB08F704
:1012400034BFA2EB0742B2EB074261EB17414FEA12
:101250000C444FEA910706FB07FC4FEA1C4C0CFBC1
:101260000BF7B0EBC74072EB573203FB0CF734BF00
:10127000A2EBC742B2EBC74261EB57310CFB0EF752
:10128000B0EBC70072EB57720CFB08F734BFA2EB50
:10129000C702B2EBC70261EB5771039F4FEA81614E
:1012A00041EA921104EBCC044FEAD1374FEA826253
:1012B00006FB07FC42EA90124FEA80604FEA1C4CA2
:1012C0000CFB0BF7D21B03FB0CF761EB07010CFBCC
:1012D0000EF7B0EB074072EB17420CFB08F734BF78
:1012E000A2EB0742B2EB074261EB17414FEA8C5584
:1012F0004FEA910704EB9C2406FB07FC4FEA1C4CC9
:101300000CFB0BF7B0EBC74072EB573203FB0CF74B
:1013100034BFA2EBC742B2EBC74261EB57310CFBC3
:101320000EF7B0EBC70072EB57720CFB08F734BF37
:10133000A2EBC702B2EBC70261EB577115EB4C256C
:101340004FEA816141EA92114FEA82624FEAD13756
:1013500042EA901206FB07FC44F100044FEA806069
:101360004FEA1C4C0CFB0BF7D21B03FB0CF761EB99
:1013700007010CFB0EF7B0EB074072EB17420CFBBA
:1013800008F734BFA2EB0742B2EB074261EB17410B
:1013900015EB1C154FEA813141EA92414FEA823246
:1013A00042EA90424FEA80304FEA0C7644F1000462
:1013B00048EA03434EEA0B484FF0000EB2EB080C2C
:1013C00071EB030724BF624639464EEB0E0E4FF019
:1013D000000B0018524149414BEB0B0BB2EB080CD0
:1013E00071EB03077BF1000B24BF624639464EEBDD
:1013F0000E0E4FF0000B0018524149414BEB0B0B06
:10140000B2EB080C71EB03077BF1000B24BF6246C3
:1014100039464EEB0E0E51EA020718BF46F00106A0
:1014200016EB0E7655F1000254F1000103D5BDE82C
:101430008901BDE80088BDE88901BDE80048B6190A
:10144000524141EB0101A3F10103704780807F7E8F
:101450007D7C7B7A7978777676757473727171702A
:101460006F6E6E6D6C6C6B6A6A69686867666665DC
:101470006464636362616160605F5F5E5E5D5D5C6A
:101480005C5B5B5A5A5959585857575656555555DB
:101490005454535352525251515050504F4F4F4E3B
:1014A0004E4D4D4D4C4C4C4B4B4B4A4A4A49494989
:1014B00048484847474747464646454545444444CB
:1014C000444343434342424242414141002B9C46F4
:1014D00030D477002BD01CB54FEA370703B44FF058
:1014E00010004FF01001BAF1000F06D0BCF1000F50
:1014F000DCBF40F0080040F008014FF000000FBCD6
:10150000BDE810400BF1010BBBF1010F08BF5FEA12
:10151000170722BF12F1010211F101014FF0004142
:1015200043F1000300F0004043EA00007047F9D3A4
:101530005708D0E746EA064613F1400F4FEA164631
:101540001FDD13F1200FDFBF16430A4600212033B1
:101550005B42BED0C3F1200746EA064602FA07F70F
:101560004FEA164646EA0706C3F1200722FA03F2BD
:1015700001FA07F721FA03F14FF0000342EA0702EC
:10158000A7E746EA020646EA06464FEA164646EA54
:101590000106BCBF46EA0646360C4FF000034FF08A
:1015A00000024FF0000194E72DE9804C9A469346E3
:1015B00070B491E8380007C831EA400C48BF34EAFB
:1015C000430C03D5FFF7E6FDFFF780FFF0BCBDE855
:1015D000008C2DE9804C9A46934670B491E838000F
:1015E00007C810F0804F08BF13F0804F03D100F000
:1015F00005F8FFF76BFFF0BCBDE8008C20F07F47DB
:1016000080EA030023F07F4C07EB0C03A3F57C5327
:1016100000F00040A3F1FE0392F0000F00F0B38051
:1016200095F0000F00F077802DE901494FEA114055
:101630004FEA144621EA004800FB06FC24EA06476C
:1016400008FB06F607FB08F800FB07F718EB06484F
:101650004CEB164C4FEA124B18EB07484FEA154675
:101660004CEB174022EA0B4E0BFB06FC25EA064723
:101670000EFB06F607FB0EFE0BFB07F71EEB064EF6
:101680004CEB164C4FF000061EEB074E4CEB174B85
:1016900018EB0B0840F1000018EB0E0B58EB00089C
:1016A00040F100008F1A4FF000013CBFC943661B98
:1016B00014BFB5EB040C00213CBFC943F61B4FEA35
:1016C00017444EEA8E0E27EA04454FEA1C4704FBF6
:1016D00007622CEA074C05FB07F70CFB05F604FB39
:1016E0000CFC16EB074642EB174216EB0C4642EB9E
:1016F0001C421BEB060658EB0202414146EA9E06DD
:1017000001D5BDE80189B619524141EB0101A3F1B0
:101710000103BDE801894FEA14454FEA114724EA65
:10172000054621EA074C05FB07F406FB07F70CFB0F
:1017300006F105FB0CFC11EB074144EB17444FEAA3
:10174000124711EB0C4144EB1C4422EA074C05FB09
:1017500007F206FB07F70CFB06F605FB0CFC16EB85
:10176000074642EB174216EB0C4642EB1C456A1843
:1017700054F1000148BF7047B619524141EB0101D5
:10178000A3F10103704795F0000F37D04FEA1142E3
:101790004FEA144721EA024624EA074C02FB07F10C
:1017A00006FB07F70CFB06F402FB0CFC14EB0744EA
:1017B00041EB17414FEA154714EB0C4441EB1C4138
:1017C00025EA074C02FB07F506FB07F70CFB06F6BC
:1017D00002FB0CFC16EB074645EB174516EB0C46D7
:1017E00045EB1C42121951F1000148BF7047B61970
:1017F000524141EB0101A3F1010370474FEA144547
:101800004FEA114724EA054621EA074C05FB07F198
:1018100006FB07F70CFB06F24FF0000605FB0CFC7D
:1018200012EB074241EB174112EB0C4251EB1C410A
:1018300048BF7047921841EB0101A3F101037047C3
:1018400001460822014802F032B800002CC20120F3
:101850001CB51E2800D91E207E218DF80010042101
:101860008DF8011031218DF802108DF8030080F001
:1018700035008DF80400EF208DF805006846FFF76D
:10188000DFFF1CBDFEE70000014800F0B9B8000012
:1018900094C00120014800F0B3B80000F4C001205A
:1018A00001681823CAB2103AB2FBF3F2054B6FF38A
:1018B0000901032A9B5CC36500D9091D816508469F
:1018C00070470000DA91000810B5014600208B69CE
:1018D0008A6A4FF0C07453B1B3F5005F15D072B18E
:1018E000012A0CD0022A0AD0032A09D104E01AB135
:1018F000012A06D0022A03D1C96AC90100D50120F4
:1019000010BDC96AA142FAD010BD002AF7D0012A41
:10191000F2D0022AF3D0032AF3D010BD30B5046808
:10192000256825F480252560046863608368402B62
:10193000036803D099600068C26030BD9A60006897
:10194000C16030BD704772B6FEE72DE9F041044634
:10195000876D00F0E3FA064694F83500002502286A
:1019600006D08020606584F834500120BDE8F08105
:101970002068016821F0160101602068416921F0AA
:1019800080014161206C08B9A06C20B12068016819
:1019900021F0080101602068016821F00101016067
:1019A0000CE000F0BBFA801B052807D920206065F9
:1019B000032084F8350084F83450D7E720680068A5
:1019C000C007EED194F85C103F208840B860012039
:1019D00084F8350084F834500020C7E790F83510BB
:1019E000022903D08021416501207047052180F83C
:1019F00035100068016821F0010101600020704786
:101A00002DE9F84304464FF00009CDF800906348F3
:101A10004FF41651A56D0068B0FBF1F72E6894F8ED
:101A20005C10082000FA01F131420FD021680A68E9
:101A300052070BD50A6822F004020A6094F85C1081
:101A40008840A860606D40F00100606594F85C100B
:101A50004FF0010808FA01F0304208D021684969C6
:101A6000090604D5A860606D40F00200606594F836
:101A70005C1004208840304208D02168096889073A
:101A800004D5A860606D40F00400606594F85C10B7
:101A900010208840304218D021680968090714D501
:101AA000A86020680168490304D50068000308D5D0
:101AB000A16C07E00168C90503D4016821F00801A1
:101AC0000160216C09B12046884794F85C10202001
:101AD0008840304231D021680968C9062DD5A860F8
:101AE00094F8350005282068016806D0490347D5D9
:101AF000006800031DD4616C1CE021F01601016038
:101B00002068416921F080014161206C08B9A06C16
:101B100020B12068016821F00801016094F85C1090
:101B20003F208840A86084F8358084F83490216D87
:101B30001FE0E16B09B120468847606D00282BD07B
:101B4000606DC00714D0052084F835002068016856
:101B500021F0010101600098401C0090B84203D8B8
:101B600020680068C007F6D184F8358084F8349086
:101B7000E16C002910D001B02046BDE8F0430847D1
:101B80000168C905D5D4016821F01001016084F80D
:101B9000358084F83490CCE7BDE8F8830400002059
:101BA0002DE9F041044600F0B9F906465CB1022087
:101BB00084F83500002584F834502068016821F04D
:101BC000010101600DE00120BDE8F08100F0A6F9FF
:101BD000801B052805D920206065032084F8350086
:101BE000F2E720680068C007F0D122681168204839
:101BF0000140D4E901031843D4E9033633431843C1
:101C000063691843A3691843E3691843236A1843B7
:101C10000843616A042903D1D4E90B13194308432B
:101C2000106020684069666A20F0070130460E4364
:101C3000012704280CD1A06A0643E06A40B120467F
:101C4000FFF742FE20B14020606584F83570BAE7A6
:101C5000206846612046FFF723FE94F85C203F2170
:101C600091408160656584F835700020ACE7000024
:101C70003F8010F02DE9F0410446866D90F8340065
:101C8000002501280DD0012084F8340094F8357027
:101C90000020012F07D084F8340002252846BDE833
:101CA000F0810220FBE7022784F83570606520464A
:101CB000FFF734FE94F85C103F208840B060206845
:101CC000016841F016010160206C20B120680168B4
:101CD00041F0080101602068016841F001010160E4
:101CE000DCE7000070B5044600F018F90546601CFA
:101CF00002D004480078044400F010F9401BA042D0
:101D0000FAD370BD00C001202DE9F84FDFF8BCA167
:101D10000022012503264FF00F090AF1040BAAF156
:101D2000040E00BF0B6805FA02F42340A34270D1F1
:101D30000F7907F00307012F01D0022F16D1876812
:101D40004FEA420806FA08FC27EA0C07D1F80CC053
:101D50000CFA08FC4CEA070CC0F808C04768A74317
:101D60000C79C4F3001494403C4344600C79E44380
:101D7000A4070AD0C4684FEA420C06FA0CF7BC4329
:101D80008F6807FA0CF72743C7600C7904F0030447
:101D9000022C12D1D40800EB840CDCF82040570749
:101DA000FF0E09FA07F824EA0804D1F8108008FAAF
:101DB00007F848EA0408CCF8208004684FEA420C8F
:101DC00006FA0CF7BC430F7907F0030707FA0CF784
:101DD000274307604C6814F4403F70D03C4C2768A0
:101DE00047F480472760246822F0030704F4804406
:101DF0000094384C07EB040CDCF8084897074FEACE
:101E0000177809FA08F7BC43334FB84202D10027CC
:101E100024E054E0314FB84201D101271EE0304F99
:101E2000B84201D1022719E02E4FB84201D1032751
:101E300014E02D4FB84201D104270FE02B4FB842D8
:101E400001D105270AE02A4FB84201D1062705E053
:101E5000284FB84201D1072700E0082707FA08F702
:101E60002743CCF80878DAF800405746D1F804C088
:101E70009C435FEACC2C00D51C433C60DBF800405F
:101E80005F46D1F804C09C435FEA8C2C00D51C430C
:101E90003C60DEF800407746D1F804C09C435FEA1E
:101EA0008C3C00D51C433C60084F083F3C68D1F88F
:101EB00004C09C435FEACC3C00D51C433C60521CF0
:101EC000102AFFF42FAFBDE8F88F0000083C014056
:101ED000443802400030014000000240000402404B
:101EE00000080240000C02400010024000140240B2
:101EF00000180240001C02400069084000D0012088
:101F00007047426921EA02030A4043EA02418161C3
:101F100070470AB1816170470904FBE70148806896
:101F20007047000000C00120024881680278114417
:101F30008160704700C001200B4810B5016841F472
:101F400000710160016841F480610160016841F441
:101F500080710160032000F06FF80F2000F006F898
:101F600000F024F8002010BD003C024070B50D4D7B
:101F700004464FF47A712878B1FBF0F00A490968F9
:101F8000B1FBF0F000F0F8FC48B9102C07D20022A9
:101F90002146501E00F030F800206C6070BD01201A
:101FA00070BD000000C00120040000200A4808B5F0
:101FB000016841F480410160006800F480400090B5
:101FC0000548001F016841F080510160006800F081
:101FD0008050009008BD000044380240002809DB12
:101FE00000F01F02012191404009800000F1E02033
:101FF000C0F8001170470000F0B40E4B1B680C468F
:10200000C3F30223C3F10705042D00D90425191DCC
:10201000072901D2002300E0DB1E012606FA05F1A4
:10202000491E214099409E40761E16403143F0BC27
:1020300002F004BD0CED00E0064900F0070208685C
:102040004FF6FF03184040EA0220034A104308609D
:10205000704700000CED00E00000FA052DE9F047A4
:102060000E46050065D0DFF81481D8F80000F7B2FD
:1020700000F00700B04207D288F80070D8F80000DE
:1020800000F00700B04254D128683D4C810712D5BA
:10209000400703D5206840F4E0502060287800070E
:1020A00003D5206840F4604020602068A96820F0D3
:1020B000F000084320602878C0072DD030496868B8
:1020C0000839012812D0022813D0032811D009683A
:1020D000890700292DDA216821F0030101432160DD
:1020E000FFF71CFF814641F2883A0EE00968890338
:1020F000EFE709688901ECE7FFF710FFA0EB0901A2
:10210000514502D90320BDE8F0872068696800F0D6
:102110000C00B0EB810FEFD1D8F80010404601F071
:102120000701B14207D90770006800F00700B0420C
:1021300001D00120E7E72878400705D52068E96845
:1021400020F4E050084320602878000706D5206876
:10215000296920F4604040EAC100206000F038F8AE
:102160002168084AC1F30311515CC8400649086060
:1021700006480068FFF7FAFE0020C4E7003C024072
:1021800008380240E29100080400002004C0012049
:102190000448054900680968044AC1F38221515C7A
:1021A000C84070470400002008380240F29100083F
:1021B0000448054900680968044AC1F34231515C8A
:1021C000C84070470400002008380240F29100081F
:1021D000154810B5006810F00C02144813D01449CB
:1021E000042A0FD0082A0ED10F4C241F226823681E
:1021F00002F03F025B0207D52068C0F38810A0FB05
:10220000010106E0084610BD2168C1F38811A1FB59
:1022100000010023FEF73FF82168C1F30141491C8A
:102220004900B0FBF1F010BD083802400024F40072
:1022300040787D012DE9F84F04006ED02078DFF85A
:102240004C93C007A9F104054AD009F104000168C4
:10225000C1F38101012908D00068C0F38100022880
:102260000AD1D9F80000400206D52868800337D586
:1022700060680028E1D033E06068B0F5803F10D09E
:10228000B0F5A02F286810D020F48030286028688E
:1022900020F4802028606068A8B1FFF73FFE064662
:1022A0000DE0286840F48030F4E740F48020286096
:1022B000F7E700BFFFF732FE801B642873D8286859
:1022C0008003F7D50CE0FFF729FE064605E000BFC6
:1022D000FFF724FE801B6428F0D828688003F7D419
:1022E0002078DFF8AC8280074FF0000A3ED5A7487F
:1022F000001D016811F00C0F08D00068C0F38100C8
:1023000002280BD1D9F80000400207D428688007C2
:1023100016D5E068012800D112E033E1E068B8B1D9
:102320000120C8F80000FFF7F9FD064605E000BFF0
:10233000FFF7F4FD801B0228C0D828688007F7D576
:102340002868216920F0F80040EAC10028600DE00B
:10235000C8F800A0FFF7E2FD064604E0FFF7DEFD47
:10236000801B02281FD828688007F7D42078000730
:1023700022D5864F87486169703771B101210160AC
:10238000FFF7CCFD064604E0FFF7C8FD801B0228DE
:1023900009D838688007F7D50EE0C0F800A0FFF72D
:1023A000BDFD064605E082E0FFF7B8FD801B022870
:1023B0007DD838688007F7D42078400768D5DFF8E3
:1023C000CCB100270BF13C0BDBF80000C0000BD4B4
:1023D000DBF8001041F08051CBF80010DBF8000072
:1023E000012700F0805000906B4E3068C00510D47B
:1023F000306840F480703060FFF790FD009005E099
:10240000FFF78CFD0099401A022850D83068C005AB
:10241000F6D55E4EA0686C3601280FD005283068CE
:1024200010D020F001003060306820F004003060EF
:10243000A068B8B1FFF772FD00900FE0306840F07F
:102440000100F4E740F004003060F7E7FFF766FDB5
:102450000099411A41F28830814266D8306880077D
:10246000F4D50EE0FFF75AFD009007E0FFF756FDA8
:102470000099411A41F28830814256D8306880076D
:10248000F4D42FB1DBF8001021F08051CBF800100C
:10249000A069C8B33D49091D0968C1F3810102293A
:1024A0004AD00228504607D0C8F8600000E03CE05F
:1024B000FFF734FD04463BE04746C8F86000FFF7ED
:1024C0002DFD064605E000BFFFF728FD801B022812
:1024D0002BD828688001F7D4D4E907010843A16A02
:1024E0002E4A490802EB0141626A41EA821108431F
:1024F00094F82C1040EA0161C9F8001001203866F8
:10250000FFF70CFD044606E03EE000BFFFF706FDC6
:10251000001B022809D828688001F7D534E000BFE5
:10252000FFF7FCFC001B022802D90320BDE8F88F4E
:1025300028688001F4D427E00128F7D0D9F80000FA
:10254000E26900F4800191421CD1226A00F03F014F
:10255000914217D147F6C071626A0140B1EB821F08
:1025600010D1A26A4FF0FF3300F4403103EB520266
:10257000B1EB024F06D194F82C1000F07060B0EB74
:10258000016F01D00120D1E70020CFE704380240DD
:1025900000004742800E4742007000400000FFFFED
:1025A000704770B5040009D0606A002540B125610C
:1025B0006561A56294F8510040B10CE0012070BD46
:1025C0006068B0F5827FF4D0E561F2E784F850509E
:1025D000204600F045F8022084F851002068016888
:1025E00021F040010160A088218900F4827001F48B
:1025F00004410843A18901F400610843217C01F0F2
:1026000002010843217D01F001010843218B01F4FF
:1026100000710843217F01F03801084394F820102D
:1026200001F080010843218D01F400510843216825
:102630000860A069042101EA104094F8241001F018
:1026400010010843216848602068C16921F40061D5
:10265000C1616565012084F85100002070BD000053
:102660002DE9F04186B0064614216846FEF799F838
:102670002B493068884250D12A480024016841F42F
:1026800080510160006800F480500590254814389E
:10269000016841F0020101600068694600F0020033
:1026A0000590382000900220CDE90104032003901A
:1026B000052004901C48FFF727FB1D4D1B484FF0D9
:1026C000C0672860C5E901744FF48068C5E9034814
:1026D0006C61AC61EC612C6228466C62FFF760FAB9
:1026E00008B1FFF730F9F564AE63114D0F4860355E
:1026F0004830E5E802074020A5E811010C4845F8FC
:1027000014496030AC61EC612C626C62FFF748FAEE
:1027100008B1FFF718F9B564AE6306B0BDE8F08103
:10272000003001404438024000040240106402407E
:1027300094C001202DE9F84F044690F8500000277E
:102740001D461646894601280DD04FF0010B84F82E
:1027500050B0FFF7E3FB804694F85100BA460128D9
:1027600004D0022793E00220BDE8F88FB9F1000FF2
:1027700073D0002E71D0032084F85100C4F854A007
:10278000C4F83090A686E686C4F838A0A4F83CA029
:10279000A4F83EA0C4F844A0C4F840A0A068B0F5D6
:1027A000004F09D12068016821F0400101602068D4
:1027B000016841F48041016020680168490603D442
:1027C000016841F040010160E068B0F5006F6068A9
:1027D00003D030B3012E24D041E008B1012E1CD12A
:1027E000206B21680088C86006E02068816889073E
:1027F00009D5216B0988C160206B801C2063E08EA5
:10280000401EE08609E0FFF789FBA0EB0800A84224
:1028100002D3681C01D031E07DB3E08E0028E4D102
:1028200020E0206B21680078087306E0206881684A
:10283000890709D5216B09780173206B401C20633F
:10284000E08E401EE0860AE0FFF768FBA0EB080080
:10285000A84203D3681C02D010E017E06DB1E08EEF
:102860000028E3D142462946204601F039FB08B151
:1028700020206065A06818B106E0FFE7032706E0A6
:102880002068C16880680090606D00B1012784F8FD
:1028900051B084F850A0384666E700002DE9F041B9
:1028A000044690F850000026012809D0012784F83A
:1028B000507094F851000025012804D002264EE003
:1028C0000220BDE8F08189B182B1032084F8510073
:1028D00065652163A286E286A56365642564A58794
:1028E000E587A068B0F5004F02D00BE0012636E086
:1028F0002068016821F0400101602068016841F40E
:1029000080410160A16C18480864A16C1748C86335
:10291000A16C1748C864A06C0565E38E2268216B22
:102920000C32A06CFFF7A6F938B1606D40F01000D2
:102930006065012684F8517011E02068016849063D
:1029400003D4016841F0400101602068416841F012
:10295000200141602068416841F00201416084F833
:1029600050503046ADE70000713E00087B3E000845
:102970004F3E00087047704710B5401EB0F1807F91
:1029800001D3012010BD4FF0E02460610F216017DA
:1029900002F054F80020A06107202061002010BD43
:1029A0007047704710B590F83C20012A22D00122D0
:1029B00080F83C20CA688C6822F4407222434C683C
:1029C00022F4806222430C6822F4006222430C69E4
:1029D00022F4805222434C6922F400522243C969F6
:1029E000002322F480420A4301684A6480F83C30A4
:1029F000002010BD022010BD70B590F83C20012AC7
:102A000032D0012480F83C40022280F83D20036847
:102A10005A689D6822F070060A6832435A60134B68
:102A200002689A4214D0B2F1804F11D0104B9A42F2
:102A30000ED0104B9A420BD00F4B9A4208D00F4B3E
:102A40009A4205D00E4B9A4202D00E4B9A4204D1C4
:102A5000496825F080031943916080F83D400021CA
:102A600080F83C10084670BD022070BD0000014097
:102A70000004004000080040000C00400004014039
:102A8000004001400018004010B5040003D094F845
:102A90003D0010B107E0012010BD002084F83C008B
:102AA000204600F01FF8022084F83D00211D206818
:102AB00001F0B0FC012084F8460084F83E0084F860
:102AC0003F0084F8400084F8410084F8420084F814
:102AD000430084F8440084F8450084F83D00002059
:102AE00010BD000008B501681E4881420FD11E4884
:102AF000016841F0010101600068002200F001005E
:102B0000009002211820FFF777FA182024E01648D9
:102B1000164A001F91420ED1016841F00401016084
:102B20000068002200F00400009002211E20FFF740
:102B300063FA1E2010E00E4A914211D1016841F063
:102B4000100101600068002200F0100000900F21C9
:102B50003620FFF751FA3620BDE80840FFF73EBAAD
:102B600008BD000000000140443802400008004059
:102B70000010004090F83D10012901D0012070475D
:102B8000022180F83D1000681149884214D0B0F14C
:102B9000804F11D00F4988420ED00F4988420BD088
:102BA0000E49884208D00E49884205D00D49884216
:102BB00002D00D49884204D1816801F0070106293D
:102BC00003D0016841F0010101600020704700005E
:102BD000000001400004004000080040000C0040DC
:102BE00000040140004001400018004090F83D10F2
:102BF000012901D001207047022180F83D100168B1
:102C0000CA6842F00102CA6000681149884214D0C3
:102C1000B0F1804F11D00F4988420ED00E49884242
:102C20000BD00E49884208D00D49884205D00D4985
:102C3000884202D00C49884204D1816801F0070122
:102C4000062903D0016841F00101016000207047AE
:102C5000000001400004004000080040000C00405B
:102C600000040140004001400018004070B50446D7
:102C700090F83C000025012817D0012684F83C601C
:102C8000022084F83D002068826822F0770222F456
:102C90007F4282600868502838D00DDC20284FD051
:102CA00005DC90B3102811D14AE0022070BD302815
:102CB00046D040280AD13BE060282FD070280DD0A4
:102CC000B0F5805F03D0B0F5005F12D0012584F825
:102CD0003D60002084F83C00284670BDCB68D1E9F7
:102CE0000121206801F007FC2068816841F077012C
:102CF00009E0CB68D1E90121206801F0FCFB2068E4
:102D0000816841F480418160E1E719E0CA6849685F
:102D1000206801F0C5FC5021206806E0CA684968B7
:102D2000206801F0CEFC6021206801F0EEFBCEE7C8
:102D3000CA684968206801F0B3FC40212068F4E7C4
:102D4000226801461046F0E7704770B504460068F7
:102D500001694FF00005C943890715D4C168C9430B
:102D6000890711D4E91E016101202077206880695C
:102D70008007204602D0FFF7E7FF04E000F004F9E7
:102D8000204600F0A5FA257720680169C943490764
:102D900017D4C168C943490713D46FF00401016116
:102DA000022020772068806910F4407F204602D0FE
:102DB000FFF7CAFF04E000F0E7F8204600F088FAC9
:102DC000257720680169C943090716D4C168C9433A
:102DD000090712D46FF008010161042020772068F0
:102DE000C0698007204602D0FFF7AEFF04E000F084
:102DF000CBF8204600F06CFA257720680169C943BA
:102E0000C90617D4C168C943C90613D46FF01001AD
:102E10000161082020772068C06910F4407F2046B7
:102E200002D0FFF791FF04E000F0AEF8204600F07A
:102E30004FFA257720680169C943C90708D1C168DD
:102E4000C943C90704D1891E0161204600F042FA36
:102E500020680169C943090609D4C168C943090644
:102E600005D46FF0800101612046FFF799FD2068CD
:102E70000169C943490609D4C168C943490605D453
:102E80006FF040010161204600F02EFA20680169D0
:102E9000C94389060BD4C168C943890607D46FF0BA
:102EA000200101612046BDE87040FFF77ABD70BD8A
:102EB00010B586B0044614216846FDF772FC2368FD
:102EC000174C002117480222A34211D1036843F096
:102ED00010030360006800F01000059010020090DD
:102EE000CDE901210120CDE9031069460E4812E029
:102EF0000E4CA34211D1036843F002030360006843
:102F000000F00200059040200090CDE90121CDE9BC
:102F1000031269460648FEF7F7FE06B010BD000032
:102F2000000001403038024000100240000800401C
:102F30000004024070B5044690F83C0000250128CA
:102F40000FD0012084F83C006AB1042A0FD0082A6F
:102F500011D00C2A13D00125002084F83C0028460B
:102F600070BD022070BD206801F0D8FAF4E7206837
:102F700001F004FBF0E7206801F036FBECE7206885
:102F800001F066FBE8E70000FEB500259FED460A6C
:102F900000958DED020A00684449884272D1444C84
:102FA0006078401C60706078022872D1657060683B
:102FB000401C606026783F48042E03D016B1416A59
:102FC000491C41623B49DFED3C0AB6EE000A8A69C2
:102FD00049691346121D042E5BD2DFE806F0540245
:102FE000381EA168491CA16093ED001AC0EE811A39
:102FF000CDED021A21EE800A8261BCEEC00A10EE0D
:10300000101A61808268416A914242DB01690020A6
:1030100003F040FD022020703BE0A668761CA6600D
:1030200093ED001AC0EE811ACDED021A21EE800A4E
:103030008261BCEEC00A10EE102A6280426A006A09
:10304000824226DB002003F025FD257021E0A268E6
:10305000521CA260194B426893FBF2F200EE902AD8
:10306000F8EEE00ACDED020A20EE800ABCEEC00ABE
:1030700010EE102A6280C369426A9A4209DB8161BC
:103080000320C8E70EE000210D4800F0C3F804203B
:10309000C1E70B480068416A00916288114489B217
:1030A00000914163FEBD00000000000000080040E8
:1030B0008C000020F0F001200024744940420F00F1
:1030C0009CC1012010B5040003D094F83D0010B15C
:1030D00007E0012010BD002084F83C00204600F0ED
:1030E0001EF8022084F83D00211D206801F092F9AD
:1030F000012084F8460084F83E0084F83F0084F8FC
:10310000400084F8410084F8420084F8430084F8C9
:10311000440084F8450084F83D00002010BD70474D
:1031200030B500250446022249B1042912D00829ED
:103130004CD094F84100012853D0012030BD94F8C0
:103140003E000128F9D184F83E202068C26842F090
:10315000020209E094F83F000128EED184F83F20F4
:103160002068C26842F00402C2600122206801F0B7
:10317000B5F921492068214A884201D0904203D103
:10318000436C43F4004343642068884213D0B0F199
:10319000804F10D01A4988420DD01A4988420AD06F
:1031A0001949884207D0904205D01849884202D078
:1031B0001749884204D1816801F00701062903D02C
:1031C000016841F001010160284630BD94F84000DB
:1031D0000128B2D184F840202068C26842F0080279
:1031E000C2E784F841200C2901D00125ECE72068D2
:1031F000C26842F01002B7E700000140000401403D
:103200000004004000080040000C00400040014065
:103210000018004070B50D0004464FF0000607D0BE
:10322000042D0AD0082D0DD00C2D10D001263FE022
:103230002068C16821F002010DE02068C16821F01A
:10324000040108E02068C16821F0080103E020685B
:10325000C16821F01001C16000222946206801F0F8
:103260003DF9194B41F2111120688A10984202D0A1
:10327000164B984209D1036A0B4206D1036A1342E6
:1032800003D1436C23F4004343642068036A0B4278
:1032900006D1016A114203D1016821F001010160E8
:1032A00001203DB1042D08D0082D09D084F841003B
:1032B000304670BD84F83E00FAE784F83F00F7E737
:1032C00084F84000F4E700000000014000040140E1
:1032D0007047000000680349884201D104F06ABFCA
:1032E00070470000001000407047704770470000B2
:1032F000F8B5016804460868CA684B6910F00F0FFA
:103300004FF0000559D003F0010602F490773743DF
:1033100065D0C10705D0D10503D5216C41F001016D
:103320002164410705D5D90703D0216C41F0020182
:103330002164810705D5D90703D0216C41F0040130
:103340002164010707D502F02001314303D0216C2D
:1033500041F008012164216C00293AD0800604D58F
:10336000900602D5204601F0FAF920684069216CE8
:10337000C0F38010090700D460B3204601F0C8F9FB
:1033800020684069400621D52068143050E8001FAD
:1033900021F0400140E80012002AF5D1A06BA8B14D
:1033A0006C490165A06BFEF719FB002811D0A06BDA
:1033B000016D01B0BDE8F040084783060FD59306C4
:1033C0000DD52046BDE8F84001F0C9B92046FFF709
:1033D0008DFFF8BD2046FFF789FF2564F8BD266BF9
:1033E0002023012E79D1C60677D5D60675D5086873
:1033F000486800904869400640D5A16B086840685D
:103400000004000CEAD0A28D8242E7D9E085C869A9
:10341000B0F5807F2DD020680C3050E8001F21F4DB
:10342000807140E80012002AF5D12068143050E87D
:10343000001F21F0010140E80012002AF5D12068A8
:10344000143050E8001F21F0400140E80012002A2B
:10345000F5D184F83E30256320680C3050E8001F19
:1034600021F0100140E80012002AF5D1A06BFEF710
:103470006CFAA08DE18D401A81B229E0A08DE18D1A
:10348000401A81B2E08D0028A8D00029A6D020687B
:103490000C3050E8002F22F4907240E80026002EF5
:1034A000F5D12068143050E8002F22F0010240E8E6
:1034B0000026002EF5D184F83E30256320680C30BC
:1034C00050E8002F22F0100240E80023002BF5D135
:1034D0002046FFF70AFFF8BDFFE705062BD51506C6
:1034E00029D594F83D002128F5D1A068B0F5805F7A
:1034F00001D12069B0B1206A411C216221680078A5
:103500004860E08C401E0004000CE084E3D1206899
:10351000C16821F08001C1602068C16841F04001AC
:10352000C160D8E7206A0088C0F308004860206ABC
:10353000801C2062E5E74006CDD55006CBD5CA6891
:10354000204622F04002CA6084F83D3000F0CEF9F7
:10355000C1E700000147000870B5040004D094F8EA
:103560003D00002510B106E0012070BD84F83C50FC
:10357000204600F023F8242084F83D002068C1682C
:1035800021F40051C160204601F04AF92068016928
:1035900021F4904101612068416921F02A014161D3
:1035A0002068C16841F40051C1602564202084F87E
:1035B0003D0084F83E00002070BD0000F0B587B0EB
:1035C000044614216846FDF7ECF85A49DFF860C15B
:1035D00023680024574A1039022503260827564835
:1035E000634522D1136843F400231360126802F488
:1035F000002205920A6842F004020A60096802ABE0
:1036000001F004010591B102CDE9001583E8D00075
:103610006946FEF779FB002211463420FEF7ECFCE8
:103620003420FEF7DBFC07B0F0BDDFF810C16345C6
:1036300043D1136843F480131360126802F48012BC
:1036400005920A6842F004020A600A6802F0040265
:1036500005920A6842F008020A60096802AB01F0AC
:10366000080105914FF48051CDE9001583E8D000A1
:103670006946FEF749FB0420CDE9000502AB694627
:1036800083E8D0002E48FEF73FFB002201213520C1
:10369000FEF7B2FC3520FEF7A1FC012229492A4899
:1036A00000F062F840222949294802F08EFE28489D
:1036B00002F097FE0028FAD0B5E726488342B2D13F
:1036C0001C48001D026842F010020260006800F011
:1036D00010000590086840F0010008600868029436
:1036E00000F0010005904FF4C060CDE9000507200F
:1036F000CDE9036069461848FEF706FB0022114633
:103700002520FEF779FC2520FEF768FC0E480122F3
:103710001249443000F028F840221149114802F0C3
:1037200054FE104802F05DFE0028FAD07BE700004E
:10373000004C004040380240000802400050004069
:10374000000C02408800002070C20120B0F001206F
:10375000E8B8012000100140000002402CC0012008
:10376000FCB8012018F1012090F83E30202B0ED13A
:1037700059B152B190F83C30012B08D0012380F8A8
:103780003C300023036301F0D1B8012070470220D0
:103790007047000010B5044600681049884209D1FE
:1037A00001220F490F4802F077FE01220C490E4812
:1037B000FFF7DAFF0D49206888420ED10C480178E6
:1037C0000C4801700C4803F01DFD07480122BDE8BC
:1037D000104007494430FFF7C7BF10BD00500040FC
:1037E00088000020E8B8012070C2012000100140CC
:1037F0002CC0012039C001202CF101202DE9F84313
:10380000044690F83D001F4616460D4620284CD130
:10381000C5B1BEB194F83C00012846D0012084F81F
:103820003C004FF00008C4F84080212084F83D009F
:10383000FEF774FBA6848146E684A068B0F5805F3D
:1038400003D004E00120BDE8F883206928B12E46AA
:103850005FF0000584F83C800EE00026FAE7802146
:10386000204601F080F8A0B9AEB116F8010B21682E
:103870004860E08C401EE084E08C4B464FF0000234
:1038800000970028EBD14FF04001204601F06BF883
:1038900030B10320D7E735F8020BC0F30800E6E7A4
:1038A000202084F83D000020CDE70220CBE790F8EF
:1038B0003D30202B18D1A9B1A2B190F83C30012B9A
:1038C00012D001628284C28400210164212280F826
:1038D0003D2080F83C100068C16841F08001C16063
:1038E0000020704701207047022070477047FEE7B4
:1038F0000D4808B5016841F48001016000680022AC
:1039000000F48000009011463820FEF775FB382047
:10391000FEF764FB002211463B20FEF76DFBBDE87D
:1039200008403B20FEF75ABB303802402DE9F04FEB
:1039300087B014216846FCF734FF944800250168DD
:1039400041F010010160016801F01001059101686A
:1039500041F004010160016801F004010591016872
:1039600041F020010160016801F02001059101682A
:1039700041F080010160016801F08001059101685A
:1039800041F001010160016801F001010591016848
:1039900041F002010160016801F002010591016836
:1039A00041F008010160016801F00801059101681A
:1039B00041F0400101600068012200F040000590E4
:1039C0007C217348FEF7A5FA012243F2C2717148C7
:1039D000FEF79FFADFF8C0B100220C215846FEF72F
:1039E00098FA4FF40047002239466A48FEF791FAE8
:1039F000002281216648FEF78CFA0022394667488A
:103A0000FEF787FA4FF4A048012241466448FEF7CA
:103A100080FA002239466348FEF77BFA0022032130
:103A20005F48FEF776FA4FF48059012249465E4816
:103A3000FEF76FFA4FF4804A002251465A48FEF7CB
:103A400068FA01247C20CDE9000469465048CDE99C
:103A50000245FEF759F943F20200CDE900040226BF
:103A6000CDE9024669464B48FEF74EF940F608009C
:103A7000CDE90005694602944648FEF745F94FF442
:103A8000F860CDE9000469464248CDE90245FEF7F9
:103A90003BF90C208DE85100694658460396FEF725
:103AA00033F9CDE9004569463E480294FEF72CF90A
:103AB0000096CDE9015469463848FEF725F900978C
:103AC0000395CDE9014669463248FEF71DF981208C
:103AD00003958DE8510069462D48FEF715F9E0027F
:103AE000CDE90005694602942948FEF70DF90097D3
:103AF0000395CDE9014669462848FEF705F94FF4DC
:103B00001270CDE90005694602942548FEF7FCF8DD
:103B1000CDE90084CDE9024669462148FEF7F4F874
:103B200048F6C050CDE90005694602941E48FEF7EC
:103B3000EBF800970395CDE9014669461948FEF771
:103B4000E3F8032700970395CDE901466946144839
:103B5000FEF7DAF801AACDF8009082E8D0006946B5
:103B60001148FEF7D1F8CDF800A00395CDE9014644
:103B700069460D48FEF7C8F8CDE900656946044876
:103B80000296FEF7C1F807B0BDE8F08F303802406A
:103B900000100240001402400008024000040240ED
:103BA000000C024000000240001802400F4810B50F
:103BB0000D4901604FF48271416000210222816051
:103BC000C0E903121202C0E90512C161016241623B
:103BD00081620A21C162FEF7E4FC002803D0BDE83F
:103BE0001040FDF7B0BE10BD003001403CC00120C8
:103BF00010B596B000240F9410941194129413945D
:103C00001C2108A81494FCF7CCFD20216846FCF781
:103C1000C8FD2948274901605321C0E901144FF626
:103C2000FF71C0E903148021C0E90541FEF72CFFB4
:103C300008B1FDF788FE4FF480500F900FA91E4881
:103C4000FFF714F808B1FDF77EFE1B48FFF73AFABC
:103C500008B1FDF778FE139413A917481494FEF7E2
:103C6000CBFE08B1FDF76FFE3020CDE9080402203D
:103C7000CDE90A040C940D94002208A90E480E9474
:103C8000FFF758F908B1FDF75EFE00944FF40050BD
:103C9000CDE90440029401940394694606480794D0
:103CA000FEF780FE08B1FDF74EFE0348FFF700F96E
:103CB00016B010BD0000014054C1012010B58EB0F7
:103CC00000240794089409940A940B941C216846D4
:103CD0000C94FCF766FD1F481D4901605321C0E9A3
:103CE00001144FF6FF71C0E9031480218161FEF7D2
:103CF000CBFE08B1FDF727FE4FF48050079007A9CF
:103D00001448FEF7B3FF08B1FDF71DFE1148FFF799
:103D1000D9F908B1FDF717FE0B940BA90D480C94C7
:103D2000FEF76AFE08B1FDF70EFE3020CDE9000473
:103D3000022002900022694604940648FFF7FAF830
:103D400008B1FDF700FE0348FFF7B2F80EB010BD52
:103D5000000800409CC101201CB500240F480094BD
:103D60000D49019401605321C0E9011440F2E7318B
:103D7000C16080218161FEF787FE08B1FDF7E3FD98
:103D80000094694605480194FEF736FE002801D0EC
:103D9000FDF7D9FD1CBD000000100040E4C101206A
:103DA0000C4810B50A4901604FF4165141600021DA
:103DB00081600C22C160C0E904128161C161FFF71A
:103DC000CBFB002803D0BDE81040FDF7BCBD10BD03
:103DD000004C00402CC201200C4810B50A4901607B
:103DE0004FF4E1314160002181600C22C160C0E9E3
:103DF00004128161C161FFF7AFFB002803D0BDE869
:103E00001040FDF7A0BD10BD0050004070C2012061
:103E10000C4810B50A4901604FF4E13141600021BE
:103E200081600C22C160C0E904128161C161FFF7A9
:103E300093FB002803D0BDE81040FDF784BD10BD02
:103E400000100140B4C20120FEE7FEE7704710B544
:103E5000806B01684A6822F003024A60416D41F0BC
:103E600010014165012180F85110FEF799FB10BD4A
:103E700010B5806BFEF77FFD10BD38B50546846B2D
:103E8000FEF74CF8024628680068C00523D4206875
:103E9000416821F0200141602068416821F0020161
:103EA00041606421204600F01BF818B1606D40F0BD
:103EB00020006065A068002118B92068C268806889
:103EC0000090E186012084F85100606D18B1204611
:103ED000FEF766FB38BD2046FEF74CFD38BD0000FE
:103EE00038B504461248134B0068B0FBF3F04FF4AA
:103EF0007A73584300906068B0F5827F0DD10B460D
:103F0000009200228021204600F016F870B1606D0A
:103F100040F020006065032038BD009830B1401E9D
:103F2000009020688068C0430006F6D5002038BDA8
:103F30000400002000366E012DE9F8431E4691462C
:103F400088460446089DFDF7E9FF401B351AFDF73A
:103F5000E5FF074625480068C0F3CB30684338E0EA
:103F6000701C37D0FDF7DAFFC01BA84203D215B191
:103F7000009860B32CE02068416821F0E0014160C6
:103F80006068B0F5827F0BD1A068B0F5004F02D019
:103F9000B0F5806F04D12068016821F04001016014
:103FA000A06AB0F5005F09D12068016821F40051D2
:103FB00001602068016841F400510160012084F82B
:103FC0005100002084F850000320BDE8F88300254C
:103FD000401E00902068816838EA010004D000216A
:103FE0004945BDD10020F0E70121F9E70400002098
:103FF0002DE9F04107460021EF2340F23F12084629
:1040000000F0C8F80E4E002204213046FDF781FF73
:1040100000244FF448653A4629460A48FCF797FBC6
:104020002946084800F028F9641CA4B2302CF2D3C9
:104030003046BDE8F04101220421FDF76ABF0000CF
:104040000008024030E401201FB54FF448614548A4
:10405000FCF785FB1920FDF745FE434C00220121AA
:104060002046FDF756FF1920FDF73CFE01221146C0
:104070002046FDF74EFF3220FDF734FE3A2000F0D7
:10408000DDF8652000F040F9B22000F0D7F837A144
:10409000D1E90001CDE900010521684600F0ECF806
:1040A000042000F0B3F8B72000F0C8F8352000F085
:1040B0002BF9BB2000F0C2F8192000F025F9C02030
:1040C00000F0BCF82C2000F01FF9C22000F0B6F878
:1040D000012000F019F9C32000F0B0F8122000F020
:1040E00013F9C42000F0AAF8202000F00DF9C62032
:1040F00000F0A4F80F2000F007F9D02000F09EF89F
:10410000A42000F001F9A12000F0FEF8E02000F06A
:1041100095F818A00FC88DE80F000E21684600F032
:10412000ABF8E12000F08AF816A10FC98DE80F0066
:104130000E21684600F0A0F8202000F07FF8112042
:1041400000F07CF8132000F079F8292000F076F8D0
:104150003220FDF7C7FD04B00020BDE81040FFF796
:1041600047BF000030E40120000C02400C0C00337B
:1041700033000000D0040D11132B3F544C180D0BCD
:104180001F230000D0040C11132C3F44512F1F1F7C
:10419000202300002DE9F843DFF86C8015460E4619
:1041A00007461C46002204214046FDF7B2FE2A20A5
:1041B00000F044F8380A8DF800008DF80170280AE4
:1041C0008DF802008DF803500421684600F054F881
:1041D0002B2000F033F8300A8DF800008DF80160D4
:1041E000200A8DF802008DF803400421684600F093
:1041F00043F82C2000F022F84046BDE8F8430122A5
:104200000421FDF786BE00000008024010B50446F8
:10421000362000F013F8052C0FD2DFE804F0030578
:1042200007090500C02004E0A02002E0002000E013
:104230006020BDE8104000F067B810BD31B50C4CEF
:10424000002204212046FDF764FE002208212046BA
:10425000FDF75FFE4FF0FF33012269460548FEF788
:1042600069FA012204212046FDF753FE38BD000003
:10427000000802403CC001202DE9F05F1F4F0C46B2
:104280000646002204213846FDF743FE012208219C
:104290003846FDF73EFE4FF480394FF6FF7BDFF8DE
:1042A0006080DFF860A01FE04C4501D3584600E075
:1042B000204685B2B8F80000A0420CD82A46314604
:1042C0001048FEF7EBFADAF8480000BF90F8351016
:1042D0000129FBD106E04FF0FF332A463146094859
:1042E000FEF728FA2E44641B002CDDD13846BDE8C9
:1042F000F05F01220421FDF70CBE0000000802401F
:104300002AC001203CC0012031B50C4C0022042100
:104310002046FDF7FEFD012208212046FDF7F9FDAC
:104320004FF0FF33012269460548FEF703FA0122E8
:1043300004212046FDF7EDFD38BD000000080240D5
:104340003CC001207047FDF7EFBD000030B593B0D1
:1043500030216846FCF725FA14210CA8FCF721FA55
:104360001D480025016841F080510160006800F09F
:10437000805011901948016841F480410160006843
:10438000022400F48040119001200390102004903A
:10439000009406940820CDE90750A820CDE909042F
:1043A00004200B906846FDF745FF08B172B6FEE7A2
:1043B0000CA90F2081E831004FF4A0500F904FF46A
:1043C0008050109005210CA8FDF748FE002801D070
:1043D00072B6FEE713B030BD4038024000700040B6
:1043E0000248016841F470010160704788ED00E007
:1043F0000148FEF7AABC000054C101200148FEF7A5
:10440000A4BC00009CC101200148FEF79EBC000036
:10441000E4C10120F0B50268254C264D264E274FF9
:10442000274B4FF0804CA04209D0604507D0A842EE
:1044300005D0B04203D0B84201D0984204D122F056
:10444000700E4A6842EA0E02A0421BD0604519D0A5
:10445000A84217D0B04215D0B84213D0984211D01C
:10446000184DA8420ED0184DA8420BD0174DA842A7
:1044700008D0174DA84205D0164DA84202D0164DBF
:10448000A84203D122F44075CA682A434D6922F03C
:1044900080022A4302608A68C2620A688262A0427D
:1044A00001D0984201D10969016301214161F0BD48
:1044B000000001400004004000080040000C0040E3
:1044C0000004014000400140004401400048014018
:1044D00000180040001C00400020004010B501F012
:1044E0001F030121046A99408C430462016A9A40C7
:1044F0001143016210BD10B5846842EA032224F41E
:104500007F440A432243826010BD826822F0700219
:104510000A4342F00701816070470000F0B5026A6B
:1045200022F001020262036A42688469124E24F09A
:1045300073050C682C4323F002058B682B430D4D4B
:10454000A84201D0B04205D123F00807CB683B4315
:1045500023F00403A84201D0B04205D14D6922F4F2
:10456000407215438A692A43426084614968416305
:104570000362F0BD0000014000040140F0B5026A92
:1045800022F010020262026A436884690D6824F412
:10459000E64444EA05248D6822F0200242EA05122E
:1045A0000F4D104EA84201D0B04206D1CF6822F084
:1045B000800242EA071222F04002A84201D0B04233
:1045C00007D14D6923F4406343EA85038D6943EACB
:1045D000850343608461496881630262F0BD000025
:1045E0000000014000040140F0B5026A22F480722C
:1045F0000262026A4368C46922F4007224F07305FF
:104600000C68124E2C438D6842EA05220E4DA842DA
:1046100001D0B04206D1CF6822F4006242EA0722FC
:1046200022F48062A84201D0B04207D14D6923F440
:10463000405343EA05138D6943EA05134360C4619F
:104640004968C1630262F0BD0000014000040140FE
:1046500030B5026A22F480520262046A4268C36979
:104660000D6823F4E64343EA05238D6824F40054DF
:1046700044EA0534084DA84202D0084DA84204D1AE
:104680004D6922F4804242EA85124260C361496862
:104690000164046230BD00000000014000040140DC
:1046A00010B5036A046A24F001040462846924F0EA
:1046B000F00444EA021423F00A020A43846102620D
:1046C00010BD10B5036A23F0100303628369046A06
:1046D00023F4704343EA023224F0A00343EA0111B9
:1046E0008261016210BD00000148FEF701BE0000BA
:1046F0002CC201200148FEF7FBBD000070C2012062
:1047000010B5806B0021C185C184FEF7EFFD10BD9F
:1047100001680C3151E8002F22F4907241E8002327
:10472000002BF5D10168143151E8002F22F001026D
:1047300041E80023002BF5D1016B012909D1016863
:104740000C3151E8002F22F0100241E80023002B29
:10475000F5D1202180F83E1000210163704708B593
:1047600090F83E10222901D0022008BD82684FF443
:1047700080539A4201D1016921B1816A9A421BD0CA
:104780004AB10AE00268816A5268C2F308020A80EC
:10479000816A891C08E0026972B10268526802F0FD
:1047A0007F020A70816A491C8162C18D491E090419
:1047B000090CC18503D019E002685268F1E701686D
:1047C000CA6822F02002CA600168CA6822F48072B6
:1047D000CA6001684A6922F001024A61202180F81A
:1047E0003E10016B012903D0FEF7D4FF002008BD65
:1047F0000021016301680C3151E8002F22F0100202
:1048000041E80023002BF5D101680A68D20602D5E1
:104810000A6849680091818DFEF767FDE6E70000B0
:1048200070B5044600680169E26821F44051114303
:1048300001612169A068E269084361691143084385
:104840002168CA6849F20C639A430243CA6020682F
:104850004169A26921F440711143416131492068E5
:10486000884202D03049884202D1FDF7A1FC01E024
:10487000FDF78EFCE2690023192164253226B2F58A
:10488000004F626828D0A0FB0101930F9200FBF754
:1048900002FD0146B0FBF5F06FF01802504301EB4A
:1048A000800006EB0010B0FBF5F000F0F002B1FB69
:1048B000F5F002EB0012B1FBF5F06FF0180358436E
:1048C00001EB800006EB0010B0FBF5F000F00F00EC
:1048D00021681044886070BDA0FB010192185B4103
:1048E000FBF7D9FC0146B0FBF5F00201B1FBF5F096
:1048F0006FF01803584301EB800006EBC000B0FBDB
:10490000F5F000F0F80002EB4002B1FBF5F058437F
:1049100001EB800006EBC000B0FBF5F000F00700F3
:10492000D6E700000010014000140140816282853A
:10493000C28500210164222280F83E2080F83C10CC
:10494000016921B10168CA6842F48072CA600168D5
:104950004A6942F001024A610068C16841F02001E1
:10496000C160002070472DE9F041984617460E4679
:104970000446069D27E0681C25D02DB1FDF7CEFA30
:10498000A0EB0800A8421ED920680C3050E8001F98
:1049900021F4D07140E80012002AF5D120681430CB
:1049A00050E8001F21F0010140E80012002AF5D173
:1049B000202084F83D0084F83E00002084F83C006C
:1049C0000320BDE8F0812068006836EA000004D0CA
:1049D0000020B842CFD00020F3E70120F9E7000023
:1049E0000148FEF785BC0000B4C20120FEE70000CC
:1049F000054904484FF4007288666C31024802F0A1
:104A0000FBBC0000E58300082CF1012003B40198F1
:104A10004100009850EAC12018BF04204A0D18BF79
:104A200040F0010040F2FF72B2EB515F08BF40F06E
:104A30000200012808BF052002B070470907090ECF
:104A4000002804DB00F1E02080F80014704700F03B
:104A50000F0000F1E02080F8141D704700000000F6
:104A60002DE9F04D2DED040B2DED0E8B96B0DDE90B
:104A70002550279CDDF890A025F0004624F0004842
:104A8000BAF1000F14BF0121002101EB4502FC49DE
:104A900053184A1093422AD3002814BF012300233D
:104AA00003EB44030B44F7498B4220D358EA00013F
:104AB0009FEDF59B76D0DFF8D8B35D4503D1BAF111
:104AC000000F05D188E0BAF1000F08BF002100D027
:104AD000012101EB450111F5001F08D8002814BF82
:104AE0000121002101EB440111F5001F0BD99DEDBF
:104AF000261B9DED240B16B0BDEC0E8B04B0BDE85B
:104B0000F04D00F069BE0027002DBCBFE14988458B
:104B100021DAE1498845A8BF02271CDAC3451ADC1F
:104B2000DE4901EB2851142908DDC1F1340220FAD5
:104B300002F101FA02F282420DD108E058B9C1F146
:104B4000140228FA02F101FA02F2424503D101F0FF
:104B50000101C1F1020756EA0A0124D1002C22DA30
:104B6000002D18BF022F01D0012F0AD00220FBF721
:104B700088FE16B0BDEC0E8B04B0BDE8F04D00F021
:104B800013BE0220FBF77DFE00F00EFE51EC100B71
:104B900003F050FC41EC100B16B0BDEC0E8B04B0D2
:104BA000BDE8F08D18E09FEDBEAB9FEDBF8B0028F8
:104BB00071D1B848804522D105F1804010F58010B0
:104BC00008BFBAF1000F07D0B3450ADC002CA8BF1C
:104BD0009DED260BE0DA0DE0B0EE490AF0EE690A31
:104BE000DAE7002C06DA9DED260B51EC100B03F0F2
:104BF00021FC6FE0AE48784490ED000BCCE7D8453F
:104C00004DD1002C48DA2EB186423AD1BAF1000FCC
:104C100042D126E0BAF1000F13D00220FBF731FE9B
:104C200000F0F6FD8DED020B9DED240B8DED000BDC
:104C300010EE900A039961F31E0003909DED020BA4
:104C4000AAE78DED02AB9DED240B1AEE901A10EE43
:104C5000900A8DED000B61F31E0003909DED020B99
:104C60009AE78DED028B9DED240B18EE901A10EE55
:104C7000900A8DED000B61F31E0003909DED020B79
:104C80008AE709DA9DED240B51EC190B53EC102B3C
:104C900003F0CAFC1EE020E09DED240B7CE7864279
:104CA0001BDAB4F1804F0DD0A4F10050B0F1FF50E9
:104CB00013D1002D11DB9DED240B51EC100B03F0F3
:104CC000FBF807E09DED240B53EC102B51EC100B7F
:104CD00000F0C2BC41EC100B5EE79DED240B51ECE3
:104CE000100B01F0EBF8BAF1000FCDE90E0142D143
:104CF0009FED710B46B3A6F1E040B0F17F600CD0A0
:104D00005E4538D1002D00DAA7B3022F0CBF012079
:104D10004FF0FF3003F00FFEDCE7002D01DD002C2B
:104D20000DDA002D01DD002C1FDB002D16DA002C22
:104D300014DB012F08BF9FED620B3FF42DAFB0EEE7
:104D40004A0AF0EE6A0A27E7022F18BF002D0CD09E
:104D5000012F0AD1002DFFF61FAF06E0002DB8BFCE
:104D6000002C08DA012F3FF417AFB0EE480AF0EE3E
:104D7000680A11E71BE0012000EBE57050EA07012B
:104D800015D0791EB0EE498AF0EE698A084308BF53
:104D90009FED4D8B4E480025804570DD4D494E48B6
:104DA000884514DDB0420DDB002C19DB2FE001201B
:104DB000FBF767FD16B0BDEC0E8B04B0BDE8F04DFF
:104DC00000F016BDB34502DC002C09DC1FE0864272
:104DD00002DA002C1BDA03E05E452BDD002C16DD29
:104DE0000220FBF74EFD00F013FD8DED020B53EC9E
:104DF0001A2B51EC180B03F005FECDE900010399C5
:104E0000019861F31E0003909DED020BC4E60220A1
:104E1000FBF737FD00F00CFD10EE901A18EE900A2B
:104E20008DED020B8DED008B61F31E0003909DED67
:104E3000020BB1E69DED0E0B53EC192B51EC100B50
:104E400003F0ECFF9FED260BCDE9080153EC102B8E
:104E50009DED080B51EC100B03F0D4FD9FED221BD0
:104E600053EC112B03F002FF9DED081B53EC112BAB
:104E700003F0C8FD9FED1E1B53EC112B3CE08CE0B2
:104E8000FFFF1F00FFFF0F00000000000000F03FC9
:104E90000000F03F0000F07F0000404301FCFFFFF6
:104EA000000000000000F07F000000000000000093
:104EB000E647000000000000000000000000008045
:104EC000000000000000F0FF000000000000F0BF44
:104ED0000000E0410000F043FFFFEF3F0000000052
:104EE000000000000000D03F555555555555D53FA1
:104EF000000000000000E03F03F0B8FE9DED080B4D
:104F000041EC1A0B53EC102B51EC100B03F07AFD13
:104F100053EC1A2B03F076FD41EC1A0B9FEDFE0BC0
:104F200053EC102B9DED080B51EC100B03F06AFDB8
:104F300041EC1B0B9FEDFA0B51EC1A0B53EC102BB1
:104F400003F060FD41EC1A0B9FEDF70B53EC102BB7
:104F50009DED080B51EC100B03F054FD53EC1A2B94
:104F600003F05CFF41EC1A0B51EC1B0B53EC1A2BBA
:104F700003F09EFA0690CDE906519DED060B53EC29
:104F80001B2B51EC100B03F049FF53EC1A2B03F0D1
:104F90006DFE41EC100B00F0A1B90020B6F5801FAA
:104FA0000EDA9FEDE30B53EC102B9DED0E0B51EC45
:104FB000100B03F027FDCDE90E016FF034000E4613
:104FC00000EB2650A0F2FF37C6F31300DA4940F099
:104FD0007F6646F040568842D8BF002408DDD74996
:104FE0008142C8BF012403DC0024A6F580167F1C83
:104FF000D348784400EBC4000F9690ED00CB9DEDB4
:105000000E0B53EC1C2B51EC100B03F007FF9DED26
:105010000E0B41EC1B0B53EC1C2B51EC100B03F053
:1050200047FA41EC100B51EC190B53EC102B03F029
:10503000FBFA41EC1D0B51EC1B0B53EC1D2B03F049
:10504000E1FC41EC1A0BBF488DED10AB7844109594
:1050500090ED000B4FF0005040EA660000EB8440FA
:105060008DED080B00F5002009909DED080B53EC29
:105070001C2B51EC100B03F0D1FE9DED0E1B53ECDD
:10508000112B03F0F3FD41EC100B53EC102B9DEDB5
:10509000100B51EC100B03F0B5FC9DED080B41EC2F
:1050A0001C0B53EC102B9DED100B51EC100B03F06F
:1050B000A9FC53EC1B2B03F0D9FD53EC1C2B03F084
:1050C000ADFE53EC1D2B03F09DFC41EC1C0B53EC8F
:1050D0001A2B51EC1A0B03F095FC41EC1B0B9A4870
:1050E0000621B0EE4B0AF0EE6B0A784400F0E0FACD
:1050F000B0EE401AF0EE601AB0EE41DAF0EE61DA8E
:1051000053EC1B2B51EC1B0B03F07CFC53EC1D2BC5
:1051100003F078FC9DED100B41EC1B0B53EC1A2BAC
:1051200051EC100B03F0C4F953EC1C2B03F06AFC98
:1051300053EC1B2B03F0BCF99DED100B41EC1B0B4A
:1051400053EC102B51EC100B03F05CFC41EC1D0BED
:105150009FED7FEB53EC1E2B03F0AAF953EC1B2BB6
:1051600003F0A6F90890CDE908519DED080B53EC2A
:105170001E2B51EC100B03F051FE53EC1D2B03F0D2
:105180004DFE53EC1B2B03F071FD9DED080B41EC24
:105190001D0B53EC102B9DED100B51EC100B03F07D
:1051A00031FC41EC1B0B53EC1A2B51EC1D0B03F0A3
:1051B00029FC9DED080B41EC1A0B53EC102B51EC24
:1051C0001C0B03F01FFC53EC1A2B03F071F941EC9C
:1051D0001A0B51EC1B0B53EC1A2B03F069F90C90D2
:1051E000CDE90C519DED0C0B53EC1B2B51EC100B2E
:1051F00003F014FE53EC1A2B03F038FD41EC1B0BAB
:105200009FED550B53EC102B9DED0C0B51EC100B3F
:1052100003F0F8FB41EC1A0B9FED510B51EC1B0B0B
:1052200053EC102B03F0EEFB41EC1B0B9FED4E0BF0
:1052300053EC102B9DED0C0B51EC100B03F0E2FB2B
:1052400053EC1B2B03F034F941EC100B4848784425
:1052500000EBC40090ED001B51EC100B53EC112B34
:1052600003F026F941EC1B0B384603F064FBCDE953
:10527000080153EC1B2B51EC1A0B03F019F941EC0C
:10528000100B3C48784400EBC40090ED00CB51EC8F
:10529000100B53EC1C2B03F00BF99DED081B53EC8A
:1052A000112B03F005F90690CDE906519DED080B91
:1052B00053EC102B9DED060B51EC100B03F0AEFDE3
:1052C00053EC1C2B03F0AAFD53EC1A2B03F0A6FDA4
:1052D00053EC1B2B03F0CAFC41EC100B9DED261B7D
:1052E00053EC102B8DED001B00959DED260B51EC22
:1052F000100B03F087FB9DED000B41EC1A0B53ECF8
:10530000102B9DED260B51EC100B03F087FD9DED4E
:10531000061B53EC112B2FE0000000604715F73FF0
:10532000FE822B654715F73F44DF5DF80BAE543E18
:1053300000000000000040438E9803007AB60B0086
:1053400062430000904300009A4200000000000009
:105350000000000000000840000000E009C7EE3F28
:10536000FD033ADC09C7EE3FF5015B14E02F3EBEBA
:1053700026410000E040000003F044FB53EC1A2BF0
:1053800003F096F89DED060B41EC1A0B53EC102B35
:105390009DED000B51EC100B03F034FBCDE90C013B
:1053A0009DED0C0B51EC1A0B53EC102B03F080F815
:1053B000CDE902010C46AA498C422FDB611A084351
:1053C00018D19DED0C0B53EC102B9DED020B51EC05
:1053D000100B03F023FD41EC1B0B9FEDA30B51ECD5
:1053E0001A0B53EC102B03F063F853EC1B2B03F058
:1053F00007FC2DD20220FBF744FA00F009FA10EE68
:10540000901A18EE900A8DED020B8DED008B61F372
:105410001E0003909DED020BFFF7BEBB944A24F0E3
:105420000041914214D39349214408437FF4EFACE7
:105430009DED0C0B53EC102B9DED020B51EC100B62
:1054400003F0ECFC53EC1A2B03F0DAFB7FF6DFAC35
:1054500024F000408849894A002601EB205182420D
:105460002BDA481C4FF4801121FA00F02044844AC2
:10547000C0F30A517A44A1F2FF3192ED000B814A48
:105480008DED080BCA4020EA0202C0F3130040F47D
:105490008010C1F1140120FA01F60992002CB8BF66
:1054A00076429DED080B53EC102B9DED0C0B51EC4F
:1054B000100B03F0B3FCCDE90C019DED0C0B51EC8E
:1054C0001A0B53EC102B02F0F3FF9FED6F0B0890BB
:1054D000CDE9085153EC102B9DED080B51EC100B4E
:1054E00003F090FA41EC1B0B9FED690B53EC102B72
:1054F0009DED080B51EC100B03F084FA9DED0C0BA5
:1055000041EC1C0B53EC102B9DED080B51EC100BD8
:1055100003F084FC53EC1A2B03F0A8FB9FED5E1BF9
:1055200053EC112B03F06EFA53EC1C2B02F0C0FF6E
:1055300041EC1A0B51EC1B0B53EC1A2B02F0B8FF89
:10554000CDE902019DED020B53EC1B2B51EC100B2E
:1055500003F064FC53EC1A2B03F088FB9DED020B67
:1055600041EC1A0B53EC102B51EC100B03F04AFAE0
:10557000CDE908014A489DED080B0521784400F06B
:1055800097F89DED081B51EC100B53EC112B03F019
:1055900039FA9DED021B53EC112B03F067FBCDE9AB
:1055A00006019DED020B53EC1A2B51EC100B03F08E
:1055B00029FA53EC1A2B02F07BFF9FED3B0B41ECD9
:1055C0001A0B53EC102B9DED060B51EC100B03F056
:1055D00025FC9DED060B41EC1B0B53EC102B9DEDB8
:1055E000020B51EC100B03F00DFA53EC1B2B03F0E4
:1055F0001BF853EC1A2B03F011FC9DED021B53EC2E
:10560000112B03F00BFC53EC192B03F02FFBCDE90E
:10561000020101EB065001150029C8BF039015DCFB
:105620009DED020B324651EC100B03F090FDFFF79D
:10563000EDF9042808BF00F0FBF832469DED020B9F
:1056400051EC100B03F083FDCDE902019DED020B3F
:1056500051EC180B53EC102B03F0D4F9FFF73ABBC5
:105660000000904000000000FE822B654715973C2B
:1056700000CC904000346F3F01FCFFFF0000E03F92
:10568000683F0000FFFF0F0000000000432EE63FD0
:10569000396CA80C615C20BEEF39FAFE422EE63F61
:1056A000383E000000000000000000000000004044
:1056B00070B504462DED028B4D1E00EBC500B0EE1B
:1056C000408AF0EE608A90ED000B35F0060017D0AE
:1056D00053EC182B51EC100B03F094F941EC100B28
:1056E0006D1E04EBC50090ED001B51EC100B53EC4C
:1056F000112B02F0DDFE41EC100B35F00600E7D176
:10570000022D36D0042D1CD0062D1CBFBDEC028B03
:1057100070BD53EC182B51EC100B03F073F994EDA2
:105720000A1B53EC112B02F0C3FE53EC182B03F0B1
:1057300069F994ED081B53EC112B02F0B9FE41EC12
:10574000100B53EC182B51EC100B03F05BF994ED9C
:10575000061B53EC112B02F0ABFE53EC182B03F09D
:1057600051F994ED040B53EC102B02F0A1FE41EC27
:10577000100B53EC182B51EC100B03F043F994ED84
:10578000021B53EC112B02F093FE53EC182B03F089
:1057900039F994ED001B53EC112B02F089FEBDEC9E
:1057A000028B41EC100B70BD9FED070B10B553EC55
:1057B000102B9FED070B51EC100B02F035FF41EC65
:1057C000100B10BD000000000000000000000000F1
:1057D000000000000000F03F10B553EC112B51EC1D
:1057E000100B02F065FE41EC100B10BD0000000034
:1057F0009FED050B10B553EC102B51EC100B02F084
:1058000013FF41EC100B10BD000000000000000071
:105810009FED050B10B553EC102B51EC100B03F062
:10582000F1F841EC100B10BD00000000000000700A
:105830009FED050B10B553EC102B51EC100B03F042
:10584000E1F841EC100B10BD00000000000000105A
:10585000A3F5C04246F26201603A07D08B420AD1FA
:105860000088022807D104A0FAF78CBD008801281F
:1058700001D103A0F8E77047CFC2D2BBD2B30A0070
:10588000C9CFD2BBD2B30A00F8B50024022A09D18D
:10589000822901D0802905D105784F2D02D1457884
:1058A0004B2D04D0832908D0812918D022E015A0DF
:1058B000FAF768FD4FF0FF30F8BD03881C0A44EA90
:1058C00003239BB28478002505E0461937794755B4
:1058D000F7787770AD1CB5EB440FF6D30AE0037888
:1058E0004478002504E04619B67846556D1CEDB2A3
:1058F000A542F8D3044DAD680DB10094A8472046E9
:10590000F8BD00004F4B0A0010C0012030380A28B3
:1059100001D20120704700207047000010B50248F6
:1059200000F03EFDC0B210BDE8B8012008B501216D
:10593000684600F0B5FF9DF8000008BD13B589B2B8
:10594000684600F0B7FF1CBD7047704778B500236C
:10595000051D12E031F81340260A46EA0424ADF88A
:10596000004090F82440BDF800602C44268090F858
:105970002440A41C80F824405B1C9342EAD378BDE9
:1059800003B54FF6FF720199914204D2012201A999
:10599000FFF7DCFF0CBD10F8243FA0F120021A44F1
:1059A00009BA11600178091D01700CBD70B515466A
:1059B000044690F82420001D10442A46FAF782FE7F
:1059C00014F8240F2844207070BD00F07DBB000047
:1059D0002DE9F04704462DED088B4FF4C8624FF4D3
:1059E000C86501FB02F368433C22AD4D4FF000084F
:1059F0008C4207DD93FBF2F190FBF2F04FF00108CF
:105A0000296004E090FBF2F0286093FBF2F06860FC
:105A1000D5E90001F6EE009A014401EBD17120EEC8
:105A2000299AC0EB610000EE100AF0EE000A19EEB0
:105A3000100AB8EEC00A20EE200A69EE090A80EECC
:105A4000201AF0EEC18A03F0D3FA41EC100B9FED5F
:105A5000951BFFF705F8B0EE40AAF0EE60AA18EE2D
:105A6000900A03F0C5FA53EC1A2B02F0CBFF9FED1E
:105A70008F1B53EC112B02F0D7FD2C6841EC1A0B55
:105A800000EE104AB8EEC00A20EE090A10EE100A25
:105A900003F0AEFA53EC1A2B02F00AFD02F01CFFE1
:105AA00007466868204400EE100AF8EEC00A00EECF
:105AB000107AB8EEC00A10EE890ABDEEC00A10EEE8
:105AC000101ACC19E00700D0641CA1000020091DA9
:105AD00000F0ECFF061E7DD0F1EE080A80EEA80A69
