:020000040800F2
:1000000070F80120A1010008FB2E00085529000806
:10001000F92E0008F50900089D3A000800000000CC
:10002000000000000000000000000000F5330008A0
:10003000B50A000800000000FD2E0008F733000894
:10004000BB010008BB010008BB010008BB010008A0
:10005000BB010008BB010008BB010008BB01000890
:10006000BB010008BB010008BB010008BB01000880
:10007000BB010008BB010008BB010008BB01000870
:10008000BB010008BB010008BB010008BB01000860
:10009000BB010008BB010008BB010008BB01000850
:1000A000A1340008BB010008BB010008BB01000827
:1000B000BB010008BB010008AD340008BB0100080B
:1000C000BB010008BB010008BB010008BB01000820
:1000D000BB010008913A0008BB010008BB01000801
:1000E000BB010008BB010008BB010008BB01000800
:1000F000BB010008BB010008BB010008BB010008F0
:10010000BB010008BB010008BB010008BB010008DF
:1001100099370008A5370008B9340008BB0100086A
:10012000F9090008BB010008BB010008050A000826
:10013000BB010008BB010008BB010008BB010008AF
:10014000BB010008BB010008BB010008BB0100089F
:10015000BB010008BB010008BB010008BB0100088F
:10016000BB010008BB010008BB010008BB0100087F
:10017000BB010008BB010008BB0100080000000033
:10018000BB010008BB010008DFF810D000F0AAFB9B
:1001900000480047A15E0008AFF3008070F801201E
:1001A0000648804706480047FEE7FEE7FEE7FEE711
:1001B000FEE7FEE7FEE7FEE7FEE7FEE79134000814
:1001C000890100082DE9F05F0546002092469B4614
:1001D00088460646814640241BE02846414647465D
:1001E000224600F081FA53465A46C01A914110D374
:1001F00011461846224600F068FA2D1A67EB0108EE
:100200004F4622460120002100F05FFA17EB00095B
:100210004E41201EA4F10104DFDC484631462A4647
:100220004346BDE8F09F40EA01039B0703D009E085
:1002300008C9121F08C0042AFAD203E011F8013BD2
:1002400000F8013B521EF9D27047D2B201E000F82B
:10025000012B491EFBD270470022F6E710B513466A
:100260000A4604461946FFF7F0FF204610BD421C1F
:1002700010F8011B0029FBD1801A704710B500222D
:1002800000E0521C835C8C5CA34201D1002BF8D1AE
:10029000D8B2E1B2401A10BD30B505460020034681
:1002A00000E05B1C934205D2EC5CC85C201A01D1D3
:1002B000002CF6D130BD2DE9FE4F804681EA0300C7
:1002C000C00F0C46009021F0004123F00045B8EB30
:1002D0000200A94105D24046214690461C460B46E5
:1002E000024623F00040104347D0270DC7F30A0011
:1002F000C3F30A510290401A019040286BDAC3F30D
:10030000130040F4801B0098924620B10023D2EBEA
:10031000030A63EB0B0B01985946C0F140025046AB
:1003200000F0D3F906460D4650465946019A00F0B2
:10033000EBF910EB08006141002487EA115284EACE
:10034000E7731A4340D0009A62B3019A012A4FEA38
:10035000075215DC001B61EB02014FF0004202EA7C
:100360000752CDE90042001C41F5801132462B4670
:1003700000F022FA03B0BDE8F08F40462146F9E7CD
:10038000001B61EB0201001C41F5801300185B416A
:100390002018A2F5001747EB030140EAD570B61903
:1003A0006D4111E06D084FEA360645EAC0754FEA27
:1003B0000752001B61EB0201001C41F58011490846
:1003C0004FEA30000019514132462B4603B0BDE8D8
:1003D000F04F00F0E2B90098012240000023D0EB7A
:1003E000020263EBE073009821464FEAE074B8EB39
:1003F000000061EB0401E9E783F000435BE781F073
:10040000004158E72DE9FE4F81EA030404F000445F
:1004100021F0004100944FF0000B23F0004350EA1C
:1004200001045ED052EA03045BD0C3F30A54C1F363
:100430000A552C44A4F2F3340194A0FB0254C1F3F6
:10044000130141F48011C3F3130343F4801301FB40
:10045000024400FB034E840A970A44EA815447EAA7
:100460008357A4FB076802958D0A05FB07854FEAB1
:10047000932C04FB0C542705029D4FEA065847EACB
:100480001637B5EB08056EEB070C870E920E47EAA0
:10049000811742EA8312A7FB0201B6EB0B0164EB62
:1004A00000042B0D43EA0C335E1844EB1C50DA4673
:1004B0005146E7FB0201C5F313044FEA0B3343EA4D
:1004C00014534FEA0432019C43EA0603A4F10C04DE
:1004D0000294009CCDE900B400F06EF903B0BDE8D1
:1004E000F08F00200146F9E72DE9F04D81EA030481
:1004F00004F0004B21F0004514464FF0000A23F0B1
:10050000004150EA050220D054EA01021DD0C5F393
:100510000A570246C5F31303C1F31300C1F30A5689
:1005200040F4801543F48013A7EB0608101BD64651
:1005300008F2FD3873EB050002D308F1010801E071
:1005400092185B41B8F1000F03DA00200146BDE8C4
:10055000F08D00204FF48011064684460EE0171BF4
:1005600073EB050705D3121B63EB050306434CEA47
:10057000010C49084FEA300092185B4150EA01072C
:10058000EDD152EA030012D082EA040083EA0501A9
:10059000084305D0101BAB4106D20122002306E020
:1005A00000224FF0004302E06FF0010253101AEBFB
:1005B00006004CEB085110EB0A0041EB0B01BDE8C3
:1005C000F04D00F0EAB80EB5C10F80EAE0700844C3
:1005D000CA07002140F233438DE80E000A460B465D
:1005E00000F0EAF803B000BD0EB540F233410291CD
:1005F0000021CDE900110A460B4600F0DDF803B0FA
:1006000000BD70B5C1F30A5201F000450024C1F3EA
:10061000130140F2FF3341F480119A4201DA0020C5
:1006200070BD40F233439A42A2F2334203DC52429D
:1006300000F05AF800E090402C43F1D0404270BDE9
:1006400000F0004230F000400AD0C10D01F56071A9
:10065000C0F3160042EA0151C20840071143704737
:1006600000200146704701F0004330B421F0004102
:1006700050EA010206D00A0DA2F56072C1F313011F
:10068000002A02DC30BC00207047440F44EAC10459
:10069000C100E01830BC00EBC25000F047B830B5E4
:1006A0000B46014600202022012409E021FA02F530
:1006B0009D4205D303FA02F5491B04FA02F52844CA
:1006C000151EA2F10102F1DC30BD202A04DB203A24
:1006D00000FA02F1002070479140C2F1200320FA95
:1006E00003F3194390407047202A04DB203A21FA93
:1006F00002F00021704721FA02F3D040C2F120023B
:100700009140084319467047202A06DBCB17203A50
:1007100041FA02F043EAE07306E041FA02F3D04006
:10072000C2F1200291400843194670470029A8BF32
:100730007047401C490008BF20F00100704710B40A
:10074000B0FA80FC00FA0CF050EA010404BF10BCBF
:10075000704749B1CCF1200421FA04F411FA0CF1EC
:1007600018BF012121430843A3EB0C01CB1D4FEA25
:1007700000614FEA102042BF002010BC704700EB20
:10078000C35010440029A4BF10BC7047401C49004E
:1007900008BF20F0010010BC704710B5141E73F1A3
:1007A000000408DA401C41F1000192185B411A4331
:1007B00001D120F0010010BD2DE9F04D92469B467D
:1007C00011B1B1FA81F202E0B0FA80F22032904623
:1007D000FFF77BFF04460F4640EA0A0041EA0B019F
:1007E00053465A46084313D0114653EA010019D024
:1007F000C8F140025046FFF777FF05460E465046C7
:1008000059464246FFF761FF084305D0012004E046
:1008100020463946BDE8F08D0020054346EAE076E3
:100820002C4337430A986305E40AA0EB0800002232
:10083000FD0A44EA47540A3002D500200146E9E7A0
:10084000010510196941DDE9084500196941BDE854
:10085000F04DA2E770B521F0004303430CD0C1F383
:100860000A550024D5EB040564EB0403D617AD1A32
:10087000B34102DB0020014670BD201841EB02515C
:1008800070BDC1F30A52C1F3130140F2FF3341F4CA
:1008900080119A4202DA00200146704740F2334349
:1008A0009A42A2F2334202DC5242FFF71DBFFFF729
:1008B0000CBF000030B5041E71F1000404DB4FF0E2
:1008C0000044404264EB0101141E73F1000405DB97
:1008D0001C464FF00043524263EB0403994208BFA9
:1008E000904230BD064C074D06E0E06840F0010341
:1008F00094E8070098471034AC42F6D3FFF748FC61
:10090000E0830008208400082DE9F04D00231A46FA
:100910001B1A8A4103DB00200146BDE8F08DC1F3BC
:100920000A52C1F3130141F480154FF0000BD107B7
:1009300002D100186D41521E0027044640F2FF11FB
:10094000384601EB620A3E468046024600204FF4DC
:100950008011FFF7C9FEC2197141BB1846EB0100B7
:10096000B4EB030C75EB000C04D3E41A65EB000543
:1009700017460E46241908F101006D4180463428BF
:10098000E3DDF91946EB0600091BA84103D24FF03D
:10099000FF32134601E0002213461BEB070046EB33
:1009A0000A51BDE8F04DFFF7F8BE000001464FF6D2
:1009B000FF730822014801F073BF000088C20120C4
:1009C0001CB51E2800D91E207E218DF800100421A0
:1009D0008DF8011031218DF802108DF8030080F0A0
:1009E00035008DF80400EF208DF805006846FFF70C
:1009F000DDFF1CBDFEE70000014800F0B9B80000B3
:100A0000F0C00120014800F0B3B8000050C101203F
:100A100001681823CAB2103AB2FBF3F2054B6FF328
:100A20000901032A9B5CC36500D9091D816508463D
:100A3000704700002C7F000810B5014600208B692C
:100A40008A6A4FF0C07453B1B3F5005F15D072B12C
:100A5000012A0CD0022A0AD0032A09D104E01AB1D3
:100A6000012A06D0022A03D1C96AC90100D5012092
:100A700010BDC96AA142FAD010BD002AF7D0012AE0
:100A8000F2D0022AF3D0032AF3D010BD30B50468A7
:100A9000256825F480252560046863608368402B01
:100AA000036803D099600068C26030BD9A60006836
:100AB000C16030BD704772B6FEE72DE9F0410446D3
:100AC000876D00F0E3FA064694F835000025022809
:100AD00006D08020606584F834500120BDE8F081A4
:100AE0002068016821F0160101602068416921F049
:100AF00080014161206C08B9A06C20B120680168B8
:100B000021F0080101602068016821F00101016005
:100B10000CE000F0BBFA801B052807D92020606597
:100B2000032084F8350084F83450D7E72068006843
:100B3000C007EED194F85C103F208840B8600120D7
:100B400084F8350084F834500020C7E790F8351059
:100B5000022903D08021416501207047052180F8DA
:100B600035100068016821F0010101600020704724
:100B70002DE9F84304464FF00009CDF80090634892
:100B80004FF41651A56D0068B0FBF1F72E6894F88C
:100B90005C10082000FA01F131420FD021680A6888
:100BA00052070BD50A6822F004020A6094F85C1020
:100BB0008840A860606D40F00100606594F85C10AA
:100BC0004FF0010808FA01F0304208D02168496965
:100BD000090604D5A860606D40F00200606594F8D5
:100BE0005C1004208840304208D0216809688907D9
:100BF00004D5A860606D40F00400606594F85C1056
:100C000010208840304218D021680968090714D59F
:100C1000A86020680168490304D50068000308D56E
:100C2000A16C07E00168C90503D4016821F008013F
:100C30000160216C09B12046884794F85C1020209F
:100C40008840304231D021680968C9062DD5A86096
:100C500094F8350005282068016806D0490347D577
:100C6000006800031DD4616C1CE021F016010160D6
:100C70002068416921F080014161206C08B9A06CB5
:100C800020B12068016821F00801016094F85C102F
:100C90003F208840A86084F8358084F83490216D26
:100CA0001FE0E16B09B120468847606D00282BD01A
:100CB000606DC00714D0052084F8350020680168F5
:100CC00021F0010101600098401C0090B84203D857
:100CD00020680068C007F6D184F8358084F8349025
:100CE000E16C002910D001B02046BDE8F043084770
:100CF0000168C905D5D4016821F01001016084F8AC
:100D0000358084F83490CCE7BDE8F88304000020F7
:100D10002DE9F041044600F0B9F906465CB1022025
:100D200084F83500002584F834502068016821F0EB
:100D3000010101600DE00120BDE8F08100F0A6F99D
:100D4000801B052805D920206065032084F8350024
:100D5000F2E720680068C007F0D1226811682048D7
:100D60000140D4E901031843D4E90336334318435F
:100D700063691843A3691843E3691843236A184356
:100D80000843616A042903D1D4E90B1319430843CA
:100D9000106020684069666A20F0070130460E4303
:100DA000012704280CD1A06A0643E06A40B120461E
:100DB000FFF742FE20B14020606584F83570BAE745
:100DC000206846612046FFF723FE94F85C203F210F
:100DD00091408160656584F835700020ACE70000C3
:100DE0003F8010F02DE9F0410446866D90F8340004
:100DF000002501280DD0012084F8340094F83570C6
:100E00000020012F07D084F8340002252846BDE8D1
:100E1000F0810220FBE7022784F8357060652046E8
:100E2000FFF734FE94F85C103F208840B0602068E3
:100E3000016841F016010160206C20B12068016852
:100E400041F0080101602068016841F00101016082
:100E5000DCE7000070B5044600F018F90546601C98
:100E600002D004480078044400F010F9401BA0426E
:100E7000FAD370BD00C001202DE9F84FDFF8BCA106
:100E80000022012503264FF00F090AF1040BAAF1F5
:100E9000040E00BF0B6805FA02F42340A34270D190
:100EA0000F7907F00307012F01D0022F16D18768B1
:100EB0004FEA420806FA08FC27EA0C07D1F80CC0F2
:100EC0000CFA08FC4CEA070CC0F808C04768A743B6
:100ED0000C79C4F3001494403C4344600C79E4431F
:100EE000A4070AD0C4684FEA420C06FA0CF7BC43C8
:100EF0008F6807FA0CF72743C7600C7904F00304E6
:100F0000022C12D1D40800EB840CDCF820405707E7
:100F1000FF0E09FA07F824EA0804D1F8108008FA4D
:100F200007F848EA0408CCF8208004684FEA420C2D
:100F300006FA0CF7BC430F7907F0030707FA0CF722
:100F4000274307604C6814F4403F70D03C4C27683E
:100F500047F480472760246822F0030704F48044A4
:100F60000094384C07EB040CDCF8084897074FEA6C
:100F7000177809FA08F7BC43334FB84202D100276B
:100F800024E054E0314FB84201D101271EE0304F38
:100F9000B84201D1022719E02E4FB84201D10327F0
:100FA00014E02D4FB84201D104270FE02B4FB84277
:100FB00001D105270AE02A4FB84201D1062705E0F2
:100FC000284FB84201D1072700E0082707FA08F7A1
:100FD0002743CCF80878DAF800405746D1F804C027
:100FE0009C435FEACC2C00D51C433C60DBF80040FE
:100FF0005F46D1F804C09C435FEA8C2C00D51C43AB
:101000003C60DEF800407746D1F804C09C435FEABC
:101010008C3C00D51C433C60084F083F3C68D1F82D
:1010200004C09C435FEACC3C00D51C433C60521C8E
:10103000102AFFF42FAFBDE8F88F0000083C0140F4
:1010400044380240003001400000024000040240E9
:1010500000080240000C0240001002400014024050
:1010600000180240001C02400069084000D0012026
:101070007047426921EA02030A4043EA0241816162
:1010800070470AB1816170470904FBE70148806835
:101090007047000000C001200248816802781144B6
:1010A0008160704700C001200B4810B5016841F411
:1010B00000710160016841F480610160016841F4E0
:1010C00080710160032000F06FF80F2000F006F837
:1010D00000F024F8002010BD003C024070B50D4D1A
:1010E00004464FF47A712878B1FBF0F00A49096898
:1010F000B1FBF0F000F0F8FC48B9102C07D2002248
:101100002146501E00F030F800206C6070BD0120B8
:1011100070BD000000C00120040000200A4808B58E
:10112000016841F480410160006800F48040009053
:101130000548001F016841F080510160006800F01F
:101140008050009008BD000044380240002809DBB0
:1011500000F01F02012191404009800000F1E020D1
:10116000C0F8001170470000F0B40E4B1B680C462D
:10117000C3F30223C3F10705042D00D90425191D6B
:10118000072901D2002300E0DB1E012606FA05F143
:10119000491E214099409E40761E16403143F0BCC6
:1011A00002F0B8BC0CED00E0064900F00702086848
:1011B0004FF6FF03184040EA0220034A104308603C
:1011C000704700000CED00E00000FA052DE9F04743
:1011D0000E46050065D0DFF81481D8F80000F7B29C
:1011E00000F00700B04207D288F80070D8F800007D
:1011F00000F00700B04254D128683D4C810712D559
:10120000400703D5206840F4E050206028780007AC
:1012100003D5206840F4604020602068A96820F071
:10122000F000084320602878C0072DD03049686856
:101230000839012812D0022813D0032811D00968D8
:10124000890700292DDA216821F00301014321607B
:10125000FFF71CFF814641F2883A0EE009688903D6
:10126000EFE709688901ECE7FFF710FFA0EB090140
:10127000514502D90320BDE8F0872068696800F075
:101280000C00B0EB810FEFD1D8F80010404601F010
:101290000701B14207D90770006800F00700B042AB
:1012A00001D00120E7E72878400705D52068E968E4
:1012B00020F4E050084320602878000706D5206815
:1012C000296920F4604040EAC100206000F038F84D
:1012D0002168084AC1F30311515CC84006490860FF
:1012E00006480068FFF7FAFE0020C4E7003C024011
:1012F00008380240347F00080400002004C00120A8
:101300000448054900680968044AC1F38221515C18
:10131000C84070470400002008380240447F00089D
:101320000448054900680968044AC1F34231515C28
:10133000C84070470400002008380240447F00087D
:10134000154810B5006810F00C02144813D0144969
:10135000042A0FD0082A0ED10F4C241F22682368BC
:1013600002F03F025B0207D52068C0F38810A0FBA3
:10137000010106E0084610BD2168C1F38811A1FBF8
:1013800000010023FEF71EFF2168C1F30141491C43
:101390004900B0FBF1F010BD083802400024F40011
:1013A00040787D012DE9F84F04006ED02078DFF8F9
:1013B0004C93C007A9F104054AD009F10400016863
:1013C000C1F38101012908D00068C0F3810002281F
:1013D0000AD1D9F80000400206D52868800337D525
:1013E00060680028E1D033E06068B0F5803F10D03D
:1013F000B0F5A02F286810D020F48030286028682D
:1014000020F4802028606068A8B1FFF73FFE064600
:101410000DE0286840F48030F4E740F48020286034
:10142000F7E700BFFFF732FE801B642873D82868F7
:101430008003F7D50CE0FFF729FE064605E000BF64
:10144000FFF724FE801B6428F0D828688003F7D4B7
:101450002078DFF8AC8280074FF0000A3ED5A7481D
:10146000001D016811F00C0F08D00068C0F3810066
:1014700002280BD1D9F80000400207D42868800761
:1014800016D5E068012800D112E033E1E068B8B178
:101490000120C8F80000FFF7F9FD064605E000BF8F
:1014A000FFF7F4FD801B0228C0D828688007F7D515
:1014B0002868216920F0F80040EAC10028600DE0AA
:1014C000C8F800A0FFF7E2FD064604E0FFF7DEFDE6
:1014D000801B02281FD828688007F7D420780007CF
:1014E00022D5864F87486169703771B1012101604B
:1014F000FFF7CCFD064604E0FFF7C8FD801B02287D
:1015000009D838688007F7D50EE0C0F800A0FFF7CB
:10151000BDFD064605E082E0FFF7B8FD801B02280E
:101520007DD838688007F7D42078400768D5DFF881
:10153000CCB100270BF13C0BDBF80000C0000BD452
:10154000DBF8001041F08051CBF80010DBF8000010
:10155000012700F0805000906B4E3068C00510D419
:10156000306840F480703060FFF790FD009005E037
:10157000FFF78CFD0099401A022850D83068C0054A
:10158000F6D55E4EA0686C3601280FD0052830686D
:1015900010D020F001003060306820F0040030608E
:1015A000A068B8B1FFF772FD00900FE0306840F01E
:1015B0000100F4E740F004003060F7E7FFF766FD54
:1015C0000099411A41F28830814266D8306880071C
:1015D000F4D50EE0FFF75AFD009007E0FFF756FD47
:1015E0000099411A41F28830814256D8306880070C
:1015F000F4D42FB1DBF8001021F08051CBF80010AB
:10160000A069C8B33D49091D0968C1F381010229D8
:101610004AD00228504607D0C8F8600000E03CE0FD
:10162000FFF734FD04463BE04746C8F86000FFF78B
:101630002DFD064605E000BFFFF728FD801B0228B0
:101640002BD828688001F7D4D4E907010843A16AA0
:101650002E4A490802EB0141626A41EA82110843BD
:1016600094F82C1040EA0161C9F800100120386696
:10167000FFF70CFD044606E03EE000BFFFF706FD65
:10168000001B022809D828688001F7D534E000BF84
:10169000FFF7FCFC001B022802D90320BDE8F88FED
:1016A00028688001F4D427E00128F7D0D9F8000099
:1016B000E26900F4800191421CD1226A00F03F01EE
:1016C000914217D147F6C071626A0140B1EB821FA7
:1016D00010D1A26A4FF0FF3300F4403103EB520205
:1016E000B1EB024F06D194F82C1000F07060B0EB13
:1016F000016F01D00120D1E70020CFE7043802407C
:1017000000004742800E4742007000400000FFFF8B
:10171000704770B5040009D0606A002540B12561AA
:101720006561A56294F8510040B10CE0012070BDE4
:101730006068B0F5827FF4D0E561F2E784F850503C
:10174000204600F045F8022084F851002068016826
:1017500021F040010160A088218900F4827001F429
:1017600004410843A18901F400610843217C01F090
:1017700002010843217D01F001010843218B01F49E
:1017800000710843217F01F03801084394F82010CC
:1017900001F080010843218D01F4005108432168C4
:1017A0000860A069042101EA104094F8241001F0B7
:1017B00010010843216848602068C16921F4006174
:1017C000C1616565012084F85100002070BD0000F2
:1017D0002DE9F04186B0064614216846FEF73CFD2F
:1017E0002B493068884250D12A480024016841F4CE
:1017F00080510160006800F480500590254814383D
:10180000016841F0020101600068694600F00200D1
:101810000590382000900220CDE9010403200390B8
:10182000052004901C48FFF727FB1D4D1B484FF077
:10183000C0672860C5E901744FF48068C5E90348B2
:101840006C61AC61EC612C6228466C62FFF760FA57
:1018500008B1FFF730F9F564AE63114D0F486035FC
:101860004830E5E802074020A5E811010C4845F89A
:1018700014496030AC61EC612C626C62FFF748FA8D
:1018800008B1FFF718F9B564AE6306B0BDE8F081A2
:10189000003001404438024000040240106402401D
:1018A000F0C001202DE9F84F044690F850000027C1
:1018B0001D461646894601280DD04FF0010B84F8CD
:1018C00050B0FFF7E3FB804694F85100BA46012878
:1018D00004D0022793E00220BDE8F88FB9F1000F91
:1018E00073D0002E71D0032084F85100C4F854A0A6
:1018F000C4F83090A686E686C4F838A0A4F83CA0C8
:10190000A4F83EA0C4F844A0C4F840A0A068B0F574
:10191000004F09D12068016821F040010160206872
:10192000016841F48041016020680168490603D4E0
:10193000016841F040010160E068B0F5006F606847
:1019400003D030B3012E24D041E008B1012E1CD1C8
:10195000206B21680088C86006E0206881688907DC
:1019600009D5216B0988C160206B801C2063E08E43
:10197000401EE08609E0FFF789FBA0EB0800A842C3
:1019800002D3681C01D031E07DB3E08E0028E4D1A1
:1019900020E0206B21680078087306E020688168E9
:1019A000890709D5216B09780173206B401C2063DE
:1019B000E08E401EE0860AE0FFF768FBA0EB08001F
:1019C000A84203D3681C02D010E017E06DB1E08E8E
:1019D0000028E3D142462946204601F0D9FA08B151
:1019E00020206065A06818B106E0FFE7032706E045
:1019F0002068C16880680090606D00B1012784F89C
:101A000051B084F850A0384666E700002DE9F04157
:101A1000044690F850000026012809D0012784F8D8
:101A2000507094F851000025012804D002264EE0A1
:101A30000220BDE8F08189B182B1032084F8510011
:101A400065652163A286E286A56365642564A58732
:101A5000E587A068B0F5004F02D00BE0012636E024
:101A60002068016821F0400101602068016841F4AC
:101A700080410160A16C18480864A16C1748C863D4
:101A8000A16C1748C864A06C0565E38E2268216BC1
:101A90000C32A06CFFF7A6F938B1606D40F0100071
:101AA0006065012684F8517011E0206801684906DC
:101AB00003D4016841F0400101602068416841F0B1
:101AC000200141602068416841F00201416084F8D2
:101AD00050503046ADE70000212F00082B2F0008A2
:101AE000FF2E00087047704710B5401EB0F1807F90
:101AF00001D3012010BD4FF0E02460610F21601779
:101B000002F008F80020A06107202061002010BD2D
:101B10007047704710B590F83C20012A22D001226E
:101B200080F83C20CA688C6822F4407222434C68DA
:101B300022F4806222430C6822F4006222430C6982
:101B400022F4805222434C6922F400522243C96994
:101B5000002322F480420A4301684A6480F83C3042
:101B6000002010BD022010BD70B590F83C20012A65
:101B700032D0012480F83C40022280F83D200368E6
:101B80005A689D6822F070060A6832435A60134B07
:101B900002689A4214D0B2F1804F11D0104B9A4291
:101BA0000ED0104B9A420BD00F4B9A4208D00F4BDD
:101BB0009A4205D00E4B9A4202D00E4B9A4204D163
:101BC000496825F080031943916080F83D40002169
:101BD00080F83C10084670BD022070BD0000014036
:101BE0000004004000080040000C004000040140D8
:101BF000004001400018004010B5040003D094F8E4
:101C00003D0010B107E0012010BD002084F83C0029
:101C1000204600F01FF8022084F83D00211D2068B6
:101C200001F050FC012084F8460084F83E0084F85E
:101C30003F0084F8400084F8410084F8420084F8B2
:101C4000430084F8440084F8450084F83D000020F7
:101C500010BD000008B501681E4881420FD11E4822
:101C6000016841F0010101600068002200F00100FC
:101C7000009002211820FFF777FA182024E0164878
:101C8000164A001F91420ED1016841F00401016023
:101C90000068002200F00400009002211E20FFF7DF
:101CA00063FA1E2010E00E4A914211D1016841F002
:101CB000100101600068002200F0100000900F2168
:101CC0003620FFF751FA3620BDE80840FFF73EBA4C
:101CD00008BD0000000001404438024000080040F8
:101CE0000010004090F83D10012901D001207047FC
:101CF000022180F83D1000681149884214D0B0F1EB
:101D0000804F11D00F4988420ED00F4988420BD026
:101D10000E49884208D00E49884205D00D498842B4
:101D200002D00D49884204D1816801F007010629DB
:101D300003D0016841F001010160002070470000FC
:101D4000000001400004004000080040000C00407A
:101D500000040140004001400018004090F83D1090
:101D6000012901D001207047022180F83D1001684F
:101D7000CA6842F00102CA6000681149884214D062
:101D8000B0F1804F11D00F4988420ED00E498842E1
:101D90000BD00E49884208D00D49884205D00D4924
:101DA000884202D00C49884204D1816801F00701C1
:101DB000062903D0016841F001010160002070474D
:101DC000000001400004004000080040000C0040FA
:101DD00000040140004001400018004070B5044676
:101DE00090F83C000025012817D0012684F83C60BB
:101DF000022084F83D002068826822F0770222F4F5
:101E00007F4282600868502838D00DDC20284FD0EF
:101E100005DC90B3102811D14AE0022070BD3028B3
:101E200046D040280AD13BE060282FD070280DD042
:101E3000B0F5805F03D0B0F5005F12D0012584F8C3
:101E40003D60002084F83C00284670BDCB68D1E995
:101E50000121206801F0A7FB2068816841F077012B
:101E600009E0CB68D1E90121206801F09CFB2068E2
:101E7000816841F480418160E1E719E0CA684968FE
:101E8000206801F065FC5021206806E0CA684968B6
:101E9000206801F06EFC6021206801F08EFBCEE727
:101EA000CA684968206801F053FC40212068F4E7C3
:101EB000226801461046F0E7704770B50446006896
:101EC00001694FF00005C943890715D4C168C943AA
:101ED000890711D4E91E01610120207720688069FB
:101EE0008007204602D0FFF7E7FF04E000F004F986
:101EF000204600F06BFA257720680169C94349073D
:101F000017D4C168C943490713D46FF004010161B4
:101F1000022020772068806910F4407F204602D09C
:101F2000FFF7CAFF04E000F0E7F8204600F04EFAA1
:101F3000257720680169C943090716D4C168C943D8
:101F4000090712D46FF0080101610420207720688E
:101F5000C0698007204602D0FFF7AEFF04E000F022
:101F6000CBF8204600F032FA257720680169C94392
:101F7000C90617D4C168C943C90613D46FF010014C
:101F80000161082020772068C06910F4407F204656
:101F900002D0FFF791FF04E000F0AEF8204600F019
:101FA00015FA257720680169C943C90708D1C168B6
:101FB000C943C90704D1891E0161204600F008FA0F
:101FC00020680169C943090609D4C168C9430906E3
:101FD00005D46FF0800101612046FFF799FD20686C
:101FE0000169C943490609D4C168C943490605D4F2
:101FF0006FF040010161204600F0F4F920680169AA
:10200000C94389060BD4C168C943890607D46FF058
:10201000200101612046BDE87040FFF77ABD70BD28
:1020200010B586B0044614216846FEF715F92368FA
:10203000174C002117480222A34211D1036843F034
:1020400010030360006800F010000590100200907B
:10205000CDE901210120CDE9031069460E4812E0C7
:102060000E4CA34211D1036843F0020303600068E1
:1020700000F00200059040200090CDE90121CDE95B
:10208000031269460648FEF7F7FE06B010BD0000D1
:1020900000000140303802400010024000080040BB
:1020A0000004024070B5044690F83C000025012869
:1020B0000FD0012084F83C006AB1042A0FD0082A0E
:1020C00011D00C2A13D00125002084F83C002846AA
:1020D00070BD022070BD206801F078FAF4E7206836
:1020E00001F0A4FAF0E7206801F0D6FAECE72068E6
:1020F00001F006FBE8E7000070B5244C0646A07826
:10210000401CA070C00730D10025A5700120607070
:102110001F488168491E816001790029C16804D087
:10212000491EC160816811B11FE0491CF9E7C06810
:10213000FEF749FA9FED171B53EC112BFEF762F9DE
:102140009FED161B53EC112BFEF75CF9FEF759FAC5
:10215000014614A001F0B6FC012005F0E7FC0122C5
:1021600002211548FEF78DFF657014480068416A2A
:10217000A160327F012A08D1E26811444FF6FF7254
:10218000B1FBF2F302FB1311416370BD2400002088
:10219000B0F10120CDCCCCCCCCCCFC3F0000000079
:1021A0000000A03FC0DBBCC6D0FDD7AAB5C4BDC7E8
:1021B000B6C83A25640D0A00000C0240F8C101209F
:1021C00010B5040003D094F83D0010B107E00120E1
:1021D00010BD002084F83C00204600F01EF80220CC
:1021E00084F83D00211D206801F06CF9012084F87D
:1021F000460084F83E0084F83F0084F8400084F8EC
:10220000410084F8420084F8430084F8440084F8D4
:10221000450084F83D00002010BD704730B5002512
:102220000446022249B1042912D008294CD094F85E
:102230004100012853D0012030BD94F83E00012810
:10224000F9D184F83E202068C26842F0020209E019
:1022500094F83F000128EED184F83F202068C2683E
:1022600042F00402C2600122206801F08FF9214986
:102270002068214A884201D0904203D1436C43F444
:10228000004343642068884213D0B0F1804F10D0DF
:102290001A4988420DD01A4988420AD01949884201
:1022A00007D0904205D01849884202D01749884289
:1022B00004D1816801F00701062903D0016841F0CB
:1022C00001010160284630BD94F840000128B2D1D8
:1022D00084F840202068C26842F00802C2E784F80F
:1022E00041200C2901D00125ECE72068C26842F0AA
:1022F0001002B7E700000140000401400004004064
:1023000000080040000C0040004001400018004060
:1023100070B50D0004464FF0000607D0042D0AD01A
:10232000082D0DD00C2D10D001263FE02068C1688B
:1023300021F002010DE02068C16821F0040108E0ED
:102340002068C16821F0080103E02068C16821F01D
:102350001001C16000222946206801F017F9194BCD
:1023600041F2111120688A10984202D0164B98420F
:1023700009D1036A0B4206D1036A134203D1436CAD
:1023800023F4004343642068036A0B4206D1016AC8
:10239000114203D1016821F00101016001203DB12A
:1023A000042D08D0082D09D084F84100304670BDB6
:1023B00084F83E00FAE784F83F00F7E784F840002D
:1023C000F4E70000000001400004014070470000F5
:1023D00000680349884201D105F064BC70470000E1
:1023E000001000407047704770470000F8B5016862
:1023F00004460868CA684B6910F00F0F4FF00005DB
:1024000059D003F0010602F49077374365D0C10735
:1024100005D0D10503D5216C41F0010121644107AC
:1024200005D5D90703D0216C41F002012164810751
:1024300005D5D90703D0216C41F0040121640107BF
:1024400007D502F02001314303D0216C41F008018F
:102450002164216C00293AD0800604D5900602D56B
:10246000204601F0D4F920684069216CC0F3801047
:10247000090700D460B3204601F0A2F92068406942
:10248000400621D52068143050E8001F21F040019B
:1024900040E80012002AF5D1A06BA8B16C49016593
:1024A000A06BFEF753FB002811D0A06B016D01B0AB
:1024B000BDE8F040084783060FD593060DD52046AA
:1024C000BDE8F84001F0A3B92046FFF78DFFF8BD45
:1024D0002046FFF789FF2564F8BD266B2023012ED7
:1024E00079D1C60677D5D60675D5086848680090B4
:1024F0004869400640D5A16B086840680004000C9C
:10250000EAD0A28D8242E7D9E085C869B0F5807F24
:102510002DD020680C3050E8001F21F4807140E875
:102520000012002AF5D12068143050E8001F21F075
:10253000010140E80012002AF5D12068143050E86B
:10254000001F21F0400140E80012002AF5D184F874
:102550003E30256320680C3050E8001F21F0100148
:1025600040E80012002AF5D1A06BFEF7A6FAA08D74
:10257000E18D401A81B229E0A08DE18D401A81B22F
:10258000E08D0028A8D00029A6D020680C3050E8A3
:10259000002F22F4907240E80026002EF5D120682A
:1025A000143050E8002F22F0010240E80026002EEF
:1025B000F5D184F83E30256320680C3050E8002FB8
:1025C00022F0100240E80023002BF5D12046FFF74F
:1025D0000AFFF8BDFFE705062BD5150629D594F8A7
:1025E0003D002128F5D1A068B0F5805F01D12069B8
:1025F000B0B1206A411C2162216800784860E08CFB
:10260000401E0004000CE084E3D12068C16821F082
:102610008001C1602068C16841F04001C160D8E715
:10262000206A0088C0F308004860206A801C20628D
:10263000E5E74006CDD55006CBD5CA68204622F046
:102640004002CA6084F83D3000F083F9C1E7000021
:10265000B137000870B5040004D094F83D0000259F
:1026600010B106E0012070BD84F83C50204600F017
:1026700023F8242084F83D002068C16821F400512B
:10268000C160204601F024F92068016921F49041DD
:1026900001612068416921F02A0141612068C16817
:1026A00041F40051C1602564202084F83D0084F885
:1026B0003E00002070BD0000F0B587B00446142134
:1026C0006846FDF7C9FD4849DFF818C123680024B2
:1026D000454A1039022503260827444863451FD17F
:1026E000136843F400231360126802F40022059279
:1026F0000A6842F004020A60096802AB01F00401B2
:102700000591B102CDE9001583E8D0006946FEF7D6
:10271000B3FB002201213420FEF726FD342035E0F2
:10272000DFF8CCC0634535D1136843F480131360E0
:10273000126802F4801205920A6842F004020A60EC
:102740000A6802F0040205920A6842F008020A6070
:10275000096802AB01F0080105914FF48051CDE901
:10276000001583E8D0006946FEF786FB0420CDE91A
:10277000000502AB694683E8D0001E48FEF77CFBEB
:10278000002201213520FEF7EFFC3520FEF7DEFCAC
:1027900007B0F0BD18488342FAD11348001D026803
:1027A00042F010020260006800F010000590086816
:1027B00040F0010008600868029400F001000590F4
:1027C0004FF4C060CDE900050720CDE903606946FC
:1027D0000A48FEF751FB002211462520FEF7C4FCF3
:1027E0002520D3E7004C004040380240000802405A
:1027F00000500040000C0240001001400000024068
:1028000090F83E30202B0ED159B152B190F83C30A7
:10281000012B08D0012380F83C300023036301F032
:10282000DDB80120704702207047000010B5044653
:1028300000681349884209D101221249124803F065
:10284000DCFA01220F491148FFF7DAFF104920682E
:10285000884213D10F4801780F4801700F4804F0E7
:102860002BFA01220B49084803F0C7FA0748012256
:10287000BDE8104007494430FFF7C2BF10BD00005B
:10288000005000402200002034F10120CCC2012081
:102890000010014092C0012093C0012000F20120ED
:1028A0002DE9F843044690F83D001F4616460D46B4
:1028B00020284CD1C5B1BEB194F83C00012846D0C7
:1028C000012084F83C004FF00008C4F8408021202B
:1028D00084F83D00FEF7DAFBA6848146E684A06812
:1028E000B0F5805F03D004E00120BDE8F8832069E3
:1028F00028B12E465FF0000584F83C800EE00026EB
:10290000FAE78021204601F086F8A0B9AEB116F8AA
:10291000010B21684860E08C401EE084E08C4B464F
:102920004FF0000200970028EBD14FF04001204605
:1029300001F071F830B10320D7E735F8020BC0F38E
:102940000800E6E7202084F83D000020CDE70220C3
:10295000CBE77047FEE700000D4808B5016841F479
:10296000800101600068002200F4800000901146A0
:102970003820FEF7F9FB3820FEF7E8FB002211466D
:102980003B20FEF7F1FBBDE808403B20FEF7DEBB35
:10299000303802402DE9F04F87B014216846FDF72A
:1029A0005BFC94480025016841F01001016001685A
:1029B00001F010010591016841F004010160016816
:1029C00001F004010591016841F0200101600168F6
:1029D00001F020010591016841F08001016001686A
:1029E00001F080010591016841F001010160016879
:1029F00001F001010591016841F0020101600168E7
:102A000001F002010591016841F0080101600168CF
:102A100001F008010591016841F040010160006882
:102A2000012200F0400005907C217348FEF729FB4D
:102A3000012243F2C2717148FEF723FBDFF8C0B1F7
:102A400000220C215846FEF71CFB4FF400470022E1
:102A500039466A48FEF715FB002281216648FEF7D9
:102A600010FB002239466748FEF70BFB4FF4A048E5
:102A7000012241466448FEF704FB002239466348C0
:102A8000FEF7FFFA002203215F48FEF7FAFA4FF43F
:102A90008059012249465E48FEF7F3FA4FF4804A16
:102AA000002251465A48FEF7ECFA01247C20CDE979
:102AB000000469465048CDE90245FEF7DDF943F2CE
:102AC0000200CDE900040226CDE9024669464B48E2
:102AD000FEF7D2F940F60800CDE9000569460294F8
:102AE0004648FEF7C9F94FF4F860CDE9000469469D
:102AF0004248CDE90245FEF7BFF90C208DE85100B0
:102B0000694658460396FEF7B7F9CDE90045694690
:102B10003E480294FEF7B0F90096CDE901546946AB
:102B20003848FEF7A9F900970395CDE901466946B3
:102B30003248FEF7A1F9812003958DE851006946DE
:102B40002D48FEF799F9E002CDE9000569460294A7
:102B50002948FEF791F900970395CDE901466946AA
:102B60002848FEF789F94FF41270CDE9000569464F
:102B700002942548FEF780F9CDE90084CDE90246AC
:102B800069462148FEF778F948F6C050CDE90005BE
:102B9000694602941E48FEF76FF900970395CDE948
:102BA000014669461948FEF767F903270097039520
:102BB000CDE9014669461448FEF75EF901AACDF851
:102BC000009082E8D00069461148FEF755F9CDF82B
:102BD00000A00395CDE9014669460D48FEF74CF982
:102BE000CDE90065694604480296FEF745F907B04D
:102BF000BDE8F08F3038024000100240001402405F
:102C00000008024000040240000C024000000240A4
:102C1000001802400F4810B50D4901604FF4827151
:102C20004160002102228160C0E903121202C0E962
:102C30000512C1610162416281620A21C162FEF72F
:102C400068FD002803D0BDE81040FDF734BF10BD7B
:102C50000030014098C0012010B596B000240F94B8
:102C600010941194129413941C2108A81494FDF745
:102C7000F3FA20216846FDF7EFFA29482749016059
:102C80005321C0E901144FF6FF71C0E903148021FC
:102C9000C0E90541FEF7B0FF08B1FDF70CFF4FF4A6
:102CA00080500F900FA91E48FFF798F808B1FDF764
:102CB00002FF1B48FFF784FA08B1FDF7FCFE1394EE
:102CC00013A917481494FEF74FFF08B1FDF7F3FE60
:102CD0003020CDE908040220CDE90A040C940D94BB
:102CE000002208A90E480E94FFF7DCF908B1FDF7A1
:102CF000E2FE00944FF40050CDE9044002940194A8
:102D00000394694606480794FEF704FF08B1FDF7EF
:102D1000D2FE0348FFF784F916B010BD0000014051
:102D2000B0C1012010B58EB0002407940894099416
:102D30000A940B941C2168460C94FDF78DFA1F48E9
:102D40001D4901605321C0E901144FF6FF71C0E92C
:102D5000031480218161FEF74FFF08B1FDF7ABFE40
:102D60004FF48050079007A91448FFF737F808B1CF
:102D7000FDF7A1FE1148FFF723FA08B1FDF79BFE0E
:102D80000B940BA90D480C94FEF7EEFE08B1FDF76D
:102D900092FE3020CDE90004022002900022694614
:102DA00004940648FFF77EF908B1FDF784FE034856
:102DB000FFF736F90EB010BD00080040F8C1012041
:102DC0001CB500240F4800940D4901940160532163
:102DD000C0E9011440F2E731C16080218161FEF752
:102DE0000BFF08B1FDF767FE0094694605480194A2
:102DF000FEF7BAFE002801D0FDF75DFE1CBD000005
:102E00000010004040C201200C4810B50A49016082
:102E10004FF416514160002181600C22C160C0E96D
:102E200004128161C161FFF715FC002803D0BDE8E1
:102E30001040FDF740BE10BD004C004088C201208C
:102E4000124810B5104901604FF4E1314160002192
:102E500081600C22C160C0E904128161C161FFF789
:102E6000F9FB08B1FDF727FE012209490748FFF7E2
:102E7000C7FC40220749084802F058FF064802F004
:102E800061FF0028FAD010BD00500040CCC20120E4
:102E90002200002048F1012034F10120124810B531
:102EA000104901604FF4E1314160002181600C2242
:102EB000C160C0E904128161C161FFF7CBFB08B1B9
:102EC000FDF7F9FD012209490748FFF799FC402267
:102ED0000749084802F02AFF064802F033FF00289D
:102EE000FAD010BD0010014010C3012092C0012093
:102EF000C0F1012060B80120FEE7FEE7704710B581
:102F0000806B01684A6822F003024A60416D41F01B
:102F100010014165012180F85110FEF7F9FB10BD49
:102F200010B5806BFEF7DFFD10BD38B50546846B2C
:102F3000FEF7ACF8024628680068C00523D4206874
:102F4000416821F0200141602068416821F00201C0
:102F500041606421204600F01BF818B1606D40F01C
:102F600020006065A068002118B92068C2688068E8
:102F70000090E186012084F85100606D18B1204670
:102F8000FEF7C6FB38BD2046FEF7ACFD38BD00009D
:102F900038B504461248134B0068B0FBF3F04FF409
:102FA0007A73584300906068B0F5827F0DD10B466C
:102FB000009200228021204600F016F870B1606D6A
:102FC00040F020006065032038BD009830B1401EFD
:102FD000009020688068C0430006F6D5002038BD08
:102FE0000400002000366E012DE9F8431E4691468C
:102FF00088460446089DFEF749F8401B351AFEF73F
:1030000045F8074625480068C0F3CB30684338E0F0
:10301000701C37D0FEF73AF8C01BA84203D215B196
:10302000009860B32CE02068416821F0E001416025
:103030006068B0F5827F0BD1A068B0F5004F02D078
:10304000B0F5806F04D12068016821F04001016073
:10305000A06AB0F5005F09D12068016821F4005131
:1030600001602068016841F400510160012084F88A
:103070005100002084F850000320BDE8F8830025AB
:10308000401E00902068816838EA010004D00021C9
:103090004945BDD10020F0E70121F9E704000020F7
:1030A0002DE9F04107460021EF2340F23F12084688
:1030B00000F0C8F80E4E002204213046FDF7E1FF73
:1030C00000244FF448653A4629460A48FDF7BDF802
:1030D0002946084800F028F9641CA4B2302CF2D329
:1030E0003046BDE8F04101220421FDF7CABF0000CF
:1030F00000080240B4E401201FB54FF44861454880
:10310000FDF7AAF81920FDF7A5FE434C0022012186
:103110002046FDF7B6FF1920FDF79CFE012211465F
:103120002046FDF7AEFF3220FDF794FE3A2000F076
:10313000DDF8652000F040F9B22000F0D7F837A1A3
:10314000D1E90001CDE900010521684600F0ECF865
:10315000042000F0B3F8B72000F0C8F8352000F0E4
:103160002BF9BB2000F0C2F8192000F025F9C0208F
:1031700000F0BCF82C2000F01FF9C22000F0B6F8D7
:10318000012000F019F9C32000F0B0F8122000F07F
:1031900013F9C42000F0AAF8202000F00DF9C62091
:1031A00000F0A4F80F2000F007F9D02000F09EF8FE
:1031B000A42000F001F9A12000F0FEF8E02000F0CA
:1031C00095F818A00FC88DE80F000E21684600F092
:1031D000ABF8E12000F08AF816A10FC98DE80F00C6
:1031E0000E21684600F0A0F8202000F07FF81120A2
:1031F00000F07CF8132000F079F8292000F076F830
:103200003220FDF727FE04B00020BDE81040FFF794
:1032100047BF0000B4E40120000C02400C0C003356
:1032200033000000D0040D11132B3F544C180D0B2C
:103230001F230000D0040C11132C3F44512F1F1FDB
:10324000202300002DE9F843DFF86C8015460E4678
:1032500007461C46002204214046FDF712FF2A20A3
:1032600000F044F8380A8DF800008DF80170280A43
:103270008DF802008DF803500421684600F054F8E0
:103280002B2000F033F8300A8DF800008DF8016033
:10329000200A8DF802008DF803400421684600F0F2
:1032A00043F82C2000F022F84046BDE8F843012204
:1032B0000421FDF7E6BE00000008024010B50446F8
:1032C000362000F013F8052C0FD2DFE804F00305D8
:1032D00007090500C02004E0A02002E0002000E073
:1032E0006020BDE8104000F067B810BD31B50C4C4F
:1032F000002204212046FDF7C4FE002208212046BA
:10330000FDF7BFFE4FF0FF33012269460548FEF787
:10331000C9FA012204212046FDF7B3FE38BD0000A2
:103320000008024098C001202DE9F05F1F4F0C46B5
:103330000646002204213846FDF7A3FE012208219B
:103340003846FDF79EFE4FF480394FF6FF7BDFF8DD
:103350006080DFF860A01FE04C4501D3584600E0D4
:10336000204685B2B8F80000A0420CD82A46314663
:103370001048FEF74BFBDAF8480000BF90F8351014
:103380000129FBD106E04FF0FF332A4631460948B8
:10339000FEF788FA2E44641B002CDDD13846BDE8C8
:1033A000F05F01220421FDF76CBE0000000802401E
:1033B00090C0012098C0012031B50C4C002204219E
:1033C0002046FDF75EFE012208212046FDF759FE4A
:1033D0004FF0FF33012269460548FEF763FA0122E8
:1033E00004212046FDF74DFE38BD000000080240D4
:1033F00098C001207047FDF74FBE000030B593B074
:1034000030216846FCF728FF14210CA8FCF724FFA4
:103410001D480025016841F080510160006800F0FE
:10342000805011901948016841F4804101600068A2
:10343000022400F480401190012003901020049099
:10344000009406940820CDE90750A820CDE909048E
:1034500004200B906846FDF7A5FF08B172B6FEE7A1
:103460000CA90F2081E831004FF4A0500F904FF4C9
:103470008050109005210CA8FDF7A8FE002801D06F
:1034800072B6FEE713B030BD403802400070004015
:103490000248016841F470010160704788ED00E066
:1034A0000148FEF70ABD0000B0C101200148FEF747
:1034B00004BD0000F8C101200148FEF7FEBC000079
:1034C00040C20120F0B50268254C264D264E274FFC
:1034D000274B4FF0804CA04209D0604507D0A8424E
:1034E00005D0B04203D0B84201D0984204D122F0B6
:1034F000700E4A6842EA0E02A0421BD0604519D005
:10350000A84217D0B04215D0B84213D0984211D07B
:10351000184DA8420ED0184DA8420BD0174DA84206
:1035200008D0174DA84205D0164DA84202D0164D1E
:10353000A84203D122F44075CA682A434D6922F09B
:1035400080022A4302608A68C2620A688262A042DC
:1035500001D0984201D10969016301214161F0BDA7
:10356000000001400004004000080040000C004042
:103570000004014000400140004401400048014077
:1035800000180040001C00400020004010B501F071
:103590001F030121046A99408C430462016A9A4026
:1035A0001143016210BD10B5846842EA032224F47D
:1035B0007F440A432243826010BD826822F0700279
:1035C0000A4342F00701816070470000F0B5026ACB
:1035D00022F001020262036A42688469124E24F0FA
:1035E00073050C682C4323F002058B682B430D4DAB
:1035F000A84201D0B04205D123F00807CB683B4375
:1036000023F00403A84201D0B04205D14D6922F451
:10361000407215438A692A43426084614968416364
:103620000362F0BD0000014000040140F0B5026AF1
:1036300022F010020262026A436884690D6824F471
:10364000E64444EA05248D6822F0200242EA05128D
:103650000F4D104EA84201D0B04206D1CF6822F0E3
:10366000800242EA071222F04002A84201D0B04292
:1036700007D14D6923F4406343EA85038D6943EA2A
:10368000850343608461496881630262F0BD000084
:103690000000014000040140F0B5026A22F480728B
:1036A0000262026A4368C46922F4007224F073055E
:1036B0000C68124E2C438D6842EA05220E4DA8423A
:1036C00001D0B04206D1CF6822F4006242EA07225C
:1036D00022F48062A84201D0B04207D14D6923F4A0
:1036E000405343EA05138D6943EA05134360C461FF
:1036F0004968C1630262F0BD00000140000401405E
:1037000030B5026A22F480520262046A4268C369D8
:103710000D6823F4E64343EA05238D6824F400543E
:1037200044EA0534084DA84202D0084DA84204D10D
:103730004D6922F4804242EA85124260C3614968C1
:103740000164046230BD000000000140000401403B
:1037500010B5036A046A24F001040462846924F049
:10376000F00444EA021423F00A020A43846102626C
:1037700010BD10B5036A23F0100303628369046A65
:1037800023F4704343EA023224F0A00343EA011118
:103790008261016210BD00000148FEF727BE0000F3
:1037A00088C201200148FEF721BE0000CCC20120E2
:1037B00010B5806B0021C185C184FEF715FE10BDD8
:1037C00001680C3151E8002F22F4907241E8002387
:1037D000002BF5D10168143151E8002F22F00102CD
:1037E00041E80023002BF5D1016B012909D10168C3
:1037F0000C3151E8002F22F0100241E80023002B89
:10380000F5D1202180F83E1000210163704708B5F2
:1038100090F83E10222901D0022008BD82684FF4A2
:1038200080539A4201D1016921B1816A9A421BD029
:103830004AB10AE00268816A5268C2F308020A804B
:10384000816A891C08E0026972B10268526802F05C
:103850007F020A70816A491C8162C18D491E090478
:10386000090CC18503D019E002685268F1E70168CC
:10387000CA6822F02002CA600168CA6822F4807215
:10388000CA6001684A6922F001024A61202180F879
:103890003E10016B012903D0FEF7C8FF002008BDD0
:1038A0000021016301680C3151E8002F22F0100261
:1038B00041E80023002BF5D101680A68D20602D541
:1038C0000A6849680091818DFEF78DFDE6E70000EA
:1038D00070B5044600680169E26821F44051114363
:1038E00001612169A068E2690843616911430843E5
:1038F0002168CA6849F20C639A430243CA6020688F
:103900004169A26921F44071114341613149206844
:10391000884202D03049884202D1FDF701FD01E022
:10392000FDF7EEFCE2690023192164253226B2F589
:10393000004F626828D0A0FB0101930F9200FCF7B2
:1039400041FC0146B0FBF5F06FF01802504301EB6B
:10395000800006EB0010B0FBF5F000F0F002B1FBC8
:10396000F5F002EB0012B1FBF5F06FF018035843CD
:1039700001EB800006EB0010B0FBF5F000F00F004B
:1039800021681044886070BDA0FB010192185B4162
:10399000FCF718FC0146B0FBF5F00201B1FBF5F0B5
:1039A0006FF01803584301EB800006EBC000B0FB3A
:1039B000F5F000F0F80002EB4002B1FBF5F05843DF
:1039C00001EB800006EBC000B0FBF5F000F0070053
:1039D000D6E700000010014000140140816282859A
:1039E000C28500210164222280F83E2080F83C102C
:1039F000016921B10168CA6842F48072CA60016835
:103A00004A6942F001024A610068C16841F0200140
:103A1000C160002070472DE9F041984617460E46D8
:103A20000446069D27E0681C25D02DB1FDF72EFB2E
:103A3000A0EB0800A8421ED920680C3050E8001FF7
:103A400021F4D07140E80012002AF5D1206814302A
:103A500050E8001F21F0010140E80012002AF5D1D2
:103A6000202084F83D0084F83E00002084F83C00CB
:103A70000320BDE8F0812068006836EA000004D029
:103A80000020B842CFD00020F3E70120F9E7000082
:103A90000148FEF7ABBC000010C30120FEE70000A8
:103AA000064805494FF4007281660549416600F1F8
:103AB0006C0103F0FBB90000097F000800F201204F
:103AC000057F00080FB4054B10B503A9044A0298FE
:103AD00001F060F810BC5DF814FB00007D5A00088E
:103AE0000000002003B401984100009850EAC12072
:103AF00018BF04204A0D18BF40F0010040F2FF72C9
:103B0000B2EB515F08BF40F00200012808BF05205A
:103B100002B070470907090E002804DB00F1E0201D
:103B200080F80014704700F00F0000F1E02080F8EA
:103B3000141D7047000000002DE9F04D2DED040B21
:103B40002DED0E8B96B0DDE92550279CDDF890A079
:103B500025F0004624F00048BAF1000F14BF0121FF
:103B6000002101EB4502FC4953184A1093422AD325
:103B7000002814BF0123002303EB44030B44F7493F
:103B80008B4220D358EA00019FEDF59B76D0DFF8F9
:103B9000D8B35D4503D1BAF1000F05D188E0BAF181
:103BA000000F08BF002100D0012101EB450111F5F4
:103BB000001F08D8002814BF0121002101EB440197
:103BC00011F5001F0BD99DED261B9DED240B16B0A2
:103BD000BDEC0E8B04B0BDE8F04D00F069BE0027CF
:103BE000002DBCBFE149884521DAE1498845A8BFDD
:103BF00002271CDAC3451ADCDE4901EB28511429DF
:103C000008DDC1F1340220FA02F101FA02F2824227
:103C10000DD108E058B9C1F1140228FA02F101FAF5
:103C200002F2424503D101F00101C1F1020756EA57
:103C30000A0124D1002C22DA002D18BF022F01D056
:103C4000012F0AD0022000F07FFE16B0BDEC0E8BD3
:103C500004B0BDE8F04D00F013BE022000F074FE89
:103C600000F00EFE51EC100B81F0004141EC100B06
:103C700016B0BDEC0E8B04B0BDE8F08D18E09FEDE2
:103C8000BEAB9FEDBF8B002871D1B848804522D1D3
:103C900005F1804010F5801008BFBAF1000F07D081
:103CA000B3450ADC002CA8BF9DED260BE0DA0DE041
:103CB000B0EE490AF0EE690ADAE7002C06DA9DED6B
:103CC000260B51EC100B81F000416FE0AE487844B8
:103CD00090ED000BCCE7D8454DD1002C48DA2EB141
:103CE00086423AD1BAF1000F42D126E0BAF1000F74
:103CF00013D0022000F028FE00F0F6FD8DED020B3F
:103D00009DED240B8DED000B10EE900A039961F3ED
:103D10001E0003909DED020BAAE78DED02AB9DED19
:103D2000240B1AEE901A10EE900A8DED000B61F341
:103D30001E0003909DED020B9AE78DED028B9DED29
:103D4000240B18EE901A10EE900A8DED000B61F323
:103D50001E0003909DED020B8AE709DA9DED240B0E
:103D600051EC190B53EC102BFCF7BEFB1EE020E0CE
:103D70009DED240B7CE786421BDAB4F1804F0DD019
:103D8000A4F10050B0F1FF5013D1002D11DB9DEDD7
:103D9000240B51EC100B03F0E9FD07E09DED240B23
:103DA00053EC102B51EC100B00F0C2BC41EC100B8B
:103DB0005EE79DED240B51EC100B01F03BFDBAF1D9
:103DC000000FCDE90E0142D19FED710B46B3A6F174
:103DD000E040B0F17F600CD05E4538D1002D00DAB4
:103DE000A7B3022F0CBF01204FF0FF30FCF7EBFB15
:103DF000DCE7002D01DD002C0DDA002D01DD002CAB
:103E00001FDB002D16DA002C14DB012F08BF9FEDFD
:103E1000620B3FF42DAFB0EE4A0AF0EE6A0A27E7D4
:103E2000022F18BF002D0CD0012F0AD1002DFFF654
:103E30001FAF06E0002DB8BF002C08DA012F3FF4B9
:103E400017AFB0EE480AF0EE680A11E71BE0012058
:103E500000EBE57050EA070115D0791EB0EE498AF3
:103E6000F0EE698A084308BF9FED4D8B4E48002550
:103E7000804570DD4D494E48884514DDB0420DDB6C
:103E8000002C19DB2FE0012000F05EFD16B0BDEC28
:103E90000E8B04B0BDE8F04D00F016BDB34502DC5A
:103EA000002C09DC1FE0864202DA002C1BDA03E05A
:103EB0005E452BDD002C16DD022000F045FD00F0F4
:103EC00013FD8DED020B53EC1A2B51EC180BFCF784
:103ED00099FACDE900010399019861F31E0003905E
:103EE0009DED020BC4E6022000F02EFD00F00CFD5B
:103EF00010EE901A18EE900A8DED020B8DED008BEE
:103F000061F31E0003909DED020BB1E69DED0E0BDB
:103F100053EC192B51EC100BFCF76EFA9FED260BAE
:103F2000CDE9080153EC102B9DED080B51EC100B63
:103F3000FCF768FA9FED221B53EC112BFCF75FFA9C
:103F40009DED081B53EC112BFCF75CFA9FED1E1B3B
:103F500053EC112B3CE08CE0FFFF1F00FFFF0F0034
:103F6000000000000000F03F0000F03F0000F07F84
:103F70000000404301FCFFFF000000000000F07F54
:103F800000000000000000005E440000000000008F
:103F90000000000000000080000000000000F0FFB2
:103FA000000000000000F0BF0000E0410000F0430E
:103FB000FFFFEF3F00000000000000000000D03FC6
:103FC000555555555555D53F000000000000E03FC0
:103FD000FCF715FA9DED080B41EC1A0B53EC102B76
:103FE00051EC100BFCF70EFA53EC1A2BFCF70AFA03
:103FF00041EC1A0B9FEDFE0B53EC102B9DED080BC3
:1040000051EC100BFCF7FEF941EC1B0B9FEDFA0B8A
:1040100051EC1A0B53EC102BFCF7F4F941EC1A0B92
:104020009FEDF70B53EC102B9DED080B51EC100B93
:10403000FCF7E8F953EC1A2BFCF7DEF941EC1A0B0C
:1040400051EC1B0B53EC1A2BFCF735F90690CDE91C
:1040500006519DED060B53EC1B2B51EC100BFCF79E
:10406000CBF953EC1A2BFCF7CAF941EC100B00F01A
:10407000A1B90020B6F5801F0EDA9FEDE30B53ECDB
:10408000102B9DED0E0B51EC100BFCF7BBF9CDE99D
:104090000E016FF034000E4600EB2650A0F2FF3701
:1040A000C6F31300DA4940F07F6646F04056884276
:1040B000D8BF002408DDD7498142C8BF012403DCF2
:1040C0000024A6F580167F1CD348784400EBC4007A
:1040D0000F9690ED00CB9DED0E0B53EC1C2B51EC8D
:1040E000100BFCF789F99DED0E0B41EC1B0B53EC0B
:1040F0001C2B51EC100BFCF7DEF841EC100B51ECD3
:10410000190B53EC102BFCF7EFF941EC1D0B51ECA4
:104110001B0B53EC1D2BFCF775F941EC1A0BBF4838
:104120008DED10AB7844109590ED000B4FF00050E2
:1041300040EA660000EB84408DED080B00F500209E
:1041400009909DED080B53EC1C2B51EC100BFCF768
:1041500053F99DED0E1B53EC112BFCF750F941EC7C
:10416000100B53EC102B9DED100B51EC100BFCF7CA
:1041700049F99DED080B41EC1C0B53EC102B9DED08
:10418000100B51EC100BFCF73DF953EC1B2BFCF71B
:1041900036F953EC1C2BFCF72FF953EC1D2BFCF7D5
:1041A00031F941EC1C0B53EC1A2B51EC1A0BFCF7B8
:1041B00029F941EC1B0B9A480621B0EE4B0AF0EEB0
:1041C0006B0A784400F0E0FAB0EE401AF0EE601AA4
:1041D000B0EE41DAF0EE61DA53EC1B2B51EC1B0B25
:1041E000FCF710F953EC1D2BFCF70CF99DED100BAF
:1041F00041EC1B0B53EC1A2B51EC100BFCF75BF84A
:1042000053EC1C2BFCF7FEF853EC1B2BFCF753F87C
:104210009DED100B41EC1B0B53EC102B51EC100BD4
:10422000FCF7F0F841EC1D0B9FED7FEB53EC1E2BE0
:10423000FCF741F853EC1B2BFCF73DF80890CDE957
:1042400008519DED080B53EC1E2B51EC100BFCF7A5
:10425000D3F853EC1D2BFCF7CFF853EC1B2BFCF7DA
:10426000CEF89DED080B41EC1D0B53EC102B9DED92
:10427000100B51EC100BFCF7C5F841EC1B0B53EC89
:104280001A2B51EC1D0BFCF7BDF89DED080B41EC12
:104290001A0B53EC102B51EC1C0BFCF7B3F853EC3E
:1042A0001A2BFCF708F841EC1A0B51EC1B0B53ECE2
:1042B0001A2BFCF700F80C90CDE90C519DED0C0B7E
:1042C00053EC1B2B51EC100BFCF796F853EC1A2B0C
:1042D000FCF795F841EC1B0B9FED550B53EC102BA5
:1042E0009DED0C0B51EC100BFCF78CF841EC1A0B0C
:1042F0009FED510B51EC1B0B53EC102BFCF782F88C
:1043000041EC1B0B9FED4E0B53EC102B9DED0C0B5A
:1043100051EC100BFCF776F853EC1B2BFBF7CBFFA3
:1043200041EC100B4848784400EBC40090ED001BB2
:1043300051EC100B53EC112BFBF7BDFF41EC1B0BA9
:104340003846FCF740F9CDE9080153EC1B2B51EC42
:104350001A0BFBF7B0FF41EC100B3C48784400EB24
:10436000C40090ED00CB51EC100B53EC1C2BFBF771
:10437000A2FF9DED081B53EC112BFBF79CFF069051
:10438000CDE906519DED080B53EC102B9DED060B6E
:1043900051EC100BFCF730F853EC1C2BFCF72CF80D
:1043A00053EC1A2BFCF728F853EC1B2BFCF727F8DF
:1043B00041EC100B9DED261B53EC102B8DED001BDB
:1043C00000959DED260B51EC100BFCF71BF89DEDB5
:1043D000000B41EC1A0B53EC102B9DED260B51EC0E
:1043E000100BFCF709F89DED061B53EC112B2FE089
:1043F000000000604715F73FFE822B654715F73F29
:1044000044DF5DF80BAE543E000000000000404366
:104410008E9803007AB60B00DA3F000008400000D7
:10442000123F0000000000000000000000000840F3
:10443000000000E009C7EE3FFD033ADC09C7EE3F8C
:10444000F5015B14E02F3EBE9E3D0000583D00008C
:10445000FBF7D8FF53EC1A2BFBF72DFF9DED060B56
:1044600041EC1A0B53EC102B9DED000B51EC100B93
:10447000FBF7C8FFCDE90C019DED0C0B51EC1A0BBD
:1044800053EC102BFBF717FFCDE902010C46AA49AC
:104490008C422FDB611A084318D19DED0C0B53ECB5
:1044A000102B9DED020B51EC100BFBF7A5FF41EC1F
:1044B0001B0B9FEDA30B51EC1A0B53EC102BFBF7CE
:1044C000FAFE53EC1B2BFCF7F5F92DD2022000F07D
:1044D0003BFA00F009FA10EE901A18EE900A8DEDF2
:1044E000020B8DED008B61F31E0003909DED020B1E
:1044F000FFF7BEBB944A24F00041914214D3934984
:10450000214408437FF4EFAC9DED0C0B53EC102BD2
:104510009DED020B51EC100BFBF76EFF53EC1A2BC9
:10452000FCF7C8F97FF6DFAC24F000408849894ADF
:10453000002601EB205182422BDA481C4FF48011F7
:1045400021FA00F02044844AC0F30A517A44A1F2CF
:10455000FF3192ED000B814A8DED080BCA4020EA35
:104560000202C0F3130040F48010C1F1140120FADC
:1045700001F60992002CB8BF76429DED080B53EC72
:10458000102B9DED0C0B51EC100BFBF735FFCDE91B
:104590000C019DED0C0B51EC1A0B53EC102BFBF79F
:1045A0008AFE9FED6F0B0890CDE9085153EC102B5C
:1045B0009DED080B51EC100BFBF724FF41EC1B0B9E
:1045C0009FED690B53EC102B9DED080B51EC100B7C
:1045D000FBF718FF9DED0C0B41EC1C0B53EC102B63
:1045E0009DED080B51EC100BFBF706FF53EC1A2B5B
:1045F000FBF705FF9FED5E1B53EC112BFBF702FF52
:1046000053EC1C2BFBF757FE41EC1A0B51EC1B0B28
:1046100053EC1A2BFBF74FFECDE902019DED020B87
:1046200053EC1B2B51EC100BFBF7E6FE53EC1A2B53
:10463000FBF7E5FE9DED020B41EC1A0B53EC102B42
:1046400051EC100BFBF7DEFECDE908014A489DED69
:10465000080B0521784400F097F89DED081B51ECFC
:10466000100B53EC112BFBF7CDFE9DED021B53EC11
:10467000112BFBF7C4FECDE906019DED020B53ECB7
:104680001A2B51EC100BFBF7BDFE53EC1A2BFBF76A
:1046900012FE9FED3B0B41EC1A0B53EC102B9DEDE2
:1046A000060B51EC100BFBF7A7FE9DED060B41EC42
:1046B0001B0B53EC102B9DED020B51EC100BFBF779
:1046C000A1FE53EC1B2BFBF70FFF53EC1A2BFBF750
:1046D00093FE9DED021B53EC112BFBF78DFE53EC6B
:1046E000192BFBF78CFECDE9020101EB06500115F9
:1046F0000029C8BF039015DC9DED020B324651EC3A
:10470000100BFCF7A7F8FFF7EDF9042808BF00F03D
:10471000FBF832469DED020B51EC100BFCF79AF8BA
:10472000CDE902019DED020B51EC180B53EC102B5F
:10473000FBF768FEFFF73ABB000090400000000066
:10474000FE822B654715973C00CC904000346F3FAC
:1047500001FCFFFF0000E03FE03B0000FFFF0F0017
:1047600000000000432EE63F396CA80C615C20BEBF
:10477000EF39FAFE422EE63FB03A0000000000009A
:10478000000000000000004070B504462DED028BD3
:104790004D1E00EBC500B0EE408AF0EE608A90ED51
:1047A000000B35F0060017D053EC182B51EC100B12
:1047B000FBF728FE41EC100B6D1E04EBC50090EDDD
:1047C000001B51EC100B53EC112BFBF774FD41EC6B
:1047D000100B35F00600E7D1022D36D0042D1CD089
:1047E000062D1CBFBDEC028B70BD53EC182B51EC99
:1047F000100BFBF707FE94ED0A1B53EC112BFBF794
:104800005AFD53EC182BFBF7FDFD94ED081B53EC00
:10481000112BFBF750FD41EC100B53EC182B51EC16
:10482000100BFBF7EFFD94ED061B53EC112BFBF780
:1048300042FD53EC182BFBF7E5FD94ED040B53EC14
:10484000102BFBF738FD41EC100B53EC182B51ECFF
:10485000100BFBF7D7FD94ED021B53EC112BFBF76C
:104860002AFD53EC182BFBF7CDFD94ED001B53EC08
:10487000112BFBF720FDBDEC028B41EC100B70BD42
:104880009FED070B10B553EC102B9FED070B51EC70
:10489000100BFBF729FE41EC100B10BD00000000CF
:1048A0000000000000000000000000000000F03FD9
:1048B00010B553EC112B51EC100BFBF7FCFC41EC49
:1048C000100B10BD000000009FED050B10B553EC60
:1048D000102B51EC100BFBF707FE41EC100B10BD39
:1048E00000000000000000009FED050B10B553EC28
:1048F000102B51EC100BFBF785FD41EC100B10BD9C
:1049000000000000000000709FED050B10B553EC97
:10491000102B51EC100BFBF775FD41EC100B10BD8B
:10492000000000000000001002E008C8121F08C1CB
:10493000002AFAD170477047002001E001C1121F20
:10494000002AFBD170470000014908607047000051
:1049500094C00120A3F5C04246F26201603A07D03C
:104960008B420AD10088022807D104A0FFF7AAB819
:104970000088012801D103A0F8E77047CFC2D2BB5D
:10498000D2B30A00C9CFD2BBD2B30A002DE9FF5F70
:1049900082B00021DDE90430020DDDF840B00343B0
:1049A00018D044F61050A2F2FF3242431514119869
:1049B00001281FD0A5EB0B00401C5FEA000A4FF056
:1049C00000064E4FDFF83891B046504615D5CAF173
:1049D000000413E0119801244AA3012801D16FEAD1
:1049E0000B010298119AC0E90031C0E9024206B0F9
:1049F000BDE8F09FCBF10000DFE704460021404A0C
:104A0000491842EB0450CDE9001012E0E00707D04E
:104A100032463B4640464946FBF7F4FC8046894611
:104A200032463B4610461946FBF7ECFC06460F465D
:104A30006410002CEAD1DDE90401DDE90023BAF1BC
:104A4000000F06DAFBF7DEFC42464B46FBF7DAFCCA
:104A500005E0FBF749FD42464B46FBF745FD0446A2
:104A60000E460022284BFBF725FF03D84FF0FF30FE
:104A7000014607E00022254B20463146FBF71BFC90
:104A8000FBF7FFFE102409E0002C0ADB0A220023BA
:104A9000FBF798FB039B30321A55641E50EA010263
:104AA000F2D1641C039AC4F111031444119A012A2F
:104AB00003D0012208430DD10AE0084304D00020AE
:104AC0004FF0110B119072E7A3EB0B056D1E0DE07B
:104AD0005B4504DD4FF0000205F1010504E003DA57
:104AE0004FF00002A5F10105002AECD002981199BF
:104AF000C0E90231C0E9004579E700000000144038
:104B00000000F03F300000000000F0430000E03FF4
:104B1000F8B50024022A09D1822901D0802905D1C3
:104B200005784F2D02D145784B2D04D0832908D02C
:104B3000812918D022E015A0FEF7C4FF4FF0FF3006
:104B4000F8BD03881C0A44EA03239BB2847800253D
:104B500005E0461937794755F7787770AD1CB5EB06
:104B6000440FF6D30AE003784478002504E04619A0
:104B7000B67846556D1CEDB2A542F8D3044DAD682C
:104B80000DB10094A8472046F8BD00004F4B0A0025
:104B9000080000202DE9FF4F95B09A46884606464A
:104BA0000025EEE1252877D100242746F94A012186
:104BB000039400E0044316F8013F203B01FA03F0A0
:104BC0001042F7D130782A2811D06FF02F033078B7
:104BD000A0F13002092A16D8039A44F0020402EB2D
:104BE000820203EB42021044761C0390EFE758F870
:104BF000042B0392002A03DA504244F40054039039
:104C000044F00204761C30782E2816D116F8010FD5
:104C100044F004042A280DD06FF02F023078A0F160
:104C20003003092B09D807EB870302EB4303C718AE
:104C3000761CF3E758F8047B761C30786C280FD08C
:104C400006DC4C2817D068280DD06A2814D104E05F
:104C5000742810D07A280FD10DE044F400140AE033
:104C600044F4801401E044F440147278824202D18A
:104C700004F58014761C761C307866280BD013DC83
:104C8000582877D009DC002875D04528F6D046286A
:104C9000F4D047281AD193E118E0632835D064286E
:104CA00079D0652812D18BE1702873D008DC672891
:104CB000F1D069286FD06E280DD06F2806D1ACE0F6
:104CC00073282CD0752874D0782853D05246179961
:104CD00090476D1C54E1C4F30250022809D0032808
:104CE0000DD0D8F8001004280DD00D6008F104088C
:104CF00046E1D8F80010EA17C1E90052F6E7D8F803
:104D000000100D80F2E70D70F0E718F8041B8DF825
:104D1000001000208DF80100EB46012003E058F858
:104D200004BB4FF0FF3061074FF0000102D40DE0EB
:104D300009F101018946B9420FDA8145F8DB1BF818
:104D400009100029F4D108E009F1010189468142E6
:104D5000FADB1BF809100029F6D103985346A0EBA3
:104D6000090721463846179A00F080FA284400EBDC
:104D7000090507E044E008E10DE01BF8010B52468D
:104D800017999047B9F10109F7D2534621463846A1
:104D9000179AF2E039E00A21C4F302524FF0000BF7
:104DA0000091022A06D058F8040BC117032A09D033
:104DB0000AE023E008F1070020F00702F2E8020110
:104DC000904605E000B2C117042A01D140B2C117D4
:104DD000002906DA0A460021404261EB02012D2239
:104DE00002E0220504D52B228DF80420012203E0E5
:104DF000E20701D02022F7E7914657E00A2100E0C0
:104E000010214FF0000B00910BE010214FF0000B30
:104E100044F004040827009103E008204FF0000B41
:104E20000090C4F30252022A05D058F8040B002166
:104E3000032A08D008E008F1070020F00702F2E892
:104E40000201904603E080B2042A00D1C0B24FF0C4
:104E5000000922072AD53278702A07D0DDF800C071
:104E60008CF0100C5CEA0B0C05D00EE040228DF8A3
:104E70000420012208E050EA010306D030238DF817
:104E800004308DF8052002229146009B83F0080330
:104E900053EA0B030AD150EA010201D1620705D59A
:104EA00030228DF804204FF001097F1E3278582AF5
:104EB00004D039A20C920CAA02920BE03BA2F9E7B3
:104EC0005B46009AFBF77EF90C9B9B5C029A521E94
:104ED0000292137050EA0102F2D1029804A9081A52
:104EE00000F1200B600702D524F4803400E0012794
:104EF0005F4502DDA7EB0B0000E0002000EB0B019B
:104F0000009003984944401A0390E00306D45346A6
:104F10002146179A039800F0A9F90544002706E0F6
:104F200001A85246C05D179990476D1C7F1C4F45E4
:104F3000F6DBE0030CD553462146179A039800F0A0
:104F400095F9054404E030205246179990476D1CAE
:104F50000099481E00900029F5DC08E002980299AB
:104F600052460078491C0291179990476D1CBBF17D
:104F70000001ABF1010BF1DC5BE100F065F90544E8
:104F8000761C307800287FF40DAE19B02846BDE8B5
:104F9000F08F0000092801003031323334353637C4
:104FA0003839616263646566000000003031323375
:104FB0003435363738394142434445460000000015
:104FC000600700D4062708F1070020F00700F0E88A
:104FD0000223804603F0004C5FEA0C0001D097A04A
:104FE00009E0200501D596A005E0E00701D095A0D5
:104FF00001E0AFF24C001390307823F000436528B5
:105000000CD006DC452809D046281DD047287FD182
:105010003BE0662818D067287AD136E00021112FAE
:1050200001DB112000E0781CCDE9000104A90CA8E7
:10503000FFF7ACFCDDE90D010C9A4FF0000B07F116
:105040000109109200914EE04FF000400097CDE929
:10505000011004A90CA8FFF799FCDDE90D020C9BD7
:105060000F994FF0000B91461093009211B9791CE3
:1050700000EB0109B7EB090003D4C0F1FF3B07F1D6
:105080000109A9EB0700019042E0012F00DA012796
:105090000021112F01DD112000E03846CDE900018B
:1050A00004A90CA8FFF772FCDDE90D010C9A009130
:1050B0004FF0000BB946109221070FD4009A4A45D1
:1050C00003DA914601E0A9F10109B9F1010F05DD0B
:1050D000109AA9F10101515C3029F4D0B84202DAEA
:1050E00010F1040F03DA0121CDE9011010E00028CE
:1050F00003DC8344A9EB000102E0411C494500DDCB
:105100008946A0EB0B00401C01904FF0004002903C
:10511000200705D40198484502DB4FF0FF3001908D
:1051200000208DF84B0002980DF14B07B0F1004FB5
:1051300025D002200C902B200D90029800280CDA2C
:10514000404202902D200D9007E00A210298FBF7C3
:10515000A6FA3031029007F8011D0C99481E0C90F8
:105160000029F2DC02980028EFD1791E0D98087012
:10517000307800F0200040F0450007F8020D11A83B
:10518000C01BC01D02901398007800B1012000EBF5
:105190000901019801EBE071029801440398401A5B
:1051A000401E0390E00306D453462146179A039805
:1051B00000F05CF805441398007818B1524617992E
:1051C00090476D1CE00323D553462146179A039858
:1051D00000F04CF805441BE0BBF1000F07DB009822
:1051E000584504DD1098179910F80B0001E0179945
:1051F00030205246904701980BF1010B401E05F1FB
:105200000105019004D12E205246179990476D1C3C
:10521000B9F10001A9F10109DEDC05E017F8010B85
:105220005246179990476D1C0299481E029000291A
:10523000F4DC53462146179A03989EE62D000000A1
:105240002B000000200000002DE9F041044600255D
:105250001E461746880404D405E039462020B0478E
:105260006D1C641EF9D52846BDE8F0812DE9F0419A
:10527000044600251E469046C80301D5302700E0AD
:105280002027880404D505E041463846B0476D1C08
:10529000641EF9D52846BDE8F081000010B502482B
:1052A00000F02FFDC0B210BD34F1012008B501217E
:1052B000684601F051F89DF8000008BD89B201F080
:1052C00055B8704778B50023051D12E031F813403A
:1052D000260A46EA0424ADF8004090F82440BDF8C0
:1052E00000602C44268090F82440A41C80F82440C0
:1052F0005B1C9342EAD378BD03B54FF6FF72019968
:10530000914204D2012201A9FFF7DCFF0CBD10F885
:10531000243FA0F120021A4409BA11600178091D46
:1053200001700CBD70B51546044690F82420001D90
:1053300010442A46FAF777FF14F8240F2844207007
:1053400070BD00F07DBB00002DE9F04704462DED57
:10535000088B4FF448724FF4487501FB02F3684321
:105360003C22AD4D4FF000088C4207DD93FBF2F17B
:1053700090FBF2F04FF00108296004E090FBF2F09E
:10538000286093FBF2F06860D5E90001F6EE009A20
:10539000014401EBD17120EE299AC0EB610000EECF
:1053A000100AF0EE000A19EE100AB8EEC00A20EE5C
:1053B000200A69EE090A80EE201AF0EEC18AFBF796
:1053C0003FF941EC100B9FED951BFEF7B5FBB0EEDE
:1053D00040AAF0EE60AA18EE900AFBF731F953EC00
:1053E0001A2BFBF70FF89FED8F1B53EC112BFBF7DC
:1053F0007BF82C6841EC1A0B00EE104AB8EEC00A9C
:1054000020EE090A10EE100AFBF71AF953EC1A2BDA
:10541000FAF751FFFBF7F5F807466868204400EEFD
:10542000100AF8EEC00A00EE107AB8EEC00A10EECC
:10543000890ABDEEC00A10EE101ACC19E00700D0A0
:10544000641CA1000020091D01F0C0F8061E7DD0DB
:10545000F1EE080A80EEA80A10EE100AFBF7F0F849
:1054600041EC100B9FED711BFEF766FB51EC100B2E
:10547000FBF7F9F808EE100A18EE100AFBF7E0F84F
:1054800041EC100B9FED6BBBB0EE4B1AF0EE6B1ABC
:10549000FEF752FB68EEA98AB0EE40AAF0EE60AAD1
:1054A00018EE900AFBF7CCF853EC1A2BFAF7AAFF88
:1054B000FBF7D9F8D5ED000A00EE100A5F49F8EEC7
:1054C000E00AA94630EE800A10EE100A86ED000AC6
:1054D000884203DC9FED5A0A86ED000A012571E03F
:1054E00006EB850AB7EE001A5AED010ABD4281EEBD
:1054F000200A38EE008A31DA18EE100AFBF7A0F81D
:1055000041EC100BB0EE4B1AF0EE6B1AFEF714FBE9
:10551000B0EE40AAF0EE60AA18EE900AFBF790F801
:10552000B0EE4A0AF0EE6A0A53EC102BFAF76AFF63
:10553000FBF799F8D9ED000A00EE100A781EF8EE94
:10554000E00A30EE800A8AED000A00E05FE0854262
:1055500037D138EE490AB0EEC08A32E039EE480A57
:10556000B0EEC00A10EE100AFBF76AF841EC100B1F
:10557000B0EE4B1AF0EE6B1AFEF7DEFAB0EE40AA70
:10558000F0EE60AA18EE900AFBF75AF853EC1A2BCB
:10559000FAF738FFFBF767F8D9ED010A00EE100AB9
:1055A000F8EEE00A30EEC00A8AED000AD9ED010AF1
:1055B000F8EEE00AB4EEE00AF1EE10FA01DB2C4658
:1055C00002E06D1CA5428BDBB8F1000F1AD0002061
:1055D00004EBD4730EE000BF221A06EB820206EB46
:1055E000800152ED010A91ED000AC1ED000A02EDC1
:1055F000010A401CB0EB630FEEDBC9F81460C9F878
:105600000C4003E0C9F81060C9F808400120BDEC67
:10561000088BBDE8F087000088F101200000000041
:10562000000008400000000000001840000000607A
:105630005555D53F0000000000000040F42474419F
:10564000F424744100F01EB8FBF704BC10B5034C01
:10565000C4E90420C4E9023110BD000008000020A4
:1056600010B525210448FAF7F7FD0349002081F819
:105670002400084610BD000040E1012080F82410FD
:10568000704700002DE9F041234C4FF0FF3760696F
:1056900070B300256069804700281ED0E06880470D
:1056A00006466078D8B1012825D002282DD00328DD
:1056B0002ED00428EED1194960680E54401C606059
:1056C000A178491E8842E5DBA078E178401EC2B28D
:1056D0001248FFF71DFA65706560BDE8F081202172
:1056E0000E48FAF7B9FDA570E5705A2E01D0656035
:1056F00006E0012007E0A52E04D01EB165606570AC
:105700003846EAE702206070C4E7A6700320FAE793
:10571000E6700420F7E700000800002065E10120A2
:1057200002490144842000F020B800000000015A22
:10573000F7B514460D46FFF793FF0646012269466A
:10574000FFF7C0FD1CB92846FAF791FDC4B2224606
:1057500029463046FFF7E6FD21463046FFF78EFF2B
:105760003146822000F0B6FFFEBD73B50D46FFF74F
:1057700077FF044601226946FFF7A4FD294620462B
:10578000FFF7BAFD2146822000F0A4FF7CBD000097
:1057900010B51E4B1E4A1F491F48FFF757FF022036
:1057A000FFF7BEFF00214FF4C040FFF7DEFF0021EE
:1057B00046F20200FFF7D9FF002146F20400FFF78E
:1057C000D4FF002146F20600FFF7CFFF002146F28A
:1057D0000800FFF7CAFF002146F22000FFF7C5FFCF
:1057E000002146F20A00FFF7C0FF002146F20C003C
:1057F000FFF7BBFF0A2209A18120FFF799FF0C22C6
:10580000BDE8104008A18220FFF792BF554900086B
:10581000BD520008AD5200089D52000820202020F3
:1058200020202020000000002020202020202020F8
:105830002020000082B0CDE9000121F0004001905D
:105840009DED000B02B051EC100B70472DE9F047B5
:10585000654E00274FF001083078B946401EC5B2AA
:10586000746894E0E07E410909D0A1894FF6FF7287
:10587000491C89B2A181914201D3218BA1814109A7
:1058800004D001291BD002297CD195E0F26808FAE6
:1058900005F111420FD0A4F80C90A4F80E9020F05E
:1058A0001E00E076A16809B120468847E07E20F01E
:1058B000E000203062E020F01E0016305EE0F2686A
:1058C00008FA05F1114241D0E189B1B1A289238AD8
:1058D0009A4257D9032900D3032161F34400E076AB
:1058E000A16809B120468847E07E20F0E000203022
:1058F000E0764846A4F80C905CE0A189228B9142A6
:105900000AD3C0F3430108293CD020F01E00103018
:105910000CE02046884732E0E28A91420BD3C0F384
:10592000430106292ED020F01E000C30E076A1683D
:105930000029EED123E0A28A914223D3C0F3430190
:1059400004291FD020F01E000830EFE7A189228B28
:10595000914206D320F01E00123008E0204688470E
:1059600009E0E28A914218D320F01E000E30E07662
:10597000A1680029F2D1E07E20F0E000E076E07E30
:10598000400901D07F1CFFB224686D1EEDB2002CCF
:105990007FF468AF3846BDE8F087A28A914203D30E
:1059A00020F01E000A30E2E720F0E0004030E07610
:1059B000E089401CE081E2E7F26808FA05F1114253
:1059C00006D020F0E0002030E076A4F80C90D6E776
:1059D000A189228A9142D5D9E189032900D30321E3
:1059E00061F34400C3E7000080C0012030B51349D3
:1059F0004FF0FF354A68144628B10B78202B02D8A7
:105A000004E0824201D1284630BD1268002AF8D154
:105A10000460C27E002422F0FE021632C276848127
:105A2000C4810F240482486002F001008A68984013
:105A300010435B1C8860D8B2087030BD80C0012064
:105A40002DE9F0410C4E002430787568401EC7B235
:105A500006E028468847B84004432D687F1EFFB201
:105A600015B169680029F4D1B168E0434840F0609D
:105A7000BDE8F041FFF7EABE80C0012013B54FF644
:105A8000FF73012269460248FCF70AFF00981CBD1B
:105A900010C3012010B5027B074B0021064C43F8D0
:105AA0002210FF22037B5034E25441734160816035
:105AB00001604161016110BDDCE001200021416015
:105AC000016001727047F0B40C7AC4B100230A6817
:105AD00006E005681668B54204D912695B1CDBB2A2
