:020000040800F2
:1000000008F8012049020008472B00089127000842
:10001000452B000865130008293500080000000082
:100020000000000000000000000000004130000857
:100030003D14000800000000492B00084330000870
:1000400063020008630200086302000863020008FC
:1000500063020008630200086302000863020008EC
:1000600063020008630200086302000869130008C5
:1000700063020008630200086302000863020008CC
:1000800063020008630200086302000863020008BC
:1000900063020008630200086302000863020008AC
:1000A000630200086302000863020008630200089C
:1000B000630200086302000863020008630200088C
:1000C000630200086302000863020008630200087C
:1000D000630200086302000863020008630200086C
:1000E000630200086302000863020008630200085C
:1000F0006302000863020008630200087513000829
:10010000630200086302000863020008630200083B
:10011000630200086302000863020008630200082B
:100120008113000863020008630200088D130008B1
:10013000630200086302000863020008630200080B
:1001400063020008630200086302000863020008FB
:1001500063020008630200086302000863020008EB
:1001600063020008630200086302000863020008DB
:100170006302000863020008630200080000000038
:10018000630200086302000800F002F800F04CF877
:100190000AA090E8000C82448344AAF10107DA45E2
:1001A00001D100F041F8AFF2090EBAE80F0013F0E8
:1001B000010F18BFFB1A43F001031847D04200009B
:1001C00010430000103A24BF78C878C1FAD852070B
:1001D00024BF30C830C144BF04680C6070470000C1
:1001E0000023002400250026103A28BF78C1FBD840
:1001F000520728BF30C148BF0B607047642900F028
:100200001581782900F07981002070471FB504F02E
:10021000F7F89DE8030000F027FB00F063FC1FBD2A
:1002200010B500F0C8FC10BD00F032FD1146FFF71C
:10023000EDFF03F079FD00F0FBFE03B4FFF7F0FFE4
:1002400003BC00F033FF000009488047094800471D
:10025000FEE7FEE7FEE7FEE7FEE7FEE7FEE7FEE776
:10026000FEE7FEE704480549054A064B70470000D3
:10027000DD3000088901000808F2012008F801209B
:1002800008F4012008F4012070B50446051F00F0B1
:10029000CFFA0068002C14BF446870BD002C18BF52
:1002A000AC423CBF20466468F8D301680A18AA42F1
:1002B00018BF456003D12A680546114401602868CB
:1002C0004119A1421CBF6C6070BD61686960216802
:1002D0000844286070BD53EA020C00F069802DE9E3
:1002E000F04B4FF00006002B1FBFB3FA83F503FA63
:1002F00005F424FA05F65E4012BF1643B2FA82F501
:1003000002FA05F4C5F120051EBF22FA05FC44EAF5
:100310000C04203556EA044C4FEA144418BF641C00
:100320004FF000084FF00009904271EB030C39D3F5
:10033000002919BFB1FA81F701FA07F6B0FA80F780
:1003400000FA07F6C7F120071EBF20FA07FC46EAAD
:100350000C062037B6FBF4FCA7EB0507103F07F0AF
:100360001F0BCBF120060CFA0BFB2CFA06F644BF50
:10037000B3460026202FA4BF5E464FF0000B5BEA79
:10038000060C08BF4FF0010B19EB0B09ABFB027C0D
:1003900048EB0608C01B06FB02CC0BFB03CC71EB41
:1003A0000C01C1E70B46024641464846BDE8F08BCA
:1003B00013B54FF000004FF00001AFF30080BDE82F
:1003C0001C4070470FB4044910B503AA029800F00E
:1003D0001BFB10BC5DF814FB00F1012070B5044656
:1003E00085690068C10601D5302600E02026C007D7
:1003F00007D070BDD4E9012130469047206A401CE7
:1004000020626D1EF6D570BD70B504468569007812
:10041000C00707D170BDD4E9012120209047206A90
:10042000401C20626D1EF6D570BD00002DE9F04124
:100430000646002410687529314616A510D0AFF382
:100440000080002802DA404213A507E031688A07DD
:1004500001D512A502E0490704D511A5012401E048
:10046000AFF3008000210A2206F1240709E0B0FB67
:10047000F2FCB0FBF2F302FB1C003030785418465B
:10048000491C0028F3D123462A463046BDE8F041F6
:1004900000F048BA000000002D0000002B00000012
:1004A00020000000F0B40D460188090502D5214C5A
:1004B0007C4402E01F4C7C440E34002100F12406F1
:1004C00008E002F00F071209E75D42EA03721B0918
:1004D0007754491C52EA0307F3D10278002312072C
:1004E00004D5702D06D009B1022311342246F0BC88
:1004F00000F018BA01231034F8E770B504460D4631
:1005000021461068AFF30080024629462046BDE828
:1005100070400023C6E7D21D22F00703D3E9002371
:10052000C0E70368126843F0200303600823C36137
:100530000023B7E7903F00002DE9F05F89460446AD
:100540004FF0000ADFF874B1FB44C0F820A0204649
:10055000E1688847002874D0252806D0D4E9012115
:100560009047206A401C2062F1E700265F46204643
:10057000E16888472028054607DB312D05D2781928
:1005800010F8200C08B10643F1E7B00701D526F0BA
:100590000406C4F81CA00027C4F818A02A2D09D00E
:1005A000284603F057F838B304EB8708303DC8F805
:1005B000185019E059F8041B204604EB870291619A
:1005C000E1688847012F054618D1E069002820DA44
:1005D00026F020061DE0D8F8180000EB800005EB9F
:1005E00040003038C8F818002046E16888470546C2
:1005F00003F030F80028EED1012F0AD02E2D08D1BB
:100600002046E16888477F1C0546022F46F02006F9
:10061000C4DBA069002803DA404246F00106A0616D
:10062000F00701D026F010066C2D0BD0682D09D0F4
:100630004C2D39D06A2D35D0742D35D07A2D33D04C
:1006400016E038E0E1682F4620468847B842054664
:1006500009D16C2F26D04FF48060E1680643204614
:100660008847054604E06C2F1AD04FF4807006438B
:100670000DB3A5F14100192802D8203546F40066D3
:100680004A462946204626604E46FFF7B7FD80B110
:1006900001280BD0F61D26F0070000F1080956E7E7
:1006A0004020E4E78020D8E70020D6E706F10409DF
:1006B0004DE7284652E7206ABDE8F09F203F000042
:1006C00010B5431C02E010F8011B71B18107FAD18B
:1006D0004FF0013202C88C1A8C4314EAC211F9D0CF
:1006E000C01A0A0603D0C01E10BDC01A10BD0A04ED
:1006F00001D0801E10BD0902FCD0401E10BD032A8F
:1007000040F2308010F0030C00F0158011F8013B2E
:10071000BCF1020F624498BF11F801CB00F8013B15
:1007200038BF11F8013BA2F1040298BF00F801CBD9
:1007300038BF00F8013B11F0030300F07781083A5D
:10074000C0F0088051F8043B083A51F804CBA0E807
:100750000810F5E7121D5CBF51F8043B40F8043B5C
:10076000AFF30080D20724BF11F8013B11F801CB91
:1007700048BF11F8012B24BF00F8013B00F801CB62
:1007800048BF00F8012B704702F0FF0343EA032241
:1007900042EA024200F002B84FF000020429C0F021
:1007A000128010F0030C00F01B80CCF1040CBCF1A3
:1007B000020F18BF00F8012BA8BF20F8022BA1EBF5
:1007C0000C0100F00DB85FEAC17C24BF00F8012BDA
:1007D00000F8012B48BF00F8012B70474FF00002D2
:1007E00000B5134694469646203922BFA0E80C5027
:1007F000A0E80C50B1F12001BFF4F7AF090728BF02
:10080000A0E80C5048BF0CC05DF804EB890028BF7D
:1008100040F8042B08BF704748BF20F8022B11F0A6
:10082000804F18BF00F8012B704770477047704722
:1008300000487047B0F1012070477047704770471B
:1008400038B504460A4600206946AFF30080002808
:1008500008BF38BD02460099204600F024F9012067
:1008600038BD012000F0DAB9F8B5AFF300800546D5
:1008700000200C46102000BF0646A819A0420DD942
:10088000324669460020AFF30080070008BF00F041
:10089000C5F90098A04218BF0546C419FFF7C8FF64
:1008A00005600746F01D20F007004619284600F0B5
:1008B000F3F8B44208BFF8BDA21B31463868BDE862
:1008C000F84000F0F0B870B50646FFF7B1FF0568D4
:1008D00006F10B0020F00704B4429CBF002070BD5D
:1008E0002B466A68BAB11068A04210D304F108011F
:1008F00088423CBF5068586007D351681019416066
:100900001168091B016058601460101D70BD13460A
:100910005268002AE7D121462846FFF791FF0028B8
:10092000DED170BD2DE9F0470D469946924604464A
:1009300000F124080168880604D5E06921F010015F
:10094000216000E00120A84201DD471B00E00027F4
:10095000A1697A1902EB0900081AA0612078C00683
:1009600002D42046FFF73AFD002608E0D4E9012131
:100970001AF806009047206A401C761C20624E45FB
:10098000F4DB2078C0060AD52046FFF727FD06E0F5
:10099000D4E9012130209047206A401C2062381E93
:1009A000A7F10107F4DC07E0D4E9012118F80500FC
:1009B0009047206A401C2062281EA5F10105F3DC47
:1009C0002046FFF721FD2078000602D50220BDE871
:1009D000F0870120FBE7000001694A1C02610878EA
:1009E000704700B58FB0CDE901310021059105496F
:1009F0007944CDE9031011466846FFF79DFD0FB01D
:100A000000BD0000E5FFFFFF074B70B50D467B44BE
:100A1000FFF7E7FF0446284600F05FF810B14FF0FB
:100A2000FF3070BD204670BD2731000010B5203A60
:100A3000C0F00B80B1E81850203AA0E81850B1E897
:100A40001850A0E81850BFF4F5AF5FEA027C24BF4D
:100A5000B1E81850A0E8185044BF18C918C0BDE844
:100A600010405FEA827C24BF51F8043B40F8043B0D
:100A700008BF7047D20728BF31F8023B48BF11F8C2
:100A8000012B28BF20F8023B48BF00F8012B70471C
:100A900000487047A8F1012000210160C0E9011061
:100AA000704710207047034640688C46002818BFE6
:100AB00088423CBF03464068F8D31868184488420F
:100AC00007D00CF1030020F00700001D411A521A54
:100AD0000146081D0A60FFF7D7BB007B00F08000CD
:100AE0007047000010B542485421FFF777FE414897
:100AF0005421FFF773FE40485421FFF76FFE3F4932
:100B00003B483C4A3F4B08603D490A603A491960FE
:100B1000531C0365481C1065012008653B48344A96
:100B200039A1784400F0E8F920B9384878440A3807
:100B300000F08CFA37482F4A35A1784400F0DCF9F0
:100B400020B9344878440A3800F080FA32482A4AFA
:100B50002FA1784400F0D0F920B92F4878440A3802
:100B600000F074FA40232248DC000021224600F005
:100B70009FF920B125487844543800F067FA1D48A1
:100B800022464023002100F093F920B12148784407
:100B9000543800F05BFA184822461023002100F078
:100BA00087F9002806D01C487844BDE81040563824
:100BB00000F04CBA10BD104870B5006D20F0010473
:100BC0000B4800F00FFA0B4800F00CFA0A4800F04E
:100BD00009FA09E0206D20F00105204600F002FA34
:100BE0002046FFF751FB2C46002CF3D170BD0000CE
:100BF000ACF0012000F1012054F101205CC0012083
:100C000060C0012064C0012072000000573900005C
:100C100077000000433900002F39000010B500F0C4
:100C20001DFABDE8104000F00CBA0EB5CDE9000188
:100C3000FFF746FD029069460120ABBE0EBD08B528
:100C4000694600900220ABBE08BD1FB58DE80700C5
:100C500069460520ABBE04B010BD1FB58DE80F007E
:100C600069460620ABBEF6E708B569460090092044
:100C7000ABBE08BD1CB5CDE9000169460A20ABBE7C
:100C80001CBD704708B5694600900C20ABBE08BD7E
:100C90007546FFF7FDFEAE4605006946534620F057
:100CA0000700854618B020B5FFF7DCFABDE8204004
:100CB0004FF000064FF000074FF000084FF0000B18
:100CC00021F00701AC46ACE8C009ACE8C009ACE8CB
:100CD000C009ACE8C0098D4670472DE9F0470546CC
:100CE0000C46C86820F4201040F48000C8608006DC
:100CF00002D5084600F0B5FAE06841F282014FF0F3
:100D0000FF390140022903D0204600F053FAB5E034
:100D100000F42041B1F5004F0FD1C00306D5616842
:100D2000E06A884200D80846606006E02069E06218
:100D300060606069FFF7A6FFA061A0680022EEB2C4
:100D400000280DDAE1688B050AD4C043A06041F4A5
:100D500090302260E0606068411C61600670A5E030
:100D6000E0689046226040F40050E060206968BB73
:100D70006069FFF779FF012704F12405A0B1A0897C
:100D800010F4407F08D0E069FFF79DFD206118B1A5
:100D9000E06840F4006016E0E7612561E06820F457
:100DA000407040F480600EE0E069FFF78CFD0028A1
:100DB0002061F1D0E06840F4006010F4407FE06012
:100DC00002D140F48070E06020696060E0682569CD
:100DD0006FF0010AC1051FD56168E06A884200D83A
:100DE0000846411B04D02246284600F0EDF9F0BB2E
:100DF000E068010203D5E562C4E9015854E0691CCA
:100E0000E1626160E16940F48030491EC4E902108A
:100E100030462E70BDE8F087010202D500F4803222
:100E20000AE06068411C61600670E0680A2E40F4C8
:100E30008030E06006D00022E16A6068814203D918
:100E40000B4602E00122F7E70346A7895B1B7F05FB
:100E500003D4E7699F4200DDE2B1814200D8014638
:100E6000E5620F1AC4E90158002B09DD00E005E036
:100E700022461946284600F0A7F908B14846C9E7B6
:100E800047B1A069E5626560C01BA061E06840F001
:100E90001000E060E068000208D56168A069E562C2
:100EA000491B08446560A0615046B3E73046B1E78E
:100EB00070B5C468A50713D0650211D4B2F5807F60
:100EC00009D0B2F5007F06D0B2F5806F08D10123BA
:100ED00000F1240106E05D1E6FF07F46B54201D3AC
:100EE000012070BD0161C361416024F47061114350
:100EF000C160002070BD00002DE9F0410C4607469E
:100F00001646104600F06EF82078611C61280AD061
:100F1000722802D077283CD102E00125002405E0A8
:100F20000225042402E0082448F2020511F8010B0E
:100F30002B2806D0622809D011F8010C74280AD099
:100F40000BE045F0030544F00204EFE745F004052B
:100F500044F00104EAE744F0100438462146FFF764
:100F600064FE411C15D00021316171604FF40071A5
:100F7000F560F1617061200704D53046022200213E
:100F800000F09CF8306D40F0010030653046BDE85F
:100F9000F0810020FBE72DE9F0410D460646104C9C
:100FA000206DC10704D0410804D020F00104F7E708
:100FB00022460EE05420FFF786FC07000ED0206D7D
:100FC00047F001010843542120653846FFF706FC2D
:100FD0003A4629463046BDE8F0418DE70020D6E785
:100FE000ACF001202DE9F04704464FF000094FF026
:100FF000FF37C568D4E90486A80707D0204600F06B
:101000000DF93046FFF71BFE002802DA3846BDE82E
:10101000F087280502D54046FFF736F94C212046D7
:10102000FFF7DCFB206D20F0010020654846EEE76D
:1010300010B50446AFF300802046BDE81040FFF72E
:10104000FCB8002801D000F031B8704710B500F0AE
:1010500043F9BDE81040FFF7F4BF000010B50128C8
:1010600005D0002103A000F01DF9012010BD09A149
:10107000F8E7000053494752544D454D3A204F750B
:1010800074206F662068656170206D656D6F727980
:10109000000000003A2048656170206D656D6F7238
:1010A0007920636F7272757074656400014918204D
:1010B000ABBEFEE726000200704700002DE9F041BC
:1010C000044616460D464769007B80072ED03846F9
:1010D000FFF7CAFD50BB3EB3012E02D0022E25D130
:1010E00004E0204600F019F905441DE03846FFF7FA
:1010F000C9FDE168002841F01001E16005DA2046F1
:1011000000F058F80120BDE8F081C9030BD56268F2
:10111000E16A914200D81146A26911442269891AF4
:10112000814200DD08460544002D01DA0220EAE78D
:10113000E16A6068E268814206D29103E06203D509
:1011400022F4003141F01002A6690027AE4213DC00
:10115000E16A814201D90B4600E0034603EB060C2D
:101160002369ACEB030CAC4506DD814201D98C460A
:1011700000E084469C4505D1A760276042F020002E
:10118000A5620DE0AD1BE669AE1B8142A66000D9E9
:101190000846C01A281A20605819606022F0200002
:1011A00003490840E060002084F84870ABE7000085
:1011B000BFCFD7FFC16821F4001141F08001C160A9
:1011C00000218160016070472DE9F0478146144697
:1011D0000E464FF0FF383248D5685769054209D0AE
:1011E0003846A169FFF746FD002811DB2C48C043B3
:1011F0000540E5602B46324649463846FFF725FD57
:10120000A16920F00042B21A11440028A16103D064
:101210002046FFF7CFFF4046BDE8F08770B5044693
:101220000569C06A6168884200D80846E16821F40F
:101230002011E160C90312D5A84208D02246411B03
:101240002846FFF7C1FF10B14FF0FF3070BD0020FE
:10125000E562C4E90150E06820F48030E0600020DD
:1012600070BD10B50446C06820F02000E060A16A9F
:10127000A06988420DD02046FFF7D0FFE06820F437
:10128000405040F01000E060A06AA0612069E06278
:10129000606044F24001E0688843E06010BD0000F7
:1012A0001000020070B505460C460A2000E06D1CD7
:1012B00000F02CF835B128780028F8D102E0641C41
:1012C00000F024F814B120780028F8D1BDE870406F
:1012D0000A2000F01BB8000010B5014602A0FFF77D
:1012E000E1FF012010BD00005349475254524544CC
:1012F0003A2052656469726563743A2063616E27AF
:1013000074206F70656E3A200000000008B56946D1
:101310008DF800000320ABBE08BD10B50146C268C1
:10132000900703D0900607D5886A0AE000F016F807
:1013300001210160881E10BD8B69486818440B6943
:10134000C01A91F848301BB191F84910401A10BDED
:101350001103FCD50028FADD401E10BD004870477F
:10136000A8F10120FEE70000014800F06BB8000082
:101370000CC20120014800F065B800006CC20120D9
:10138000014800F05FB80000C0C00120014800F033
:1013900059B8000020C1012001681823CAB2103AD0
:1013A000B2FBF3F2054B6FF30901032A9B5CC365A3
:1013B00000D9091D81650846704700000A440008ED
:1013C00010B5014600208B698A6A4FF0C07453B192
:1013D000B3F5005F15D072B1012A0CD0022A0AD0F1
:1013E000032A09D104E01AB1012A06D0022A03D146
:1013F000C96AC90100D5012010BDC96AA142FAD04D
:1014000010BD002AF7D0012AF2D0022AF3D0032A15
:10141000F3D010BD30B50468256825F4802525601B
:10142000046863608368402B036803D09960006898
:10143000C26030BD9A600068C16030BD704772B64E
:10144000FEE700002DE9F84304464FF00009CDF80F
:10145000009063484FF41651A56D0068B0FBF1F79A
:101460002E6894F85C10082000FA01F131420FD088
:1014700021680A6852070BD50A6822F004020A6044
:1014800094F85C108840A860606D40F001006065D1
:1014900094F85C104FF0010808FA01F0304208D0CF
:1014A00021684969090604D5A860606D40F0020012
:1014B000606594F85C1004208840304208D02168B0
:1014C0000968890704D5A860606D40F00400606574
:1014D00094F85C1010208840304218D021680968C8
:1014E000090714D5A86020680168490304D500687D
:1014F000000308D5A16C07E00168C90503D40168A1
:1015000021F008010160216C09B12046884794F858
:101510005C1020208840304231D021680968C9061B
:101520002DD5A86094F8350005282068016806D0FC
:10153000490347D5006800031DD4616C1CE021F00D
:10154000160101602068416921F080014161206C31
:1015500008B9A06C20B12068016821F00801016081
:1015600094F85C103F208840A86084F8358084F8A7
:101570003490216D1FE0E16B09B120468847606D12
:1015800000282BD0606DC00714D0052084F83500EA
:101590002068016821F0010101600098401C009062
:1015A000B84203D820680068C007F6D184F83580B7
:1015B00084F83490E16C002910D001B02046BDE8D9
:1015C000F04308470168C905D5D4016821F010012E
:1015D000016084F8358084F83490CCE7BDE8F88366
:1015E0000CC001202DE9F041044600F0B1F9064697
:1015F0005CB1022084F83500002584F8345020685E
:10160000016821F0010101600DE00120BDE8F081D9
:1016100000F09EF9801B052805D920206065032075
:1016200084F83500F2E720680068C007F0D122682E
:10163000116820480140D4E901031843D4E9033676
:101640003343184363691843A3691843E369184394
:10165000236A18430843616A042903D1D4E90B13B0
:1016600019430843106020684069666A20F007014A
:1016700030460E43012704280CD1A06A0643E06AD5
:1016800040B12046FFF79CFE20B14020606584F801
:101690003570BAE7206846612046FFF77DFE94F872
:1016A0005C203F2191408160656584F835700020A1
:1016B000ACE700003F8010F02DE9F0410446866D54
:1016C00090F83400002501280DD0012084F8340062
:1016D00094F835700020012F07D084F834000225DB
:1016E0002846BDE8F0810220FBE7022784F8357028
:1016F00060652046FFF78EFE94F85C103F2088401E
:10170000B0602068016841F016010160206C20B1D2
:101710002068016841F0080101602068016841F01B
:1017200001010160DCE7000070B5044600F010F92B
:101730000546601C02D004480078044400F008F913
:10174000401BA042FAD370BD00C001202DE9F84F24
:10175000DFF8BCA10022012503264FF00F090AF192
:10176000040BAAF1040E00BF0B6805FA02F4234033
:10177000A34270D10F7907F00307012F01D0022F88
:1017800016D187684FEA420806FA08FC27EA0C07D8
:10179000D1F80CC00CFA08FC4CEA070CC0F808C0E1
:1017A0004768A7430C79C4F3001494403C43446059
:1017B0000C79E443A4070AD0C4684FEA420C06FA45
:1017C0000CF7BC438F6807FA0CF72743C7600C7906
:1017D00004F00304022C12D1D40800EB840CDCF8D2
:1017E00020405707FF0E09FA07F824EA0804D1F849
:1017F000108008FA07F848EA0408CCF8208004684A
:101800004FEA420C06FA0CF7BC430F7907F00307C6
:1018100007FA0CF7274307604C6814F4403F70D078
:101820003C4C276847F480472760246822F0030770
:1018300004F480440094384C07EB040CDCF80848AE
:1018400097074FEA177809FA08F7BC43334FB842B5
:1018500002D1002724E054E0314FB84201D10127E2
:101860001EE0304FB84201D1022719E02E4FB84296
:1018700001D1032714E02D4FB84201D104270FE016
:101880002B4FB84201D105270AE02A4FB84201D1B7
:10189000062705E0284FB84201D1072700E00827B6
:1018A00007FA08F72743CCF80878DAF800405746DB
:1018B000D1F804C09C435FEACC2C00D51C433C60AB
:1018C000DBF800405F46D1F804C09C435FEA8C2CF3
:1018D00000D51C433C60DEF800407746D1F804C0D8
:1018E0009C435FEA8C3C00D51C433C60084F083F9A
:1018F0003C68D1F804C09C435FEACC3C00D51C4353
:101900003C60521C102AFFF42FAFBDE8F88F000096
:10191000083C0140443802400030014000000240D1
:101920000004024000080240000C02400010024087
:101930000014024000180240001C024000690840E8
:1019400000D0012070470AB1816170470904FBE7AC
:10195000014880687047000000C00120024881688B
:10196000027811448160704700C001200B4810B517
:10197000016841F400710160016841F48061016017
:10198000016841F480710160032000F06FF80F20BE
:1019900000F006F800F024F8002010BD003C0240E2
:1019A00070B50D4D04464FF47A712878B1FBF0F014
:1019B0000A490968B1FBF0F000F0F8FC48B9102CB6
:1019C00007D200222146501E00F030F800206C6043
:1019D00070BD012070BD000000C001200CC00120BE
:1019E0000A4808B5016841F480410160006800F4CC
:1019F000804000900548001F016841F0805101605F
:101A0000006800F08050009008BD0000443802409B
:101A1000002809DB00F01F020121914040098000ED
:101A200000F1E020C0F8001170470000F0B40E4B48
:101A30001B680C46C3F30223C3F10705042D00D92C
:101A40000425191D072901D2002300E0DB1E012611
:101A500006FA05F1491E214099409E40761E164027
:101A60003143F0BC01F061BD0CED00E0064900F02F
:101A7000070208684FF6FF03184040EA0220034AB5
:101A800010430860704700000CED00E00000FA050C
:101A90002DE9F0470E46050065D0DFF81481D8F82F
:101AA0000000F7B200F00700B04207D288F80070DB
:101AB000D8F8000000F00700B04254D128683D4C2F
:101AC000810712D5400703D5206840F4E05020601C
:101AD0002878000703D5206840F460402060206823
:101AE000A96820F0F000084320602878C0072DD0B6
:101AF000304968680839012812D0022813D0032819
:101B000011D00968890700292DDA216821F0030125
:101B100001432160FFF71CFF814641F2883A0EE045
:101B200009688903EFE709688901ECE7FFF710FF0F
:101B3000A0EB0901514502D90320BDE8F0872068D8
:101B4000696800F00C00B0EB810FEFD1D8F80010FD
:101B5000404601F00701B14207D90770006800F064
:101B60000700B04201D00120E7E72878400705D5FB
:101B70002068E96820F4E0500843206028780007D6
:101B800006D52068296920F4604040EAC100206041
:101B900000F038F82168084AC1F30311515CC840CD
:101BA0000649086006480068FFF7FAFE0020C4E70F
:101BB000003C024008380240124400080CC00120DA
:101BC00004C001200448054900680968044AC1F3BB
:101BD0008221515CC84070470CC001200838024087
:101BE000224400080448054900680968044AC1F312
:101BF0004231515CC84070470CC001200838024097
:101C000022440008154810B5006810F00C02144872
:101C100013D01449042A0FD0082A0ED10F4C241FC8
:101C20002268236802F03F025B0207D52068C0F3F8
:101C30008810A0FB010106E0084610BD2168C1F331
:101C40008811A1FB00010023FEF745FB2168C1F3C9
:101C50000141491C4900B0FBF1F010BD08380240B9
:101C60000024F40040787D012DE9F84F04006ED087
:101C70002078DFF84C93C007A9F104054AD009F198
:101C800004000168C1F38101012908D00068C0F394
:101C9000810002280AD1D9F80000400206D5286840
:101CA000800337D560680028E1D033E06068B0F584
:101CB000803F10D0B0F5A02F286810D020F48030DD
:101CC0002860286820F4802028606068A8B1FFF7A9
:101CD0003FFE06460DE0286840F48030F4E740F40B
:101CE00080202860F7E700BFFFF732FE801B6428E2
:101CF00073D828688003F7D50CE0FFF729FE064665
:101D000005E000BFFFF724FE801B6428F0D8286898
:101D10008003F7D42078DFF8AC8280074FF0000A08
:101D20003ED5A748001D016811F00C0F08D00068CF
:101D3000C0F3810002280BD1D9F80000400207D47B
:101D40002868800716D5E068012800D112E033E149
:101D5000E068B8B10120C8F80000FFF7F9FD0646B9
:101D600005E000BFFFF7F4FD801B0228C0D82868FB
:101D70008007F7D52868216920F0F80040EAC10003
:101D800028600DE0C8F800A0FFF7E2FD064604E079
:101D9000FFF7DEFD801B02281FD828688007F7D4D4
:101DA0002078000722D5864F87486169703771B166
:101DB00001210160FFF7CCFD064604E0FFF7C8FDF6
:101DC000801B022809D838688007F7D50EE0C0F8D4
:101DD00000A0FFF7BDFD064605E082E0FFF7B8FD75
:101DE000801B02287DD838688007F7D42078400708
:101DF00068D5DFF8CCB100270BF13C0BDBF8000015
:101E0000C0000BD4DBF8001041F08051CBF800107B
:101E1000DBF80000012700F0805000906B4E306826
:101E2000C00510D4306840F480703060FFF790FD3A
:101E3000009005E0FFF78CFD0099401A022850D869
:101E40003068C005F6D55E4EA0686C3601280FD00C
:101E50000528306810D020F001003060306820F094
:101E600004003060A068B8B1FFF772FD00900FE089
:101E7000306840F00100F4E740F004003060F7E71C
:101E8000FFF766FD0099411A41F28830814266D819
:101E900030688007F4D50EE0FFF75AFD009007E0A8
:101EA000FFF756FD0099411A41F28830814256D819
:101EB00030688007F4D42FB1DBF8001021F0805196
:101EC000CBF80010A069C8B33D49091D0968C1F3EA
:101ED000810102294AD00228504607D0C8F8600084
:101EE00000E03CE0FFF734FD04463BE04746C8F81D
:101EF0006000FFF72DFD064605E000BFFFF728FD57
:101F0000801B02282BD828688001F7D4D4E9070168
:101F10000843A16A2E4A490802EB0141626A41EA7C
:101F20008211084394F82C1040EA0161C9F80010AE
:101F300001203866FFF70CFD044606E03EE000BFD6
:101F4000FFF706FD001B022809D828688001F7D595
:101F500034E000BFFFF7FCFC001B022802D903207D
:101F6000BDE8F88F28688001F4D427E00128F7D075
:101F7000D9F80000E26900F4800191421CD1226A84
:101F800000F03F01914217D147F6C071626A0140EB
:101F9000B1EB821F10D1A26A4FF0FF3300F4403141
:101FA00003EB5202B1EB024F06D194F82C1000F073
:101FB0007060B0EB016F01D00120D1E70020CFE7C6
:101FC0000438024000004742800E47420070004043
:101FD0000000FFFF704770B5040009D0606A00255B
:101FE00040B125616561A56294F8510040B10CE0F3
:101FF000012070BD6068B0F5827FF4D0E561F2E742
:1020000084F85050204600F045F8022084F8510032
:102010002068016821F040010160A088218900F456
:10202000827001F404410843A18901F4006108436E
:10203000217C01F002010843217D01F001010843E8
:10204000218B01F400710843217F01F0380108431E
:1020500094F8201001F080010843218D01F4005113
:10206000084321680860A069042101EA104094F83F
:10207000241001F010010843216848602068C169FC
:1020800021F40061C1616565012084F851000020E0
:1020900070BD00002DE9F04186B006461421684667
:1020A000FEF79CFB2B493068884250D12A48002417
:1020B000016841F480510160006800F4805005908F
:1020C00025481438016841F0020101600068694642
:1020D00000F002000590382000900220CDE90104B4
:1020E00003200390052004901C48FFF72FFB1D4D93
:1020F0001B484FF0C0672860C5E901744FF4806841
:10210000C5E903486C61AC61EC612C6228466C62E5
:10211000FFF768FA08B1FFF792F9F564AE63114D65
:102120000F4860354830E5E802074020A5E8110176
:102130000C4845F814496030AC61EC612C626C626B
:10214000FFF750FA08B1FFF77AF9B564AE6306B04D
:10215000BDE8F081003001404438024000040240F4
:1021600010640240C0C001202DE9F84F044690F8E9
:10217000500000271D461646894601280DD04FF015
:10218000010B84F850B0FFF7E3FB804694F8510050
:10219000BA46012804D0022793E00220BDE8F88F58
:1021A000B9F1000F73D0002E71D0032084F85100D4
:1021B000C4F854A0C4F83090A686E686C4F838A0C7
:1021C000A4F83CA0A4F83EA0C4F844A0C4F840A0E1
:1021D000A068B0F5004F09D12068016821F04001E6
:1021E00001602068016841F4804101602068016855
:1021F000490603D4016841F040010160E068B0F590
:10220000006F606803D030B3012E24D041E008B1E4
:10221000012E1CD1206B21680088C86006E0206870
:102220008168890709D5216B0988C160206B801CF2
:102230002063E08E401EE08609E0FFF789FBA0EBFB
:102240000800A84202D3681C01D031E07DB3E08EC3
:102250000028E4D120E0206B21680078087306E0B4
:1022600020688168890709D5216B09780173206B83
:10227000401C2063E08E401EE0860AE0FFF768FB0A
:10228000A0EB0800A84203D3681C02D010E017E0BE
:102290006DB1E08E0028E3D142462946204600F089
:1022A0009DFC08B120206065A06818B106E0FFE73A
:1022B000032706E02068C16880680090606D00B167
:1022C000012784F851B084F850A0384666E7000032
:1022D0002DE9F041044690F850000026012809D06D
:1022E000012784F8507094F851000025012804D08B
:1022F00002264EE00220BDE8F08189B182B10320C0
:1023000084F8510065652163A286E286A563656451
:102310002564A587E587A068B0F5004F02D00BE0E3
:10232000012636E02068016821F040010160206844
:10233000016841F480410160A16C18480864A16CF7
:102340001748C863A16C1748C864A06C0565E38E84
:102350002268216B0C32A06CFFF7AEF938B1606DCA
:1023600040F010006065012684F8517011E020688B
:102370000168490603D4016841F04001016020680A
:10238000416841F0200141602068416841F002014C
:10239000416084F850503046ADE700006D2B0008D6
:1023A000772B00084B2B00087047704710B5401E74
:1023B000B0F1807F01D3012010BD4FF0E0246061B7
:1023C0000F21601701F0B1F80020A0610720206103
:1023D000002010BD70B590F83C20012A32D00124B5
:1023E00080F83C40022280F83D2003685A689D68CE
:1023F00022F070060A6832435A60134B02689A4210
:1024000014D0B2F1804F11D0104B9A420ED0104B25
:102410009A420BD00F4B9A4208D00F4B9A4205D0EC
:102420000E4B9A4202D00E4B9A4204D1496825F0D5
:1024300080031943916080F83D40002180F83C10F2
:10244000084670BD022070BD00000140000400403D
:1024500000080040000C0040000401400040014022
:102460000018004010B5040003D094F83D0010B1EE
:1024700007E0012010BD002084F83C00204600F059
:102480001FF8022084F83D00211D206800F04AFE5C
:10249000012084F8460084F83E0084F83F0084F868
:1024A000400084F8410084F8420084F8430084F836
:1024B000440084F8450084F83D00002010BD000071
:1024C00008B500680649884208D10648016841F00D
:1024D00010010160006800F01000009008BD0000CD
:1024E000001000404038024090F83D10012901D012
:1024F00001207047022180F83D100168CA6842F04F
:102500000102CA6000681149884214D0B0F1804FBE
:1025100011D00F4988420ED00E4988420BD00E4987
:10252000884208D00D49884205D00D49884202D022
:102530000C49884204D1816801F00701062903D0C3
:10254000016841F001010160002070470000014076
:102550000004004000080040000C0040000401405E
:1025600000400140001800407047704770B50400FB
:1025700004D094F83D00002510B106E0012070BDA4
:1025800084F83C50204600F023F8242084F83D00D5
:102590002068C16821F40051C160204600F0F4FEBB
:1025A0002068016921F4904101612068416921F0AE
:1025B0002A0141612068C16841F40051C16025646D
:1025C000202084F83D0084F83E00002070BD00000B
:1025D0002DE9F04186B0064614216846FEF7FEF864
:1025E00035493068884263D134480024016841F499
:1025F00080110160006800F4801005902F481038A9
:10260000016841F004010160016801F004010591D5
:10261000016841F0080101600068022500F008002F
:1026200005904FF48050CDE9000502AA03274FF032
:10263000080882E8900169462148FFF787F80420DE
:10264000CDE9000502AA694682E890011D48FFF71E
:102650007DF81E4D1C484FF48068C7052860C5E909
:102660000174C5E903486C61AC61EC612C622846D9
:102670006C62FEF7B7FF08B1FEF7E1FEB563AE632B
:10268000124D11486035A830E5E802074020A5E862
:1026900011010E4845F814496030AC61EC612C62C0
:1026A0006C62FEF79FFF08B1FEF7C9FE7563AE636B
:1026B00006B0BDE8F0810000005000404038024004
:1026C00000080240000C0240106002400CC20120D1
:1026D00090F83E30202B0ED159B152B190F83C30D9
:1026E000012B08D0012380F83C300023036300F065
:1026F000D1BE01207047022070477047704700002C
:1027000070B5044690F83D00202836D191B38AB3C5
:1027100094F83C00012830D0012084F83C0021626C
:10272000A284E28400252564212084F83D00636BA7
:102730001348D863636B13481864636B1248D864FA
:10274000606B134605652668606B321DFEF7B4FFAB
:1027500021686FF04000086084F83C502068143015
:1027600050E8001F41F0800140E80012002AF5D136
:10277000002070BDFFE70120FBE70220F9E7000021
:10278000D332000815330008ED3100087047704758
:10279000FEE70000194808B5016841F480010160B6
:1027A000016801F480010091016841F400110160A9
:1027B0000068002200F40010009011460B20FFF783
:1027C00035F90B20FFF724F9002211462F20FFF7DF
:1027D0002DF92F20FFF71CF9002211463820FFF7B2
:1027E00025F93820FFF714F9002211463B20FFF7A6
:1027F0001DF9BDE808403B20FFF70AB93038024018
:102800002DE9F04F87B014216846FDF7E7FF9448A3
:102810000025016841F010010160016801F010011C
:102820000591016841F004010160016801F00401B3
:102830000591016841F020010160016801F020016B
:102840000591016841F080010160016801F080019B
:102850000591016841F001010160016801F0010189
:102860000591016841F002010160016801F0020177
:102870000591016841F008010160016801F008015B
:102880000591016841F0400101600068DFF8D491D2
:1028900000F04000059001227C214846FFF753F8E4
:1028A000DFF8C4A1012243F2C2115046FFF74BF8F2
:1028B000DFF8B8B100220C215846FFF744F84FF476
:1028C0000047002239465046FFF73DF8002281219B
:1028D0004846FFF738F8002239466548FFF733F8D5
:1028E0004FF4A048012241466248FFF72CF800222D
:1028F00039466148FFF727F8002203215D48FFF7BA
:1029000022F800224FF440415C48FFF71CF80124F4
:102910007C20CDE9000469464846CDE90245FEF732
:1029200015FF43F20200CDE900040226CDE902467C
:1029300069465046FEF70AFF40F60800CDE900055B
:10294000694602945046FEF701FF4FF4E070CDE96E
:10295000000469465046CDE90245FEF7F7FE0C201B
:102960008DE85100694658460396FEF7EFFECDE923
:102970000045694640480294FEF7E8FE4220CDE952
:102980000005694602943A48FEF7E0FE0097039579
:10299000CDE9014669465046FEF7D8FE81200395F1
:1029A0008DE8510069464846FEF7D0FE600200906F
:1029B000CDE90165CDE9035469464846FEF7C6FEF8
:1029C000E002CDE90005694602944846FEF7BEFEE6
:1029D00000970395CDE9014669462548FEF7B6FE06
:1029E0004FF41270CDE90005694602942148FEF7C4
:1029F000ADFECDE90084CDE9024669461D48FEF7EB
:102A0000A5FE4FF45C60CDE90005694602941B48C1
:102A1000FEF79CFE0097CDE90146694616480396ED
:102A2000FEF794FE4FF00308CDF800800395CDE942
:102A3000014669460F48FEF789FEA00303958DE81D
:102A4000510069460D48FEF781FECDE90074CDE9DD
:102A5000024869460948FEF779FE07B0BDE8F08FE5
:102A600030380240001002400014024000080240CA
:102A700000040240000C0240000002400018024026
:102A80000F4810B50D4901604FF48271416000217B
:102A900002228160C0E903121202C0E90512C1617D
:102AA0000162416281620A21C162FFF794FA002843
:102AB00003D0BDE81040FEF7C2BC10BD003001409D
:102AC00068C001201CB500240F4800940D490194F2
:102AD000016040F2E731C0E901145321C160802157
:102AE0008161FFF7BFFC08B1FEF7A9FC00946946BD
:102AF00005480194FFF76EFC002801D0FEF79FFC0B
:102B00001CBD00000010004080C101200C4810B521
:102B10000A4901604FF4E1314160002181600C22DB
:102B2000C160C0E904128161C161FFF71FFD002887
:102B300003D0BDE81040FEF782BC10BD005000403D
:102B4000C8C10120FEE7FEE7704710B5806B016841
:102B50004A6822F003024A60416D41F0100141656C
:102B6000012180F85110FFF735FA10BD10B5806BC8
:102B7000FFF71BFC10BD38B50546846BFEF7E8FE79
:102B8000024628680068C00523D42068416821F007
:102B9000200141602068416821F002014160642108
:102BA000204600F01BF818B1606D40F02000606511
:102BB000A068002118B92068C26880680090E1868A
:102BC000012084F85100606D18B12046FFF702FA29
:102BD00038BD2046FFF7E8FB38BD000038B5044695
:102BE0001248134B0068B0FBF3F04FF47A7358436C
:102BF00000906068B0F5827F0DD10B4600920022F4
:102C00008021204600F016F870B1606D40F0200081
:102C10006065032038BD009830B1401E00902068E8
:102C20008068C0430006F6D5002038BD0CC00120E6
:102C300000366E012DE9F8431E469146884604464B
:102C4000089DFEF785FE401B351AFEF781FE0746FC
:102C500025480068C0F3CB30684338E0701C37D09B
:102C6000FEF776FEC01BA84203D215B1009860B3F0
:102C70002CE02068416821F0E00141606068B0F517
:102C8000827F0BD1A068B0F5004F02D0B0F5806F05
:102C900004D12068016821F040010160A06AB0F50C
:102CA000005F09D12068016821F4005101602068AB
:102CB000016841F400510160012084F851000020B6
:102CC00084F850000320BDE8F8830025401E0090E2
:102CD0002068816838EA010004D000214945BDD14F
:102CE0000020F0E70121F9E70CC001202DE9F041B7
:102CF00007460021EF2340F23F12084600F0C8F8D3
:102D00000E4E002204213046FEF71DFE00244FF433
:102D100048653A4629460A48FDF736FD29460848DF
:102D200000F028F9641CA4B2302CF2D33046BDE880
:102D3000F04101220421FEF706BE00000008024017
:102D40002CE401201FB54FF448614548FDF724FDF0
:102D50001920FEF7E9FC434C002201212046FEF732
:102D6000F2FD1920FEF7E0FC012211462046FEF795
:102D7000EAFD3220FEF7D8FC3A2000F0DDF85520BD
:102D800000F040F9B22000F0D7F837A1D1E90001F6
:102D9000CDE900010521684600F0ECF8042000F0C0
:102DA000B3F8B72000F0C8F8352000F02BF9BB20AD
:102DB00000F0C2F8192000F025F9C02000F0BCF89E
:102DC0002C2000F01FF9C22000F0B6F8012000F01E
:102DD00019F9C32000F0B0F8122000F013F9C42054
:102DE00000F0AAF8202000F00DF9C62000F0A4F8A9
:102DF0000F2000F007F9D02000F09EF8A42000F08A
:102E000001F9A12000F0FEF8E02000F095F818A0EC
:102E10000FC88DE80F000E21684600F0ABF8E120E6
:102E200000F08AF816A10FC98DE80F000E21684640
:102E300000F0A0F8202000F07FF8112000F07CF8CE
:102E4000132000F079F8292000F076F83220FEF700
:102E50006BFC04B00020BDE81040FFF747BF000046
:102E60002CE40120000C02400C0C00333300000065
:102E7000D0040D11132B3F544C180D0B1F230000D1
:102E8000D0040C11132C3F44512F1F1F202300008E
:102E90002DE9F843DFF86C8015460E4607461C46C0
:102EA000002204214046FEF74EFD2A2000F044F89F
:102EB000380A8DF800008DF80170280A8DF802009C
:102EC0008DF803500421684600F054F82B2000F0E0
:102ED00033F8300A8DF800008DF80160200A8DF873
:102EE00002008DF803400421684600F043F82C20CE
:102EF00000F022F84046BDE8F84301220421FEF725
:102F000022BD00000008024010B50446362000F043
:102F100013F8052C0FD2DFE804F0030507090500BC
:102F2000C02004E0A02002E0002000E06020BDE816
:102F3000104000F067B810BD31B50C4C00220421E0
:102F40002046FEF700FD002208212046FEF7FBFC8C
:102F50004FF0FF33012269460548FFF705F90122CA
:102F600004212046FEF7EFFC38BD000000080240B7
:102F700068C001202DE9F05F1F4F0C460646002275
:102F800004213846FEF7DFFC012208213846FEF70F
:102F9000DAFC4FF480394FF6FF7BDFF86080DFF812
:102FA00060A01FE04C4501D3584600E0204685B2A2
:102FB000B8F80000A0420CD82A4631461048FFF766
:102FC00087F9DAF8480000BF90F835100129FBD1E5
:102FD00006E04FF0FF332A4631460948FFF7C4F8B0
:102FE0002E44641B002CDDD13846BDE8F05F012281
:102FF0000421FEF7A8BC00000008024000000020E9
:1030000068C0012031B50C4C002204212046FEF797
:103010009AFC012208212046FEF795FC4FF0FF3371
:10302000012269460548FFF79FF801220421204646
:10303000FEF789FC38BD00000008024068C001208E
:103040007047FEF78BBC000030B593B03021684666
:10305000FDF7C4FB14210CA8FDF7C0FB1D4800259B
:10306000016841F080510160006800F080501190CB
:103070001948016841F4804101600068022400F4AD
:103080008040119001200390102004900094069439
:103090000820CDE90750A820CDE9090404200B90B1
:1030A0006846FEF7E1FD08B172B6FEE70CA90F20F5
:1030B00081E831004FF4A0500F904FF480501090F1
:1030C00005210CA8FEF7E4FC002801D072B6FEE74B
:1030D00013B030BD40380240007000400248016823
:1030E00041F470010160704788ED00E010B500F018
:1030F00019FE00F0C6FA01F055F900F0E5FEFFF701
:1031000021FE00F0A1FB002000F040FF04496420F4
:1031100001F0E0F8BDE8104040B201F0BFB8000097
:1031200011430008F0B50268254C264D264E274F66
:10313000274B4FF0804CA04209D0604507D0A842F1
:1031400005D0B04203D0B84201D0984204D122F059
:10315000700E4A6842EA0E02A0421BD0604519D0A8
:10316000A84217D0B04215D0B84213D0984211D01F
:10317000184DA8420ED0184DA8420BD0174DA842AA
:1031800008D0174DA84205D0164DA84202D0164DC2
:10319000A84203D122F44075CA682A434D6922F03F
:1031A00080022A4302608A68C2620A688262A04280
:1031B00001D0984201D10969016301214161F0BD4B
:1031C000000001400004004000080040000C0040E6
:1031D000000401400040014000440140004801401B
:1031E00000180040001C00400020004070B5846BB7
:1031F0002068406994F83D10C0F3C01000252129D3
:1032000004D118B1E584204600F0B0F82068406988
:1032100094F83E10C0F38010222904D118B1E5853E
:10322000204600F07CF8206C40F01000206420461E
:10323000FFF79BF970BD10B50146806B09680968FE
:10324000C9052FD40021C18501680C3151E8002F38
:1032500022F4807241E80023002BF5D1016814317B
:1032600051E8002F22F0010241E80023002BF5D1A4
:103270000168143151E8002F22F0400241E8002398
:10328000002BF5D1202180F83E10016B012909D1D6
:1032900001680C3151E8002F22F0100241E80023B0
:1032A000002BF5D1016B012902D0FFF726FA10BDE2
:1032B000818DFFF759F910BD10B5806B016B0129A5
:1032C00002D0FFF71BFA10BD818D4908FFF74CF9BA
:1032D00010BD10B50146806B09680968C90516D490
:1032E0000021C1840168143151E8002F22F08002CE
:1032F00041E80023002BF5D101680C3151E8002F83
:1033000042F0400241E80023002BF5D110BDFFF749
:103310003DFA10BD10B5806BFFF739FA10BD01689A
:103320000C3151E8002F22F4907241E80023002B69
:10333000F5D10168143151E8002F22F0010241E873
:103340000023002BF5D1016B012909D101680C3153
:1033500051E8002F22F0100241E80023002BF5D1A4
:10336000202180F83E1000210163704701680C3174
:1033700051E8002F22F0C00241E80023002BF5D1D4
:10338000202180F83D10704770B50446006801693F
:10339000E26821F44051114301612169A068E269AA
:1033A00008436169114308432168CA6849F20C6304
:1033B0009A430243CA6020684169A26921F44071BE
:1033C0001143416131492068884202D03049884226
:1033D00002D1FEF707FC01E0FEF7F4FBE2690023EF
:1033E000192164253226B2F5004F626828D0A0FB6F
:1033F0000101930F9200FCF76EFF0146B0FBF5F060
:103400006FF01802504301EB800006EB0010B0FB98
:10341000F5F000F0F002B1FBF5F002EB0012B1FBA9
:10342000F5F06FF01803584301EB800006EB001035
:10343000B0FBF5F000F00F0021681044886070BD0B
:10344000A0FB010192185B41FCF745FF0146B0FB70
:10345000F5F00201B1FBF5F06FF01803584301EBF2
:10346000800006EBC000B0FBF5F000F0F80002EBC6
:103470004002B1FBF5F0584301EB800006EBC000C1
:10348000B0FBF5F000F00700D6E7000000100140A7
:103490000014014038B58162828500251346044638
:1034A0000564222084F83E00A26B1C48D063A26B06
:1034B0001B481064A26B1B48D064A06B0A460565CC
:1034C0002168A06B091DFEF7F7F8206801684068C5
:1034D000009084F83C50206948B120680C3050E8D6
:1034E000001F41F4807140E80012002AF5D12068E5
:1034F000143050E8001F41F0010140E80012002A9A
:10350000F5D12068143050E8001F41F0400140E838
:103510000012002AF5D1002038BD00003732000823
:10352000B9320008ED310008FEE70907090E00284E
:1035300004DB00F1E02080F80014704700F00F0079
:1035400000F1E02080F8141D704770472DE9F84322
:10355000002591460E460446022A09D1822E01D04A
:10356000802E05D120784F2802D160784B2804D0D6
:10357000832E09D0812E1AD025E023A0FCF722FF4C
:103580004FF0FF30BDE8F8832088A578010A41EAB2
:1035900000201FFA80F8002005E021180A79225443
:1035A000CA784A70801CB0EB450FF6D30BE094F854
:1035B00000806578002004E0211889782154401C9F
:1035C000C0B2A842F8D32B464A4631460FA0CDF8E8
:1035D0000080FCF7F7FE002705E0E15B19A0FCF78F
:1035E000F1FEBF1CFFB2AF42F7D318A0FCF7EAFE12
:1035F000174887682FB143464A4631462046009512
:10360000B8472846BEE700004F4B0A00434D442010
:10361000307825303278203A20504C454E202564B1
:10362000203A204C454E202564203A204144445203
:1036300020307825303278203A20444154413A20D5
:103640000000000030782530347820000A000000A7
:1036500040C0012030380A2801D2012070470020E4
:1036600070472020704708B50121684600F05CFCD7
:103670009DF8000008BD13B589B2684600F068FCEB
:103680001CBD704778B50023051D12E031F81340CA
:10369000260A46EA0424ADF8004090F82440BDF81C
:1036A00000602C44268090F82440A41C80F824401C
:1036B0005B1C9342EAD378BD03B54FF6FF720199C4
:1036C000914204D2012201A9FFF7DCFF0CBD10F8E2
:1036D000243FA0F120021A4409BA11600178091DA3
:1036E00001700CBD70B51546044690F82420001DED
:1036F00010442A46FDF703F814F8240F28442070DC
:1037000070BD00F0FBB900F01FB8FEF70DB8000067
:1037100010B5034CC4E90420C4E9023110BD000017
:1037200040C0012010B525210448FDF735F80349B4
:10373000002081F82400084610BD0000B8E00120F8
:1037400080F82410704700002DE9F041244C4FF020
:10375000FF37606980B3E06870B300256069804717
:1037600000281ED0E068804706466078D8B101285E
:1037700025D002282DD003282ED00428EED11949B7
:1037800060680E54401C6060A178491E8842E5DBE9
:10379000A078E178401EC2B21248FFF7D7FE6570EC
:1037A0006560BDE8F08120210E48FCF7F5FFA570AB
:1037B000E5705A2E01D0656006E0012007E0A52ED5
:1037C00004D01EB1656065703846EAE7022060707B
:1037D000C4E7A6700320FAE7E6700420F7E70000CC
:1037E00040C00120DDE00120F7B514460D46FFF78B
:1037F00099FF064601226946FFF744FF1CB9284697
:10380000FCF75EFFC4B2224629463046FFF76AFF46
:1038100021463046FFF794FF3146822000F062FCDB
:10382000FEBD73B50D46FFF77DFF044601226946D4
:10383000FFF728FF29462046FFF73EFF214682205A
:1038400000F050FC7CBD000010B51D4B1D4A1E4908
:103850001E48FFF75DFF00214FF4C040FFF7E1FF76
:10386000002146F20200FFF7DCFF002146F20400CF
:10387000FFF7D7FF002146F20600FFF7D2FF002135
:1038800046F20800FFF7CDFF002146F22000FFF7C7
:10389000C8FF002146F20A00FFF7C3FF002146F2ED
:1038A0000C00FFF7BEFF082209A18120FFF79CFF53
:1038B0000A22BDE8104009A18220FFF795BF000051
:1038C0004B35000877360008673600086336000875
:1038D0002020202020202020000000002020202068
:1038E000202020202020000010B503460868002278
:1038F000097A05E0047B9C4204D00069521CD2B2D4
:103900009142F7D810BD00002DE9F047654E002721
:103910004FF001083078B946401EC5B2746894E093
:10392000E07E410909D0A1894FF6FF72491C89B296
:10393000A181914201D3218BA181410904D00129A8
:103940001BD002297CD195E0F26808FA05F11142FA
:103950000FD0A4F80C90A4F80E9020F01E00E07692
:10396000A16809B120468847E07E20F0E0002030C1
:1039700062E020F01E0016305EE0F26808FA05F101
:10398000114241D0E189B1B1A289238A9A4257D923
:10399000032900D3032161F34400E076A16809B153
:1039A00020468847E07E20F0E0002030E076484660
:1039B000A4F80C905CE0A189228B91420AD3C0F359
:1039C000430108293CD020F01E0010300CE02046B6
:1039D000884732E0E28A91420BD3C0F343010629C3
:1039E0002ED020F01E000C30E076A1680029EED128
:1039F00023E0A28A914223D3C0F3430104291FD0BC
:103A000020F01E000830EFE7A189228B914206D3F7
:103A100020F01E00123008E02046884709E0E28AC4
:103A2000914218D320F01E000E30E076A1680029E4
:103A3000F2D1E07E20F0E000E076E07E400901D0A7
:103A40007F1CFFB224686D1EEDB2002C7FF468AFBE
:103A50003846BDE8F087A28A914203D320F01E00C9
:103A60000A30E2E720F0E0004030E076E089401CD8
:103A7000E081E2E7F26808FA05F1114206D020F091
:103A8000E0002030E076A4F80C90D6E7A189228AE5
:103A90009142D5D9E189032900D3032161F3440080
:103AA000C3E7000030C0012030B513494FF0FF35A7
:103AB0004A68144628B10B78202B02D804E08242D1
:103AC00001D1284630BD1268002AF8D10460C27EB8
:103AD000002422F0FE021632C2768481C4810F24B3
:103AE0000482486002F001008A68984010435B1C21
:103AF0008860D8B2087030BD30C001202DE9F04197
:103B00000C4E002430787568401EC7B206E0284687
:103B10008847B84004432D687F1EFFB215B169681D
:103B20000029F4D1B168E0434840F060BDE8F041BD
:103B3000FFF7EABE30C001208A68002A01DCFDF7E9
:103B4000CCB8521E8A604A68C0B2531C4B601070D9
:103B50007047000010B5027B074B0021064C43F86C
:103B60002210FF22037B5034E25441734160816094
:103B700001604161016110BD54E0012000214160FC
:103B8000016001727047F0B40C7AC4B100230A6876
:103B900006E005681668B54204D912695B1CDBB201
:103BA0009C42F6D85AB1026153695BB143615369D3
:103BB00018615061087A401C0872F0BC7047F0BC74
:103BC00000F004B8002308604361F2E710B50C7AF6
:103BD0004A6800233CB11061C0E904324860087AA9
:103BE000401C087210BD0860486003614361F6E73D
:103BF00070B50E4E4FF4007529463046FDF79EFE17
:103C0000044629463046FDF799FE44EA4004294619
:103C10003046FDF793FE44EA800429463046FDF71E
:103C20008DFE44EAC000C0B270BD0000000C02402E
:103C300070B5134D044600F0010202212846FDF73D
:103C400082FEAE14C4F3400231462846FDF77BFEE7
:103C500031460C4EC4F380023046FDF774FEC4F3C7
:103C6000C0024FF400512846FDF76DFEC4F3001268
:103C70003046BDE870404FF48041FDF764BE00005F
:103C800000140240000C0240024630B4234B24488A
:103C9000082A41D2DFE802F0040C141B2229303735
:103CA000012901D0012200E000224FF4807105E0DB
:103CB000012901D0012200E000228021184628E0DD
:103CC000012901D0012200E000224021F6E701296C
:103CD00001D0012200E0002240211AE0012901D098
:103CE000012200E00022202113E0012901D001225D
:103CF00000E0002210210CE0012901D0012200E0A7
:103D00000022082105E0012901D0012200E0002263
:103D1000042130BCFDF717BE30BC704700140240D0
:103D20000010024070470000FDF720FEFFF78CF9FD
:103D3000FEF766FDFEF72EFDFEF7C4FEFEF7A0FEC1
:103D4000FEF7E4FEFFF7D2F900F026FA0348FEF78B
:103D5000CBFB00BF00F074FAFCE7000080C101203B
:103D60002DE9F04700252846FFF762FFFFF740FFE7
:103D70000F2824D0FFF73CFF0F2820D00024012675
:103D80004FF002094FF003085FF0040706FA04F051
:103D9000C043C0B2FFF74CFFFFF72AFF072814D03B
:103DA0000B280FD00D2804D00E2805D106EB840077
:103DB00001E009EB8400C5B2641C052CE6DB284653
:103DC000BDE8F08708EB8400F5E707EB8400F2E735
:103DD000704710B50024FFF7C3FF152870D2DFE845
:103DE00000F06F0B10151A1F24292E33383D42475F
:103DF0004C51565B60656A00FFF7B2FF012861D045
:103E00005DE0FFF7ADFF02285CD058E0FFF7A8FFA8
:103E1000032857D053E0FFF7A3FF042852D04EE009
:103E2000FFF79EFF05284DD049E0FFF799FF0628D0
:103E300048D044E0FFF794FF072843D03FE0FFF766
:103E40008FFF08283ED03AE0FFF78AFF092839D0D3
:103E500035E0FFF785FF0A2834D030E0FFF780FF18
:103E60000B282FD02BE0FFF77BFF0C282AD026E071
:103E7000FFF776FF0D2825D021E0FFF771FF0E2810
:103E800020D01CE0FFF76CFF0F281BD017E0FFF7D6
:103E900067FF102816D012E0FFF762FF112811D03B
:103EA0000DE0FFF75DFF12280CD008E0FFF758FF88
:103EB000132807D003E0FFF753FF142802D0002493
:103EC000204610BD0124FBE72DE9F0474FF41371A4
:103ED0001248FCF783FC114D114E124F00244FF095
:103EE0004B084FF096094FF0E10A00BFC4EBC40045
:103EF00005EB80008476C0E90167C17E41F00101D5
:103F0000C176A0F81480A0F81690A0F818A0FFF7CA
:103F1000CBFD641C152CE9DBBDE8F087E0E1012056
:103F2000D33D0008D13D000870B50C46054600227F
:103F30004FF400410448FDF706FD22462946034898
:103F4000FEF7C6FB204670BD00040240C8C1012038
:103F50002DE9F04101220B4F0C460546D6033146B0
:103F60003846FDF7F0FC224629460748FEF7C8FB15
:103F70000446002231463846FDF7E5FC2046BDE800
:103F8000F081000000040240C8C1012070B5044661
:103F90000B480C4E002150F8240006EB840542002B
:103FA000286900F02DF806480021103050F8242030
:103FB000A86800F025F801203119087670BD0000CE
:103FC0002C44000810C0012010B50B4B0B4C0022F4
:103FD00053F82030114604EB800005E0046934F802
:103FE000114004B1521C491C8B42F7D86420424353
:103FF000B2FBF3F0C0B210BD2C44000810C0012089
:1040000002E000BF00F8011B521EFBD27047000007
:1040100070B5034600201A4C4FEA000500EB40063D
:1040200004EBC606767B26B3401CC0B21428F5D339
:104030002C4614482561C4E901320268D01820607A
:10404000207B114B1D5419B1207B503B43F82010AD
:104050000D48216878389142017E01D281F001013A
:1040600001EB410100EB81012046FFF78CFD20466A
:1040700070BD00EB400004EBC00401266673D8E776
:104080004CDE01202CC00120A4E0012010B508491D
:104090000446087E00EB400001EB8001204600F062
:1040A00009F803492046BDE810401C31FFF78EBDDA
:1040B0002CE001200B680269834207D100230A60CB
:1040C00012B10069436107E04B6005E043691A6182
:1040D000D0E9042022B15061087A401E087270476E
:1040E0004860F9E770B5064691F824000C465A215D
:1040F0002170A521401C6170A070E67000251DA0F4
:10410000615DFCF75FF96D1C042DF8D31BA0FCF773
:1041100059F9002505E06019017916A0FCF752F95C
:104120006D1C94F82400A842F5DC15A0FCF74AF9B0
:10413000144D2A6922B194F824102046091D904795
:10414000832E0FD0287868B15FF0C805FFF7FCFA1E
:104150000446401C06D00120FFF7D7FA25B16D1E9A
:10416000002CF3DD002070BD07A0FCF72BF9012027
:1041700070BD00003078257820000000207C2000F1
:104180000A00000040C0012054494D454F555420BD
:104190004F4E204F4B210A0070B52048FFF7EEFC30
:1041A0001E481C38FFF7EAFC1C481038FFF7E6FCF5
:1041B0001A4900201C391B4B0876194903F5027473
:1041C000FF250860014603F5167600BF01EB4102AA
:1041D00003EBC20250735060106090601061506138
:1041E000117344F821007554491CC9B21429EDD348
:1041F0000D494FF47A720968B1FBF2F1491EB1F131
:10420000807F09D24FF0E0225161084BF02183F802
:10421000141D90610720106170BD000048E001206E
:104220002CC001204CDE01200CC001200FE000E07A
:1042300010B572B6FFF7ECFE62B690F90C0010BD37
:1042400070B5154E002406F15005285DFF2807D0F3
:1042500030B156F8240000B18047285D401E285533
:10426000641CE4B2142CF0D30B480C38017A0029FA
:1042700007D0046803E0207B285C18B12469002C77
:10428000F9D170BD044920460C39FFF713FF2046D1
:10429000BDE87040FFF75EBC54E0012070B50C4DE6
:1042A0000646002472B600BF04EB440005EB800113
:1042B0003046FFF719FB20B102214173FFF7E6FEFC
:1042C00003E0641CE4B2022CEED362B670BD0000C1
:1042D0002CE0012010B5012272B6FFF799FE62B6FC
:1042E00090F90C0010BD000010B5084C207808B102
:1042F000012100E000210020FFF7C6FC207810B16A
:104300000020207010BD0120FBE7000058C00120F4
:1043100010B54FF6FF7422460749C820FFF788FF03
:10432000224606491420FFF783FF2246BDE81040CD
:1043300003490520FFF77CBFE94200080337000866
:10434000073700087047000030B401460020897E1E
:10435000114A124B08291DD2DFE801F00407090DAC
:10436000101517194FF4006103E0402104E04FF4E9
:104370008061104604E00821184601E00848012148
:1043800030BCFDF7DBBA4021F3E78021F1E74FF4C1
:104390008071EEE730BC704700180240000C02400C
:1043A000000002402DE9F047E0211248FCF716FA20
:1043B000104D114E114F00244FF04B084FF096094D
:1043C0004FF0E10AC4EBC40005EB80008476C0E93D
:1043D0000167C17E21F00101C176A0F81480A0F828
:1043E0001690A0F818A0FFF75FFB641C082CE9DB0F
:1043F000BDE8F08700E1012049430008454300087B
:104400004FF04070E1EE100A7047000610160006EB
:10441000101600000000000000000102030406075F
:10442000080900000000010203040000C00D0000A4
:1044300080070000200000002000000000B80100FC
:1044400000F00000303132333435363738394142EC
:1044500043444546403058003031323334353637E6
:104460003839616263646566403078000400000892
:10447000000000000000000200010000103A747407
:10448000003A7474003A747400000000CC440008D0
:104490000000002004000000C4010008D04400080F
:1044A00000C0012068000000C4010008D0440008DA
:1044B000040000201CB80100E00100083845000895
:1044C00068C00120A0370000E001000810000000D3
:1044D0000100000010000000000000000024F400B3
:1044E0008D3F0008C93F0008200000200000001098
:1044F000CCC2012000F0001000000000000000000D
:1045000000000000000000000000000000000000AB
:10451000010000000000000000000000000000009A
:10452000000000000000000000000000000000008B
:08453000000000000000000083
:040000050800018965
:00000001FF
