:020000040800F2
:1000000000F80120310200083F2800081F240008E2
:100010003D280008DD090008BD310008000000008F
:10002000000000000000000000000000392D000862
:100030009D0A000800000000412800083B2D000830
:100040004B0200084B0200084B0200084B0200085C
:100050004B0200084B0200084B0200084B0200084C
:100060004B0200084B0200084B0200084B0200083C
:100070004B0200084B0200084B0200084B0200082C
:100080004B0200084B0200084B0200084B0200081C
:100090004B0200084B0200084B0200084B0200080C
:1000A0004B0200084B0200084B0200084B020008FC
:1000B0004B0200084B0200084B0200084B020008EC
:1000C0004B0200084B0200084B0200084B020008DC
:1000D0004B020008B13100084B0200084B02000837
:1000E0004B0200084B0200084B0200084B020008BC
:1000F0004B0200084B0200084B0200084B020008AC
:100100004B0200084B0200084B0200084B0200089B
:10011000B92E0008C52E0008E52D00084B02000886
:10012000E10900084B0200084B020008ED09000835
:100130004B0200084B0200084B0200084B0200086B
:100140004B0200084B0200084B0200084B0200085B
:100150004B0200084B0200084B0200084B0200084B
:100160004B0200084B0200084B0200084B0200083B
:100170004B0200084B0200084B0200080000000080
:100180004B0200084B02000800F002F800F041F8B2
:100190000AA090E8000C82448344AAF10107DA45E2
:1001A00001D100F036F8AFF2090EBAE80F0013F0F3
:1001B000010F18BFFB1A43F001031847E842000083
:1001C00018430000103A24BF78C878C1FAD8520703
:1001D00024BF30C830C144BF04680C6070470000C1
:1001E0000023002400250026103A28BF78C1FBD840
:1001F000520728BF30C148BF0B607047782900F014
:10020000E680002070471FB504F00DF91FBD10B542
:1002100010BD00F077FB1146FFF7F5FF03F0C0FCBF
:1002200000F095FB03B4FFF7F2FF03BC03F054F8B2
:100230000948804709480047FEE7FEE7FEE7FEE77A
:10024000FEE7FEE7FEE7FEE7FEE7FEE704480549B6
:10025000054A064B70470000D52D000889010008AB
:1002600000F2012000F8012000F4012000F4012038
:10027000704753EA020C00F069802DE9F04B4FF013
:100280000006002B1FBFB3FA83F503FA05F424FA26
:1002900005F65E4012BF1643B2FA82F502FA05F483
:1002A000C5F120051EBF22FA05FC44EA0C042035E6
:1002B00056EA044C4FEA144418BF641C4FF000087F
:1002C0004FF00009904271EB030C39D3002919BF9C
:1002D000B1FA81F701FA07F6B0FA80F700FA07F6EB
:1002E000C7F120071EBF20FA07FC46EA0C0620379C
:1002F000B6FBF4FCA7EB0507103F07F01F0BCBF193
:1003000020060CFA0BFB2CFA06F644BFB346002677
:10031000202FA4BF5E464FF0000B5BEA060C08BF1F
:100320004FF0010B19EB0B09ABFB027C48EB060805
:10033000C01B06FB02CC0BFB03CC71EB0C01C1E72D
:100340000B46024641464846BDE8F08B13B54FF0D8
:1003500000004FF00001AFF30080BDE81C40704783
:100360000FB4044910B503AA029800F07FFA10BC3C
:100370005DF814FB00C00120F0B40D4601880905AA
:1003800002D5214C7C4402E01F4C7C440E340021F9
:1003900000F1240608E002F00F071209E75D42EAC7
:1003A00003721B097754491C52EA0307F3D1027800
:1003B0000023120704D5702D06D009B10223113491
:1003C0002246F0BC00F0E0B901231034F8E770B524
:1003D00004460D4621461068AFF3008002462946C8
:1003E0002046BDE870400023C6E7D21D22F0070377
:1003F000D3E90023C0E70368126843F020030360D9
:100400000823C3610023B7E7E04000002DE9F05F57
:10041000894604464FF0000ADFF874B1FB44C0F887
:1004200020A02046E1688847002874D0252806D0FF
:10043000D4E901219047206A401C2062F1E70026A0
:100440005F462046E16888472028054607DB312DB6
:1004500005D2781910F8200C08B10643F1E7B0076F
:1004600001D526F00406C4F81CA00027C4F818A083
:100470002A2D09D0284602F011FF38B304EB870873
:10048000303DC8F8185019E059F8041B204604EB19
:1004900087029161E1688847012F054618D1E0691C
:1004A000002820DA26F020061DE0D8F8180000EB1E
:1004B000800005EB40003038C8F818002046E1689D
:1004C0008847054602F0EAFE0028EED1012F0AD047
:1004D0002E2D08D12046E16888477F1C0546022F53
:1004E00046F02006C4DBA069002803DA404246F04B
:1004F0000106A061F00701D026F010066C2D0BD08C
:10050000682D09D04C2D39D06A2D35D0742D35D0B9
:100510007A2D33D016E038E0E1682F462046884730
:10052000B842054609D16C2F26D04FF48060E168AF
:10053000064320468847054604E06C2F1AD04FF446
:10054000807006430DB3A5F14100192802D820356B
:1005500046F400664A462946204626604E46FFF786
:100560004DFE80B101280BD0F61D26F0070000F1EA
:10057000080956E74020E4E78020D8E70020D6E7C6
:1005800006F104094DE7284652E7206ABDE8F09FCE
:100590007040000010B5431C02E010F8011B71B15F
:1005A0008107FAD14FF0013202C88C1A8C4314EA49
:1005B000C211F9D0C01A0A0603D0C01E10BDC01A5D
:1005C00010BD0A0401D0801E10BD0902FCD0401EDF
:1005D00010BD032A40F2308010F0030C00F01580AB
:1005E00011F8013BBCF1020F624498BF11F801CB36
:1005F00000F8013B38BF11F8013BA2F1040298BF9B
:1006000000F801CB38BF00F8013B11F0030300F004
:100610003F81083AC0F0088051F8043B083A51F88D
:1006200004CBA0E80810F5E7121D5CBF51F8043BAD
:1006300040F8043BAFF30080D20724BF11F8013B20
:1006400011F801CB48BF11F8012B24BF00F8013B82
:1006500000F801CB48BF00F8012B704702F0FF0300
:1006600043EA032242EA024200F002B84FF00002DD
:100670000429C0F0128010F0030C00F01B80CCF1B4
:10068000040CBCF1020F18BF00F8012BA8BF20F822
:10069000022BA1EB0C0100F00DB85FEAC17C24BF76
:1006A00000F8012B00F8012B48BF00F8012B704720
:1006B0004FF0000200B5134694469646203922BFFB
:1006C000A0E80C50A0E80C50B1F12001BFF4F7AF46
:1006D000090728BFA0E80C5048BF0CC05DF804EB28
:1006E000890028BF40F8042B08BF704748BF20F896
:1006F000022B11F0804F18BF00F8012B704700004B
:100700004FF0013C50F8042B51F8043B9A4221D1A0
:10071000A2EB0C03934313EACC1317D150F8042B2C
:1007200051F8043B9A4215D1A2EB0C03934313EA10
:10073000CC130BD150F8042B51F8043B9A4209D149
:10074000A2EB0C03934313EACC13DBD04FF0000071
:10075000704700BFD01A01BAB1FA81F101F0180157
:1007600022FA01F0CB40C1F12001DBB2C0B2C01AC5
:100770002CFA01F3D11A914311EAC311E6D1704763
:1007800070477047704770472DE9F0470D4699460E
:100790009246044600F124080168880604D5E06901
:1007A00021F01001216000E00120A84201DD471B7B
:1007B00000E00027A1697A1902EB0900081AA0617C
:1007C0002078C00602D42046AFF30080002608E05F
:1007D000D4E901211AF806009047206A401C761CD3
:1007E00020624E45F4DB2078C0060AD52046AFF3E0
:1007F000008006E0D4E9012130209047206A401CA7
:100800002062381EA7F10107F4DC07E0D4E90121DA
:1008100018F805009047206A401C2062281EA5F1A8
:100820000105F3DC2046AFF300802078000602D5F6
:100830000220BDE8F0870120FBE7000001694A1CA7
:1008400002610878704700B58FB0CDE90131002111
:10085000059105497944CDE9031011466846FFF733
:10086000D5FD0FB000BD0000E5FFFFFF074B70B5E1
:100870000D467B44FFF7E7FF0446284600F03EF8AC
:1008800010B14FF0FF3070BD204670BD0B2F00003F
:1008900010B5203AC0F00B80B1E81850203AA0E81B
:1008A0001850B1E81850A0E81850BFF4F5AF5FEA4F
:1008B000027C24BFB1E81850A0E8185044BF18C902
:1008C00018C0BDE810405FEA827C24BF51F8043BA9
:1008D00040F8043B08BF7047D20728BF31F8023BFD
:1008E00048BF11F8012B28BF20F8023B48BF00F891
:1008F000012B704700487047A0F10120007B00F0F9
:10090000800070477546FFF7F5FFAE460500694663
:10091000534620F00700854618B020B5FFF796FC37
:10092000BDE820404FF000064FF000074FF00008F0
:100930004FF0000B21F00701AC46ACE8C009ACE871
:10094000C009ACE8C009ACE8C0098D46704710B5D5
:100950000446AFF300802046BDE81040FFF762BCBC
:100960001CB5002100917E2201918DF800208DF8A8
:100970000400052280F044008DF801208DF8050068
:100980004122EF208DF802208DF806008DF803102B
:10099000684600F001F81CBD01460822014801F03C
:1009A0001EBD00004CC201201CB51E2800D91E200F
:1009B0007E218DF8001004218DF8011031218DF871
:1009C00002108DF8030080F035008DF80400EF2050
:1009D0008DF805006846FFF7DFFF1CBDFEE700004D
:1009E000014800F0B9B8000044C10120014800F0FE
:1009F000B3B80000A4C1012001681823CAB2103A9C
:100A0000B2FBF3F2054B6FF30901032A9B5CC3654C
:100A100000D9091D81650846704700003044000870
:100A200010B5014600208B698A6A4FF0C07453B13B
:100A3000B3F5005F15D072B1012A0CD0022A0AD09A
:100A4000032A09D104E01AB1012A06D0022A03D1EF
:100A5000C96AC90100D5012010BDC96AA142FAD0F6
:100A600010BD002AF7D0012AF2D0022AF3D0032ABF
:100A7000F3D010BD30B50468256825F480252560C5
:100A8000046863608368402B036803D09960006842
:100A9000C26030BD9A600068C16030BD704772B6F8
:100AA000FEE72DE9F0410446876D00F0E3FA0646C3
:100AB00094F835000025022806D08020606584F86F
:100AC00034500120BDE8F0812068016821F0160152
:100AD00001602068416921F080014161206C08B902
:100AE000A06C20B12068016821F008010160206835
:100AF000016821F0010101600CE000F0BBFA801BED
:100B0000052807D920206065032084F8350084F883
:100B10003450D7E720680068C007EED194F85C1025
:100B20003F208840B860012084F8350084F83450B4
:100B30000020C7E790F83510022903D080214165D5
:100B400001207047052180F835100068016821F008
:100B500001010160002070472DE9F84304464FF081
:100B60000009CDF8009063484FF41651A56D006858
:100B7000B0FBF1F72E6894F85C10082000FA01F140
:100B800031420FD021680A6852070BD50A6822F05B
:100B900004020A6094F85C108840A860606D40F020
:100BA0000100606594F85C104FF0010808FA01F04C
:100BB000304208D021684969090604D5A860606DF3
:100BC00040F00200606594F85C10042088403042D8
:100BD00008D021680968890704D5A860606D40F0D5
:100BE0000400606594F85C1010208840304218D0F2
:100BF00021680968090714D5A860206801684903BD
:100C000004D50068000308D5A16C07E00168C90598
:100C100003D4016821F008010160216C09B120466C
:100C2000884794F85C1020208840304231D02168F9
:100C30000968C9062DD5A86094F8350005282068F4
:100C4000016806D0490347D5006800031DD4616CD4
:100C50001CE021F0160101602068416921F080014B
:100C60004161206C08B9A06C20B12068016821F0B6
:100C70000801016094F85C103F208840A86084F867
:100C8000358084F83490216D1FE0E16B09B1204676
:100C90008847606D00282BD0606DC00714D00520F8
:100CA00084F835002068016821F001010160009896
:100CB000401C0090B84203D820680068C007F6D1F5
:100CC00084F8358084F83490E16C002910D001B0AC
:100CD0002046BDE8F04308470168C905D5D401683E
:100CE00021F01001016084F8358084F83490CCE75D
:100CF000BDE8F88310C001202DE9F041044600F062
:100D0000B9F906465CB1022084F83500002584F864
:100D100034502068016821F0010101600DE00120DC
:100D2000BDE8F08100F0A6F9801B052805D9202038
:100D30006065032084F83500F2E720680068C0078A
:100D4000F0D12268116820480140D4E9010318431A
:100D5000D4E903363343184363691843A36918433E
:100D6000E3691843236A18430843616A042903D1DD
:100D7000D4E90B1319430843106020684069666A80
:100D800020F0070130460E43012704280CD1A06A49
:100D90000643E06A40B12046FFF742FE20B1402002
:100DA000606584F83570BAE7206846612046FFF731
:100DB00023FE94F85C203F2191408160656584F8B2
:100DC00035700020ACE700003F8010F02DE9F041C5
:100DD0000446866D90F83400002501280DD00120CE
:100DE00084F8340094F835700020012F07D084F87F
:100DF000340002252846BDE8F0810220FBE70227E7
:100E000084F8357060652046FFF734FE94F85C1076
:100E10003F208840B0602068016841F01601016001
:100E2000206C20B12068016841F008010160206851
:100E3000016841F001010160DCE7000070B5044683
:100E400000F018F90546601C02D0044800780444FC
:100E500000F010F9401BA042FAD370BD04C001207D
:100E60002DE9F84FDFF8BCA10022012503264FF041
:100E70000F090AF1040BAAF1040E00BF0B6805FA72
:100E800002F42340A34270D10F7907F00307012F2A
:100E900001D0022F16D187684FEA420806FA08FCF3
:100EA00027EA0C07D1F80CC00CFA08FC4CEA070C36
:100EB000C0F808C04768A7430C79C4F300149440F5
:100EC0003C4344600C79E443A4070AD0C4684FEA69
:100ED000420C06FA0CF7BC438F6807FA0CF727435D
:100EE000C7600C7904F00304022C12D1D40800EB83
:100EF000840CDCF820405707FF0E09FA07F824EAB3
:100F00000804D1F8108008FA07F848EA0408CCF879
:100F1000208004684FEA420C06FA0CF7BC430F79B4
:100F200007F0030707FA0CF7274307604C6814F42F
:100F3000403F70D03C4C276847F4804727602468C6
:100F400022F0030704F480440094384C07EB040CAF
:100F5000DCF8084897074FEA177809FA08F7BC4306
:100F6000334FB84202D1002724E054E0314FB84259
:100F700001D101271EE0304FB84201D1022719E00C
:100F80002E4FB84201D1032714E02D4FB84201D1B2
:100F900004270FE02B4FB84201D105270AE02A4F62
:100FA000B84201D1062705E0284FB84201D10727F2
:100FB00000E0082707FA08F72743CCF80878DAF8A2
:100FC00000405746D1F804C09C435FEACC2C00D5C2
:100FD0001C433C60DBF800405F46D1F804C09C43F2
:100FE0005FEA8C2C00D51C433C60DEF8004077465D
:100FF000D1F804C09C435FEA8C3C00D51C433C60A4
:10100000084F083F3C68D1F804C09C435FEACC3CE1
:1010100000D51C433C60521C102AFFF42FAFBDE8E2
:10102000F88F0000083C0140443802400030014085
:10103000000002400004024000080240000C024090
:10104000001002400014024000180240001C024040
:101050000069084000D001207047426921EA02037C
:101060000A4043EA0241816170470AB181617047D9
:101070000904FBE7014880687047000004C00120B4
:1010800002488168027811448160704704C00120E1
:101090000B4810B5016841F400710160016841F42A
:1010A00080610160016841F480710160032000F0FB
:1010B0006FF80F2000F006F800F024F8002010BDB3
:1010C000003C024070B50D4D04464FF47A7128780B
:1010D000B1FBF0F00A490968B1FBF0F000F0F8FC50
:1010E00048B9102C07D200222146501E00F030F8DB
:1010F00000206C6070BD012070BD000004C00120A4
:1011000010C001200A4808B5016841F4804101601F
:10111000006800F4804000900548001F016841F01D
:1011200080510160006800F08050009008BD000010
:1011300044380240002809DB00F01F0201219140E1
:101140004009800000F1E020C0F800117047000065
:10115000F0B40E4B1B680C46C3F30223C3F1070522
:10116000042D00D90425191D072901D2002300E010
:10117000DB1E012606FA05F1491E214099409E40DA
:10118000761E16403143F0BC02F019B80CED00E0B9
:10119000064900F0070208684FF6FF03184040EACE
:1011A0000220034A10430860704700000CED00E085
:1011B0000000FA052DE9F0470E46050065D0DFF87E
:1011C0001481D8F80000F7B200F00700B04207D24F
:1011D00088F80070D8F8000000F00700B04254D141
:1011E00028683D4C810712D5400703D5206840F49C
:1011F000E05020602878000703D5206840F4604064
:1012000020602068A96820F0F0000843206028785A
:10121000C0072DD0304968680839012812D002284B
:1012200013D0032811D00968890700292DDA216815
:1012300021F0030101432160FFF71CFF814641F2C9
:10124000883A0EE009688903EFE709688901ECE74D
:10125000FFF710FFA0EB0901514502D90320BDE8BB
:10126000F0872068696800F00C00B0EB810FEFD1C7
:10127000D8F80010404601F00701B14207D90770C5
:10128000006800F00700B04201D00120E7E72878AD
:10129000400705D52068E96820F4E0500843206045
:1012A0002878000706D52068296920F4604040EAC4
:1012B000C100206000F038F82168084AC1F303112A
:1012C000515CC8400649086006480068FFF7FAFE0E
:1012D0000020C4E7003C02400838024038440008BF
:1012E00010C0012008C001200448054900680968B1
:1012F000044AC1F38221515CC840704710C00120EC
:101300000838024048440008044805490068096854
:10131000044AC1F34231515CC840704710C00120FB
:101320000838024048440008154810B5006810F01D
:101330000C02144813D01449042A0FD0082A0ED1E5
:101340000F4C241F2268236802F03F025B0207D57E
:101350002068C0F38810A0FB010106E0084610BD1C
:101360002168C1F38811A1FB00010023FEF781FF72
:101370002168C1F30141491C4900B0FBF1F010BDE7
:10138000083802400024F40040787D012DE9F84F30
:1013900004006ED02078DFF84C93C007A9F1040553
:1013A0004AD009F104000168C1F38101012908D084
:1013B0000068C0F3810002280AD1D9F80000400279
:1013C00006D52868800337D560680028E1D033E06F
:1013D0006068B0F5803F10D0B0F5A02F286810D01D
:1013E00020F480302860286820F48020286060681D
:1013F000A8B1FFF73FFE06460DE0286840F48030B4
:10140000F4E740F480202860F7E700BFFFF732FEE2
:10141000801B642873D828688003F7D50CE0FFF799
:1014200029FE064605E000BFFFF724FE801B642866
:10143000F0D828688003F7D42078DFF8AC828007E2
:101440004FF0000A3ED5A748001D016811F00C0FAF
:1014500008D00068C0F3810002280BD1D9F8000041
:10146000400207D42868800716D5E068012800D11B
:1014700012E033E1E068B8B10120C8F80000FFF7DE
:10148000F9FD064605E000BFFFF7F4FD801B0228CA
:10149000C0D828688007F7D52868216920F0F800AF
:1014A00040EAC10028600DE0C8F800A0FFF7E2FDA7
:1014B000064604E0FFF7DEFD801B02281FD82868DF
:1014C0008007F7D42078000722D5864F87486169C6
:1014D000703771B101210160FFF7CCFD064604E0D1
:1014E000FFF7C8FD801B022809D838688007F7D5A8
:1014F0000EE0C0F800A0FFF7BDFD064605E082E063
:10150000FFF7B8FD801B02287DD838688007F7D424
:101510002078400768D5DFF8CCB100270BF13C0BF1
:10152000DBF80000C0000BD4DBF8001041F0805164
:10153000CBF80010DBF80000012700F0805000908D
:101540006B4E3068C00510D4306840F48070306055
:10155000FFF790FD009005E0FFF78CFD0099401A21
:10156000022850D83068C005F6D55E4EA0686C36AB
:1015700001280FD00528306810D020F0010030601D
:10158000306820F004003060A068B8B1FFF772FD49
:1015900000900FE0306840F00100F4E740F00400F4
:1015A0003060F7E7FFF766FD0099411A41F2883095
:1015B000814266D830688007F4D50EE0FFF75AFD07
:1015C000009007E0FFF756FD0099411A41F288307C
:1015D000814256D830688007F4D42FB1DBF8001070
:1015E00021F08051CBF80010A069C8B33D49091D16
:1015F0000968C1F3810102294AD00228504607D068
:10160000C8F8600000E03CE0FFF734FD04463BE032
:101610004746C8F86000FFF72DFD064605E000BF0D
:10162000FFF728FD801B02282BD828688001F7D4FB
:10163000D4E907010843A16A2E4A490802EB014197
:10164000626A41EA8211084394F82C1040EA016171
:10165000C9F8001001203866FFF70CFD044606E0CB
:101660003EE000BFFFF706FD001B022809D82868EE
:101670008001F7D534E000BFFFF7FCFC001B022817
:1016800002D90320BDE8F88F28688001F4D427E050
:101690000128F7D0D9F80000E26900F480019142F6
:1016A0001CD1226A00F03F01914217D147F6C07168
:1016B000626A0140B1EB821F10D1A26A4FF0FF3382
:1016C00000F4403103EB5202B1EB024F06D194F823
:1016D0002C1000F07060B0EB016F01D00120D1E759
:1016E0000020CFE70438024000004742800E474206
:1016F000007000400000FFFF704770B5040009D083
:10170000606A002540B125616561A56294F85100C9
:1017100040B10CE0012070BD6068B0F5827FF4D06C
:10172000E561F2E784F85050204600F045F80220C9
:1017300084F851002068016821F040010160A08810
:10174000218900F4827001F404410843A18901F465
:1017500000610843217C01F002010843217D01F072
:1017600001010843218B01F400710843217F01F03E
:101770003801084394F8201001F080010843218DBE
:1017800001F40051084321680860A069042101EABE
:10179000104094F8241001F01001084321684860BB
:1017A0002068C16921F40061C1616565012084F888
:1017B0005100002070BD00002DE9F04186B00646C2
:1017C00014216846FEF774FF2B493068884250D1D7
:1017D0002A480024016841F480510160006800F447
:1017E0008050059025481438016841F002010160DD
:1017F0000068694600F00200059038200090022041
:10180000CDE9010403200390052004901C48FFF754
:1018100027FB1D4D1B484FF0C0672860C5E90174C8
:101820004FF48068C5E903486C61AC61EC612C62DF
:1018300028466C62FFF760FA08B1FFF730F9F564EB
:10184000AE63114D0F4860354830E5E8020740208F
:10185000A5E811010C4845F814496030AC61EC6111
:101860002C626C62FFF748FA08B1FFF718F9B5640B
:10187000AE6306B0BDE8F08100300140443802405C
:10188000000402401064024044C101202DE9F84FD9
:10189000044690F8500000271D4616468946012848
:1018A0000DD04FF0010B84F850B0FFF7E3FB8046FA
:1018B00094F85100BA46012804D0022793E0022090
:1018C000BDE8F88FB9F1000F73D0002E71D003205E
:1018D00084F85100C4F854A0C4F83090A686E68677
:1018E000C4F838A0A4F83CA0A4F83EA0C4F844A0D2
:1018F000C4F840A0A068B0F5004F09D12068016885
:1019000021F0400101602068016841F480410160DC
:1019100020680168490603D4016841F04001016074
:10192000E068B0F5006F606803D030B3012E24D0BA
:1019300041E008B1012E1CD1206B21680088C860ED
:1019400006E020688168890709D5216B0988C16094
:10195000206B801C2063E08E401EE08609E0FFF7CC
:1019600089FBA0EB0800A84202D3681C01D031E03B
:101970007DB3E08E0028E4D120E0206B2168007860
:10198000087306E020688168890709D5216B09780A
:101990000173206B401C2063E08E401EE0860AE04D
:1019A000FFF768FBA0EB0800A84203D3681C02D035
:1019B00010E017E06DB1E08E0028E3D142462946E1
:1019C000204600F087FF08B120206065A06818B1AC
:1019D00006E0FFE7032706E02068C1688068009002
:1019E000606D00B1012784F851B084F850A03846EA
:1019F00066E700002DE9F041044690F8500000260B
:101A0000012809D0012784F8507094F8510000256E
:101A1000012804D002264EE00220BDE8F08189B101
:101A200082B1032084F8510065652163A286E286B5
:101A3000A56365642564A587E587A068B0F5004FB8
:101A400002D00BE0012636E02068016821F0400159
:101A500001602068016841F480410160A16C184870
:101A60000864A16C1748C863A16C1748C864A06CCF
:101A70000565E38E2268216B0C32A06CFFF7A6F996
:101A800038B1606D40F010006065012684F8517037
:101A900011E020680168490603D4016841F0400163
:101AA00001602068416841F0200141602068416880
:101AB00041F00201416084F850503046ADE700002B
:101AC000652800086F280008432800087047704701
:101AD00010B5401EB0F1807F01D3012010BD4FF042
:101AE000E02460610F21601701F069FB0020A06114
:101AF00007202061002010BD7047704770B590F836
:101B00003C20012A32D0012480F83C40022280F897
:101B10003D2003685A689D6822F070060A683243C7
:101B20005A60134B02689A4214D0B2F1804F11D020
:101B3000104B9A420ED0104B9A420BD00F4B9A4248
:101B400008D00F4B9A4205D00E4B9A4202D00E4B52
:101B50009A4204D1496825F080031943916080F8C6
:101B60003D40002180F83C10084670BD022070BD49
:101B7000000001400004004000080040000C00404C
:101B800000040140004001400018004010B504006E
:101B900003D094F83D0010B107E0012010BD0020F3
:101BA00084F83C00204600F01FF8022084F83D0035
:101BB000211D206801F01CF9012084F8460084F8FA
:101BC0003E0084F83F0084F8400084F8410084F827
:101BD000420084F8430084F8440084F8450084F807
:101BE0003D00002010BD000008B500680B49884288
:101BF00012D10B48016841F0100101600068002219
:101C000000F0100000900F213620FFF7A1FABDE888
:101C100008403620FFF78EBA08BD000000100040D3
:101C20004038024090F83D10012901D00120704752
:101C3000022180F83D100168CA6842F00102CA60C2
:101C400000681149884214D0B0F1804F11D00F497B
:101C500088420ED00E4988420BD00E49884208D0E7
:101C60000D49884205D00D49884202D00C4988426E
:101C700004D1816801F00701062903D0016841F011
:101C80000101016000207047000001400004004095
:101C900000080040000C00400004014000400140EA
:101CA00000180040704770B50446006801694FF0A5
:101CB0000005C943890715D4C168C943890711D4F0
:101CC000E91E016101202077206880698007204695
:101CD00002D0FFF7E7FF04E000F098F8204600F09C
:101CE00096F8257720680169C943490717D4C16868
:101CF000C943490713D46FF0040101610220207722
:101D00002068806910F4407F204602D0FFF7CAFFA8
:101D100004E000F07BF8204600F079F82577206891
:101D20000169C943090716D4C168C943090712D418
:101D30006FF008010161042020772068C0698007E6
:101D4000204602D0FFF7AEFF04E000F05FF8204627
:101D500000F05DF8257720680169C943C90617D4EA
:101D6000C168C943C90613D46FF01001016108208E
:101D700020772068C06910F4407F204602D0FFF72A
:101D800091FF04E000F042F8204600F040F825778B
:101D900020680169C943C90708D1C168C943C90797
:101DA00004D1891E0161204600F032F820680169E3
:101DB000C943090609D4C168C943090605D46FF0AF
:101DC000800101612046FFF797FE20680169C94341
:101DD000490609D4C168C943490605D46FF04001DA
:101DE0000161204600F01EF820680169C943890698
:101DF0000BD4C168C943890607D46FF02001016183
:101E00002046BDE87040FFF778BE70BD7047704750
:101E100000680349884201D102F090B97047000080
:101E2000001000407047704770470000F8B5016827
:101E300004460868CA684B6910F00F0F4FF00005A0
:101E400059D003F0010602F49077374365D0C107FB
:101E500005D0D10503D5216C41F001012164410772
:101E600005D5D90703D0216C41F002012164810717
:101E700005D5D90703D0216C41F004012164010785
:101E800007D502F02001314303D0216C41F0080155
:101E90002164216C00293AD0800604D5900602D531
:101EA000204601F044F820684069216CC0F380109E
:101EB000090700D460B3204601F012F82068406999
:101EC000400621D52068143050E8001F21F0400161
:101ED00040E80012002AF5D1A06BA8B16C49016559
:101EE000A06BFEF727FE002811D0A06B016D01B09A
:101EF000BDE8F040084783060FD593060DD5204670
:101F0000BDE8F84001F013B82046FFF78DFFF8BD9B
:101F10002046FFF789FF2564F8BD266B2023012E9C
:101F200079D1C60677D5D60675D508684868009079
:101F30004869400640D5A16B086840680004000C61
:101F4000EAD0A28D8242E7D9E085C869B0F5807FEA
:101F50002DD020680C3050E8001F21F4807140E83B
:101F60000012002AF5D12068143050E8001F21F03B
:101F7000010140E80012002AF5D12068143050E831
:101F8000001F21F0400140E80012002AF5D184F83A
:101F90003E30256320680C3050E8001F21F010010E
:101FA00040E80012002AF5D1A06BFEF77AFDA08D63
:101FB000E18D401A81B229E0A08DE18D401A81B2F5
:101FC000E08D0028A8D00029A6D020680C3050E869
:101FD000002F22F4907240E80026002EF5D12068F0
:101FE000143050E8002F22F0010240E80026002EB5
:101FF000F5D184F83E30256320680C3050E8002F7E
:1020000022F0100240E80023002BF5D12046FFF714
:102010000AFFF8BDFFE705062BD5150629D594F86C
:102020003D002128F5D1A068B0F5805F01D120697D
:10203000B0B1206A411C2162216800784860E08CC0
:10204000401E0004000CE084E3D12068C16821F048
:102050008001C1602068C16841F04001C160D8E7DB
:10206000206A0088C0F308004860206A801C206253
:10207000E5E74006CDD55006CBD5CA68204622F00C
:102080004002CA6084F83D3000F0C8F9C1E70000A2
:10209000D12E000870B5040004D094F83D0000254E
:1020A00010B106E0012070BD84F83C50204600F0DD
:1020B00023F8242084F83D002068C16821F40051F1
:1020C000C160204600F094FF2068016921F490412E
:1020D00001612068416921F02A0141612068C168DD
:1020E00041F40051C1602564202084F83D0084F84B
:1020F0003E00002070BD0000F0B587B004461421FA
:102100006846FEF7D5FA5A49DFF860C12368002413
:10211000574A10390225032608275648634522D11D
:10212000136843F400231360126802F4002205923E
:102130000A6842F004020A60096802AB01F0040177
:102140000591B102CDE9001583E8D0006946FEF79C
:1021500087FE002211463420FEF7FAFF3420FEF7F6
:10216000E9FF07B0F0BDDFF810C1634543D1136844
:1021700043F480131360126802F4801205920A6817
:1021800042F004020A600A6802F0040205920A683A
:1021900042F008020A60096802AB01F008010591EB
:1021A0004FF48051CDE9001583E8D0006946FEF771
:1021B00057FE0420CDE9000502AB694683E8D00054
:1021C0002E48FEF74DFE002201213520FEF7C0FF0C
:1021D0003520FEF7AFFF012229492A4800F062F8B6
:1021E00040222949294801F021FC284801F02AFC15
:1021F0000028FAD0B5E726488342B2D11C48001D1A
:10220000026842F010020260006800F010000590C1
:10221000086840F0010008600868029400F00100BE
:1022200005904FF4C060CDE900050720CDE90360BB
:1022300069461848FEF714FE002211462520FEF7D5
:1022400087FF2520FEF776FF0E4801221249443011
:1022500000F028F840221149114801F0E7FB10482E
:1022600001F0F0FB0028FAD07BE70000004C0040B2
:10227000403802400008024000500040000C02407C
:102280005EC0012090C201200CF10120F8F0012075
:102290000010014000000240E7C0012060F1012071
:1022A0004CF1012090F83E30202B0ED159B152B1A3
:1022B00090F83C30012B08D0012380F83C300023FB
:1022C000036300F01BBF012070470220704700002D
:1022D00010B5044600680F49884209D101220E4911
:1022E0000E4801F00AFC01220B490D48FFF7DAFF06
:1022F0000C49206888420CD101220B49074801F0A3
:10230000FCFB07480122BDE8104007494430FFF7B5
:10231000C9BF10BD005000405EC00120F8F0012090
:1023200090C2012000100140E7C001202DE9F843D0
:10233000044690F83D001F4616460D4620284CD115
:10234000C5B1BEB194F83C00012846D0012084F804
:102350003C004FF00008C4F84080212084F83D0084
:10236000FEF788FEA6848146E684A068B0F5805F0B
:1023700003D004E00120BDE8F883206928B12E468F
:102380005FF0000584F83C800EE00026FAE780212B
:10239000204600F0D0FEA0B9AEB116F8010B2168BE
:1023A0004860E08C401EE084E08C4B464FF0000219
:1023B00000970028EBD14FF04001204600F0BBFE13
:1023C00030B10320D7E735F8020BC0F30800E6E789
:1023D000202084F83D000020CDE70220CBE790F8D4
:1023E0003D30202B18D1A9B1A2B190F83C30012B7F
:1023F00012D001628284C28400210164212280F80B
:102400003D2080F83C100068C16841F08001C16047
:102410000020704701207047022070477047FEE798
:102420000D4808B5016841F4800101600068002290
:1024300000F48000009011463820FEF789FE382015
:10244000FEF778FE002211463B20FEF781FEBDE834
:1024500008403B20FEF76EBE303802402DE9F04FB9
:1024600087B014216846FEF723F99F4800250168CC
:1024700041F010010160016801F01001059101684F
:1024800041F004010160016801F004010591016857
:1024900041F020010160016801F02001059101680F
:1024A00041F080010160016801F08001059101683F
:1024B00041F001010160016801F00101059101682D
:1024C00041F002010160016801F00201059101681B
:1024D00041F008010160016801F0080105910168FF
:1024E00041F0400101600068012200F040000590C9
:1024F0007C217E48FEF7B9FDDFF8F4B1012243F2FA
:10250000C2715846FEF7B1FDDFF8E8A100220C21A8
:102510005046FEF7AAFD4FF40047002239465846C0
:10252000FEF7A3FD002281217048FEF79EFD0022E8
:1025300039467148FEF799FD4FF4A0480122414603
:102540006E48FEF792FD002239466D48FEF78DFD7C
:10255000002203216948FEF788FD4FF480590122CB
:1025600049466848FEF781FD00224FF44041654826
:10257000FEF77BFD01247C20CDE9000469465B4821
:10258000CDE90245FEF76CFC43F20200CDE9000400
:102590000226CDE9024669465846FEF761FC40F640
:1025A0000800CDE90005694602945846FEF758FC3C
:1025B0004FF4F860CDE9000469465846CDE902457C
:1025C000FEF74EFC0C208DE85100694650460396FC
:1025D000FEF746FCCDE90045694649480294FEF7FE
:1025E0003FFC4220CDE90005694602944248FEF7CF
:1025F00037FC00970395CDE9014669465846FEF73A
:102600002FFC812003958DE8510069463748FEF77D
:1026100027FC60020090CDE90165CDE903546946CD
:102620003248FEF71DFCE002CDE900056946029440
:102630002E48FEF715FC00970395CDE90146694643
:102640002D48FEF70DFC4FF41270CDE900056946E8
:1026500002942A48FEF704FCCDE90084CDE9024645
:1026600069462648FEF7FCFB4FF45C60CDE90005A7
:10267000694602942348FEF7F3FB0097CDE9014633
:1026800069461F480396FEF7EBFB4FF00308CDF8B1
:1026900000800395CDE9014669461848FEF7E0FB46
:1026A00001AACDF8009082E8500169461548FEF76E
:1026B000D7FBA00303958DE8510069461148FEF74A
:1026C000CFFBCDE90074CDE9024869460D48FEF71D
:1026D000C7FBCDE90065694604480296FEF7C0FBDA
:1026E00007B0BDE8F08F0000303802400010024013
:1026F000001402400008024000040240000C0240A6
:1027000000000240001802400F4810B50D4901605A
:102710004FF482714160002102228160C0E90312FE
:102720001202C0E90512C1610162416281620A219F
:10273000C162FEF7E2FF002803D0BDE81040FEF7BB
:10274000AEB910BD00300140ECC001201CB5002422
:102750000F4800940D490194016040F2E731C0E94F
:1027600001145321C16080218161FFF70FFA08B184
:10277000FEF795F90094694605480194FFF7BEF904
:10278000002801D0FEF78BF91CBD000000100040AE
:1027900004C201200C4810B50A4901604FF41651DB
:1027A0004160002181600C22C160C0E90412816196
:1027B000C161FFF76FFC002803D0BDE81040FEF7B1
:1027C0006EB910BD004C00404CC201200C4810B541
:1027D0000A4901604FF4E1314160002181600C221F
:1027E000C160C0E904128161C161FFF753FC002898
:1027F00003D0BDE81040FEF752B910BD00500040B4
:1028000090C201200C4810B50A4901604FF4E13133
:102810004160002181600C22C160C0E90412816125
:10282000C161FFF737FC002803D0BDE81040FEF778
:1028300036B910BD00100140D4C20120FEE7FEE70A
:10284000704710B5806B01684A6822F003024A6045
:10285000416D41F010014165012180F85110FEF7F2
:102860004BFF10BD10B5806BFFF731F910BD38B5C7
:102870000546846BFEF7FEFB024628680068C0052B
:1028800023D42068416821F020014160206841681C
:1028900021F0020141606421204600F01BF818B1CC
:1028A000606D40F020006065A068002118B92068C4
:1028B000C26880680090E186012084F85100606D54
:1028C00018B12046FEF718FF38BD2046FFF7FEF886
:1028D00038BD000038B504461248134B0068B0FB01
:1028E000F3F04FF47A73584300906068B0F5827F3C
:1028F0000DD10B46009200228021204600F016F8F0
:1029000070B1606D40F020006065032038BD009814
:1029100030B1401E009020688068C0430006F6D5A4
:10292000002038BD10C0012000366E012DE9F843AB
:102930001E46914688460446089DFEF79BFB401BB9
:10294000351AFEF797FB074625480068C0F3CB30E1
:10295000684338E0701C37D0FEF78CFBC01BA842E0
:1029600003D215B1009860B32CE02068416821F0D3
:10297000E00141606068B0F5827F0BD1A068B0F5DE
:10298000004F02D0B0F5806F04D12068016821F0BB
:1029900040010160A06AB0F5005F09D120680168BC
:1029A00021F4005101602068016841F40051016088
:1029B000012084F85100002084F850000320BDE875
:1029C000F8830025401E00902068816838EA0100E5
:1029D00004D000214945BDD10020F0E70121F9E7ED
:1029E00010C001202DE9F04107460021EF2340F2FD
:1029F0003F12084600F0C8F80E4E0022042130466F
:102A0000FEF733FB00244FF448653A4629460A484E
:102A1000FDF724FE2946084800F028F9641CA4B2FA
:102A2000302CF2D33046BDE8F04101220421FEF7FC
:102A30001CBB00000008024078E401201FB54FF4E1
:102A400048614548FDF712FE1920FEF7F7F9434C9F
:102A5000002201212046FEF708FB1920FEF7EEF9BF
:102A6000012211462046FEF700FB3220FEF7E6F970
:102A70003A2000F0DDF8652000F040F9B22000F0C7
:102A8000D7F837A1D1E90001CDE900010521684659
:102A900000F0ECF8042000F0B3F8B72000F0C8F81C
:102AA000352000F02BF9BB2000F0C2F8192000F00F
:102AB00025F9C02000F0BCF82C2000F01FF9C2203E
:102AC00000F0B6F8012000F019F9C32000F0B0F8CA
:102AD000122000F013F9C42000F0AAF8202000F022
:102AE0000DF9C62000F0A4F80F2000F007F9D0205F
:102AF00000F09EF8A42000F001F9A12000F0FEF8FB
:102B0000E02000F095F818A00FC88DE80F000E2106
:102B1000684600F0ABF8E12000F08AF816A10FC972
:102B20008DE80F000E21684600F0A0F8202000F08C
:102B30007FF8112000F07CF8132000F079F82920AC
:102B400000F076F83220FEF779F904B00020BDE8F5
:102B50001040FFF747BF000078E40120000C02405E
:102B60000C0C003333000000D0040D11132B3F5424
:102B70004C180D0B1F230000D0040C11132C3F44E4
:102B8000512F1F1F202300002DE9F843DFF86C8030
:102B900015460E4607461C46002204214046FEF715
:102BA00064FA2A2000F044F8380A8DF800008DF805
:102BB0000170280A8DF802008DF803500421684640
:102BC00000F054F82B2000F033F8300A8DF80000A4
:102BD0008DF80160200A8DF802008DF80340042171
:102BE000684600F043F82C2000F022F84046BDE88B
:102BF000F84301220421FEF738BA00000008024021
:102C000010B50446362000F013F8052C0FD2DFE88B
:102C100004F0030507090500C02004E0A02002E03D
:102C2000002000E06020BDE8104000F067B810BD53
:102C300031B50C4C002204212046FEF716FA002282
:102C400008212046FEF711FA4FF0FF3301226946B2
:102C50000548FEF71BFE012204212046FEF705FA77
:102C600038BD000000080240ECC001202DE9F05FF3
:102C70001F4F0C460646002204213846FEF7F5F9A0
:102C8000012208213846FEF7F0F94FF480394FF65B
:102C9000FF7BDFF86080DFF860A01FE04C4501D3C8
:102CA000584600E0204685B2B8F80000A0420CD893
:102CB0002A4631461048FEF79DFEDAF8480000BF6C
:102CC00090F835100129FBD106E04FF0FF332A467A
:102CD00031460948FEF7DAFD2E44641B002CDDD195
:102CE0003846BDE8F05F01220421FEF7BEB90000BE
:102CF000000802405CC00120ECC0012031B50C4C42
:102D0000002204212046FEF7B0F9012208212046C6
:102D1000FEF7ABF94FF0FF33012269460548FEF795
:102D2000B5FD012204212046FEF79FF938BD0000C1
:102D300000080240ECC001207047FEF7A1B9000076
:102D400030B593B030216846FDF7B2FC14210CA8D1
:102D5000FDF7AEFC1D480025016841F0805101607F
:102D6000006800F0805011901948016841F48041DA
:102D700001600068022400F480401190012003905B
:102D800010200490009406940820CDE90750A82054
:102D9000CDE9090404200B906846FEF7F7FA08B164
:102DA00072B6FEE70CA90F2081E831004FF4A05065
:102DB0000F904FF48050109005210CA8FEF7FAF9FF
:102DC000002801D072B6FEE713B030BD4038024093
:102DD000007000400248016841F4700101607047D2
:102DE00088ED00E00148FEF75EBF000004C201204C
:102DF000F0B50268254C264D264E274F274B4FF045
:102E0000804CA04209D0604507D0A84205D0B0420E
:102E100003D0B84201D0984204D122F0700E4A6823
:102E200042EA0E02A0421BD0604519D0A84217D03A
:102E3000B04215D0B84213D0984211D0184DA842D4
:102E40000ED0184DA8420BD0174DA84208D0174DF0
:102E5000A84205D0164DA84202D0164DA84203D173
:102E600022F44075CA682A434D6922F080022A4341
:102E700002608A68C2620A688262A04201D09842F7
:102E800001D10969016301214161F0BD00000140E8
:102E90000004004000080040000C00400004014015
:102EA000004001400044014000480140001800403B
:102EB000001C0040002000400148FEF7B7BF0000A2
:102EC0004CC201200148FEF7B1BF000090C20120B2
:102ED00010B5806B0021C185C184FEF7A5FF10BD30
:102EE00001680C3151E8002F22F4907241E8002370
:102EF000002BF5D10168143151E8002F22F00102B6
:102F000041E80023002BF5D1016B012909D10168AB
:102F10000C3151E8002F22F0100241E80023002B71
:102F2000F5D1202180F83E1000210163704708B5DB
:102F300090F83E10222901D0022008BD82684FF48B
:102F400080539A4201D1016921B1816A9A421BD012
:102F50004AB10AE00268816A5268C2F308020A8034
:102F6000816A891C08E0026972B10268526802F045
:102F70007F020A70816A491C8162C18D491E090461
:102F8000090CC18503D019E002685268F1E70168B5
:102F9000CA6822F02002CA600168CA6822F48072FE
:102FA000CA6001684A6922F001024A61202180F862
:102FB0003E10016B012903D0FFF78AF9002008BDFC
:102FC0000021016301680C3151E8002F22F010024A
:102FD00041E80023002BF5D101680A68D20602D52A
:102FE0000A6849680091818DFEF71DFFE6E7000041
:102FF00070B5044600680169E26821F4405111434C
:1030000001612169A068E2690843616911430843CD
:103010002168CA6849F20C639A430243CA60206877
:103020004169A26921F4407111434161314920682D
:10303000884202D03049884202D1FEF765F901E0AA
:10304000FEF752F9E2690023192164253226B2F510
:10305000004F626828D0A0FB0101930F9200FDF79A
:1030600008F90146B0FBF5F06FF01802504301EB90
:10307000800006EB0010B0FBF5F000F0F002B1FBB1
:10308000F5F002EB0012B1FBF5F06FF018035843B6
:1030900001EB800006EB0010B0FBF5F000F00F0034
:1030A00021681044886070BDA0FB010192185B414B
:1030B000FDF7DFF80146B0FBF5F00201B1FBF5F0DA
:1030C0006FF01803584301EB800006EBC000B0FB23
:1030D000F5F000F0F80002EB4002B1FBF5F05843C8
:1030E00001EB800006EBC000B0FBF5F000F007003C
:1030F000D6E7000000100140001401408162828583
:10310000C28500210164222280F83E2080F83C1014
:10311000016921B10168CA6842F48072CA6001681D
:103120004A6942F001024A610068C16841F0200129
:10313000C160002070472DE9F041984617460E46C1
:103140000446069D27E0681C25D02DB1FDF792FFAF
:10315000A0EB0800A8421ED920680C3050E8001FE0
:1031600021F4D07140E80012002AF5D12068143013
:1031700050E8001F21F0010140E80012002AF5D1BB
:10318000202084F83D0084F83E00002084F83C00B4
:103190000320BDE8F0812068006836EA000004D012
:1031A0000020B842CFD00020F3E70120F9E700006B
:1031B0000148FEF73BBE0000D4C20120FEE709072C
:1031C000090E002804DB00F1E02080F800147047AD
:1031D00000F00F0000F1E02080F8141D704700009F
:1031E000A3F5C04246F26201603A07D08B420AD191
:1031F0000088022807D104A0FDF7B2B80088012892
:1032000001D103A0F8E77047CFC2D2BBD2B30A0006
:10321000C9CFD2BBD2B30A00F8B50024022A09D123
:10322000822901D0802905D105784F2D02D145781A
:103230004B2D04D0832908D0812918D022E015A075
:10324000FDF78EF84FF0FF30F8BD03881C0A44EA02
:1032500003239BB28478002505E04619377947554A
:10326000F7787770AD1CB5EB440FF6D30AE003781E
:103270004478002504E04619B67846556D1CEDB239
:10328000A542F8D3044DAD680DB10094A84720467F
:10329000F8BD00004F4B0A0044C0012030380A2816
:1032A00001D20120704700207047000010B502488D
:1032B00000F0A7FBC0B210BDF8F0012008B5012155
:1032C000684600F08DFD9DF8000008BD13B589B279
:1032D000684600F08FFD1CBD7047704778B500232D
:1032E000051D12E031F81340260A46EA0424ADF821
:1032F000004090F82440BDF800602C44268090F8EF
:103300002440A41C80F824405B1C9342EAD378BD7F
:1033100003B54FF6FF720199914204D2012201A92F
:10332000FFF7DCFF0CBD10F8243FA0F120021A4487
:1033300009BA11600178091D01700CBD70B5154600
:10334000044690F82420001D10442A46FDF741F958
:1033500014F8240F2844207070BD00F0F3B900F079
:103360001FB870477047000010B5034CC4E9042033
:10337000C4E9023110BD000044C0012010B5252170
:103380000448FDF773F90349002081F8240008463A
:1033900010BD000004E1012080F8241070470000F7
:1033A0002DE9F041234C4FF0FF37606970B30025E1
:1033B0006069804700281ED0E06880470646607834
:1033C000D8B1012825D002282DD003282ED00428DA
:1033D000EED1194960680E54401C6060A178491E06
:1033E0008842E5DBA078E178401EC2B21248FFF7C0
:1033F00013FF65706560BDE8F08120210E48FDF780
:1034000035F9A570E5705A2E01D0656006E00120FF
:1034100007E0A52E04D01EB1656065703846EAE766
:1034200002206070C4E7A6700320FAE7E67004206B
:10343000F7E7000044C0012029E1012002490144CE
:10344000842000F020B800000000015AF7B51446AF
:103450000D46FFF793FF064601226946FFF73EFF40
:103460001CB92846FDF796F8C4B2224629463046D4
:10347000FFF764FF21463046FFF78EFF314682207A
:1034800000F084FDFEBD73B50D46FFF777FF0446DF
:1034900001226946FFF722FF29462046FFF738FF41
:1034A0002146822000F072FD7CBD000010B51E4B4D
:1034B0001E4A1F491F48FFF757FF0220FFF7BEFFB4
:1034C00000214FF4C040FFF7DEFF002146F202006A
:1034D000FFF7D9FF002146F20400FFF7D4FF0021D7
:1034E00046F20600FFF7CFFF002146F20800FFF783
:1034F000CAFF002146F22000FFF7C5FF002146F277
:103500000A00FFF7C0FF002146F20C00FFF7BBFFE7
:103510000A2209A18120FFF799FF0C22BDE8104083
:1035200008A18220FFF792BFE1310008CD320008E8
:10353000BD320008AD3200082020202020202020AD
:10354000000000002020202020202020202000003B
:103550002DE9F047654E00274FF001083078B94655
:10356000401EC5B2746894E0E07E410909D0A1898B
:103570004FF6FF72491C89B2A181914201D3218B80
:10358000A181410904D001291BD002297CD195E0F9
:10359000F26808FA05F111420FD0A4F80C90A4F8D3
:1035A0000E9020F01E00E076A16809B12046884701
:1035B000E07E20F0E000203062E020F01E001630B7
:1035C0005EE0F26808FA05F1114241D0E189B1B13B
:1035D000A289238A9A4257D9032900D3032161F390
:1035E0004400E076A16809B120468847E07E20F0DB
:1035F000E0002030E0764846A4F80C905CE0A18919
:10360000228B91420AD3C0F3430108293CD020F019
:103610001E0010300CE02046884732E0E28A9142DA
:103620000BD3C0F3430106292ED020F01E000C302E
:10363000E076A1680029EED123E0A28A914223D34B
:10364000C0F3430104291FD020F01E000830EFE72B
:10365000A189228B914206D320F01E00123008E08F
:103660002046884709E0E28A914218D320F01E00E4
:103670000E30E076A1680029F2D1E07E20F0E00073
:10368000E076E07E400901D07F1CFFB224686D1E09
:10369000EDB2002C7FF468AF3846BDE8F087A28A0F
:1036A000914203D320F01E000A30E2E720F0E00050
:1036B0004030E076E089401CE081E2E7F26808FAF9
:1036C00005F1114206D020F0E0002030E076A4F8A9
:1036D0000C90D6E7A189228A9142D5D9E1890329A4
:1036E00000D3032161F34400C3E7000034C001208C
:1036F00030B513494FF0FF354A68144628B10B78AE
:10370000202B02D804E0824201D1284630BD126845
:10371000002AF8D10460C27E002422F0FE02163294
:10372000C2768481C4810F240482486002F00100C3
:103730008A68984010435B1C8860D8B2087030BD1E
:1037400034C001202DE9F0410C4E0024307875681A
:10375000401EC7B206E028468847B84004432D689B
:103760007F1EFFB215B169680029F4D1B168E0434A
:103770004840F060BDE8F041FFF7EABE34C00120E8
:1037800013B54FF6FF73012269460248FEF7CEFDDE
:1037900000981CBDD4C2012010B5027B074B00214C
:1037A000064C43F82210FF22037B5034E25441734D
:1037B0004160816001604161016110BDA0E00120B4
:1037C00000214160016001727047F0B40C7AC4B10D
:1037D00000230A6806E005681668B54204D9126934
:1037E0005B1CDBB29C42F6D85AB1026153695BB1F3
:1037F0004361536918615061087A401C0872F0BC3B
:103800007047F0BC00F004B8002308604361F2E7A1
:1038100010B50C7A4A6800233CB11061C0E904324B
:103820004860087A401C087210BD08604860036157
:103830004361F6E770B54FF400710C48FDF708FCE2
:10384000044602210A48FDF703FC0A4D44EA4004FD
:1038500008212846FDF7FCFB44EA8004E9142846C9
:10386000FDF7F6FB44EAC000C0B270BD000C024098
:10387000000402400014024070B50025284600F004
:1038800031F8FFF7D7FF0F2821D0FFF7D3FF0F281C
:103890001DD000245FF0010606FA04F0C04380B298
:1038A00000F020F8FFF7C6FF072816D00B2810D02D
:1038B0000D2805D00E2807D104EB8400401C02E03F
:1038C00004EB8400801CC5B2641C052CE4DB284694
:1038D00070BD04EB8400C01CF5E704EB8400001D00
:1038E000F1E7000070B5134D044600F0010202211B
:1038F0002846FDF7BAFBAE14C4F340023146284611
:10390000FDF7B3FB31460C4EC4F380023046FDF7A1
:10391000ACFBC4F3C0024FF400512846FDF7A5FBF1
:10392000C4F300123046BDE870404FF48041FDF70B
:103930009CBB000000140240000C0240024630B460
:10394000234B2448082A41D2DFE802F0040C141B60
:1039500022293037012901D0012200E000224FF452
:10396000807105E0012901D0012200E000228021C0
:10397000184628E0012901D0012200E00022402160
:10398000F6E7012901D0012200E0002240211AE0DF
:10399000012901D0012200E00022202113E00129A9
:1039A00001D0012200E0002210210CE0012901D009
:1039B000012200E00022082105E0012901D00122B6
:1039C00000E00022042130BCFDF74FBB30BC704743
:1039D0000014024000100240704701000BD008683C
:1039E00048B1486838B1CA6889688A4207D09142AC
:1039F00003D9881A03E000207047511A401A401E6C
:103A0000704738B1016829B142681AB1C16880684D
:103A1000814202D14FF00000704702D9A1EB0000B3
:103A20007047A0EB0100A2EB0000704740B139B134
:103A300032B100230361C36080E80E0001207047AB
:103A40000020704728B1016819B1406808B1012011
:103A50007047002070471CB500230193009301AB11
:103A600000F004F8002800D001981CBD2DE9F047B3
:103A70009946089B1446050088460FD0286868B10F
:103A8000686858B1B8F1000F08D03CB12846FFF77C
:103A9000B8FF18B1A04204D2D90702D00020BDE877
:103AA000F087A04200D20446D5E90106871BA74251
:103AB00000D3274628683A4681194046FCF789FD1D
:103AC000F019E61B06D008EB070032462968FCF720
:103AD00080FD30466968814200D80020A8602B69CB
:103AE0001BB1BA19002128469847B9F1000F02D03E
:103AF000B919C9F800100120D1E71CB500230193C2
:103B0000009301AB00F004F8002800D001981CBD20
:103B10002DE9F0479946089B1446050088460FD0CA
:103B2000286868B1686858B1B8F1000F08D03CB196
:103B30002846FFF752FF18B1A04204D2D90702D09D
:103B40000020BDE8F087A04200D20446EE68686815
:103B5000871BA74200D3274628683A46304441468F
:103B6000FCF737FDF019E61B06D008EB07013246DB
:103B70002868FCF72EFD30466968814200D8002095
:103B8000E8602B691BB1BA19012128469847B9F1A1
:103B9000000F02D0B919C9F800100120D1E70000C8
:103BA000FDF776FAFFF7CCF8FEF758FCFEF738FC85
:103BB000FEF7CCFDFEF7A8FDFEF708FEFEF722FE9D
:103BC000FEF7E8FD00F010FA0448FEF72BF800F0CD
:103BD00097FA00BF00F05CFAFCE7000004C2012085
:103BE00000F07AB810B501460020897E152911D25F
:103BF000DFE801F0100B11171C21262B30353A3F5E
:103C000044494E53585D62676C00FFF735FE01284A
:103C100000D0002010BDFFF72FFE0228F9D10120AF
:103C200010BDFFF729FE0328F9D0F2E7FFF724FEC5
:103C30000428F4D0EDE7FFF71FFE0528EFD0E8E7F2
:103C4000FFF71AFE0628EAD0E3E7FFF715FE07287C
:103C5000E5D0DEE7FFF710FE0828E0D0D9E7FFF750
:103C60000BFE0928DBD0D4E7FFF706FE0A28D6D0E2
:103C7000CFE7FFF701FE0B28D1D0CAE7FFF7FCFD25
:103C80000C28CCD0C5E7FFF7F7FD0D28C7D0C0E75B
:103C9000FFF7F2FD0E28C2D0BBE7FFF7EDFD0F28BE
:103CA000BDD0B6E7FFF7E8FD1028B8D0B1E7FFF7C1
:103CB000E3FD1128B3D0ACE7FFF7DEFD1228AED04C
:103CC000A7E7FFF7D9FD1328A9D0A2E7FFF7D4FD96
:103CD0001428A4D09DE7000010B5817E012912D0E0
:103CE000022928D1C07EC0F34300002823D0012838
:103CF0001CD002281FD110A0FCF732FB0420BDE825
:103D0000104000F08EBBC07EC0F34300002812D0EC
:103D1000012806D002280ED10CA0FCF721FB0220BE
:103D2000EDE70FA0FCF71CFB0120E8E710A0FCF773
:103D300017FB0320E3E710BD4D41545249585F4B38
:103D400045595F372078320A000000004D41545237
:103D500049585F4B45595F55502078320A000000A2
:103D60004D41545249585F4B45595F55500A000028
:103D70004D41545249585F4B45595F370A00000086
:103D80002DE9F0474FF413711248FCF791FC114DE7
:103D9000114E124F00244FF04B084FF096094FF090
:103DA000E10A00BFC4EBC40005EB80008476C0E9E3
:103DB0000167C17E41F00101C176A0F81480A0F82E
:103DC0001690A0F818A0FFF793FC641C152CE9DBF3
:103DD000BDE8F0872CE20120E53B0008E13B00084C
:103DE00010B5014601220248FFF735FE002010BD44
:103DF000F8F001202DE9F04101220B4F0C46054659
:103E0000D60331463846FDF730F9224629460748A1
:103E1000FEF7E5FA0446002231463846FDF725F95B
:103E20002046BDE8F08100000004024090C201205D
:103E300070B504460B480C4E002150F8240006EBE8
:103E400084054200286900F02DF806480021103052
:103E500050F82420A86800F025F8012031190876D0
:103E600070BD00005044000814C0012010B50B4B79
:103E70000B4C002253F82030114604EB800005E083
:103E8000046934F8114004B1521C491C8B42F7D824
:103E900064204243B2FBF3F0C0B210BD50440008AE
:103EA00014C0012002E000BF00F8011B521EFBD22B
:103EB0007047000070B5034600201A4C4FEA000519
:103EC00000EB400604EBC606767B26B3401CC0B26E
:103ED0001428F5D32C4614482561C4E90132026840
:103EE000D0182060207B114B1D5419B1207B503B12
:103EF00043F820100D48216878389142017E01D2A4
:103F000081F0010101EB410100EB81012046FFF747
:103F10005CFC204670BD00EB400004EBC0040126B1
:103F20006673D8E798DE012030C00120F0E0012060
:103F300010B508490446087E00EB400001EB800103
:103F4000204600F00AF803492046BDE810401C3125
:103F5000FFF75EBC78E0012070470B68026983427E
:103F600007D100230A6012B10069436107E04B608A
:103F700005E043691A61D0E9042022B15061087A52
:103F8000401E087270474860F9E7000070B50446AB
:103F90000A4691F824005A211170A5215170401C45
:103FA0000F4D9070D4702B6923B192F824101046F5
:103FB000091D9847832C0FD0287868B15FF0C8049A
:103FC000FFF7EEF90546401C06D00120FFF7CAF9BD
:103FD00024B1641E002DF3DD002070BD012070BDF2
:103FE00044C001207047000070B52048FFF7E8FB8F
:103FF0001E481C38FFF7E4FB1C481038FFF7E0FBB5
:104000001A4900201C391B4B0876194903F5027424
:10401000FF250860014603F5167600BF01EB41025B
:1040200003EBC202507350601060906010615061E9
:10403000117344F821007554491CC9B21429EDD3F9
:104040000D494FF47A720968B1FBF2F1491EB1F1E2
:10405000807F09D24FF0E0225161084BF02183F8B4
:10406000141D90610720106170BD000094E00120D4
:1040700030C0012098DE012010C001200FE000E0D8
:1040800010B572B6FFF716FF62B690F90C0010BDBE
:1040900070B5154E002406F15005285DFF2807D0A5
:1040A00030B156F8240000B18047285D401E2855E5
:1040B000641CE4B2142CF0D30B480C38017A0029AC
:1040C00007D0046803E0207B285C18B12469002C29
:1040D000F9D170BD044920460C39FFF73EFF204658
:1040E000BDE87040FFF758BBA0E0012010B50122E9
:1040F00072B6FFF7DFFE62B690F90C0010BD00004B
:1041000010B50020FFF794FEFFF766FCFFF7E5F817
:1041100000F000F9FEF792FCFFF732FEFFF7C6F958
:1041200000F07CF900F096F800F022F9BDE81040AC
:1041300001496420FFF7DABF0D4200082DE9F04184
:10414000224E234D30680146401C884203D2297E0E
:1041500081F0010129763060287E00EB400005EBFC
:1041600080073C6824E01A4B207B7833195C491C9B
:104170001954A068A0F57F41FF3902D0401EA0600D
:104180001ED060683946104420602046FFF7E5FEE7
:1041900020683168884206D2287E80F0010000EB5A
:1041A000400005EB800739462046FFF70EFB2469E7
:1041B000002C03D0206832689042D4D9BDE8F08149
:1041C000022060732046FFF7B3FEF0E730C0012005
:1041D00078E0012010B50B4C207808B1012100E0F7
:1041E00000210020FFF7AAFB207840B100202070BA
:1041F000BDE810404FF400710348FCF72EBF0120CA
:10420000F5E70000E8C001200014024010B54FF6A9
:10421000FF7422460B490520FFF732FF22460A4968
:10422000C820FFF72DFF224608491420FFF728FF7A
:10423000224607493220FFF723FFBDE81040152032
:1042400000F0EFB863330008D54100085B33000885
:104250005F33000810B5FFF77FFEBDE81040FFF7A1
:10426000C1BE00F02FB8000030B401460020897EA6
:10427000114A124B08291DD2DFE801F00407090D8D
:10428000101517194FF4006103E0402104E04FF4CA
:104290008061104604E00821184601E00848012129
:1042A00030BCFCF7D5BE4021F3E78021F1E74FF4A5
:1042B0008071EEE730BC704700180240000C0240ED
:1042C00000000240817E00290ED8C07EC0F343006A
:1042D000002809D0012805D0022805D103A000BF7D
:1042E000FCF73EB806A0FBE770470000544F55436B
:1042F000485F425554544F4E5F55502078320A0063
:10430000544F5543485F425554544F4E5F55500AE1
:10431000000000002DE9F047E0211248FCF7C8F941
:10432000104D114E114F00244FF04B084FF09609DD
:104330004FF0E10AC4EBC40005EB80008476C0E9CD
:104340000167C17E21F00101C176A0F81480A0F8B8
:104350001690A0F818A0FFF7CBF9641C082CE9DB35
:10436000BDE8F0874CE10120694200086342000883
:1043700001A000F007B80000BBC6C9ABD5FDB7BDB2
:10438000D0CE00002DE9FC4107465A208DF80000F0
:104390008DF8010003208DF802000120174E8DF8E2
:1043A0000300002404EB041006EB400005463946E8
:1043B000FCF7A6F930B915F8200F8DF804006878DD
:1043C0008DF80500641C042CECD39F208DF80600AA
:1043D000F9208DF8070000246D4609A0295DFBF740
:1043E000BFFF641C082CF8DB07A0FBF7B9FF08210E
:1043F000684600F00BF8BDE8FC8100005FC00120BA
:1044000030782578202000000D0A00000A46014679
:104410000148FDF7E4BF0000D4C201200F20FCF7E3
:10442000C3BAFCF79DBA4FF04070E1EE100A704736
:104430000006101600061016000000000000000024
:10444000010203040607080900000000010203043A
:10445000C00D0000800700002000000020000000C8
:1044600000B8010000F00000303132333435363707
:1044700038394142434445464030580030313233A8
:1044800034353637383961626364656640307800A8
:10449000040000080000000000000002000100000D
:1044A00010000000D444000800C00120EC0000000F
:1044B000C4010008D44400080000002000B8010036
:1044C000E0010008C0450008ECC0012014370000DE
:1044D000E0010008000000000100000010000000E2
:1044E000000000000024F400313E00086D3E00088A
:1044F000000000200000001018C3012000F0001090
:1045000000000000000000000000000000000000AB
:10451000000000000000000001000000000000009A
:10452000000000000000000000000000000000008B
:10453000100000BAECC9ABD5FDB7BDD0CE0000006D
:10454000000000000000000000000000000000006B
:104550000000000101C2CCC9ABD5FDB7BDD0CE0073
:10456000000000000000000000000000000000004B
:1045700000000000000201C0B6C9ABD5FDB7BDD038
:10458000CE0000000000000000000000000000005D
:10459000000000000000000301BBC6C9ABD5FDB799
:1045A000BDD0CE00000000000000000000000000B0
:1045B00000000000000000000004010000000000F6
:040000050800018965
:00000001FF
