:020000040800F2
:1000000020F80120490200081F3E0008C1380008FE
:100010001D3E000865170008B949000800000000EF
:100020000000000000000000000000001543000870
:100030002518000800000000213E000817430008B2
:1000400063020008630200086302000863020008FC
:1000500063020008630200086302000863020008EC
:1000600063020008630200086302000863020008DC
:1000700063020008630200086302000863020008CC
:1000800063020008630200086302000863020008BC
:1000900063020008630200086302000863020008AC
:1000A000C1430008630200086302000863020008FD
:1000B0006302000863020008CD43000863020008E1
:1000C000630200086302000863020008630200087C
:1000D00063020008AD4900086302000863020008DB
:1000E000630200086302000863020008630200085C
:1000F000630200086302000863020008630200084C
:10010000630200086302000863020008630200083B
:10011000B9460008C5460008D94300086302000834
:1001200069170008630200086302000875170008D9
:10013000630200086302000863020008630200080B
:1001400063020008630200086302000863020008FB
:1001500063020008630200086302000863020008EB
:1001600063020008630200086302000863020008DB
:100170006302000863020008630200080000000038
:10018000630200086302000800F002F800F04CF877
:100190000AA090E8000C82448344AAF10107DA45E2
:1001A00001D100F041F8AFF2090EBAE80F0013F0E8
:1001B000010F18BFFB1A43F001031847287E000007
:1001C000687E0000103A24BF78C878C1FAD8520778
:1001D00024BF30C830C144BF04680C6070470000C1
:1001E0000023002400250026103A28BF78C1FBD840
:1001F000520728BF30C148BF0B607047662907F01F
:10020000BE85642900F0C480002070471FB507F048
:10021000ACFD00F08BFD04000020002106F040FF43
:10022000E0601FBD10B510BD00F084FE1146FFF761
:10023000EDFF06F043F900F0A2FE03B4FFF7F2FF72
:1002400003BC05F059FB00000948804709480047F6
:10025000FEE7FEE7FEE7FEE7FEE7FEE7FEE7FEE776
:10026000FEE7FEE704480549054A064B70470000D3
:10027000B14300088901000820F2012020F8012084
:1002800020F4012020F40120704753EA020C00F012
:1002900069802DE9F04B4FF00006002B1FBFB3FA29
:1002A00083F503FA05F424FA05F65E4012BF1643FF
:1002B000B2FA82F502FA05F4C5F120051EBF22FA52
:1002C00005FC44EA0C04203556EA044C4FEA144479
:1002D00018BF641C4FF000084FF00009904271EB0A
:1002E000030C39D3002919BFB1FA81F701FA07F6D7
:1002F000B0FA80F700FA07F6C7F120071EBF20FA10
:1003000007FC46EA0C062037B6FBF4FCA7EB050712
:10031000103F07F01F0BCBF120060CFA0BFB2CFA59
:1003200006F644BFB3460026202FA4BF5E464FF01A
:10033000000B5BEA060C08BF4FF0010B19EB0B0931
:10034000ABFB027C48EB0608C01B06FB02CC0BFB98
:1003500003CC71EB0C01C1E70B460246414648460F
:10036000BDE8F08B13B54FF000004FF00001AFF384
:100370000080BDE81C4070470FB4044910B503AAC3
:10038000029800F08BFC10BC5DF814FB00C001204B
:100390002DE9F0410646002410687529314616A55E
:1003A00010D0AFF30080002802DA404213A507E026
:1003B00031688A0701D512A502E0490704D511A5C5
:1003C000012401E0AFF3008000210A2206F1240796
:1003D00009E0B0FBF2FCB0FBF2F302FB1C00303092
:1003E00078541846491C0028F3D123462A46304643
:1003F000BDE8F04100F0D1B9000000002D00000080
:100400002B000000200000002DE9F05F8946044623
:100410004FF0000ADFF874B1FB44C0F820A020467A
:10042000E1688847002874D0252806D0D4E9012146
:100430009047206A401C2062F1E700265F46204674
:10044000E16888472028054607DB312D05D2781959
:1004500010F8200C08B10643F1E7B00701D526F0EB
:100460000406C4F81CA00027C4F818A02A2D09D03F
:10047000284605F023FA38B304EB8708303DC8F866
:10048000185019E059F8041B204604EB87029161CB
:10049000E1688847012F054618D1E069002820DA75
:1004A00026F020061DE0D8F8180000EB800005EBD0
:1004B00040003038C8F818002046E16888470546F3
:1004C00005F0FCF90028EED1012F0AD02E2D08D11D
:1004D0002046E16888477F1C0546022F46F020062B
:1004E000C4DBA069002803DA404246F00106A0619F
:1004F000F00701D026F010066C2D0BD0682D09D026
:100500004C2D39D06A2D35D0742D35D07A2D33D07D
:1005100016E038E0E1682F4620468847B842054695
:1005200009D16C2F26D04FF48060E1680643204645
:100530008847054604E06C2F1AD04FF480700643BC
:100540000DB3A5F14100192802D8203546F4006604
:100550004A462946204626604E46FFF74FFE80B1A8
:1005600001280BD0F61D26F0070000F1080956E718
:100570004020E4E78020D8E70020D6E706F1040910
:100580004DE7284652E7206ABDE8F09F907A0000C8
:1005900010B5431C02E010F8011B71B18107FAD1BC
:1005A0004FF0013202C88C1A8C4314EAC211F9D000
:1005B000C01A0A0603D0C01E10BDC01A10BD0A041E
:1005C00001D0801E10BD0902FCD0401E10BD032AC0
:1005D00040F2308010F0030C00F0158011F8013B60
:1005E000BCF1020F624498BF11F801CB00F8013B47
:1005F00038BF11F8013BA2F1040298BF00F801CB0B
:1006000038BF00F8013B11F0030300F05983083AAA
:10061000C0F0088051F8043B083A51F804CBA0E838
:100620000810F5E7121D5CBF51F8043B40F8043B8D
:10063000AFF30080D20724BF11F8013B11F801CBC2
:1006400048BF11F8012B24BF00F8013B00F801CB93
:1006500048BF00F8012B704702F0FF0343EA032272
:1006600042EA024200F002B84FF000020429C0F052
:10067000128010F0030C00F01B80CCF1040CBCF1D4
:10068000020F18BF00F8012BA8BF20F8022BA1EB26
:100690000C0100F00DB85FEAC17C24BF00F8012B0B
:1006A00000F8012B48BF00F8012B70474FF0000203
:1006B00000B5134694469646203922BFA0E80C5058
:1006C000A0E80C50B1F12001BFF4F7AF090728BF33
:1006D000A0E80C5048BF0CC05DF804EB890028BFAF
:1006E00040F8042B08BF704748BF20F8022B11F0D8
:1006F000804F18BF00F8012B704700004FF0013CFD
:1007000050F8042B51F8043B9A4221D1A2EB0C0380
:10071000934313EACC1317D150F8042B51F8043B40
:100720009A4215D1A2EB0C03934313EACC130BD1DD
:1007300050F8042B51F8043B9A4209D1A2EB0C0368
:10074000934313EACC13DBD04FF00000704700BF97
:10075000D01A01BAB1FA81F101F0180122FA01F0C0
:10076000CB40C1F12001DBB2C0B2C01A2CFA01F3B8
:10077000D11A914311EAC311E6D17047704770470F
:100780007047704710B500F0D5FA006810BD10B57D
:10079000044600F0CFFA046010BD2DE9F0470D4685
:1007A00099469246044600F124080168880604D55B
:1007B000E06921F01001216000E00120A84201DD84
:1007C000471B00E00027A1697A1902EB0900081A0B
:1007D000A0612078C00602D42046AFF30080002636
:1007E00008E0D4E901211AF806009047206A401C6D
:1007F000761C20624E45F4DB2078C0060AD52046E0
:10080000AFF3008006E0D4E9012130209047206A50
:10081000401C2062381EA7F10107F4DC07E0D4E990
:10082000012118F805009047206A401C2062281E0C
:10083000A5F10105F3DC2046AFF300802078000627
:1008400002D50220BDE8F0870120FBE770472DE9C3
:10085000FF4F0C461E464FF0FF378BB0D2E9000128
:10086000DDF860800A908A46C1F30A5505B93D4615
:10087000002108464FF00000BAF1000F00F44000DC
:1008800005DA00EB80004FF4400101EA50004FEA26
:100890009059B9F1010F00DDB9460A9850EA4A00B3
:1008A0000ED044F61050A5F2FF3545432F14B8F191
:1008B000000F1ED07542291E1EDDC9F100021CE08A
:1008C000B8F1010F4FF0000001D0302103E0F243F6
:1008D00005E02154401CB042FBDB304600220021E1
:1008E00021540B99C1F80880C1E900200FB0BDE880
:1008F000F08FBD1B6D1CDEE74A4600DA694206A890
:1009000000F0A2FA06AB93E8070003AB83E8070008
:1009100050460A9900F03CFB8DE80700A0F5005016
:100920001F3800900398002D0ADD42F21F014A464D
:100930000844002303A90390684600F0A5FD09E0E0
:10094000A0F500504A461F38002303A903906846CB
:1009500000F0AFFD8DE807000004000C03D04FF05D
:10096000FF30410800E01046B8F1000F03D000222C
:10097000009215461EE0751E05D400F0DFF93032F6
:1009800062556D1EF9D5B3460122084302D00022FC
:100990007F1C04E02078302801D100227F1E002A2D
:1009A000099784D01DE0112D07DA00F0C7F9303225
:1009B00062556D1C50EA0102F5D1084302D000983F
:1009C000C8B10EE00021681E05E0235C625C635440
:1009D0002254401E491C8142F7DBAB46A81B401E37
:1009E0000990002004F80B000B98099AC0F80880C1
:1009F000C0E9002B7AE711264FF0000857E72DE9F0
:100A0000F04F88460446D21D22F0070191B0D1E98B
:100A10000001CDE90A0103F0D0FF02460B98C00F98
:100A200001D02D2007E02068810701D52B2002E0AE
:100A3000202101EAC000032A099001D0072A05DB22
:100A400003464146204600F0BFF90BE120788006BE
:100A500001D5E06900E00620B8F1650F814606D0B7
:100A6000B8F1660F18D0B8F1670F70D131E00020EF
:100A7000B9F1110F009001DB112301E009F101032D
:100A80000AAA01A90CA8FFF7E2FEDDE90C70002616
:100A900009F10105834647E001204B4600904FF0E5
:100AA00000470AAA01A90CA8FFF7D1FEDDE90DB0A5
:100AB0000C995D46002610B909F101000D18B9EB3B
:100AC000050003D4C0F1FF3609F10105A5EB0900CB
:100AD0002BE0B9F1010F01DA4FF001090020B9F163
:100AE000110F0090484601DD112300E003460AAAD9
:100AF00001A90CA8FFF7ABFEDDE90C704D460026FE
:100B00008346207800070AD4AB4500DA5D4601A889
:100B1000012D04DD411911F8011C302907D04F4582
:100B200002DA17F1040F04DA012082460FE06D1E8D
:100B3000EEE7002F02DCED1B3E4403E0781CA842E8
:100B400000DD7D1CB81B00F1010A4FF00047207842
:100B5000000703D4AA4501DB4FF0FF3A0021B7F1AB
:100B6000004F0DF143088DF8431024D002202B23B1
:100B7000002F01DA7F422D230A21021EA0F101007D
:100B800000DC5FB197FBF1FC97FBF1F201FB1C7CF1
:100B900017460CF1300C08F801CDEEE7A8F1010082
:100BA00003702188090501D5452100E06521A0F1E8
:100BB000010800F8011C09980FA9A1EB0807FF1D07
:100BC00000B10120411901EBEA70A1693844081A0B
:100BD000401EA0612078C00602D42046AFF30080FA
:100BE000099828B1D4E901219047206A401C20626D
:100BF0002078C00622D52046AFF300801EE0002EEC
:100C000004DBB34502DD01A8805D00E03020D4E9BB
:100C100001219047206A401C2062761CAAF1010045
:100C20005FEA000A0AD100F081F8C0680168405C00
:100C3000D4E901219047206A401C2062281EA5F1BA
:100C40000105DCDC07E0D4E9012118F8010B90472D
:100C5000206A401C2062381EA7F10107F3DC204601
:100C6000AFF30080032011B041E6000001694A1C87
:100C700002610878704700B58FB0CDE901310021DD
:100C8000059105497944CDE9031011466846FFF7FF
:100C9000BBFB0FB000BD0000E5FFFFFF074B70B5C9
:100CA0000D467B44FFF7E7FF0446284600F03EF977
:100CB00010B14FF0FF3070BD204670BDFF530000F3
:100CC00010B5203AC0F00B80B1E81850203AA0E8E7
:100CD0001850B1E81850A0E81850BFF4F5AF5FEA1B
:100CE000027C24BFB1E81850A0E8185044BF18C9CE
:100CF00018C0BDE810405FEA827C24BF51F8043B75
:100D000040F8043B08BF7047D20728BF31F8023BC8
:100D100048BF11F8012B28BF20F8023B48BF00F85C
:100D2000012B704700487047C0F101200048704710
:100D3000E0F1012000487047C0F1012030B5B0F16A
:100D40000A024FEA900E71F100034EEA817EB0EB89
:100D50000E0061EB91014FEA101E4EEA017E10EB8E
:100D60000E0041EB11114FEA102E4EEA016E10EB0E
:100D70000E0041EB11214FEA104E4EEA014E10EBEE
:100D80000E0041EB1141401841F100014FEAD00043
:100D900040EA41704FEAD10110EB80054FEA81042F
:100DA00044EA907444EB01046D1944EB0404521BB3
:100DB000A3414FF0000348BF0A3200D530BD401CAC
:100DC00041F1000130BD00002DE9F0411F4604460D
:100DD00003260168072A01F4006004DB08B116A5A8
:100DE00005E016A503E008B115A500E015A521F062
:100DF00010002060A069C01EA0610FB1401EA0615C
:100E00002046AFF300804FB1D4E901213846904726
:100E1000206A401C2062C01C206206E0206AFAE7BB
:100E2000D4E9012115F8010B9047761EF8D220462F
:100E3000AFF30080BDE8F0814E414E006E616E0060
:100E4000494E4600696E66002DE9F0478146164618
:100E50008AB0354878440DC88DE80D003248784492
:100E6000801C03AC0DC884E80D0041F69B3008449B
:100E7000372190FBF1F290FBF1F5A5F1800501FB24
:100E800012041B3C02D56442012000E00020DFF880
:100E900098A080460027FA44AAF1BE0A0EE0E007B7
:100EA0000AD03246684607EB470101230AEB81016D
:100EB00000F0FFFA8DE8070064107F1C002CEED1D3
:100EC000194F7F44AE3F19E0E80715D007EB041037
:100ED0000DF1180A90E80E008AE80E00C068F04292
:100EE00001D1981908903246012306A903A800F001
:100EF000E0FA03AB83E807006D10641C002DE3D11A
:100F00004FF0010332466946B8F1000F03A802D042
:100F100000F0BAFA01E000F0CCFAC9E90001C9F822
:100F200008200AB0BDE8F08774710000007B00F073
:100F3000800070477546FFF7F5FEAE46050069462E
:100F4000534620F00700854618B020B5FFF78AF910
:100F5000BDE820404FF000064FF000074FF00008BA
:100F60004FF0000B21F00701AC46ACE8C009ACE83B
:100F7000C009ACE8C009ACE8C0098D46704710B59F
:100F80000446AFF300802046BDE81040FFF755B996
:100F90005FEA400C08BF91F0000F4FEA8C234FEA44
:100FA000C12243EA51514FEA1C5018BF00F5F040EE
:100FB0004FEA300018BF41F000415FEA6C5C00F07E
:100FC0002980BCF1FF3F08BF40F080407047130C00
:100FD00006BF12044FF0100C4FF0000C130E04BFAC
:100FE00012020CF1080C130F04BF12010CF1040CD7
:100FF000930F04BF92000CF1020CD30F04BF5200F8
:101000000CF1010C11464FF00002A0F11F00A0EB03
:101010000C00704711F0004F08BF704731F00041DD
:101020003FF4D5AF0B0C06BF09044FF0100C4FF086
:10103000000C0B0E04BF09020CF1080C0B0F04BFCF
:1010400009010CF1040C8B0F04BF89000CF1020C98
:10105000CB0F04BF49000CF1010CCCF12003A0EB35
:101060000C0022FA03F302FA0CF241EA030100F148
:101070000100704720F07F4C80EA030023F07F4797
:10108000ACEB070303F57C5300F0004003F1FF03D2
:101090002DE980494FEA154B09B44FEA144325EA7C
:1010A0000B4E24EA03480FF2042606EB13274908E7
:1010B0003E785FEA320203FB0667C7F5000707FBCD
:1010C00006F64FEA54374FEAD64606F1020607FB0A
:1010D000066CCCF1005C4FEA1C472CEA074C07FB7E
:1010E00006F40CFB06F504EB15464FEA961634BFE2
:1010F00000204FF000404FEAD13706FB07FC4FEAD3
:101100001C4C0CFB0BF7D21B03FB0CF761EB07012C
:101110000CFB0EF7B0EB074072EB17420CFB08F725
:1011200034BFA2EB0742B2EB074261EB17414FEA33
:101130000C444FEA910706FB07FC4FEA1C4C0CFBE2
:101140000BF7B0EBC74072EB573203FB0CF734BF21
:10115000A2EBC742B2EBC74261EB57310CFB0EF773
:10116000B0EBC70072EB57720CFB08F734BFA2EB71
:10117000C702B2EBC70261EB5771039F4FEA81616F
:1011800041EA921104EBCC044FEAD1374FEA826274
:1011900006FB07FC42EA90124FEA80604FEA1C4CC3
:1011A0000CFB0BF7D21B03FB0CF761EB07010CFBED
:1011B0000EF7B0EB074072EB17420CFB08F734BF99
:1011C000A2EB0742B2EB074261EB17414FEA8C55A5
:1011D0004FEA910704EB9C2406FB07FC4FEA1C4CEA
:1011E0000CFB0BF7B0EBC74072EB573203FB0CF76D
:1011F00034BFA2EBC742B2EBC74261EB57310CFBE5
:101200000EF7B0EBC70072EB57720CFB08F734BF58
:10121000A2EBC702B2EBC70261EB577115EB4C258D
:101220004FEA816141EA92114FEA82624FEAD13777
:1012300042EA901206FB07FC44F100044FEA80608A
:101240004FEA1C4C0CFB0BF7D21B03FB0CF761EBBA
:1012500007010CFB0EF7B0EB074072EB17420CFBDB
:1012600008F734BFA2EB0742B2EB074261EB17412C
:1012700015EB1C154FEA813141EA92414FEA823267
:1012800042EA90424FEA80304FEA0C7644F1000483
:1012900048EA03434EEA0B484FF0000EB2EB080C4D
:1012A00071EB030724BF624639464EEB0E0E4FF03A
:1012B000000B0018524149414BEB0B0BB2EB080CF1
:1012C00071EB03077BF1000B24BF624639464EEBFE
:1012D0000E0E4FF0000B0018524149414BEB0B0B27
:1012E000B2EB080C71EB03077BF1000B24BF6246E5
:1012F00039464EEB0E0E51EA020718BF46F00106C2
:1013000016EB0E7655F1000254F1000103D5BDE84D
:101310008901BDE80088BDE88901BDE80048B6192B
:10132000524141EB0101A3F10103704780807F7EB0
:101330007D7C7B7A7978777676757473727171704B
:101340006F6E6E6D6C6C6B6A6A69686867666665FD
:101350006464636362616160605F5F5E5E5D5D5C8B
:101360005C5B5B5A5A5959585857575656555555FC
:101370005454535352525251515050504F4F4F4E5C
:101380004E4D4D4D4C4C4C4B4B4B4A4A4A494949AA
:1013900048484847474747464646454545444444EC
:1013A000444343434342424242414141002B9C4615
:1013B00030D477002BD01CB54FEA370703B44FF079
:1013C00010004FF01001BAF1000F06D0BCF1000F71
:1013D000DCBF40F0080040F008014FF000000FBCF7
:1013E000BDE810400BF1010BBBF1010F08BF5FEA34
:1013F000170722BF12F1010211F101014FF0004164
:1014000043F1000300F0004043EA00007047F9D3C5
:101410005708D0E746EA064613F1400F4FEA164652
:101420001FDD13F1200FDFBF16430A4600212033D2
:101430005B42BED0C3F1200746EA064602FA07F730
:101440004FEA164646EA0706C3F1200722FA03F2DE
:1014500001FA07F721FA03F14FF0000342EA07020D
:10146000A7E746EA020646EA06464FEA164646EA75
:101470000106BCBF46EA0646360C4FF000034FF0AB
:1014800000024FF0000194E72DE9804C9A46934604
:1014900070B491E8380007C831EA400C48BF34EA1C
:1014A000430C03D5FFF7E6FDFFF780FFF0BCBDE876
:1014B000008C2DE9804C9A46934670B491E8380030
:1014C00007C810F0804F08BF13F0804F03D100F021
:1014D00005F8FFF76BFFF0BCBDE8008C20F07F47FC
:1014E00080EA030023F07F4C07EB0C03A3F57C5349
:1014F00000F00040A3F1FE0392F0000F00F0B38073
:1015000095F0000F00F077802DE901494FEA114076
:101510004FEA144621EA004800FB06FC24EA06478D
:1015200008FB06F607FB08F800FB07F718EB064870
:101530004CEB164C4FEA124B18EB07484FEA154696
:101540004CEB174022EA0B4E0BFB06FC25EA064744
:101550000EFB06F607FB0EFE0BFB07F71EEB064E17
:101560004CEB164C4FF000061EEB074E4CEB174BA6
:1015700018EB0B0840F1000018EB0E0B58EB0008BD
:1015800040F100008F1A4FF000013CBFC943661BB9
:1015900014BFB5EB040C00213CBFC943F61B4FEA56
:1015A00017444EEA8E0E27EA04454FEA1C4704FB17
:1015B00007622CEA074C05FB07F70CFB05F604FB5A
:1015C0000CFC16EB074642EB174216EB0C4642EBBF
:1015D0001C421BEB060658EB0202414146EA9E06FE
:1015E00001D5BDE80189B619524141EB0101A3F1D2
:1015F0000103BDE801894FEA14454FEA114724EA87
:10160000054621EA074C05FB07F406FB07F70CFB30
:1016100006F105FB0CFC11EB074144EB17444FEAC4
:10162000124711EB0C4144EB1C4422EA074C05FB2A
:1016300007F206FB07F70CFB06F605FB0CFC16EBA6
:10164000074642EB174216EB0C4642EB1C456A1864
:1016500054F1000148BF7047B619524141EB0101F6
:10166000A3F10103704795F0000F37D04FEA114204
:101670004FEA144721EA024624EA074C02FB07F12D
:1016800006FB07F70CFB06F402FB0CFC14EB07440B
:1016900041EB17414FEA154714EB0C4441EB1C4159
:1016A00025EA074C02FB07F506FB07F70CFB06F6DD
:1016B00002FB0CFC16EB074645EB174516EB0C46F8
:1016C00045EB1C42121951F1000148BF7047B61991
:1016D000524141EB0101A3F1010370474FEA144568
:1016E0004FEA114724EA054621EA074C05FB07F1BA
:1016F00006FB07F70CFB06F24FF0000605FB0CFC9F
:1017000012EB074241EB174112EB0C4251EB1C412B
:1017100048BF7047921841EB0101A3F101037047E4
:1017200001460822014802F0ABB8000044C2012083
:101730001CB51E2800D91E207E218DF80010042122
:101740008DF8011031218DF802108DF8030080F022
:1017500035008DF80400EF208DF805006846FFF78E
:10176000DFFF1CBDFEE70000014800F0B9B8000033
:10177000ACC00120014800F0B3B800000CC101204A
:1017800001681823CAB2103AB2FBF3F2054B6FF3AB
:101790000901032A9B5CC36500D9091D81650846C0
:1017A00070470000727E000810B5014600208B696A
:1017B0008A6A4FF0C07453B1B3F5005F15D072B1AF
:1017C000012A0CD0022A0AD0032A09D104E01AB156
:1017D000012A06D0022A03D1C96AC90100D5012015
:1017E00010BDC96AA142FAD010BD002AF7D0012A63
:1017F000F2D0022AF3D0032AF3D010BD30B504682A
:10180000256825F480252560046863608368402B83
:10181000036803D099600068C26030BD9A600068B8
:10182000C16030BD704772B6FEE72DE9F041044655
:10183000876D00F0D3FA054694F83500002602289B
:1018400006D08020606584F834600120BDE8F08116
:101850002068016821F0160101602068416921F0CB
:1018600080014161206C08B9A06C20B1206801683A
:1018700021F0080101602068016821F00101016088
:101880000CE000F0ABFA401B052807D9202060656A
:10189000032084F8350084F83460D7E720680068B6
:1018A000C007EED194F85C103F208840B86001205A
:1018B00084F8350084F834600020C7E790F83510CC
:1018C000022903D08021416501207047052180F85D
:1018D00035100068016821F00101016000207047A7
:1018E0002DE9F84304464FF00009CDF80090634815
:1018F0004FF41651A56D0068B0FBF1F72E6894F80F
:101900005C20082101FA02F030420FD02068026802
:1019100052070BD5026822F00402026094F85C00C2
:101920008140A960606D40F00100606594F85C1032
:101930004FF0010808FA01F0304208D021684969E7
:10194000090604D5A860606D40F00200606594F857
:101950005C1004208840304208D02168096889075B
:1019600004D5A860606D40F00400606594F85C10D8
:1019700010208840304218D021680968090714D522
:10198000A86020680168490304D50068000308D5F1
:10199000A16C07E00168C90503D4016821F00801C2
:1019A0000160216C09B12046884794F85C10202022
:1019B0008840304231D021680968C9062DD5A86019
:1019C00094F8350005282068016806D0490347D5FA
:1019D000006800031DD4616C1CE021F01601016059
:1019E0002068416921F080014161206C08B9A06C38
:1019F00020B12068016821F00801016094F85C10B2
:101A00003F208840A86084F8358084F83490216DA8
:101A10001FE0E16B09B120468847606D00282BD09C
:101A2000606DC00714D0052084F835002068016877
:101A300021F0010101600098401C0090B84203D8D9
:101A400020680068C007F6D184F8358084F83490A7
:101A5000E16C002910D001B02046BDE8F0430847F2
:101A60000168C905D5D4016821F01001016084F82E
:101A7000358084F83490CCE7BDE8F88304C00120B9
:101A80002DE9F041044600F0A9F905465CB10220B9
:101A900084F83500002684F834602068016821F05D
:101AA000010101600DE00120BDE8F08100F096F930
:101AB000401B052805D920206065032084F83500E7
:101AC000F2E720680068C007F0D121680A68204862
:101AD0000240D4E901031843D4E903352B431843EA
:101AE00063691843A3691843E3691843236A1843D9
:101AF0001043626A042A03D1D4E90B231A4310432A
:101B0000086020684069656A20F0070128460D4397
:101B1000012704280CD1A06A0543E06A40B12046A1
:101B2000FFF742FE20B14020606584F83570BAE7C7
:101B3000206845612046FFF723FE94F85C203F2192
:101B400091408160666584F835700020ACE7000044
:101B50003F8010F02DE9F0410446866D90F8340086
:101B6000002501280DD0012084F8340094F8357048
:101B70000020012F07D084F8340002252846BDE854
:101B8000F0810220FBE7022784F83570606520466B
:101B9000FFF734FE94F85C103F208840B060206866
:101BA000016841F016010160206C20B120680168D5
:101BB00041F0080101602068016841F00101016005
:101BC000DCE7000070B5044600F008F90546601C2B
:101BD00002D004480078044400F000F9401BA04201
:101BE000FAD370BD000000202DE9F84FDFF89C917A
:101BF0000022A9F1040B03274FF00F0C09F1040A8E
:101C0000ABF1040E01250B6895402B40AB426ED121
:101C10000C7904F00304012C01D0022C15D1866844
:101C2000540007FA04F826EA0806D1F80C8008FAEE
:101C300004F848EA0608C0F808804468AC430D7907
:101C4000C5F300159540254345600C79E443A4078E
:101C500008D0C568540007FA04F6B5438E68A6405C
:101C60002E43C6600C7904F00304022C11D1D40871
:101C700000EB8406356A5407E40E0CFA04F825EAF2
:101C80000805D1F8108008FA04F848EA0508C6F8F3
:101C900020800568540007FA04F6B5430E7906F073
:101CA0000306A6402E4306604C6814F4403F66D0FD
:101CB000374C256845F480452560246822F00305EB
:101CC00004F480440094334C05EB0408D8F8085819
:101CD0009407260F0CFA06F4A5432F4CA04201D11D
:101CE000002424E02D4CA04202D101241FE046E054
:101CF0002B4CA04201D1022419E02A4CA04201D170
:101D0000032414E0284CA04201D104240FE0274C06
:101D1000A04201D105240AE0254CA04201D10624AD
:101D200005E0244CA04201D1072400E00824B4407F
:101D30002C43C8F80848D9F800404D464E689C43EB
:101D4000F60200D51C432C60DAF8004055464E6878
:101D50009C43B60200D51C432C60DBF800405D4676
:101D60004E689C43B60300D51C432C60DEF800404F
:101D700075464E689C43F60300D51C432C60521CEC
:101D8000102AFFF43FAFBDE8F88F0000083C014087
:101D9000443802400030014000000240000402408C
:101DA00000080240000C02400010024000140240F3
:101DB00000180240001C02400069084000D00120C9
:101DC0007047426921EA02030A4043EA0241816105
:101DD00070470AB1816170470904FBE701488068D8
:101DE000704700000000002002488168027811441A
:101DF00081607047000000200B4810B5016841F475
:101E000000710160016841F480610160016841F482
:101E100080710160032000F06FF80F2000F006F8D9
:101E200000F024F8002010BD003C024070B50D4DBC
:101E300004464FF47A712878B1FBF0F00A4909683A
:101E4000B1FBF0F000F0F0FC48B9102C07D20022F2
:101E50002146501E00F030F800206C6070BD01205B
:101E600070BD00000000002004C001200A4808B531
:101E7000016841F480410160006800F480400090F6
:101E80000548001F016841F080510160006800F0C2
:101E90008050009008BD000044380240002809DB53
:101EA00000F01F02012191404009800000F1E02074
:101EB000C0F8001170470000F0B40E4B1B68C3F36C
:101EC0000223C3F10704042C00D904241D1D072D8F
:101ED00001D2002300E0DB1E012606FA04F56D1E88
:101EE0000D409D409E40761E164045EA0601F0BC1E
:101EF00002F07BBD0CED00E0064A00F0070110681F
:101F00004FF6FF03184040EA0120034908431060E0
:101F1000704700000CED00E00000FA052DE9F047E5
:101F20000D46040065D0DFF81491D9F80000EFB237
:101F300000F00700A84207D289F80070D9F8000025
:101F400000F00700A84254D120683D4E810712D509
:101F5000400703D5306840F4E05030602078000737
:101F600003D5306840F4604030603068A16820F0EC
:101F7000F000084330602078C0072DD030496068F9
:101F80000839012812D0022813D0032811D009687B
:101F9000890700292DDA316821F0030101433160FE
:101FA000FFF71CFF804641F2883A0EE0096889037A
:101FB000EFE709688901ECE7FFF710FFA0EB0801E4
:101FC000514502D90320BDE8F0873068616800F010
:101FD0000C00B0EB810FEFD1D9F80010484601F0AA
:101FE0000701A94207D90770006800F00700A8425E
:101FF00001D00120E7E72078400705D53068E16887
:1020000020F4E050084330602078000706D530689F
:10201000216920F4604040EAC100306000F038F8E7
:102020003168084AC1F30311515CC8400649086091
:1020300006480068FFF7FAFE0020C4E7003C0240B3
:10204000083802407A7E000804C001200400002005
:102050000448054900680968044AC1F38221515CBB
:10206000C840704704C00120083802408A7E00083A
:102070000448054900680968044AC1F34231515CCB
:10208000C840704704C00120083802408A7E00081A
:10209000154810B5006810F00C01144813D0144B0B
:1020A00004290FD008290ED10F4C241F216801F0FC
:1020B0003F022168490207D52068C0F38810A0FBC1
:1020C000030106E0184610BD2168C1F38811A1FB89
:1020D00000010023FEF7D9F82168C1F30141491C32
:1020E0004900B0FBF1F010BD083802400024F400B4
:1020F00040787D012DE9F84F040075D02078DFF895
:1021000038A3C007AAF1040548D00AF10400016809
:10211000C1F38101012908D00068C0F381000228C1
:102120000AD1DAF80000400206D52868800335D5C8
:1021300060680028E1D031E06068B0F5803F10D0E1
:10214000B0F5A02F286810D020F4803028602868CF
:1021500020F4802028606068A0B1FFF73FFE0646AB
:102160000CE0286840F48030F4E740F480202860D8
:10217000F7E7FFF733FE801B642871D828688003D7
:10218000F7D50BE0FFF72AFE064604E0FFF726FE30
:10219000801B6428F1D828688003F7D42078DFF802
:1021A0009C9280074FF0000B3DD5A348001D0168AD
:1021B00011F00C0F08D00068C0F3810002280AD18A
:1021C000DAF80000400206D42868800715D5E068D8
:1021D000012809D111E0E068B8B10120C9F8000078
:1021E000FFF7FCFD064605E022E1FFF7F7FD801B47
:1021F0000228C2D828688007F7D52868216920F00E
:10220000F80040EAC10028600DE0C9F800B0FFF70F
:10221000E5FD064604E0FFF7E1FD801B02281FD81C
:1022200028688007F7D42078000722D5824F844899
:102230006169703771B101210160FFF7CFFD06467A
:1022400004E0FFF7CBFD801B022809D8386880071F
:10225000F7D50EE0C0F800B0FFF7C0FD064605E078
:1022600082E0FFF7BBFD801B02287DD8386880071D
:10227000F7D42078400765D56F484FF000083C3010
:102280000068C0000BD46C483C30016841F08051BC
:10229000016000684FF0010800F080500090694F25
:1022A0003868C0050FD4386840F480703860FFF794
:1022B00095FD064604E0FFF791FD801B022853D8E8
:1022C0003868C005F7D55C4FA0686C3701280FD07F
:1022D0000528386810D020F001003860386820F0F8
:1022E00004003860A068B0B1FFF778FD06460EE044
:1022F000386840F00100F4E740F004003860F7E788
:10230000FFF76CFD811B41F28830814263D8386849
:102310008007F5D50DE0FFF761FD064606E0FFF703
:102320005DFD811B41F28830814254D838688007B6
:10233000F5D4B8F1000F05D03F483C30016821F0DA
:1023400080510160A069B8B33B49091D0968C1F318
:102350008101022946D00228584606D0C9F86000FB
:10236000FFF73CFD044639E035E04F46C9F8600010
:10237000FFF734FD064604E0FFF730FD801B02281E
:1023800029D828688001F7D4D4E907010843A16A55
:102390002D4A490802EB0141626A41EA8211084371
:1023A00094F82C1040EA0161CAF800100120386648
:1023B000FFF714FD044605E03CE0FFF70FFD001BAE
:1023C000022808D828688001F7D533E0FFF706FD1A
:1023D000001B022802D90320BDE8F88F286880017D
:1023E000F4D427E00128F7D0DAF80000E26900F41D
:1023F000800191421CD1226A00F03F01914217D125
:1024000047F6C071626A0140B1EB821F10D1A26A27
:102410004FF0FF3300F4403103EB5202B1EB024FB7
:1024200006D194F82C1000F07060B0EB016F01D071
:102430000120D1E70020CFE70438024000004742E6
:10244000800E4742007000400000FFFF704770B5EB
:10245000040009D0606A002540B125616561A5626C
:1024600094F8510040B10CE0012070BD6068B0F5F7
:10247000827FF4D0E561F2E784F85050204600F006
:1024800045F8022084F851002068016821F04001DD
:102490000160A088218900F4827001F4044108439E
:1024A000A18901F400610843217C01F00201084385
:1024B000217D01F001010843218B01F400710843E3
:1024C000217F01F03801084394F8201001F08001C9
:1024D0000843218D01F40051084321680860A06978
:1024E000042101EA104094F8241001F0100108437F
:1024F000216848602068C16921F40061C161656597
:10250000012084F85100002070BD00002DE9F04149
:1025100086B0044614216846FEF7C8F82B492068A7
:10252000884250D12A480025016841F48051016059
:10253000006800F48050059025481438016841F087
:10254000020101600068694600F002000590382031
:1025500000900220CDE9010503200390052004909E
:102560001C48FFF741FB1D4E1B484FF0C067306011
:10257000C6E901754FF48068C6E903587561B56115
:10258000F561356230467562FFF77AFA08B1FFF7F8
:102590004AF9E664B463114E0F4860364830E6E805
:1025A00002074020A6E821010C4846F81459603083
:1025B000B561F56135627562FFF762FA08B1FFF740
:1025C00032F9A664B46306B0BDE8F0810030014082
:1025D000443802400004024010640240ACC00120B4
:1025E0002DE9F84F044690F8500000261D4690460D
:1025F000894601280ED04FF0010B84F850B0FFF748
:10260000EDFB074694F851004146B246012804D03C
:10261000022694E00220BDE8F88FB9F1000F74D0D3
:10262000B8F1000F71D0032084F85100C4F854A011
:10263000C4F83090A4F83480A4F83680C4F838A0E8
:10264000A4F83CA0A4F83EA0C4F844A0C4F840A05C
:10265000A068B0F5004F09D12068026822F040025E
:1026600002602068026842F48042026020680268CA
:10267000520603D4026842F040020260E068B0F5FE
:10268000006F606803D028B3012923D03FE008B170
:1026900001291BD1206B21680088C86006E02068F2
:1026A0008168890709D5216B0988C160206B801C6E
:1026B0002063E08E401EE08608E0FFF78FFBC01B22
:1026C000A84202D3681C01D030E075B3E08E002828
:1026D000E5D11FE0206B21680078087306E02068D0
:1026E0008168890709D5216B09780173206B401C2B
:1026F0002063E08E401EE08609E0FFF76FFBC01B01
:10270000A84203D3681C02D010E017E06DB1E08E40
:102710000028E4D13A462946204601F0CBFB08B117
:1027200020206065A06818B106E0FFE7032606E0F8
:102730002068C16880680090606D00B1012684F84F
:1027400051B084F850A0304665E700002DE9F04113
:10275000044690F850000025012809D0012784F88C
:10276000507094F851000026012804D002254EE054
:102770000220BDE8F08189B182B1032084F85100C4
:1027800066652163A286E286A66366642664A687E0
:10279000E687A068B0F5004F02D00BE0012536E0D7
:1027A0002068016821F0400101602068016841F45F
:1027B00080410160A16C18480864A16C1748C86387
:1027C000A16C1748C864A06C0665E38E2268216B73
:1027D0000C32A06CFFF7BEF938B1606D40F010000C
:1027E0006065012584F8517011E020680168490690
:1027F00003D4016841F0400101602068416841F064
:10280000200141602068416841F00201416084F884
:1028100050602846ADE70000453E00084F3E0008E6
:10282000233E00087047704710B5401EB0F1807F0E
:1028300001D3012010BD4FF0E02460610F2160172B
:1028400002F0D3F80020A06107202061002010BD15
:102850007047704710B590F83C20012A22D0012221
:1028600080F83C20CA688C6822F4407222434C688D
:1028700022F4806222430C6822F4006222430C6935
:1028800022F4805222434C6922F400522243C96947
:10289000002322F480420A4301684A6480F83C30F5
:1028A000002010BD022010BD70B590F83C20012A18
:1028B00032D0012580F83C50022280F83D20026889
:1028C0005368946823F070060B6833435360134BCE
:1028D00002689A4214D0B2F1804F11D0104B9A4244
:1028E0000ED0104B9A420BD00F4B9A4208D00F4B90
:1028F0009A4205D00E4B9A4202D00E4B9A4204D116
:10290000496824F080031943916080F83D5000210C
:1029100080F83C10084670BD022070BD00000140E8
:102920000004004000080040000C0040000401408A
:10293000004001400018004010B5040003D094F896
:102940003D0010B107E0012010BD002084F83C00DC
:10295000204600F01FF8022084F83D00211D206869
:1029600001F040FD012084F8460084F83E0084F820
:102970003F0084F8400084F8410084F8420084F865
:10298000430084F8440084F8450084F83D000020AA
:1029900010BD000008B500681E4988420FD11E48CE
:1029A000016841F0010101600068002200F00100AF
:1029B000009002211820FFF77FFA182024E0164922
:1029C000164A091F90420ED1086840F004000860C2
:1029D0000868002200F00400009002211E20FFF78A
:1029E0006BFA1E2010E00E4A904211D1086840F0A8
:1029F000100008600868002200F0100000900F210D
:102A00003620FFF759FA3620BDE80840FFF746BAEE
:102A100008BD0000000001404438024000080040AA
:102A20000010004090F83D10012901D001207047AE
:102A3000022180F83D1000681149884214D0B0F19D
:102A4000804F11D00F4988420ED00F4988420BD0D9
:102A50000E49884208D00E49884205D00D49884267
:102A600002D00D49884204D1816801F0070106298E
:102A700003D0016841F001010160002070470000AF
:102A8000000001400004004000080040000C00402D
:102A900000040140004001400018004090F83D1043
:102AA000012901D001207047022180F83D10016802
:102AB000CA6842F00102CA6000681149884214D015
:102AC000B0F1804F11D00F4988420ED00E49884294
:102AD0000BD00E49884208D00D49884205D00D49D7
:102AE000884202D00C49884204D1816801F0070174
:102AF000062903D0016841F0010101600020704700
:102B0000000001400004004000080040000C0040AC
:102B100000040140004001400018004070B5044628
:102B200090F83C000025012817D0012684F83C606D
:102B3000022084F83D002068826822F0770222F4A7
:102B40007F4282600868502838D00DDC20284FD0A2
:102B500005DC90B3102811D14AE0022070BD302866
:102B600046D040280AD13BE060282FD070280DD0F5
:102B7000B0F5805F03D0B0F5005F12D0012584F876
:102B80003D60002084F83C00284670BDCB68D1E948
:102B90000121206801F097FC2068816841F07701ED
:102BA00009E0CB68D1E90121206801F08CFC2068A4
:102BB000816841F480418160E1E719E0CA684968B1
:102BC000206801F055FD5021206806E0CA68496878
:102BD000206801F05EFD6021206801F07EFCCEE7F8
:102BE000CA684968206801F043FD40212068F4E785
:102BF000226801461046F0E7704770B50446006849
:102C000001694FF00005C943890715D4C168C9435C
:102C1000890711D4E91E01610120207720688069AD
:102C20008007204602D0FFF7E7FF04E000F004F938
:102C3000204600F03DFB257720680169C94349071C
:102C400017D4C168C943490713D46FF00401016167
:102C5000022020772068806910F4407F204602D04F
:102C6000FFF7CAFF04E000F0E7F8204600F020FB81
:102C7000257720680169C943090716D4C168C9438B
:102C8000090712D46FF00801016104202077206841
:102C9000C0698007204602D0FFF7AEFF04E000F0D5
:102CA000CBF8204600F004FB257720680169C94372
:102CB000C90617D4C168C943C90613D46FF01001FF
:102CC0000161082020772068C06910F4407F204609
:102CD00002D0FFF791FF04E000F0AEF8204600F0CC
:102CE000E7FA257720680169C943C90708D1C16897
:102CF000C943C90704D1891E0161204600F0DAFAF0
:102D000020680169C943090609D4C168C943090695
:102D100005D46FF0800101612046FFF799FD20681E
:102D20000169C943490609D4C168C943490605D4A4
:102D30006FF040010161204600F0C6FA2068016989
:102D4000C94389060BD4C168C943890607D46FF00B
:102D5000200101612046BDE87040FFF77ABD70BDDB
:102D600010B586B0044614216846FDF79FFC206824
:102D7000174C002217490223A04211D1086840F0E5
:102D800010000860086800F01000059048150090D9
:102D9000CDE901320120CDE9032069460E4812E059
:102DA0000E4CA04211D1086840F00200086008688B
:102DB000694600F00200059040200090CDE9013204
:102DC0000748CDE90323FEF70FFF06B010BD000052
:102DD000000001403038024000100240000800406E
:102DE0000004024070B5044690F83C00002501281C
:102DF0000FD0012084F83C006AB1042A0FD0082AC1
:102E000011D00C2A13D00125002084F83C0028465C
:102E100070BD022070BD206801F068FBF4E72068F7
:102E200001F094FBF0E7206801F0C6FBECE72068B6
:102E300001F0F6FBE8E700002DE9FC5F00210091BE
:102E40009FED8A0A0191DFF828828DED000ADFEDFF
:102E5000890A046888488949B6EE000AD0E908A7BB
:102E600085690A78D0E904E1D0E9019B2B1D7F1C1C
:102E7000C669444576D1814C94F801C00CF1010C2F
:102E800084F801C094F801C0BCF1020F68D14FF082
:102E9000000884F80180D4F804C00CF1010CC4F8D7
:102EA00004C0042A01D002B14762042A58D2DFE8E4
:102EB00002F05002371DA168491CA16095ED001A6F
:102EC000C0EE811ACDED001A21EE800A8361BCEEBE
:102ED000C00A10EE101A6180416A594540DB714604
:102EE000002003F091FD0220207039E0A268521CFE
:102EF000A26095ED001AC0EE811ACDED001A21EE08
:102F0000800A8361BCEEC00A10EE102A6280426A19
:102F1000524525DB002003F077FD84F800801FE098
:102F2000A268521CA260564B93FBF9F200EE902A65
:102F3000F8EEE00ACDED000A20EE800ABCEEC00AF1
:102F400010EE102A6280426AB24209DB81610320DE
:102F5000CAE700214B4800F04DF90420C4E701E026
:102F6000484879E0DFF820C164457DD1434C94F8AE
:102F700001C00CF1010C84F801C094F801C0BCF14F
:102F8000020F68D14FF0000884F80180D4F804C023
:102F90000CF1010CC4F804C0042A01D002B147624C
:102FA000042A58D2DFE802F05002371DA168491CFC
:102FB000A16095ED001AC0EE811ACDED001A21EE48
:102FC000800A8361BCEEC00A10EE101A6180416A6B
:102FD000594540DB7146002003F016FD02202070A9
:102FE00039E0A268521CA26095ED001AC0EE811A69
:102FF000CDED001A21EE800A8361BCEEC00A10EE0E
:10300000102A6280426A524525DB002003F0FCFC56
:1030100084F800801FE0A268521CA260184A92FB4C
:10302000F9F200EE902AF8EEE00ACDED000A20EE6B
:10303000800ABCEEC00A10EE102A6280426AB242D8
:1030400009DB81610320CAE70021104800F0D2F8B3
:103050000420C4E708E00D480068416A00916288D6
:10306000114489B201914163BDE8FC9F000000005A
:10307000000001400024744944F1012010000020A8
:1030800040420F006CC1012000080040B4C1012083
:1030900010B5040003D094F83D0010B107E0012002
:1030A00010BD002084F83C00204600F01EF80220ED
:1030B00084F83D00211D206801F094F9012084F876
:1030C000460084F83E0084F83F0084F8400084F80D
:1030D000410084F8420084F8430084F8440084F8F6
:1030E000450084F83D00002010BD704730B504460F
:1030F000002549B104290AD008290BD094F84100D1
:1031000001280AD0012030BD94F83E00F8E794F879
:103110003F00F5E794F84000F2E7022071B104297E
:103120000FD0082910D084F8410081B1042913D0B0
:10313000082947D00C294AD0012541E084F83E00F7
:10314000F3E784F83F00F0E784F84000EDE72068FB
:10315000C26842F0020203E02068C26842F0040242
:10316000C2600122206801F0A1F91B4920681B4AB6
:10317000884201D0904203D1436C43F4004343643E
:103180002068884213D0B0F1804F10D01449884293
:103190000DD0144988420AD01349884207D0904282
:1031A00005D01249884202D01149884204D1816871
:1031B00001F00701062903D0016841F00101016017
:1031C000284630BD2068C26842F00802C8E720687F
:1031D000C26842F01002C3E7000001400004014051
:1031E0000004004000080040000C00400040014086
:1031F0000018004070B50D0004464FF0000607D0DF
:10320000042D0AD0082D3BD00C2D3ED0012635E0F0
:103210002068C16821F0020103E02068C16821F044
:103220000401C16000222946206801F03FF91E49CF
:1032300041F2111220689310884202D01B49884243
:1032400009D1016A114206D1016A194203D1416CC8
:1032500021F4004141642068016A114206D1016AEB
:10326000194203D1016821F00101016001208DB1F3
:10327000042D12D0082D13D084F84100304670BDC3
:103280002068C16821F00801CBE72068C16821F0FF
:103290001001C6E784F83E00F0E784F83F00EDE750
:1032A00084F84000EAE7000000000140000401400B
:1032B0007047000000680349884201D103F0D6BD81
:1032C00070470000001000407047704770470000D2
:1032D000F8B5016804460868CA684B6910F00F0F1A
:1032E0004FF0000559D003F0010602F49077374300
:1032F00065D0C10705D0D10503D5216C41F001018E
:103300002164410705D5D90703D0216C41F00201A2
:103310002164810705D5D90703D0216C41F0040150
:103320002164010707D502F02001314303D0216C4D
:1033300041F008012164216C00293AD0800604D5AF
:10334000900602D5204601F0F2F920684069216C10
:10335000C0F38010090700D460B3204601F0C0F923
:1033600020684069400621D52068143050E8001FCD
:1033700021F0400140E80012002AF5D1A06BA8B16D
:103380006C490165A06BFEF799FA002811D0A06B7B
:10339000016D01B0BDE8F040084783060FD59306E4
:1033A0000DD52046BDE8F84001F0C1B92046FFF731
:1033B0008DFFF8BD2046FFF789FF2564F8BD266B19
:1033C0002023012E79D1C60677D5D60675D5086893
:1033D000486800904869400640D5A16B086840687D
:1033E0000004000CEAD0A28D8242E7D9E085C869CA
:1033F000B0F5807F2DD020680C3050E8001F21F4FC
:10340000807140E80012002AF5D12068143050E89D
:10341000001F21F0010140E80012002AF5D12068C8
:10342000143050E8001F21F0400140E80012002A4B
:10343000F5D184F83E30256320680C3050E8001F39
:1034400021F0100140E80012002AF5D1A06BFEF730
:10345000ECF9A08DE18D401A81B229E0A08DE18DBB
:10346000401A81B2E08D0028A8D00029A6D020689B
:103470000C3050E8002F22F4907240E80026002E15
:10348000F5D12068143050E8002F22F0010240E806
:103490000026002EF5D184F83E30256320680C30DC
:1034A00050E8002F22F0100240E80023002BF5D155
:1034B0002046FFF70AFFF8BDFFE705062BD51506E6
:1034C00029D594F83D002128F5D1A068B0F5805F9A
:1034D00001D12069B0B1206A411C216221680078C5
:1034E0004860E08C401E0004000CE084E3D12068BA
:1034F000C16821F08001C1602068C16841F04001CD
:10350000C160D8E7206A0088C0F308004860206ADC
:10351000801C2062E5E74006CDD55006CBD5CA68B1
:10352000204622F04002CA6084F83D3000F0C7F91E
:10353000C1E70000D146000870B5040004D094F83B
:103540003D00002510B106E0012070BD84F83C501C
:10355000204600F023F8242084F83D002068C1684C
:1035600021F40051C160204601F042F92068016950
:1035700021F4904101612068416921F02A014161F3
:103580002068C16841F40051C1602564202084F89E
:103590003D0084F83E00002070BD0000F0B587B00B
:1035A000044614216846FDF781F85A49DFF860C1E6
:1035B00022680024574B1039022503260827564855
:1035C000624522D11A6842F400221A601A6802F495
:1035D000002205920A6842F004020A60096802AA01
:1035E00001F004010591B102CDE9001582E8D00097
:1035F0006946FEF7F9FA002211463420FEF75CFC1A
:103600003420FEF74BFC07B0F0BDDFF810C1624577
:1036100043D11A6842F480121A601A6802F48012C8
:1036200005920A6842F004020A600A6802F0040285
:1036300005920A6842F008020A60096802AA01F0CD
:10364000080105914FF48051CDE9001582E8D000C2
:103650006946FEF7C9FA0420CDE9000502AA6946C9
:1036600082E8D0002E48FEF7BFFA00220121352063
:10367000FEF722FC3520FEF711FC012229492A48D9
:1036800000F062F840222949294802F05EFE2848ED
:1036900002F067FE0028FAD0B5E726488242B2D190
:1036A0001C48001D026842F010020260006800F031
:1036B00010000590086840F0010008600868029456
:1036C00000F0010005904FF4C060CDE9000507202F
:1036D000CDE9036069461848FEF786FA00221146D4
:1036E0002520FEF7E9FB2520FEF7D8FB0E48012236
:1036F0001249443000F028F840221149114802F0E4
:1037000024FE104802F02DFE0028FAD07BE70000CE
:10371000004C004040380240000802400050004089
:10372000000C02400E00002088C2012004F101209C
:10373000F0F0012000100140000002401C000020B9
:1037400080F101206CF1012090F83E30202B0ED149
:1037500059B152B190F83C30012B08D0012380F8C8
:103760003C300023036301F0C9B8012070470220F8
:103770007047000010B5044600680F49884209D11F
:1037800001220E490E4802F047FE01220B490D4866
:10379000FFF7DAFF0C49206888420CD101220B495F
:1037A000074802F039FE07480122BDE810400749EA
:1037B0004430FFF7C9BF10BD005000400E0000208C
:1037C000F0F0012088C20120001001401C00002000
:1037D0002DE9F843044690F83D001F4615460E4675
:1037E00020284BD1C6B1BDB194F83C00012845D08A
:1037F000012084F83C004FF00008C4F840802120EC
:1038000084F83D00FEF7EAFAA5848146E584A068C5
:10381000B0F5805F03D004E00120BDE8F8832069A3
:1038200020B13546002684F83C800EE00025FAE7FA
:103830008021204601F07FF8A0B9ADB115F8010B49
:1038400021684860E08C401EE084E08C4B464FF0DD
:10385000000200970028EBD14FF04001204601F014
:103860006AF830B10320D8E736F8020BC0F308003D
:10387000E6E7202084F83D000020CEE70220CCE7D8
:1038800090F83D30202B18D1A9B1A2B190F83C306E
:10389000012B12D001628284C284002101642122A2
:1038A00080F83D2080F83C100068C16841F080013C
:1038B000C1600020704701207047022070477047A8
:1038C000FEE700000D4808B5016841F48001016081
:1038D0000068002200F48000009011463820FEF7B6
:1038E000EBFA3820FEF7DAFA002211463B20FEF709
:1038F000E3FABDE808403B20FEF7D0BA303802407A
:103900002DE9F04F87B014216846FCF7CFFE9448AC
:103910000025016841F010010160016801F010010B
:103920000591016841F004010160016801F00401A2
:103930000591016841F020010160016801F020015A
:103940000591016841F080010160016801F080018A
:103950000591016841F001010160016801F0010178
:103960000591016841F002010160016801F0020166
:103970000591016841F008010160016801F008014A
:103980000591016841F0400101600068012200F0EA
:10399000400005907C217348FEF71BFA012243F298
:1039A000C2717148FEF715FADFF8C0B100220C2190
:1039B0005846FEF70EFA4FF40047002239466A488F
:1039C000FEF707FA002281216648FEF702FA00227C
:1039D00039466748FEF7FDF94FF4A04801224146F9
:1039E0006448FEF7F6F9002239466348FEF7F1F91C
:1039F000002203215F48FEF7ECF94FF480590122C1
:103A000049465E48FEF7E5F94FF4804A00225146E8
:103A10005A48FEF7DEF901247C20CDE9000469460E
:103A20005048CDE90245FEF7DFF843F20200CDE948
:103A300000040226CDE9024669464B48FEF7D4F859
:103A400040F60800CDE90005694602944648FEF7B5
:103A5000CBF84FF4F860CDE9000469464248CDE95F
:103A60000245FEF7C1F80C208DE851006946584622
:103A70000396FEF7B9F8CDE9004569463E48029441
:103A8000FEF7B2F80096CDE9015469463848FEF7D2
:103A9000ABF800970395CDE9014669463248FEF739
:103AA000A3F8812003958DE8510069462D48FEF763
:103AB0009BF8E002CDE90005694602942948FEF72B
:103AC00093F800970395CDE9014669462848FEF72B
:103AD0008BF84FF41270CDE9000569460294254831
:103AE000FEF782F8CDE90084CDE902466946214817
:103AF000FEF77AF848F6C050CDE900056946029411
:103B00001E48FEF771F800970395CDE90146694616
:103B10001948FEF769F8032700970395CDE9014698
:103B200069461448FEF760F801AACDF8009082E8D3
:103B3000D00069461148FEF757F8CDF800A003956C
:103B4000CDE9014669460D48FEF74EF8CDE900651E
:103B5000694604480296FEF747F807B0BDE8F08FC3
:103B600030380240001002400014024000080240B9
:103B700000040240000C0240000002400018024015
:103B80000F4810B50D4901604FF48271416000216A
:103B900002228160C0E903121202C0E90512C1616C
:103BA0000162416281620A21C162FEF750FC002875
:103BB00003D0BDE81040FDF736BE10BD0030014017
:103BC00054C0012010B596B000240F9410941194A5
:103BD000129413941C2108A81494FCF767FD20216B
:103BE0006846FCF763FD2948274901605321C0E975
:103BF00001144FF6FF71C0E903148021C0E90541AB
:103C0000FEF79AFE08B1FDF70EFE4FF480500F90BC
:103C10000FA91E48FEF782FF08B1FDF704FE1B48FE
:103C2000FFF736FA08B1FDF7FEFD139413A9174804
:103C30001494FEF739FE08B1FDF7F5FD3020CDE90B
:103C400008040220CDE90A040C940D94002208A96E
:103C50000E480E94FFF7C6F808B1FDF7E4FD009496
:103C60004FF40050CDE90440029401940394694656
:103C700006480794FEF7EEFD08B1FDF7D4FD0348B2
:103C8000FFF76EF816B010BD000001406CC10120B6
:103C900010B58EB000240794089409940A940B94EC
:103CA0001C2168460C94FCF701FD1F481D4901606A
:103CB0005321C0E901144FF6FF71C0E903148021BC
:103CC0008161FEF739FE08B1FDF7ADFD4FF480507C
:103CD000079007A91448FEF721FF08B1FDF7A3FDDF
:103CE0001148FFF7D5F908B1FDF79DFD0B940BA91D
:103CF0000D480C94FEF7D8FD08B1FDF794FD302077
:103D0000CDE900040220029000226946049406488E
:103D1000FFF768F808B1FDF786FD0348FFF720F8C4
:103D20000EB010BD00080040B4C101201CB5002435
:103D30000F4800940D49019401605321C0E901141A
:103D400040F2E731C16080218161FEF7F5FD08B1E5
:103D5000FDF769FD0094694605480194FEF7A4FD4E
:103D6000002801D0FDF75FFD1CBD000000100040E1
:103D7000FCC101200C4810B50A4901604FF41651EE
:103D80004160002181600C22C160C0E904128161A0
:103D9000C161FFF7D1FB002803D0BDE81040FDF75B
:103DA00042BD10BD004C004044C201200C4810B57B
:103DB0000A4901604FF4E1314160002181600C2229
:103DC000C160C0E904128161C161FFF7B5FB002841
:103DD00003D0BDE81040FDF726BD10BD00500040E7
:103DE00088C201200C4810B50A4901604FF4E13146
:103DF0004160002181600C22C160C0E90412816130
:103E0000C161FFF799FB002803D0BDE81040FDF722
:103E10000ABD10BD00100140CCC20120FEE7FEE744
:103E2000704710B5806B01684A6822F003024A604F
:103E3000416D41F010014165012180F85110FEF7FC
:103E400005FB10BD10B5806BFEF7EDFC10BD38B55D
:103E50000546846BFDF7C2FF024628680068C0056E
:103E600023D42068416821F0200141602068416826
:103E700021F0020141606421204600F01BF818B1D6
:103E8000606D40F020006065A068002118B92068CE
:103E9000C26880680090E186012084F85100606D5E
:103EA00018B12046FEF7D2FA38BD2046FEF7BAFC1C
:103EB00038BD000038B504461248134D4FF47A73EC
:103EC0000068B0FBF5F0584300906068B0F5827F61
:103ED0000DD10B46009200228021204600F016F8FA
:103EE00070B1606D40F020006065032038BD00981F
:103EF00030B1401E009020688068C0430006F6D5AF
:103F0000002038BD04C0012000366E012DE9F843C1
:103F10001E46914688460446089DFDF75FFF401BFC
:103F2000351AFDF75BFF074625480068C0F3CB3024
:103F3000684338E0701C37D0FDF750FFC01BA84223
:103F400003D215B1009860B32CE02068416821F0DD
:103F5000E00141606068B0F5827F0BD1A068B0F5E8
:103F6000004F02D0B0F5806F04D12068016821F0C5
:103F700040010160A06AB0F5005F09D120680168C6
:103F800021F4005101602068016841F40051016092
:103F9000012084F85100002084F850000320BDE87F
:103FA000F8830025401E00902068816838EA0100EF
:103FB00004D000204845BDD10020F0E70120F9E7FA
:103FC00004C001202DE9F04107460021EF2340F213
:103FD0003F12084600F0C8F80E4E00220421304679
:103FE000FDF7F7FE00244FF448653A4629460A4893
:103FF000FCF732FB2946084800F028F9641CA4B2FB
:10400000302CF2D33046BDE8F04101220421FDF707
:10401000E0BE00000008024070E401201FB54FF42C
:1040200048614548FCF720FB1920FDF7CBFD434CC8
:10403000002201212046FDF7CCFE1920FDF7C2FD2C
:10404000012211462046FDF7C4FE3220FDF7BAFDDD
:104050003A2000F0DDF8652000F03EF9B22000F0D3
:10406000D7F837A0D0E90010CDE900100521684647
:1040700000F0ECF8042000F0B3F8B72000F0C8F826
:10408000352000F029F9BB2000F0C2F8192000F01B
:1040900023F9C02000F0BCF82C2000F01DF9C2204C
:1040A00000F0B6F8012000F017F9C32000F0B0F8D6
:1040B000122000F011F9C42000F0AAF8202000F02E
:1040C0000BF9C62000F0A4F80F2000F005F9D0206D
:1040D00000F09EF8A42000F0FFF8A12000F0FCF80A
:1040E000E02000F095F818A00FC88DE80F000E2111
:1040F000684600F0ABF8E12000F08AF816A00FC87F
:104100008DE80F000E21684600F0A0F8202000F096
:104110007FF8112000F07CF8132000F079F82920B6
:1041200000F076F83220FDF74DFD04B00020BDE828
:104130001040FFF747BF000070E40120000C024070
:104140000C0C003333000000D0040D11132B3F542E
:104150004C180D0B1F230000D0040C11132C3F44EE
:10416000512F1F1F202300002DE9F843DFF86C803A
:1041700016460D4607461C46002204214046FDF720
:1041800028FE2A2000F044F8380A8DF800008DF847
:104190000170300A8DF802008DF803600421684632
:1041A00000F054F82B2000F033F8280A8DF80000B6
:1041B0008DF80150200A8DF802008DF8034004218B
:1041C000684600F043F82C2000F022F84046BDE895
:1041D000F84301220421FDF7FCBD00000008024065
:1041E00010B50446362000F013F8052C0FD2DFE896
:1041F00004F0030507090500C02004E0A02002E048
:10420000002000E06020BDE8104000F065B810BD5F
:1042100031B50C4C002204212046FDF7DAFD0022C6
:1042200008212046FDF7D5FD4FF0FF3301226946F6
:104230000548FEF7D5F9012204212046FDF7C9FD06
:1042400038BD00000008024054C001202DE9F05F95
:10425000DFF878B00C460646002204215D46584639
:10426000FDF7B7FD012208212846FDF7B2FD4FF406
:10427000803A4FF6FF79DFF85880164F1DE054451D
:1042800001D3484600E0204685B2B8F80000A042BD
:104290000AD82A4631460F48FEF758FAB86C90F80B
:1042A00035100129FBD106E04FF0FF332A46314695
:1042B0000848FEF795F92E44641B002CDFD15846C0
:1042C000BDE8F05F01220421FDF783BD0008024034
:1042D00050C0012054C0012031B50C4C00220421F3
:1042E0002046FDF776FD012208212046FDF771FDED
:1042F0004FF0FF33012269460548FEF771F90122AC
:1043000004212046FDF765FD38BD0000000802408D
:1043100054C001207047FDF767BD000030B593B071
:1043200030216846FCF7C2F914210CA8FCF7BEF94D
:104330001D480025016841F080510160006800F0CF
:10434000805011901948016841F480410160006873
:10435000022400F48040119001200390102004906A
:10436000009406940820CDE90750A820CDE909045F
:1043700004200B906846FDF7BDFE08B172B6FEE75B
:104380000CA90F2081E831004FF4A0500F904FF49A
:104390008050109005210CA8FDF7C0FD002801D029
:1043A00072B6FEE713B030BD4038024000700040E6
:1043B0000248016841F470010160704788ED00E037
:1043C0000148FEF71ABC00006CC101200148FEF74D
:1043D00014BC0000B4C101200148FEF70EBC00006F
:1043E000FCC10120F0B50268254D264E264FDFF8AE
:1043F0009CC0274B4FF0804EA84209D0704507D093
:10440000B04205D0B84203D0604501D0984203D1F4
:1044100022F070044A682243A8421BD0704519D08C
:10442000B04217D0B84215D0604513D0984211D091
:10443000184CA0420ED0184CA0420BD0174CA042F2
:1044400008D0174CA04205D0164CA04202D0164C02
:10445000A04203D122F44074CA6822434C6922F07E
:104460008002224302608A68C2620A688262A842AD
:1044700001D0984201D10969016301214161F0BD78
:10448000000001400004004000080040000C004013
:104490000004014000400140004401400048014048
:1044A00000180040001C00400020004010B501F042
:1044B0001F010123046A8B409C430462036A8A4003
:1044C0001343036210BD10B5846842EA032224F44A
:1044D0007F440A432243826010BD826822F070024A
:1044E0000A4342F00701816070470000F0B5026A9C
:1044F00022F001020262026A43688469114E24F0CC
:1045000073050C68104F2C4322F002058A682A4379
:10451000B04201D0B84205D122F00805CA682A434A
:1045200022F00402B04201D0B84205D14D6923F413
:1045300040731D438B692B43436084614968416329
:104540000262F0BD0000014000040140F0B5026AC3
:1045500022F010020262026A436884690D6824F442
:10456000E64444EA05248D6822F0200242EA05125E
:104570000F4D104EA84201D0B04206D1CF6822F0B4
:10458000800242EA071222F04002A84201D0B04263
:1045900007D14D6923F4406343EA85038D6943EAFB
:1045A000850343608461496881630262F0BD000055
:1045B0000000014000040140F0B5026A22F480725C
:1045C0000262026A4368C46922F4007224F073052F
:1045D0000C68124E2C438D6842EA05220E4DA8420B
:1045E00001D0B04206D1CF6822F4006242EA07222D
:1045F00022F48062A84201D0B04207D14D6923F471
:10460000405343EA05138D6943EA05134360C461CF
:104610004968C1630262F0BD00000140000401402E
:1046200030B5026A22F480520262036A4268C469A9
:104630000D6824F4E64444EA05248D6823F400530D
:1046400043EA0533084DA84202D0084DA84204D1E0
:104650004D6922F4804242EA85124260C461496891
:104660000164036230BD000000000140000401400D
:1046700010B5046A036A23F001030362836923F01F
:10468000F00343EA021324F00A020A438361026240
:1046900010BD10B5036A23F0100303628469036A36
:1046A00024F4704444EA023223F0A00343EA0111E7
:1046B0008261016210BD00000148FEF709BE0000E2
:1046C00044C201200148FEF703BE000088C2012059
:1046D00010B5806B0021C185C184FEF7F7FD10BDC8
:1046E00001680C3151E8002F22F4907241E8002358
:1046F000002BF5D10168143151E8002F22F001029E
:1047000041E80023002BF5D1016B012909D1016893
:104710000C3151E8002F22F0100241E80023002B59
:10472000F5D1202180F83E1000210163704708B5C3
:1047300090F83E10222901D0022008BD81684FF474
:104740008053994201D1026922B1826A99421BD0F9
:1047500049B10AE00268816A5268C2F308020A801D
:10476000816A891C08E0016971B10168496801F03A
:104770007F011170816A491C8162C18D491E090443
:10478000090CC18503D019E001684968F1E70168A7
:10479000CA6822F02002CA600168CA6822F48072E6
:1047A000CA6001684A6922F001024A61202180F84A
:1047B0003E10016B012903D0FEF7DCFF002008BD8D
:1047C0000021016301680C3151E8002F22F0100232
:1047D00041E80023002BF5D101680A68D20602D512
:1047E0000A6849680091818DFEF76FFDE6E70000D9
:1047F00070B5044600680169E26821F44051114334
:104800000161A1682069E2690143606910430143C5
:104810002068C26849F20C639A430A43C260206868
:104820004169A26921F44071114341613149206815
:10483000884202D03049884202D1FDF719FC01E0DC
:10484000FDF706FCE2690023192164253226B2F542
:10485000004F626828D0A0FB0101930F9200FBF784
:1048600014FD0146B0FBF5F06FF01802504301EB68
:10487000800006EB0010B0FBF5F000F0F002B1FB99
:10488000F5F002EB0012B1FBF5F06FF0180358439E
:1048900001EB800006EB0010B0FBF5F000F00F001C
:1048A00021681044886070BDA0FB010192185B4133
:1048B000FBF7EBFC0146B0FBF5F00201B1FBF5F0B4
:1048C0006FF01803584301EB800006EBC000B0FB0B
:1048D000F5F000F0F80002EB4002B1FBF5F05843B0
:1048E00001EB800006EBC000B0FBF5F000F0070024
:1048F000D6E700000010014000140140816282856B
:10490000C28500210164222280F83E2080F83C10FC
:10491000016921B10168CA6842F48072CA60016805
:104920004A6942F001024A610068C16841F0200111
:10493000C160002070472DE9F0411E4617468846A9
:104940000446069D26E0681C24D025B1FDF746FAF2
:10495000801BA8421ED920680C3050E8001F21F4AB
:10496000D07140E80012002AF5D12068143050E8D8
:10497000001F21F0010140E80012002AF5D120209B
:1049800084F83D0084F83E00002084F83C000320B9
:10499000BDE8F0812068016838EA010004D00020F9
:1049A000B842D0D00020F3E70120F9E70148FEF734
:1049B0008FBC0000CCC20120FEE703B40198410087
:1049C000009850EAC12018BF04204A0D18BF40F0DB
:1049D000010040F2FF72B2EB515F08BF40F00200ED
:1049E000012808BF052002B070470907090E0028FA
:1049F00004DB00F1E02080F80014704700F00F00A5
:104A000000F1E02080F8141D704700000000000055
:104A10002DE9F04D2DED040B2DED0E8B96B0DDE95B
:104A20002550279CDDF890A025F0004624F0004892
:104A3000BAF1000F14BF0121002101EB4502FC492E
:104A400053184A1093422AD3002814BF012300238D
:104A500003EB44030B44F7498B4220D358EA00018F
:104A60009FEDF59B76D0DFF8D8B35D4503D1BAF161
:104A7000000F05D188E0BAF1000F08BF002100D077
:104A8000012101EB450111F5001F08D8002814BFD2
:104A90000121002101EB440111F5001F0BD99DED0F
:104AA000261B9DED240B16B0BDEC0E8B04B0BDE8AB
:104AB000F04D00F069BE0027002DBCBFE1498845DC
:104AC00021DAE1498845A8BF02271CDAC3451ADC70
:104AD000DE4901EB2851142908DDC1F1340220FA26
:104AE00002F101FA02F282420DD108E058B9C1F197
:104AF000140228FA02F101FA02F2424503D101F050
:104B00000101C1F1020756EA0A0124D1002C22DA80
:104B1000002D18BF022F01D0012F0AD00220FBF771
:104B200036FE16B0BDEC0E8B04B0BDE8F04D00F0C3
:104B300013BE0220FBF72BFE00F00EFE51EC100B13
:104B400002F0C4FA41EC100B16B0BDEC0E8B04B0B1
:104B5000BDE8F08D18E09FEDBEAB9FEDBF8B002848
:104B600071D1B848804522D105F1804010F5801000
:104B700008BFBAF1000F07D0B3450ADC002CA8BF6C
:104B80009DED260BE0DA0DE0B0EE490AF0EE690A81
:104B9000DAE7002C06DA9DED260B51EC100B02F043
:104BA00095FA6FE0AE48784490ED000BCCE7D8451D
:104BB0004DD1002C48DA2EB186423AD1BAF1000F1D
:104BC00042D126E0BAF1000F13D00220FBF7DFFD3F
:104BD00000F0F6FD8DED020B9DED240B8DED000B2D
:104BE00010EE900A039961F31E0003909DED020BF5
:104BF000AAE78DED02AB9DED240B1AEE901A10EE94
:104C0000900A8DED000B61F31E0003909DED020BE9
:104C10009AE78DED028B9DED240B18EE901A10EEA5
:104C2000900A8DED000B61F31E0003909DED020BC9
:104C30008AE709DA9DED240B51EC190B53EC102B8C
:104C400002F03EFB1EE020E09DED240B7CE7864257
:104C50001BDAB4F1804F0DD0A4F10050B0F1FF5039
:104C600013D1002D11DB9DED240B51EC100B01F045
:104C700087FF07E09DED240B53EC102B51EC100B3C
:104C800000F0C2BC41EC100B5EE79DED240B51EC33
:104C9000100B01F0E3F8BAF1000FCDE90E0142D19B
:104CA0009FED710B46B3A6F1E040B0F17F600CD0F0
:104CB0005E4538D1002D00DAA7B3022F0CBF0120CA
:104CC0004FF0FF3002F083FCDCE7002D01DD002C0B
:104CD0000DDA002D01DD002C1FDB002D16DA002C73
:104CE00014DB012F08BF9FED620B3FF42DAFB0EE38
:104CF0004A0AF0EE6A0A27E7022F18BF002D0CD0EF
:104D0000012F0AD1002DFFF61FAF06E0002DB8BF1E
:104D1000002C08DA012F3FF417AFB0EE480AF0EE8E
:104D2000680A11E71BE0012000EBE57050EA07017B
:104D300015D0791EB0EE498AF0EE698A084308BFA3
:104D40009FED4D8B4E480025804570DD4D494E4806
:104D5000884514DDB0420DDB002C19DB2FE001206B
:104D6000FBF715FD16B0BDEC0E8B04B0BDE8F04DA1
:104D700000F016BDB34502DC002C09DC1FE08642C2
:104D800002DA002C1BDA03E05E452BDD002C16DD79
:104D90000220FBF7FCFC00F013FD8DED020B53EC41
:104DA0001A2B51EC180B02F079FCCDE900010399A4
:104DB000019861F31E0003909DED020BC4E60220F2
:104DC000FBF7E5FC00F00CFD10EE901A18EE900ACF
:104DD0008DED020B8DED008B61F31E0003909DEDB8
:104DE000020BB1E69DED0E0B53EC192B51EC100BA1
:104DF00002F060FE9FED260BCDE9080153EC102B6D
:104E00009DED080B51EC100B02F048FC9FED221BAE
:104E100053EC112B02F076FD9DED081B53EC112B8A
:104E200002F03CFC9FED1E1B53EC112B3CE08CE090
:104E3000FFFF1F00FFFF0F00000000000000F03F19
:104E40000000F03F0000F07F0000404301FCFFFF46
:104E5000000000000000F07F0000000000000000E3
:104E60009E330000000000000000000000000080F1
:104E7000000000000000F0FF000000000000F0BF94
:104E80000000E0410000F043FFFFEF3F00000000A2
:104E9000000000000000D03F555555555555D53FF1
:104EA000000000000000E03F02F02CFD9DED080B2B
:104EB00041EC1A0B53EC102B51EC100B02F0EEFBF3
:104EC00053EC1A2B02F0EAFB41EC1A0B9FEDFE0BA0
:104ED00053EC102B9DED080B51EC100B02F0DEFB98
:104EE00041EC1B0B9FEDFA0B51EC1A0B53EC102B02
:104EF00002F0D4FB41EC1A0B9FEDF70B53EC102B97
:104F00009DED080B51EC100B02F0C8FB53EC1A2B73
:104F100002F0D0FD41EC1A0B51EC1B0B53EC1A2B99
:104F200002F012F90690CDE906519DED060B53EC07
:104F30001B2B51EC100B02F0BDFD53EC1A2B02F0B1
:104F4000E1FC41EC100B00F0A1B90020B6F5801F88
:104F50000EDA9FEDE30B53EC102B9DED0E0B51EC95
:104F6000100B02F09BFBCDE90E016FF034000E46F2
:104F700000EB2650A0F2FF37C6F31300DA4940F0E9
:104F80007F6646F040568842D8BF002408DDD749E6
:104F90008142C8BF012403DC0024A6F580167F1CD3
:104FA000D348784400EBC4000F9690ED00CB9DED04
:104FB0000E0B53EC1C2B51EC100B02F07BFD9DED06
:104FC0000E0B41EC1B0B53EC1C2B51EC100B02F0A5
:104FD000BBF841EC100B51EC190B53EC102B02F009
:104FE0006FF941EC1D0B51EC1B0B53EC1D2B02F028
:104FF00055FB41EC1A0BBF488DED10AB7844109572
:1050000090ED000B4FF0005040EA660000EB84404A
:105010008DED080B00F5002009909DED080B53EC79
:105020001C2B51EC100B02F045FD9DED0E1B53ECBB
:10503000112B02F067FC41EC100B53EC102B9DED93
:10504000100B51EC100B02F029FB9DED080B41EC0D
:105050001C0B53EC102B9DED100B51EC100B02F0C0
:105060001DFB53EC1B2B02F04DFC53EC1C2B02F0F0
:1050700021FD53EC1D2B02F011FB41EC1C0B53ECFA
:105080001A2B51EC1A0B02F009FB41EC1B0B9A484E
:105090000621B0EE4B0AF0EE6B0A784400F0E0FA1D
:1050A000B0EE401AF0EE601AB0EE41DAF0EE61DADE
:1050B00053EC1B2B51EC1B0B02F0F0FA53EC1D2BA5
:1050C00002F0ECFA9DED100B41EC1B0B53EC1A2B8C
:1050D00051EC100B02F038F853EC1C2B02F0DEFA06
:1050E00053EC1B2B02F030F89DED100B41EC1B0B29
:1050F00053EC102B51EC100B02F0D0FA41EC1D0BCD
:105100009FED7FEB53EC1E2B02F01EF853EC1B2B94
:1051100002F01AF80890CDE908519DED080B53EC08
:105120001E2B51EC100B02F0C5FC53EC1D2B02F0B2
:10513000C1FC53EC1B2B02F0E5FB9DED080B41EC91
:105140001D0B53EC102B9DED100B51EC100B02F0CE
:10515000A5FA41EC1B0B53EC1A2B51EC1D0B02F082
:105160009DFA9DED080B41EC1A0B53EC102B51EC02
:105170001C0B02F093FA53EC1A2B01F0E5FF41EC03
:105180001A0B51EC1B0B53EC1A2B01F0DDFF0C90AA
:10519000CDE90C519DED0C0B53EC1B2B51EC100B7E
:1051A00002F088FC53EC1A2B02F0ACFB41EC1B0B19
:1051B0009FED550B53EC102B9DED0C0B51EC100B90
:1051C00002F06CFA41EC1A0B9FED510B51EC1B0BEA
:1051D00053EC102B02F062FA41EC1B0B9FED4E0BCF
:1051E00053EC102B9DED0C0B51EC100B02F056FA0A
:1051F00053EC1B2B01F0A8FF41EC100B48487844FE
:1052000000EBC40090ED001B51EC100B53EC112B84
:1052100001F09AFF41EC1B0B384602F0D8F9CDE9BA
:10522000080153EC1B2B51EC1A0B01F08DFF41ECE4
:10523000100B3C48784400EBC40090ED00CB51ECDF
:10524000100B53EC1C2B01F07FFF9DED081B53EC62
:10525000112B01F079FF0690CDE906519DED080B69
:1052600053EC102B9DED060B51EC100B02F022FCC1
:1052700053EC1C2B02F01EFC53EC1A2B02F01AFC10
:1052800053EC1B2B02F03EFB41EC100B9DED261B5B
:1052900053EC102B8DED001B00959DED260B51EC72
:1052A000100B02F0FBF99DED000B41EC1A0B53ECD7
:1052B000102B9DED260B51EC100B02F0FBFB9DED2E
:1052C000061B53EC112B2FE0000000604715F73F41
:1052D000FE822B654715F73F44DF5DF80BAE543E69
:1052E00000000000000040438E9803007AB60B00D7
:1052F0001A2F0000482F0000522E0000000000006E
:105300000000000000000840000000E009C7EE3F78
:10531000FD033ADC09C7EE3FF5015B14E02F3EBE0A
:10532000DE2C0000982C000002F0B8F953EC1A2B88
:1053300001F00AFF9DED060B41EC1A0B53EC102B0C
:105340009DED000B51EC100B02F0A8F9CDE90C011A
:105350009DED0C0B51EC1A0B53EC102B01F0F4FEED
:10536000CDE902010C46AA498C422FDB611A0843A1
:1053700018D19DED0C0B53EC102B9DED020B51EC55
:10538000100B02F097FB41EC1B0B9FEDA30B51ECB4
:105390001A0B53EC102B01F0D7FE53EC1B2B02F031
:1053A0007BFA2DD20220FBF7F2F900F009FA10EE99
:1053B000901A18EE900A8DED020B8DED008B61F3C3
:1053C0001E0003909DED020BFFF7BEBB944A24F034
:1053D0000041914214D39349214408437FF4EFAC38
:1053E0009DED0C0B53EC102B9DED020B51EC100BB3
:1053F00002F060FB53EC1A2B02F04EFA7FF6DFACA2
:1054000024F000408849894A002601EB205182425D
:105410002BDA481C4FF4801121FA00F02044844A12
:10542000C0F30A517A44A1F2FF3192ED000B814A98
:105430008DED080BCA4020EA0202C0F3130040F4CD
:105440008010C1F1140120FA01F60992002CB8BFB6
:1054500076429DED080B53EC102B9DED0C0B51EC9F
:10546000100B02F027FBCDE90C019DED0C0B51EC6C
:105470001A0B53EC102B01F067FE9FED6F0B089099
:10548000CDE9085153EC102B9DED080B51EC100B9E
:1054900002F004F941EC1B0B9FED690B53EC102B50
:1054A0009DED080B51EC100B02F0F8F89DED0C0B84
:1054B00041EC1C0B53EC102B9DED080B51EC100B29
:1054C00002F0F8FA53EC1A2B02F01CFA9FED5E1B67
:1054D00053EC112B02F0E2F853EC1C2B01F034FEDC
:1054E00041EC1A0B51EC1B0B53EC1A2B01F02CFE68
:1054F000CDE902019DED020B53EC1B2B51EC100B7F
:1055000002F0D8FA53EC1A2B02F0FCF99DED020BD5
:1055100041EC1A0B53EC102B51EC100B02F0BEF8BF
:10552000CDE908014A489DED080B0521784400F0BB
:1055300097F89DED081B51EC100B53EC112B02F06A
:10554000ADF89DED021B53EC112B02F0DBF9CDE918
:1055500006019DED020B53EC1A2B51EC100B02F0DF
:105560009DF853EC1A2B01F0EFFD9FED3B0B41EC46
:105570001A0B53EC102B9DED060B51EC100B02F0A7
:1055800099FA9DED060B41EC1B0B53EC102B9DED96
:10559000020B51EC100B02F081F853EC1B2B01F0C5
:1055A0008FFE53EC1A2B02F085FA9DED021B53EC93
:1055B000112B02F07FFA53EC192B02F0A3F9CDE97D
:1055C000020101EB065001150029C8BF039015DC4C
:1055D0009DED020B324651EC100B02F004FCFFF77C
:1055E000ECF9042808BF00F0FBF832469DED020BF1
:1055F00051EC100B02F0F7FBCDE902019DED020B1F
:1056000051EC180B53EC102B02F048F8FFF73ABBA3
:105610000000904000000000FE822B654715973C7B
:1056200000CC904000346F3F01FCFFFF0000E03FE2
:10563000202B0000FFFF0F0000000000432EE63F7C
:10564000396CA80C615C20BEEF39FAFE422EE63FB1
:10565000F0290000000000000000000000000040F1
:1056600070B504462DED028B4D1E00EBC500B0EE6B
:10567000408AF0EE608A90ED000B35F0060017D0FE
:1056800053EC182B51EC100B02F008F841EC100B06
:105690006D1E04EBC50090ED001B51EC100B53EC9C
:1056A000112B01F051FD41EC100B35F00600E7D154
:1056B000022D36D0042D1CD0062D1CBFBDEC028B54
:1056C00070BD53EC182B51EC100B01F0E7FF94ED7B
:1056D0000A1B53EC112B01F037FD53EC182B01F092
:1056E000DDFF94ED081B53EC112B01F02DFD41EC77
:1056F000100B53EC182B51EC100B01F0CFFF94ED75
:10570000061B53EC112B01F01FFD53EC182B01F07D
:10571000C5FF94ED040B53EC102B01F015FD41EC8B
:10572000100B53EC182B51EC100B01F0B7FF94ED5C
:10573000021B53EC112B01F007FD53EC182B01F069
:10574000ADFF94ED001B53EC112B01F0FDFCBDEC03
:10575000028B41EC100B70BD9FED070B10B553ECA5
:10576000102B9FED070B51EC100B01F0A9FD41EC44
:10577000100B10BD00000000000000000000000041
:10578000000000000000F03F10B553EC112B51EC6D
:10579000100B01F0D9FC41EC100B10BD0000000013
:1057A0009FED050B10B553EC102B51EC100B01F0D5
:1057B00087FD41EC100B10BD000000000000000050
:1057C0009FED050B10B553EC102B51EC100B01F0B5
:1057D00065FF41EC100B10BD0000000000000070E0
:1057E0009FED050B10B553EC102B51EC100B01F095
:1057F00055FF41EC100B10BD000000000000001030
:10580000A3F5C041603902D10188012909D0A3F56F
:10581000C041623907D10088022804D102A0FAF7FA
:10582000ABBD03A0FBE77047CFC2D2BBD2B30A0027
:10583000C9CFD2BBD2B30A00F8B50025022A09D1DC
:10584000822901D0802905D104784F2C02D14478D7
:105850004B2C04D0832908D0812918D022E015A030
:10586000FAF78AFD4FF0FF30F8BD038885781C0AEF
:1058700044EA03239BB2002405E006193779075553
:10588000F7787770A41CB4EB450FF6D30AE00378E1
:105890004578002404E00619B6780655641CE4B285
:1058A000AC42F8D3044CA4680CB10095A04728463C
:1058B000F8BD00004F4B0A0038C0012030380A28DC
:1058C00001D20120704700207047000010B5024847
:1058D00000F026FDC0B210BDF0F0012008B5012196
:1058E000684600F0BDFF9DF8000008BD13B589B201
:1058F000684600F0BFFF1CBD7047704778B50023B5
:10590000051D12E031F81340260A46EA0424ADF8DA
:10591000004090F82440BDF800602C44268090F8A8
:105920002440A41C80F824405B1C9342EAD378BD39
:1059300003B54FF6FF720199914204D2012201A9E9
:10594000FFF7DCFF0CBD10F8243FA0F120021A4441
:1059500009BA11600178091D01700CBD70B51546BA
:10596000044690F82420001D10442A46FAF72FFE22
:1059700014F8240F2844207070BD00F075BB00009F
:105980002DE9F0474FF4C8622DED0A8B4FF4C86340
:105990004A433C2443434FF0000AA94D884207DDA7
:1059A00092FBF4F0286093FBF4F04FF0010A04E05E
:1059B00093FBF4F0286092FBF4F06860D5E90001F5
:1059C000F6EE009A014401EBD17160EE298AC0EB3A
:1059D000610000EE100AF0EE000A18EE900AB8EE30
:1059E000C00A20EE200A68EEA80A80EE201AB0EE67
:1059F000C19A02F049F941EC100B9FED921BFFF7A1
:105A000007F8B0EE40AAF0EE60AA19EE100A02F014
:105A10003BF953EC1A2B01F041FE9FED8C1B53EC2C
:105A2000112B01F04DFC2C6841EC1A0B00EE104AD2
:105A3000B8EEC00A20EE280A10EE100A02F024F98F
:105A400053EC1A2B01F080FB01F092FD07466868C9
:105A5000204400EE100AF8EEC00A00EE107AB8EE0C
:105A6000C00A10EEA80ABDEEC00A10EE101ACC193A
:105A7000E00700D0641CA1000020091D00F0D0FF49
:105A8000061E7DD0F1EE080A80EE890A10EE100A9B
:105A900002F0FAF841EC100B9FED6E1BFEF7B8FF19
:105AA00051EC100B01F01EFB08EE100A18EE100A64
:105AB00002F0EAF841EC100B9FED68ABB0EE4A1A29
:105AC000F0EE6A1AFEF7A4FF29EE29BAB0EE40CA3A
:105AD000F0EE60CA1BEE100A02F0D6F853EC1C2B55
